:020000040800F2
:10000000880B0020310200087D2200082B1A00080E
:10001000951E0008250700084B2900080000000075
:100020000000000000000000000000007926000829
:10003000F107000800000000D52400086727000829
:100040004B0200084B0200084B0200084B0200085C
:100050004B0200084B0200084B0200084B0200084C
:100060004B0200084B0200084B0200084B0200083C
:100070004B0200084B0200084B0200084B0200082C
:100080004B0200084B0200084B0200084B0200081C
:100090004B0200084B0200084B0200084B0200080C
:1000A0004B0200084B0200084B0200084B020008FC
:1000B0000D2800084B0200084B0200084B02000804
:1000C0004B0200084B0200084B0200084B020008DC
:1000D0004B0200084B0200084B0200084B020008CC
:1000E0004B0200084B0200084B0200084B020008BC
:1000F0004B0200084B0200084B0200084B020008AC
:100100004B0200084B0200084B0200084B0200089B
:100110004B0200084B0200084B0200084B0200088B
:100120004B0200084B0200084B0200084107000880
:100130004B0200084B0200084B0200084B0200086B
:100140004B0200084B0200084B0200084B0200085B
:100150004B0200084B0200084B0200084B0200084B
:100160004B0200084B0200084B0200084B0200083B
:100170004B0200084B0200084B0200080000000080
:100180004B0200084B02000800F002F800F040F8B3
:100190000AA090E8000C82448344AAF10107DA45E2
:1001A00001D100F035F8AFF2090EBAE80F0013F0F4
:1001B000010F18BFFB1A43F001031847E03000009D
:1001C00000310000103A24BF78C878C1FAD852072D
:1001D00024BF30C830C144BF04680C6070470000C1
:1001E0000023002400250026103A28BF78C1FBD840
:1001F000520728BF30C148BF0B6070471FB502F0DF
:100200001FFD9DE8030000F01FF91FBD10B510BDD4
:1002100000F09EF91146FFF7F1FF02F0C9FB00F074
:10022000BCF903B4FFF7F2FF03BC00F0EDF90000E6
:100230000948804709480047FEE7FEE7FEE7FEE77A
:10024000FEE7FEE7FEE7FEE7FEE7FEE704480549B6
:10025000054A064B70470000FD2700088901000889
:1002600088050020880B00208807002088070020D0
:1002700070B5064600F0CCF8056806F10B0020F0DA
:100280000704B4429CBF002070BD2B466A68BAB117
:100290001068A04210D304F1080188423CBF5068A6
:1002A000586007D35168101941601168091B01603B
:1002B00058601460101D70BD13465268002AE7D1C3
:1002C0002146284600F0ACF80028DED170BD53EA84
:1002D000020C00F069802DE9F04B4FF00006002B76
:1002E0001FBFB3FA83F503FA05F424FA05F65E405E
:1002F00012BF1643B2FA82F502FA05F4C5F12005E1
:100300001EBF22FA05FC44EA0C04203556EA044CD0
:100310004FEA144418BF641C4FF000084FF0000966
:10032000904271EB030C39D3002919BFB1FA81F760
:1003300001FA07F6B0FA80F700FA07F6C7F12007CE
:100340001EBF20FA07FC46EA0C062037B6FBF4FC79
:10035000A7EB0507103F07F01F0BCBF120060CFAA7
:100360000BFB2CFA06F644BFB3460026202FA4BF91
:100370005E464FF0000B5BEA060C08BF4FF0010B26
:1003800019EB0B09ABFB027C48EB0608C01B06FB14
:1003900002CC0BFB03CC71EB0C01C1E70B46024610
:1003A00041464846BDE8F08B13B54FF000004FF0D2
:1003B0000001AFF30080BDE81C4070474FF0000221
:1003C00000B5134694469646203922BFA0E80C504B
:1003D000A0E80C50B1F12001BFF4F7AF090728BF26
:1003E000A0E80C5048BF0CC05DF804EB890028BFA2
:1003F00040F8042B08BF704748BF20F8022B11F0CB
:10040000804F18BF00F8012B704770477047704746
:10041000004870472C0500207047704770477047B0
:1004200038B504460A4600206946AFF3008000282C
:1004300008BF38BD02460099204600F067F8012049
:1004400038BD012000F07CB8F8B5AFF30080054658
:1004500000200C46102000BF0646A819A0420DD966
:10046000324669460020AFF30080070008BF00F065
:1004700067F80098A04218BF0546C419FFF7C8FFE7
:1004800005600746F01D20F007004619284600F0D9
:100490000AF8B44208BFF8BDA21B31463868BDE86F
:1004A000F84000F033B800210160C0E90110704746
:1004B0001020704770B50446051FFFF7A9FF0068BC
:1004C000002C14BF446870BD002C18BFAC423CBF68
:1004D00020466468F8D301680A18AA4218BF45602C
:1004E00003D12A6805461144016028684119A142D8
:1004F0001CBF6C6070BD6168696021680844286039
:1005000070BD000000487047240500200346406885
:100510008C46002818BF88423CBF03464068F8D389
:1005200018681844884207D00CF1030020F0070037
:10053000001D411A521A0146081D0A60FFF7BABF92
:1005400010B500F039F8BDE8104000F02FB8704742
:100550007546FFF7D7FFAE4605006946534620F0C3
:100560000700854618B020B5FFF770FEBDE82040B3
:100570004FF000064FF000074FF000084FF0000B5F
:1005800021F00701AC46ACE8C009ACE8C009ACE812
:10059000C009ACE8C0098D46704710B50446AFF3FA
:1005A00000802046BDE81040FFF73BBE002801D088
:1005B00000F02AB87047000010B5012805D00021CE
:1005C00003A000F027F8012010BD09A1F8E7000002
:1005D00053494752544D454D3A204F7574206F662C
:1005E0002068656170206D656D6F72790000000094
:1005F0003A2048656170206D656D6F727920636F78
:10060000727275707465640001491820ABBEFEE714
:100610002600020070B505460C460A2000E06D1C5D
:1006200000F011F835B128780028F8D102E0641CF8
:1006300000F009F814B120780028F8D1BDE8704026
:100640000A20AFF3008008B569468DF8000003204A
:10065000ABBE08BD2DE9F0470746DDE908A91C46F9
:1006600015460E462420FFF703FE0346B9F10000AD
:100670004FF0000807D000F0F1F8C360186100895E
:10068000401C188103E001201881C3F81080802FDE
:1006900000D37F2738B21880402E00D33F2631B2D6
:1006A00042195980802A01D9C0F1800508199D801E
:1006B000402801DDC1F14004DC8083F80AA083F802
:1006C0000B80C3F80C80C3F81480C3F81880C3F8FB
:1006D0001C80A3F820801846BDE8F0872DE9F04182
:1006E00006000F480F4644680BD08046002554B9D9
:1006F0000C20FFF7BDFDC8F8040005804780C0E965
:100700000165BDE8F081A06808B10446FBE70C2054
:10071000FFF7AEFD05804780C0E90165A060F0E706
:1007200010000020FEE700000020044B4FF4806121
:1007300002461A54401C8842FBD370472401002013
:10074000014800F097B800007C00002001681823E1
:10075000CAB2103AB2FBF3F2054B6FF30901032A58
:100760009B5CC36500D9091D816508467047000080
:100770004A2C000810B5014600208B698A6A4FF0A8
:10078000C07453B1B3F5005F15D072B1012A0CD01B
:10079000022A0AD0032A09D104E01AB1012A06D09C
:1007A000022A03D1C96AC90100D5012010BDC96A56
:1007B000A142FAD010BD002AF7D0012AF2D0022AB5
:1007C000F3D0032AF3D010BD30B50468256825F4B2
:1007D00080252560046863608368402B036803D02C
:1007E00099600068C26030BD9A600068C16030BD29
:1007F00070472DE9F041002821D005888188448880
:10080000C08829448EB2204487B223463246194616
:10081000284601F02FF92A463B462146104601F0B2
:1008200029F93B462A461946304601F023F932465B
:1008300023463946BDE8F041104601F01BB9BDE83A
:10084000F08172B6FEE7002807D00189012904D0A3
:100850000169002901D00846F7E77047002807D052
:10086000C168002904D00A89012A01D00846F7E7A7
:10087000704700002DE9F84304464FF00009CDF819
:10088000009063484FF41651A56D0068B0FBF1F776
:100890002E6894F85C10082000FA01F131420FD064
:1008A00021680A6852070BD50A6822F004020A6020
:1008B00094F85C108840A860606D40F001006065AD
:1008C00094F85C104FF0010808FA01F0304208D0AB
:1008D00021684969090604D5A860606D40F00200EE
:1008E000606594F85C1004208840304208D021688C
:1008F0000968890704D5A860606D40F00400606550
:1009000094F85C1010208840304218D021680968A3
:10091000090714D5A86020680168490304D5006858
:10092000000308D5A16C07E00168C90503D401687C
:1009300021F008010160216C09B12046884794F834
:100940005C1020208840304231D021680968C906F7
:100950002DD5A86094F8350005282068016806D0D8
:10096000490347D5006800031DD4616C1CE021F0E9
:10097000160101602068416921F080014161206C0D
:1009800008B9A06C20B12068016821F0080101605D
:1009900094F85C103F208840A86084F8358084F883
:1009A0003490216D1FE0E16B09B120468847606DEE
:1009B00000282BD0606DC00714D0052084F83500C6
:1009C0002068016821F0010101600098401C00903E
:1009D000B84203D820680068C007F6D184F8358093
:1009E00084F83490E16C002910D001B02046BDE8B5
:1009F000F04308470168C905D5D4016821F010010A
:100A0000016084F8358084F83490CCE7BDE8F88341
:100A10000C0000202DE9F041044600F0B1F9064633
:100A20005CB1022084F83500002584F83450206839
:100A3000016821F0010101600DE00120BDE8F081B5
:100A400000F09EF9801B052805D920206065032051
:100A500084F83500F2E720680068C007F0D122680A
:100A6000116820480140D4E901031843D4E9033652
:100A70003343184363691843A3691843E369184370
:100A8000236A18430843616A042903D1D4E90B138C
:100A900019430843106020684069666A20F0070126
:100AA00030460E43012704280CD1A06A0643E06AB1
:100AB00040B12046FFF75EFE20B14020606584F81B
:100AC0003570BAE7206846612046FFF73FFE94F88C
:100AD0005C203F2191408160656584F8357000207D
:100AE000ACE700003F8010F02DE9F0410446866D30
:100AF00090F83400002501280DD0012084F834003E
:100B000094F835700020012F07D084F834000225B6
:100B10002846BDE8F0810220FBE7022784F8357003
:100B200060652046FFF750FE94F85C103F20884037
:100B3000B0602068016841F016010160206C20B1AE
:100B40002068016841F0080101602068016841F0F7
:100B500001010160DCE7000070B5044600F010F907
:100B60000546601C02D004480078044400F008F9EF
:100B7000401BA042FAD370BD000000202DE9F84FC1
:100B8000DFF8BCA10022012503264FF00F090AF16E
:100B9000040BAAF1040E00BF0B6805FA02F423400F
:100BA000A34270D10F7907F00307012F01D0022F64
:100BB00016D187684FEA420806FA08FC27EA0C07B4
:100BC000D1F80CC00CFA08FC4CEA070CC0F808C0BD
:100BD0004768A7430C79C4F3001494403C43446035
:100BE0000C79E443A4070AD0C4684FEA420C06FA21
:100BF0000CF7BC438F6807FA0CF72743C7600C79E2
:100C000004F00304022C12D1D40800EB840CDCF8AD
:100C100020405707FF0E09FA07F824EA0804D1F824
:100C2000108008FA07F848EA0408CCF82080046825
:100C30004FEA420C06FA0CF7BC430F7907F00307A2
:100C400007FA0CF7274307604C6814F4403F70D054
:100C50003C4C276847F480472760246822F003074C
:100C600004F480440094384C07EB040CDCF808488A
:100C700097074FEA177809FA08F7BC43334FB84291
:100C800002D1002724E054E0314FB84201D10127BE
:100C90001EE0304FB84201D1022719E02E4FB84272
:100CA00001D1032714E02D4FB84201D104270FE0F2
:100CB0002B4FB84201D105270AE02A4FB84201D193
:100CC000062705E0284FB84201D1072700E0082792
:100CD00007FA08F72743CCF80878DAF800405746B7
:100CE000D1F804C09C435FEACC2C00D51C433C6087
:100CF000DBF800405F46D1F804C09C435FEA8C2CCF
:100D000000D51C433C60DEF800407746D1F804C0B3
:100D10009C435FEA8C3C00D51C433C60084F083F75
:100D20003C68D1F804C09C435FEACC3C00D51C432E
:100D30003C60521C102AFFF42FAFBDE8F88F000072
:100D4000083C0140443802400030014000000240AD
:100D50000004024000080240000C02400010024063
:100D60000014024000180240001C024000690840C4
:100D700000D0012070470AB1816170470904FBE788
:100D80000148806870470000000000200248816828
:100D90000278114481607047000000200B4810B5B4
:100DA000016841F400710160016841F480610160F3
:100DB000016841F480710160032000F06FF80F209A
:100DC00000F006F800F024F8002010BD003C0240BE
:100DD00070B50D4D04464FF47A712878B1FBF0F0F0
:100DE0000A490968B1FBF0F000F00AFC48B9102C80
:100DF00007D200222146501E00F030F800206C601F
:100E000070BD012070BD0000000000200C0000201B
:100E10000A4808B5016841F480410160006800F4A7
:100E2000804000900548001F016841F0805101603A
:100E3000006800F08050009008BD00004438024077
:100E4000002809DB00F01F020121914040098000C9
:100E500000F1E020C0F8001170470000F0B40E4B24
:100E60001B680C46C3F30223C3F10705042D00D908
:100E70000425191D072901D2002300E0DB1E0126ED
:100E800006FA05F1491E214099409E40761E164003
:100E90003143F0BC01F05ABD0CED00E0064900F012
:100EA000070208684FF6FF03184040EA0220034A91
:100EB00010430860704700000CED00E00000FA05E8
:100EC0002DE9F0470E46050065D0DFF81481D8F80B
:100ED0000000F7B200F00700B04207D288F80070B7
:100EE000D8F8000000F00700B04254D128683D4C0B
:100EF000810712D5400703D5206840F4E0502060F8
:100F00002878000703D5206840F4604020602068FE
:100F1000A96820F0F000084320602878C0072DD091
:100F2000304968680839012812D0022813D00328F4
:100F300011D00968890700292DDA216821F0030101
:100F400001432160FFF71CFF814641F2883A0EE021
:100F500009688903EFE709688901ECE7FFF710FFEB
:100F6000A0EB0901514502D90320BDE8F0872068B4
:100F7000696800F00C00B0EB810FEFD1D8F80010D9
:100F8000404601F00701B14207D90770006800F040
:100F90000700B04201D00120E7E72878400705D5D7
:100FA0002068E96820F4E0500843206028780007B2
:100FB00006D52068296920F4604040EAC10020601D
:100FC00000F018F82168084AC1F30311515CC840C9
:100FD0000649086006480068FFF7FAFE0020C4E7EB
:100FE000003C024008380240522C00080C0000204F
:100FF00004000020154810B5006810F00C021448D9
:1010000013D01449042A0FD0082A0ED10F4C241FE4
:101010002268236802F03F025B0207D52068C0F314
:101020008810A0FB010106E0084610BD2168C1F34D
:101030008811A1FB00010023FFF749F92168C1F3E2
:101040000141491C4900B0FBF1F010BD08380240D5
:101050000024F40040787D012DE9F84F04006ED0A3
:101060002078DFF84C93C007A9F104054AD009F1B4
:1010700004000168C1F38101012908D00068C0F3B0
:10108000810002280AD1D9F80000400206D528685C
:10109000800337D560680028E1D033E06068B0F5A0
:1010A000803F10D0B0F5A02F286810D020F48030F9
:1010B0002860286820F4802028606068A8B1FFF7C5
:1010C0005FFE06460DE0286840F48030F4E740F407
:1010D00080202860F7E700BFFFF752FE801B6428DE
:1010E00073D828688003F7D50CE0FFF749FE064661
:1010F00005E000BFFFF744FE801B6428F0D8286895
:101100008003F7D42078DFF8AC8280074FF0000A24
:101110003ED5A748001D016811F00C0F08D00068EB
:10112000C0F3810002280BD1D9F80000400207D497
:101130002868800716D5E068012800D112E033E165
:10114000E068B8B10120C8F80000FFF719FE0646B4
:1011500005E000BFFFF714FE801B0228C0D82868F6
:101160008007F7D52868216920F0F80040EAC1001F
:1011700028600DE0C8F800A0FFF702FE064604E074
:10118000FFF7FEFD801B02281FD828688007F7D4D0
:101190002078000722D5864F87486169703771B182
:1011A00001210160FFF7ECFD064604E0FFF7E8FDD2
:1011B000801B022809D838688007F7D50EE0C0F8F0
:1011C00000A0FFF7DDFD064605E082E0FFF7D8FD51
:1011D000801B02287DD838688007F7D42078400724
:1011E00068D5DFF8CCB100270BF13C0BDBF8000031
:1011F000C0000BD4DBF8001041F08051CBF8001098
:10120000DBF80000012700F0805000906B4E306842
:10121000C00510D4306840F480703060FFF7B0FD36
:10122000009005E0FFF7ACFD0099401A022850D865
:101230003068C005F6D55E4EA0686C3601280FD028
:101240000528306810D020F001003060306820F0B0
:1012500004003060A068B8B1FFF792FD00900FE085
:10126000306840F00100F4E740F004003060F7E738
:10127000FFF786FD0099411A41F28830814266D815
:1012800030688007F4D50EE0FFF77AFD009007E0A4
:10129000FFF776FD0099411A41F28830814256D815
:1012A00030688007F4D42FB1DBF8001021F08051B2
:1012B000CBF80010A069C8B33D49091D0968C1F306
:1012C000810102294AD00228504607D0C8F86000A0
:1012D00000E03CE0FFF754FD04463BE04746C8F819
:1012E0006000FFF74DFD064605E000BFFFF748FD33
:1012F000801B02282BD828688001F7D4D4E9070185
:101300000843A16A2E4A490802EB0141626A41EA98
:101310008211084394F82C1040EA0161C9F80010CA
:1013200001203866FFF72CFD044606E03EE000BFD2
:10133000FFF726FD001B022809D828688001F7D591
:1013400034E000BFFFF71CFD001B022802D9032078
:10135000BDE8F88F28688001F4D427E00128F7D091
:10136000D9F80000E26900F4800191421CD1226AA0
:1013700000F03F01914217D147F6C071626A014007
:10138000B1EB821F10D1A26A4FF0FF3300F440315D
:1013900003EB5202B1EB024F06D194F82C1000F08F
:1013A0007060B0EB016F01D00120D1E70020CFE7E2
:1013B0000438024000004742800E4742007000405F
:1013C0000000FFFF704770B5040009D0606A002577
:1013D00040B125616561A56294F8510040B10CE00F
:1013E000012070BD6068B0F5827FF4D0E561F2E75E
:1013F00084F85050204600F045F8022084F851004F
:101400002068016821F040010160A088218900F472
:10141000827001F404410843A18901F4006108438A
:10142000217C01F002010843217D01F00101084304
:10143000218B01F400710843217F01F0380108433A
:1014400094F8201001F080010843218D01F400512F
:10145000084321680860A069042101EA104094F85B
:10146000241001F010010843216848602068C16918
:1014700021F40061C1616565012084F851000020FC
:1014800070BD000070B586B0064614216846FEF7B0
:1014900095FF1F493068884238D11E4800250168F1
:1014A00041F480510160006800F4805005901948B3
:1014B0001438016841F0010101600068694600F0DC
:1014C00001000590A02000900220CDE90105032035
:1014D0000390052004901048FFF750FB104C0F4874
:1014E00020604FF0C06060604020C4E90205000148
:1014F000C4E90405A561E561256220466562FFF740
:1015000089FA08B1FFF79DF9B464A66306B070BD0F
:10151000003001404438024000000240586402405C
:101520007C0000202DE9F041044690F85000002690
:10153000012809D0012784F8507094F85100002543
:10154000012804D002264EE00220BDE8F08189B1D6
:1015500082B1032084F8510065652163A286E2868A
:10156000A56365642564A587E587A068B0F5004F8D
:1015700002D00BE0012636E02068016821F040012E
:1015800001602068016841F480410160A16C184845
:101590000864A16C1748C863A16C1748C864A06CA4
:1015A0000565E38E2268216B0C32A06CFFF79CFA74
:1015B00038B1606D40F010006065012684F851700C
:1015C00011E020680168490603D4016841F0400138
:1015D00001602068416841F0200141602068416855
:1015E00041F00201416084F850503046ADE7000000
:1015F000F924000803250008D72400087047704725
:1016000010B5401EB0F1807F01D3012010BD4FF016
:10161000E02460610F21601701F098F90020A061BB
:1016200007202061002010BD7047704770B590F80A
:101630003C20012A32D0012480F83C40022280F86C
:101640003D2003685A689D6822F070060A6832439C
:101650005A60134B02689A4214D0B2F1804F11D0F5
:10166000104B9A420ED0104B9A420BD00F4B9A421D
:1016700008D00F4B9A4205D00E4B9A4202D00E4B27
:101680009A4204D1496825F080031943916080F89B
:101690003D40002180F83C10084670BD022070BD1E
:1016A000000001400004004000080040000C004021
:1016B00000040140004001400018004010B5040043
:1016C00003D094F83D0010B107E0012010BD0020C8
:1016D00084F83C00204600F01FF8022084F83D000A
:1016E000211D206801F098F8012084F8460084F854
:1016F0003E0084F83F0084F8400084F8410084F8FC
:10170000420084F8430084F8440084F8450084F8DB
:101710003D00002010BD000008B50068B0F1804F0A
:1017200012D10A48016841F00101016000680022FD
:1017300000F00100009011461C20FFF78FFBBDE870
:1017400008401C20FFF77CBB08BD00004038024069
:1017500090F83D10012901D001207047022180F846
:101760003D100168CA6842F00102CA600068114970
:10177000884214D0B0F1804F11D00F4988420ED06A
:101780000E4988420BD00E49884208D00D49884244
:1017900005D00D49884202D00C49884204D18168A5
:1017A00001F00701062903D0016841F00101016041
:1017B0000020704700000140000400400008004085
:1017C000000C0040000401400040014000180040AF
:1017D00070B5044690F83C000025012817D001267A
:1017E00084F83C60022084F83D002068826822F082
:1017F000770222F47F4282600868502838D00DDCDE
:1018000020284FD005DC90B3102811D14AE00220E7
:1018100070BD302846D040280AD13BE060282FD048
:1018200070280DD0B0F5805F03D0B0F5005F12D006
:10183000012584F83D60002084F83C00284670BDF6
:10184000CB68D1E90121206801F04AF8206881685D
:1018500041F0770109E0CB68D1E90121206801F06E
:101860003FF82068816841F480418160E1E719E038
:10187000CA684968206801F045F85021206806E0F0
:10188000CA684968206801F04EF86021206801F0BC
:1018900031F8CEE7CA684968206801F033F8402182
:1018A0002068F4E7226801461046F0E7704770B5FB
:1018B0000446006801694FF00005C943890715D443
:1018C000C168C943890711D4E91E0161012020774D
:1018D000206880698007204602D0FFF7E7FF04E018
:1018E00000F098F8204600F096F825772068016906
:1018F000C943490717D4C168C943490713D46FF0D6
:1019000004010161022020772068806910F4407F83
:10191000204602D0FFF7CAFF04E000F07BF8204623
:1019200000F079F8257720680169C943090716D4C2
:10193000C168C943090712D46FF00801016104208E
:1019400020772068C0698007204602D0FFF7AEFFED
:1019500004E000F05FF8204600F05DF8257720688D
:101960000169C943C90617D4C168C943C90613D45C
:101970006FF010010161082020772068C06910F421
:10198000407F204602D0FFF791FF04E000F042F8CC
:10199000204600F040F8257720680169C943C9074F
:1019A00008D1C168C943C90704D1891E0161204615
:1019B00000F032F820680169C943090609D4C168FA
:1019C000C943090605D46FF0800101612046FFF785
:1019D0002BFE20680169C943490609D4C168C9437F
:1019E000490605D46FF040010161204600F01CF863
:1019F00020680169C94389060BD4C168C9438906B7
:101A000007D46FF0200101612046BDE87040FFF768
:101A10000CBE70BD704770470249884201D100F08A
:101A2000A1BA7047DC0000207047FEE770B505469C
:101A300000F024FE0E4C2178884216D00120FFF7DA
:101A40008BF800F01BFE0146207881420DD06178B2
:101A5000491CC9B26170012904D900216170287044
:101A6000012070BD00F00AFE2070002070BD000053
:101A7000100000202DE9FE4F161ACDE900104FF09E
:101A800000085D1A47464FF0FF30002E02DD4FF090
:101A9000010102E003D14FF000018B4602E08346D2
:101AA000C6F10006002D02DD4FF0010002E003D177
:101AB0004FF00000824602E08246C5F10005AE42CA
:101AC00001DD344600E02C46601C4FF00009029016
:101AD00019E00098012281B2019880B201F096F8D5
:101AE000B0442F44A04504DD0198A8EB04085844F5
:101AF0000190A74203DD00983F1B5044009009F17C
:101B000001001FFA80F902998945E2DDBDE8FE8FE8
:101B1000002803D0002901D041618861704700008E
:101B2000094808B5016841F480010160006800229D
:101B300000F48000009011463B20FFF78FF9BDE8CC
:101B400008403B20FFF77CB9303802402DE9F041D6
:101B500086B014216846FEF731FC22480024016853
:101B600041F010010160016801F010010591016868
:101B700041F001010160016801F001010591016876
:101B800041F0040101600068174F00F00400059067
:101B9000012250213846FFF7EEF8DFF8508001228D
:101BA00010214046FFF7E7F8182001258DE83100A5
:101BB00069460F48FEF7E2FF50200326CDE90005F5
:101BC000CDE9024669463846FEF7D8FF1020CDE938
:101BD0000005CDE9024669464046FEF7CFFF06B054
:101BE000BDE8F081303802400000024000080240A9
:101BF000001002400F4810B50D4901604FF482718A
:101C0000416000218160C1604FF400720161C0E950
:101C10000512C1610162416281620A21C162FFF75E
:101C2000D2FB002803D0BDE81040FEF70ABE10BD6D
:101C3000003001402400002010B586B00024174871
:101C4000009401940294039404944FF0804105940D
:101C5000016040F2CF21C0E901146321C0E90314FF
:101C600080218161FFF72AFD08B1FEF7EAFD4FF4FC
:101C70008050009069460948FFF7AAFD08B1FEF7B9
:101C8000E0FD049404A905480594FFF7CFFC002863
:101C900001D0FEF7D6FD06B010BD0000DC0000202C
:101CA0002DE9FC4100270124CDE900471023202223
:101CB00039462C20FEF7CEFC644D102318222860F4
:101CC000CDE9004019463020FEF7C4FC28681023F7
:101CD000CDE90040182220213020FEF7BBFC286807
:101CE0001023CDE90040182200213020FEF7B2FC7D
:101CF00028681023CDE90040182219463020FEF74D
:101D0000A9FC286852490122C161002100F0AAF90A
:101D10005049C16102220021286800F0A3F94E4910
:101D2000C16103220021286800F09CF94B49C16180
:101D300004220021286800F095F94949C161022276
:101D40000021286800F08EF9C472286800F096F827
:101D5000CDE900471023082200213820FEF77AFC45
:101D60000646CDE900461023082219463820FEF722
:101D700071FCCDE900461023082220213820FEF70F
:101D800069FCCDE90046102308222F217620FEF7BA
:101D900061FCCDE900760021102308220846FEF7F9
:101DA00059FC3048F06101220021304600F05AF918
:101DB0002D49C16102220021304600F053F92B4920
:101DC000C16103220021304600F04CF92849C1616D
:101DD00004220021304600F045F92649C161012264
:101DE0000021304600F03EF94FF4FA71FEF776FC20
:101DF00004220021304600F035F96421FEF76EFC24
:101E0000304600F03BF831462868FFF781FE032298
:101E10000021304600F026F9B1694161CDE9004763
:101E20001023182200213820FEF714FC0446124823
:101E3000E0612146F068FFF76BFE00221146204664
:101E400000F010F9A1694161BDE8FC811800002093
:101E5000F5290008092A0008292A0008492A00084B
:101E6000692A0008892A0008A92A0008452B0008C9
:101E7000652B0008852B0008C12B000800B5020067
:101E800007D0FEF7E0FC03461046FEF7E7FCC36010
:101E9000186100BDFEE700002DE9FF5F9346039C3B
:101EA000204600F09FFD02460021084606E0635CE4
:101EB0007F2B01D9891C00E0491C401C9142F6D3BC
:101EC00000F0FF0A00202BE002461C48039900F0B6
:101ED00007FC10B300244000A0F10209184909EBE7
:101EE000D40001EB0017002504F00700012686400E
:101EF000785D304209D00098B8B101980BEB04022C
:101F000041190123009800F0F5F86D1CEDB2102D79
:101F1000EED3641CE4B2102CE0D308F10100C0B28F
:101F200080465045D0D3BDE8FF9F01980BEB0401DC
:101F30002844012200F06AFEE7E70000543200085E
:101F400059320008002809D0002305E039B1806922
:101F5000002803D05B1C9BB29342F7D370474069C3
:101F6000F6E700002DE9F041234ED6E90154002C9C
:101F70003FD0002D3DD0B07800283AD106F10C07B3
:101F80003879012835D02089012805D0206918B179
:101F9000C17A09B90446F6E722466868FEF753FCA1
:101FA0000346B068FEF74FFC83421FD16B68198966
:101FB0001089884208D0D068C0B1D27AB2B90289FB
:101FC000012A13D00246F3E72888401C80B22880FB
:101FD000698888420AD3002028804FF00108A3F8BE
:101FE00020806868C169884787F80480AD68002D43
:101FF000D2D1BDE8F0810000100000202DE9FE43A1
:10200000814690460D461E46184600F0EBFC002423
:10201000074602941DE0305D7F280FD98DF8080037
:10202000301902AB40788DF80900424629464846EF
:10203000FFF732FF1035EDB2A41C0AE0CDE90080B5
:102040002B46064A0649484600F078F80835EDB2B6
:10205000641CBC42DFD3BDE8FE830000622C000894
:10206000642C0008002809D0002305E039B100697C
:10207000002803D05B1C9BB29342F7D37047C06823
:10208000F6E7000070B51A48FFF7D0FC184E0A3684
:10209000A6F10C0520B1A87810B10120307102E042
:1020A0003079002823D000F0FDFAAC68ACB120896B
:1020B000012805D0206918B1C17A09B90446F6E7AC
:1020C000E16909B120468847E06830B1E17A21B979
:1020D0000189012901D00446F2E7A868FEF789FBCF
:1020E00000F044FCFEF720FB00203071A87070BDAA
:1020F00012000020F0B404880C4425B24488802DDE
:10210000144424B217DA402C15DA002D13DB002C0E
:1021100011DBB0F904608E420DDBB0F9060090428D
:1021200009DB002907DB002A05DBA1B2A8B2F0BC5D
:102130001A4600F06BBDF0BC704700002DE9FF5F50
:102140009A46DDE90EB0203889461778567800F0B7
:10215000FF0800242FE0002529E000BF06EB8600E1
:10216000C0F39C010A22B1FBF2F002FB1010002820
:102170004FEAD60000D0401C18FB07F14843E108A5
:1021800017FB010109EB0500085C04F00701C840DA
:1021900010F0010F09D0009888B104EB0B0205EB99
:1021A0000A0101230098FFF7A5FF6D1CEDB2BD42A7
:1021B000D4D3641CE4B2B442CDD3BDE8FF9F04EB9A
:1021C0000B0105EB0A00012200F020FDEDE72DE9EF
:1021D000FC471D46DDE90A741646884681460BE039
:1021E000CDE900702B46324641464846FFF7A6FF30
:1021F0003078641C2844C5B220780028F0D1BDE8AE
:10220000FC872DE9FF4F83B00026DDE910951F46BE
:1022100090468B463446DDF848A02AE0281B401E35
:102220000A22C1B2012000E05043491EC9B2FBD2CC
:10223000BAFBF0F00A21B0FBF1F201FB120026B963
:10224000691E8C4201DA28B101263030C0B2CDE9D6
:10225000009002E02021CDE9009198F8000010FBE9
:102260000470C3B2424659460398FFF767FF641CE7
:10227000E4B2AC42D2D307B0BDE8F08FFEE7F0B5D0
:102280000446002901DA4A4200E00A4696B20028D4
:102290000CD00025CF0F0CE001223946FFF752FE8B
:1022A00018B1817A012904D101E02046F0BD6D1CEE
:1022B000ADB2B542F0D3F0BDF0B50446002901DA65
:1022C0004A4200E00A4696B200280CD00025CF0F03
:1022D0000CE001223946FFF7C5FE18B1817A0129C9
:1022E00004D101E02046F0BD6D1CADB2B542F0D383
:1022F000F0BD70B5002404F1B000C0B2002100F0C0
:10230000C3F80021084600F0BFF80021102000F0BB
:10231000BBF800250121002000F0B6F86D1CEDB2DD
:10232000802DF7D3641CE4B2082CE4D370BD000008
:1023300010B5494C012240212046FEF71CFD6420C7
:10234000FEF70AFC002240212046FEF714FD64201F
:10235000FEF702FC012240212046FEF70CFD002181
:10236000AE2000F091F80021084600F08DF8002121
:10237000102000F089F80021402000F085F80021AD
:10238000812000F081F80021CF2000F07DF80021AD
:10239000A12000F079F80021C82000F075F8002194
:1023A000A62000F071F80021A82000F06DF80021AF
:1023B0003F2000F069F80021D32000F065F80021EB
:1023C000084600F061F80021D52000F05DF80021FA
:1023D000802000F059F80021D92000F055F80021A4
:1023E000F12000F051F80021DA2000F04DF8002132
:1023F000122000F049F80021DB2000F045F8002110
:10240000402000F041F80021202000F03DF800219C
:10241000022000F039F800218D2000F035F800216D
:10242000142000F031F80021A42000F02DF8002144
:10243000A62000F029F80021AF2000F025F80021A7
:10244000AF2000F021F8FFF754FF0021BDE8104055
:10245000084600F003B800000000024010B5044632
:10246000B031C8B2002100F00FF8102040EA14107B
:10247000002100F009F804F00F00BDE8104040F022
:1024800001000021AFF3008073B50F4C09B10122A8
:1024900000E0002210212046FEF76DFC0B4D0022CB
:1024A00010212846FEF767FC012269460848FFF71D
:1024B00039F8012210212846FEF75DFC0122102187
:1024C0002046FEF758FC7CBD000802400000024098
:1024D00024000020704710B5806B01684A6822F024
:1024E00003024A60416D41F010014165012180F80D
:1024F0005110FEF767FF10BD10B5806BFFF77FF836
:1025000010BD38B50546846BFEF73AFC02462868D4
:102510000068C00523D42068416821F02001416093
:102520002068416821F0020141606421204600F0EA
:102530001BF818B1606D40F020006065A0680021B4
:1025400018B92068C26880680090E186012084F88C
:102550005100606D18B12046FEF734FF38BD2046AB
:10256000FFF74CF838BD000038B504461248134B4D
:102570000068B0FBF3F04FF47A7358430090606842
:10258000B0F5827F0DD10B460092002280212046BB
:1025900000F016F870B1606D40F020006065032017
:1025A00038BD009830B1401E009020688068C0435C
:1025B0000006F6D5002038BD0C00002000366E0164
:1025C0002DE9F8431E46914688460446089DFEF7CD
:1025D000D7FB401B351AFEF7D3FB0746254800689A
:1025E000C0F3CB30684338E0701C37D0FEF7C8FB2F
:1025F000C01BA84203D215B1009860B32CE020683C
:10260000416821F0E00141606068B0F5827F0BD144
:10261000A068B0F5004F02D0B0F5806F04D12068FB
:10262000016821F040010160A06AB0F5005F09D1A6
:102630002068016821F4005101602068016841F4BC
:1026400000510160012084F85100002084F85000FE
:102650000320BDE8F8830025401E009020688168B3
:1026600038EA010004D000214945BDD10020F0E73F
:102670000121F9E70C0000207047000010B5084C5C
:1026800010212046FEF772FB30B108212046FEF7EC
:102690006DFB18B1002010BD022010BD032010BD3D
:1026A0000010024010B50D4CA07801280CD0022873
:1026B0000DD0032810D1A068416909B10021A17093
:1026C0000121FFF7DCFD06E04FF0FF3100E00121C2
:1026D000A068FFF7F1FDA06010BD00001000002011
:1026E0002DE9F041054614460E46084600F07AF9F9
:1026F0000746284600F076F90021034608468C4636
:10270000BC422ED26BB367B3621C0AE0775C7F2FAA
:1027100005D9891CA04203D14FF0010C00E0491CEF
:10272000401C9042F2D300221046314417E0521C64
:102730002C5CBCF1000F05D011F8026CB44208D13A
:102740002C18647811F8016CB44202D1D0B2BDE803
:10275000F0812C5C7F2C01D9801C00E0401C9A4247
:10276000E5D30020F3E7FEF711BB000030B593B0CE
:1027700030216846FDF722FE14210CA8FDF71EFE4D
:102780001C480024016841F080510160006800F09D
:10279000805011901848016841F480410160006840
:1027A000022500F480401190012003901020049035
:1027B000009506950820CDE907404820CDE9090598
:1027C00004200B906846FEF747FC08B172B6FEE79E
:1027D0000F20CDE90C054FF48050CDE90E400221C9
:1027E0000CA81094FEF76CFB002801D072B6FEE72F
:1027F00013B030BD4038024000700040024801680C
:1028000041F470010160704788ED00E00148FFF776
:102810004EB80000DC000020F0B50268254C264DC3
:10282000264E274F274B4FF0804CA04209D06045E1
:1028300007D0A84205D0B04203D0B84201D0984298
:1028400004D122F0700E4A6842EA0E02A0421BD068
:10285000604519D0A84217D0B04215D0B84213D065
:10286000984211D0184DA8420ED0184DA8420BD056
:10287000174DA84208D0174DA84205D0164DA842C2
:1028800002D0164DA84203D122F44075CA682A43EB
:102890004D6922F080022A4302608A68C2620A6897
:1028A0008262A04201D0984201D1096901630121ED
:1028B0004161F0BD000001400004004000080040FC
:1028C000000C004000040140004001400044014071
:1028D0000048014000180040001C0040002000405B
:1028E00010B5846842EA032224F47F440A43224359
:1028F000826010BD826822F070020A4342F0070134
:102900008160704710B5036A046A24F00104046210
:10291000846924F0F00444EA021423F00A020A4312
:102920008461026210BD10B5036A23F010030362D4
:102930008369046A23F4704343EA023224F0A0035B
:1029400043EA01118261016210BDFEE70907090E29
:10295000002804DB00F1E02080F80014704700F04C
:102960000F0000F1E02080F8141D70472DE9F041C0
:1029700000240D4E0D4F11E0E1B20020FFF76EFD77
:102980005FF0000505EBC4100121305CFFF77CFD12
:102990006D1CADB2802DF5D3641CA4B27888A04222
:1029A000EAD8BDE8F0810000240100201C000020CE
:1029B000FEF7F4F9FFF7DAFEFFF7C8F8FFF7B0F813
:1029C000FFF718F9FFF738F9FFF7B2FCFFF768F9DE
:1029D0000348FEF7BDFE00BFFFF754FBFCE7000015
:1029E000DC0000200146002000E0401C0A5C002AB8
:1029F000FBD17047002202A31146FFF7FFBA000087
:102A0000D7CCC9FA000000001CB505A20021CDE911
:102A10000012044A0B46911CFFF7D9FB1CBD0000B5
:102A2000315F3200622C00081CB505A20021CDE9FF
:102A30000012044A0B46911CFFF7C9FB1CBD0000A5
:102A4000315F3300622C00081CB505A20021CDE9DE
:102A50000012044A0B46911CFFF7B9FB1CBD000095
:102A6000315F3400622C00081CB505A20021CDE9BD
:102A70000012044A0B46911CFFF7A9FB1CBD000085
:102A8000315F3500622C00081CB505A20021CDE99C
:102A90000012044A0B46911CFFF799FB1CBD000075
:102AA0002B000000622C0008FEB505464FF0FF31F8
:102AB000FFF702FC1F4E204F204C3168884207D19F
:102AC0003878032804D12078092801D2401C2070CE
:102AD00001212846FFF7F0FB3168884206D138789B
:102AE000032803D1207808B1401E2070298C0020D3
:102AF000012908D128842178491CC9B221700929EB
:102B000001D9207004E02178042901D9012100E0D5
:102B10000021082202EBC101A98021780122CDE920
:102B20000002074A02910023911C2846FFF769FB27
:102B3000FEBD00001800002012000020220000202E
:102B4000622C00081CB505A20021CDE90012044A40
:102B50000B46911CFFF73BFB1CBD00002D00000045
:102B6000622C00081CB505A20021CDE90012044A20
:102B70000B46911CFFF72BFB1CBD00003C00000026
:102B8000622C00080EB5038C00220B49012B07D1E3
:102B900002844B785B1CDBB24B70092B00D94A7066
:102BA000497800920123CDE90131044A0023911CA8
:102BB000FFF727FB0EBD000022000020622C00085A
:102BC0001CB5044600200CA10C4ACDE900010346C7
:102BD000911C2046FFF7FBFAA07809A11830C0B27B
:102BE000CDE900012078054A1038C3B2911C0020BD
:102BF000FFF7EDFA1CBD0000335F3100622C0008C6
:102C00004E6F7468696E67212100000010B57F283F
:102C100012D2402910D2C1F3C703C0B200EBC310D7
:102C200001F00704054B0121A140002A1A5C01D0E4
:102C30000A4300E08A431A5410BD0000240100201A
:102C40004FF04070E1EE100A7047000610160006C3
:102C50001016000000000000000001020304060737
:102C6000080908100000000000000000000000003B
:102C700000000000000000F8000000000000003329
:102C80003000000000100C06100C060000000000D0
:102C90000000000040C07840C0784000043F0404B9
:102CA0003F040400007088FC08300000001820FF7A
:102CB000211E0000F008F000E018000000211C03B5
:102CC0001E211E0000F00888700000001E21232431
:102CD0001927211010160E0000000000000000004F
:102CE00000000000000000E01804020000000007DF
:102CF0001820400000020418E000000000402018E6
:102D000007000000404080F0804040000202010FB8
:102D100001020200000000F0000000000101011F9C
:102D200001010100000000000000000080B0700000
:102D30000000000000000000000000000001010190
:102D4000010101010000000000000000003030001F
:102D500000000000000000008060180400601806F9
:102D60000100000000E010080810E000000F102033
:102D700020100F00001010F8000000000020203F7D
:102D80002020000000700808088870000030282407
:102D900022213000003008888848300000182020A8
:102DA00020110E000000C02010F8000000070424CD
:102DB000243F240000F80888880808000019212012
:102DC00020110E0000E0108888180000000F11206C
:102DD00020110E0000380808C83808000000003F25
:102DE000000000000070880808887000001C222184
:102DF00021221C0000E010080810E0000000312231
:102E000022110F00000000C0C000000000000030D0
:102E10003000000000000080000000000000806022
:102E200000000000000080402010080000010204A3
:102E3000081020004040404040404000040404048A
:102E40000404040000081020408000000020100846
:102E500004020100007048080808F000000000307B
:102E600036010000C030C828E810E0000718272409
:102E700023140B000000C038E0000000203C2302B7
:102E80000227382008F8888888700000203F20201A
:102E900020110E00C030080808083800071820204C
:102EA0002010080008F808080810E000203F202043
:102EB00020100F0008F88888E8081000203F202024
:102EC0002320180008F88888E8081000203F200018
:102ED00003000000C0300808083800000718202050
:102EE000221E020008F808000008F808203F21010F
:102EF00001213F20000808F8080800000020203FBA
:102F00002020000000000808F8080800C080808029
:102F10007F00000008F888C028180800203F200122
:102F20002638200008F8080000000000203F20207C
:102F30002020300008F8F800F8F80800203F003F93
:102F4000003F200008F830C00008F808203F2000AB
:102F500007183F00E01008080810E0000F102020BC
:102F600020100F0008F808080808F000203F210191
:102F700001010000E01008080810E0000F182424E8
:102F800038504F0008F8888888887000203F20005B
:102F9000030C302000708808080838000038202111
:102FA00021221C00180808F8080818000000203F1B
:102FB0002000000008F808000008F808001F202082
:102FC00020201F000878880000C838080000073853
:102FD0000E010000F80800F80008F800033C0700A4
:102FE000073C0300081868808068180820302C030C
:102FF000032C30200838C800C83808000000203FE3
:103000002000000010080808C838080020382621D1
:1030100020201800000000FE020202000000007FD5
:1030200040404000000C30C00000000000000001E3
:103030000638C00000020202FE00000000404040CE
:103040007F000000000004020202040000000000F3
:103050000000000000000000000000008080808070
:103060008080808000020204000000000000000058
:1030700000000000000080808080000000192422F1
:1030800022223F2008F8008080000000003F11202D
:1030900020110E000000008080800000000E112032
:1030A00020201100000000808088F800000E112010
:1030B00020103F200000808080800000001F22221E
:1030C00022221300008080F0888888180020203F8A
:1030D000202000000000808080808000006B94949D
:1030E0009493600008F8008080800000203F210059
:1030F00000203F2000809898000000000020203F22
:1031000020200000000000809898000000C080800F
:10311000807F000008F8000080808000203F2402AB
:103120002D302000000808F8000000000020203F9B
:10313000202000008080808080808000203F200050
:103140003F20003F8080008080800000203F2100E1
:1031500000203F200000808080800000001F202091
:1031600020201F00808000808000000080FFA120C0
:1031700020110E000000008080808000000E1120D1
:1031800020A0FF80808080008080800020203F2160
:103190002000010000008080808080000033242413
:1031A00024241900008080E0808000000000001FBF
:1031B000202000008080000000808000001F202070
:1031C00020103F20808080000080808000010E3031
:1031D0000806010080800080008080800F300C0392
:1031E0000C300F0000808000808080000020312E95
:1031F0000E312000808080000080808080818E7071
:103200001806010000808080808080000021302C22
:103210002221300000000000807C0202000000003B
:10322000003F404000000000FF00000000000000E0
:10323000FF0000000002027C800000000040403FD0
:10324000000000000006010102020404000000006A
:1032500000000000D7CCC9FA001060028C0008C83A
:10326000398E0808CC3B88080004047E0100635AAC
:1032700046E100635A46E100008040301E10101005
:10328000FF10101010101000004040424242424215
:103290007F4242424242404000000000BC320008EF
:1032A0000000002024000000C4010008E0320008F3
:1032B00024000020640B0000E00100080100000071
:1032C00010000000000000000024F40000000000D6
:1032D0000000000000000000800008000100000065
:040000050800018965
:00000001FF
