:020000040800F2
:10000000500C00203102000891270008CF1F000883
:10001000C5220008910800086B30000800000000AD
:100020000000000000000000000000008D2B000810
:100030005D09000800000000E92900086F2E000893
:100040004B0200084B0200084B0200084B0200085C
:100050004B0200084B0200084B0200084B0200084C
:100060004B0200084B0200084B0200084B0200083C
:100070004B0200084B0200084B0200084B0200082C
:100080004B0200084B0200084B0200084B0200081C
:100090004B0200084B0200084B0200084B0200080C
:1000A0004B0200084B0200084B0200084B020008FC
:1000B000152F00084B0200084B0200084B020008F5
:1000C0004B0200084B0200084B0200084B020008DC
:1000D0004B0200084B0200084B0200084B020008CC
:1000E0004B0200084B0200084B0200084B020008BC
:1000F0004B0200084B0200084B0200084B020008AC
:100100004B0200084B0200084B0200084B0200089B
:100110004B0200084B0200084B0200084B0200088B
:100120004B0200084B0200084B020008AD08000813
:100130004B0200084B0200084B0200084B0200086B
:100140004B0200084B0200084B0200084B0200085B
:100150004B0200084B0200084B0200084B0200084B
:100160004B0200084B0200084B0200084B0200083B
:100170004B0200084B0200084B0200080000000080
:100180004B0200084B02000800F002F800F040F8B3
:100190000AA090E8000C82448344AAF10107DA45E2
:1001A00001D100F035F8AFF2090EBAE80F0013F0F4
:1001B000010F18BFFB1A43F001031847383900003C
:1001C00058390000103A24BF78C878C1FAD85207CD
:1001D00024BF30C830C144BF04680C6070470000C1
:1001E0000023002400250026103A28BF78C1FBD840
:1001F000520728BF30C148BF0B6070471FB503F0DE
:100200002DF89DE8030000F01FF91FBD10B510BDCB
:1002100000F09EF91146FFF7F1FF02F059FF00F0E0
:10022000BCF903B4FFF7F2FF03BC00F0EDF90000E6
:100230000948804709480047FEE7FEE7FEE7FEE77A
:10024000FEE7FEE7FEE7FEE7FEE7FEE704480549B6
:10025000054A064B70470000052F00088901000879
:1002600050060020500C00205008002050080020AC
:1002700070B5064600F0CCF8056806F10B0020F0DA
:100280000704B4429CBF002070BD2B466A68BAB117
:100290001068A04210D304F1080188423CBF5068A6
:1002A000586007D35168101941601168091B01603B
:1002B00058601460101D70BD13465268002AE7D1C3
:1002C0002146284600F0ACF80028DED170BD53EA84
:1002D000020C00F069802DE9F04B4FF00006002B76
:1002E0001FBFB3FA83F503FA05F424FA05F65E405E
:1002F00012BF1643B2FA82F502FA05F4C5F12005E1
:100300001EBF22FA05FC44EA0C04203556EA044CD0
:100310004FEA144418BF641C4FF000084FF0000966
:10032000904271EB030C39D3002919BFB1FA81F760
:1003300001FA07F6B0FA80F700FA07F6C7F12007CE
:100340001EBF20FA07FC46EA0C062037B6FBF4FC79
:10035000A7EB0507103F07F01F0BCBF120060CFAA7
:100360000BFB2CFA06F644BFB3460026202FA4BF91
:100370005E464FF0000B5BEA060C08BF4FF0010B26
:1003800019EB0B09ABFB027C48EB0608C01B06FB14
:1003900002CC0BFB03CC71EB0C01C1E70B46024610
:1003A00041464846BDE8F08B13B54FF000004FF0D2
:1003B0000001AFF30080BDE81C4070474FF0000221
:1003C00000B5134694469646203922BFA0E80C504B
:1003D000A0E80C50B1F12001BFF4F7AF090728BF26
:1003E000A0E80C5048BF0CC05DF804EB890028BFA2
:1003F00040F8042B08BF704748BF20F8022B11F0CB
:10040000804F18BF00F8012B704770477047704746
:1004100000487047F40500207047704770477047E8
:1004200038B504460A4600206946AFF3008000282C
:1004300008BF38BD02460099204600F067F8012049
:1004400038BD012000F07CB8F8B5AFF30080054658
:1004500000200C46102000BF0646A819A0420DD966
:10046000324669460020AFF30080070008BF00F065
:1004700067F80098A04218BF0546C419FFF7C8FFE7
:1004800005600746F01D20F007004619284600F0D9
:100490000AF8B44208BFF8BDA21B31463868BDE86F
:1004A000F84000F033B800210160C0E90110704746
:1004B0001020704770B50446051FFFF7A9FF0068BC
:1004C000002C14BF446870BD002C18BFAC423CBF68
:1004D00020466468F8D301680A18AA4218BF45602C
:1004E00003D12A6805461144016028684119A142D8
:1004F0001CBF6C6070BD6168696021680844286039
:1005000070BD000000487047EC05002003464068BD
:100510008C46002818BF88423CBF03464068F8D389
:1005200018681844884207D00CF1030020F0070037
:10053000001D411A521A0146081D0A60FFF7BABF92
:1005400010B500F039F8BDE8104000F02FB8704742
:100550007546FFF7D7FFAE4605006946534620F0C3
:100560000700854618B020B5FFF770FEBDE82040B3
:100570004FF000064FF000074FF000084FF0000B5F
:1005800021F00701AC46ACE8C009ACE8C009ACE812
:10059000C009ACE8C0098D46704710B50446AFF3FA
:1005A00000802046BDE81040FFF73BBE002801D088
:1005B00000F02AB87047000010B5012805D00021CE
:1005C00003A000F027F8012010BD09A1F8E7000002
:1005D00053494752544D454D3A204F7574206F662C
:1005E0002068656170206D656D6F72790000000094
:1005F0003A2048656170206D656D6F727920636F78
:10060000727275707465640001491820ABBEFEE714
:100610002600020070B505460C460A2000E06D1C5D
:1006200000F011F835B128780028F8D102E0641CF8
:1006300000F009F814B120780028F8D1BDE8704026
:100640000A20AFF3008008B569468DF8000003204A
:10065000ABBE08BD10B50146806B026C12F0500FA6
:1006600005D0026CD20626D500F0B4FA10BD016C9C
:1006700041F40071016401688A6812F0405F17D18B
:10068000027EAAB9CA6A12F4700F02D08A685205B3
:100690000ED44A6822F020024A60016C21F4807175
:1006A0000164016CC90403D4016C41F001010164CF
:1006B00000F08EFA10BD806BC26CBDE81040084699
:1006C000104710B5806B40210164416C41F004017A
:1006D000416400F07FFA10BD10B5806B00F079FA2C
:1006E00010BD0000464910B54A6822F440324A6005
:1006F0004A6843681A434A6001684A6822F4807273
:100700004A6001684A68036942EA03224A60016854
:100710004A6822F040724A6001684A6883681A4356
:100720004A6001688A6822F400628A6001688A6807
:10073000C3681A438A60816A6FF07062D1420168AF
:100740008A6822F070628A6001688A680CD0836AC5
:100750001A438A6001688A6822F040528A60016800
:100760008A68C36A1A4301E022F040528A60016835
:100770008A6822F002028A6001688A68037E42EA7F
:1007800043028A6090F82010002901684A680FD05F
:1007900042F400624A6001684A6822F460424A609A
:1007A00001684A68174C436A04EB43331A4301E07B
:1007B00022F400624A600168CA6A22F47002CA62C6
:1007C0000168CA6A838B104C04EB03531A43CA6254
:1007D00001688A6822F400728A6001688A6890F869
:1007E000303042EA43228A6001688A6822F48062DB
:1007F0008A6001688A68406942EA8020886010BD8A
:100800000023014000E0FFFF0000F0FF2DE9F0476A
:100810000746DDE908A51E4691468846282001F0D6
:1008200069FE041E1ED0002345B1284600F01FF9C2
:10083000C46020610089401C208102E001202081E9
:1008400023612780A4F80280A4F80490E68084F84D
:100850000AA0E372E3606361A361E361A384E384BC
:1008600020462362BDE8F08770B50E4604000ED026
:10087000F00709D01546042001F03CFE206218B1B3
:1008800000210180206A4580A08C3043A08470BD87
:10089000FEE700000020044B4FF4806102461A542A
:1008A000401C8842FBD37047EC010020014800F057
:1008B000B3BA00004401002001681823CAB2103AFC
:1008C000B2FBF3F2054B6FF30901032A9B5CC3658E
:1008D00000D9091D8165084670470000663200088E
:1008E00010B5014600208B698A6A4FF0C07453B17D
:1008F000B3F5005F15D072B1012A0CD0022A0AD0DC
:10090000032A09D104E01AB1012A06D0022A03D130
:10091000C96AC90100D5012010BDC96AA142FAD037
:1009200010BD002AF7D0012AF2D0022AF3D0032A00
:10093000F3D010BD30B50468256825F48025256006
:10094000046863608368402B036803D09960006883
:10095000C26030BD9A600068C16030BD70472DE94B
:10096000FE4F161ACDE900104FF000085D1A4746F9
:100970004FF0FF30002E02DD4FF0010102E003D105
:100980004FF000018B4602E08346C6F10006002DC1
:1009900002DD4FF0010002E003D14FF0000082467B
:1009A00002E08246C5F10005AE4201DD344600E0BA
:1009B0002C46601C4FF00009029019E000980122BB
:1009C00001B2019800B202F029FCB0442F44A045C6
:1009D00004DD0198A8EB040858440190A74203DD08
:1009E00000983F1B5044009009F101001FFA80F964
:1009F00002998945E2DDBDE8FE8F2DE9F04100282E
:100A000029D08188002926D0C288002A23D00588D1
:100A100040886B1E1944431ED41803B20AB228B290
:100A20001F46164619460546FFF799FF23B22A4688
:100A30001C4639461046FFF792FF23462A461946C0
:100A40003046FFF78CFF32463B462146BDE8F04179
:100A50001046FFF784BFBDE8F08172B6FEE70028BC
:100A600004D00189012901D00069FAE77047002804
:100A700007D0C168002904D00A89012A01D008469C
:100A8000F7E7704778B50024009490F83C20012ADD
:100A900019D0012280F83C200A6807230568092A3A
:100AA00013D9EE680A3A02EB420293409E43EE608D
:100AB0000B788A680A3B03EB43039A400368DD68BE
:100AC0002A43DA6010E0022078BD2E6902EB420270
:100AD00093409E432E610B788A6803EB43039A4050
:100AE00003681D692A431A614A681F23072A13D223
:100AF00005686E6B521E02EB820293409E436E634A
:100B00000B790A885B1E92B203EB83039A40036859
:100B10005D6B2A435A6327E005680D2A12D22E6BBB
:100B2000D21F02EB820293409E432E630B790A8808
:100B3000DB1F92B203EB83039A4003681D6B2A43C9
:100B40001A6311E0EE6A0D3A02EB820293409E4373
:100B5000EE620B790A880D3B92B203EB83039A4055
:100B60000368DD6A2A43DA62164B0568144A9D421F
:100B700006D10D68122D03D1556845F480055560E6
:100B800005689D4218D10B68102B01D0112B13D191
:100B9000536843F400035360096810290CD10A49D3
:100BA0000A4A0968B1FBF2F101EB8101490000E05A
:100BB000491E00910029FBD180F83C40002078BDFF
:100BC00000230140002001401400002040420F009B
:100BD00070477047704770B504004FF0000503D0B0
:100BE000206C002610B107E0012070BD204600F007
:100BF0001DF8666484F83C60206CC00610D4206C3C
:100C000020F4885040F0020020642046FFF76AFD7F
:100C10006664206C20F0020040F00100206400E0D7
:100C2000012584F83C60284670BD000070B586B090
:100C3000064614216846FFF7C1FB1D49306888420B
:100C400033D11C480025016841F4807101600068BF
:100C500000F48070059017481438016841F00101D4
:100C600001600068694600F00100059003200090D3
:100C7000CDE90105104800F053FA114C0F48C4E9C2
:100C800000050015A560C4E9035080006061800084
:100C9000A0618011C4E907052046656200F08CF967
:100CA00008B1FFF7DAFEB463A66306B070BD0000BA
:100CB000002001404438024000000240106402401D
:100CC0008C000020F8B5044600200E46009094F8F1
:100CD0003C10012907D0012184F83C1021688B6861
:100CE000DB0702D011E00220F8BD8B6843F001035E
:100CF0008B604049404B0968B1FBF3F101EB4101C6
:100D000000E0491E00910029FBD121688B68DB05BA
:100D100003D58B6823F480738B6021688B68DB07B5
:100D20005DD0236C40F20165AB4343F480732364D0
:100D30004968490505D5216C21F4005141F48051E1
:100D40002164216CC90404D5616C21F00601616441
:100D500000E0606484F83C00A16B2948274DC8631B
:100D6000A16B28480864A16B2748C86421686FF00C
:100D7000220008602068416841F08061416020687D
:100D8000816841F4807181602168134632464C319C
:100D9000A06B00F07BF968681C49C006206806D08B
:100DA000884224D1816811F0405F13D01FE088424F
:100DB000F8D0174A904203D1D1F80423D206F1D0DB
:100DC000144A904213D1D1F8041301F01F011029E5
:100DD000E8D30CE0816841F08041816007E0206C3D
:100DE00040F010002064606C40F00100606400205E
:100DF000F8BD00001400002040420F000023014015
:100E000055060008D9060008C30600080020014066
:100E100000210140002201402DE9F84304464FF033
:100E20000009CDF8009063484FF41651A56D006895
:100E3000B0FBF1F72E6894F85C10082000FA01F17D
:100E400031420FD021680A6852070BD50A6822F098
:100E500004020A6094F85C108840A860606D40F05D
:100E60000100606594F85C104FF0010808FA01F089
:100E7000304208D021684969090604D5A860606D30
:100E800040F00200606594F85C1004208840304215
:100E900008D021680968890704D5A860606D40F012
:100EA0000400606594F85C1010208840304218D02F
:100EB00021680968090714D5A860206801684903FA
:100EC00004D50068000308D5A16C07E00168C905D6
:100ED00003D4016821F008010160216C09B12046AA
:100EE000884794F85C1020208840304231D0216837
:100EF0000968C9062DD5A86094F835000528206832
:100F0000016806D0490347D5006800031DD4616C11
:100F10001CE021F0160101602068416921F0800188
:100F20004161206C08B9A06C20B12068016821F0F3
:100F30000801016094F85C103F208840A86084F8A4
:100F4000358084F83490216D1FE0E16B09B12046B3
:100F50008847606D00282BD0606DC00714D0052035
:100F600084F835002068016821F0010101600098D3
:100F7000401C0090B84203D820680068C007F6D132
:100F800084F8358084F83490E16C002910D001B0E9
:100F90002046BDE8F04308470168C905D5D401687B
:100FA00021F01001016084F8358084F83490CCE79A
:100FB000BDE8F883140000202DE9F041044600F05C
:100FC000B1F906465CB1022084F83500002584F8AA
:100FD00034502068016821F0010101600DE001201A
:100FE000BDE8F08100F09EF9801B052805D920207E
:100FF0006065032084F83500F2E720680068C007C8
:10100000F0D12268116820480140D4E90103184357
:10101000D4E903363343184363691843A36918437B
:10102000E3691843236A18430843616A042903D11A
:10103000D4E90B1319430843106020684069666ABD
:1010400020F0070130460E43012704280CD1A06A86
:101050000643E06A40B12046FFF742FC20B1402041
:10106000606584F83570BAE7206846612046FFF76E
:1010700023FC94F85C203F2191408160656584F8F1
:1010800035700020ACE700003F8010F02DE9F04102
:101090000446866D90F83400002501280DD001200B
:1010A00084F8340094F835700020012F07D084F8BC
:1010B000340002252846BDE8F0810220FBE7022724
:1010C00084F8357060652046FFF734FC94F85C10B6
:1010D0003F208840B0602068016841F0160101603F
:1010E000206C20B12068016841F00801016020688F
:1010F000016841F001010160DCE7000070B50446C1
:1011000000F010F90546601C02D004480078044441
:1011100000F008F9401BA042FAD370BD080000207F
:101120002DE9F84FDFF8BCA10022012503264FF07E
:101130000F090AF1040BAAF1040E00BF0B6805FAAF
:1011400002F42340A34270D10F7907F00307012F67
:1011500001D0022F16D187684FEA420806FA08FC30
:1011600027EA0C07D1F80CC00CFA08FC4CEA070C73
:10117000C0F808C04768A7430C79C4F30014944032
:101180003C4344600C79E443A4070AD0C4684FEAA6
:10119000420C06FA0CF7BC438F6807FA0CF727439A
:1011A000C7600C7904F00304022C12D1D40800EBC0
:1011B000840CDCF820405707FF0E09FA07F824EAF0
:1011C0000804D1F8108008FA07F848EA0408CCF8B7
:1011D000208004684FEA420C06FA0CF7BC430F79F2
:1011E00007F0030707FA0CF7274307604C6814F46D
:1011F000403F70D03C4C276847F480472760246804
:1012000022F0030704F480440094384C07EB040CEC
:10121000DCF8084897074FEA177809FA08F7BC4343
:10122000334FB84202D1002724E054E0314FB84296
:1012300001D101271EE0304FB84201D1022719E049
:101240002E4FB84201D1032714E02D4FB84201D1EF
:1012500004270FE02B4FB84201D105270AE02A4F9F
:10126000B84201D1062705E0284FB84201D107272F
:1012700000E0082707FA08F72743CCF80878DAF8DF
:1012800000405746D1F804C09C435FEACC2C00D5FF
:101290001C433C60DBF800405F46D1F804C09C432F
:1012A0005FEA8C2C00D51C433C60DEF8004077469A
:1012B000D1F804C09C435FEA8C3C00D51C433C60E1
:1012C000084F083F3C68D1F804C09C435FEACC3C1F
:1012D00000D51C433C60521C102AFFF42FAFBDE820
:1012E000F88F0000083C01404438024000300140C3
:1012F000000002400004024000080240000C0240CE
:10130000001002400014024000180240001C02407D
:101310000069084000D0012070470AB18161704720
:101320000904FBE7014880687047000008000020BE
:1013300002488168027811448160704708000020EB
:101340000B4810B5016841F400710160016841F477
:1013500080610160016841F480710160032000F048
:101360006FF80F2000F006F800F024F8002010BD00
:10137000003C024070B50D4D04464FF47A71287858
:10138000B1FBF0F00A490968B1FBF0F000F00AFC8B
:1013900048B9102C07D200222146501E00F030F828
:1013A00000206C6070BD012070BD000008000020AE
:1013B000140000200A4808B5016841F4804101602A
:1013C000006800F4804000900548001F016841F06B
:1013D00080510160006800F08050009008BD00005E
:1013E00044380240002809DB00F01F02012191402F
:1013F0004009800000F1E020C0F8001170470000B3
:10140000F0B40E4B1B680C46C3F30223C3F107056F
:10141000042D00D90425191D072901D2002300E05D
:10142000DB1E012606FA05F1491E214099409E4027
:10143000761E16403143F0BC01F018BE0CED00E002
:10144000064900F0070208684FF6FF03184040EA1B
:101450000220034A10430860704700000CED00E0D2
:101460000000FA052DE9F0470E46050065D0DFF8CB
:101470001481D8F80000F7B200F00700B04207D29C
:1014800088F80070D8F8000000F00700B04254D18E
:1014900028683D4C810712D5400703D5206840F4E9
:1014A000E05020602878000703D5206840F46040B1
:1014B00020602068A96820F0F000084320602878A8
:1014C000C0072DD0304968680839012812D0022899
:1014D00013D0032811D00968890700292DDA216863
:1014E00021F0030101432160FFF71CFF814641F217
:1014F000883A0EE009688903EFE709688901ECE79B
:10150000FFF710FFA0EB0901514502D90320BDE808
:10151000F0872068696800F00C00B0EB810FEFD114
:10152000D8F80010404601F00701B14207D9077012
:10153000006800F00700B04201D00120E7E72878FA
:10154000400705D52068E96820F4E0500843206092
:101550002878000706D52068296920F4604040EA11
:10156000C100206000F018F82168084AC1F3031197
:10157000515CC8400649086006480068FFF7FAFE5B
:101580000020C4E7003C0240083802406E320008E8
:10159000140000200C000020154810B5006810F061
:1015A0000C02144813D01449042A0FD0082A0ED173
:1015B0000F4C241F2268236802F03F025B0207D50C
:1015C0002068C0F38810A0FB010106E0084610BDAA
:1015D0002168C1F38811A1FB00010023FEF777FE0B
:1015E0002168C1F30141491C4900B0FBF1F010BD75
:1015F000083802400024F40040787D012DE9F84FBE
:1016000004006ED02078DFF84C93C007A9F10405E0
:101610004AD009F104000168C1F38101012908D011
:101620000068C0F3810002280AD1D9F80000400206
:1016300006D52868800337D560680028E1D033E0FC
:101640006068B0F5803F10D0B0F5A02F286810D0AA
:1016500020F480302860286820F4802028606068AA
:10166000A8B1FFF75FFE06460DE0286840F4803021
:10167000F4E740F480202860F7E700BFFFF752FE50
:10168000801B642873D828688003F7D50CE0FFF727
:1016900049FE064605E000BFFFF744FE801B6428B4
:1016A000F0D828688003F7D42078DFF8AC82800770
:1016B0004FF0000A3ED5A748001D016811F00C0F3D
:1016C00008D00068C0F3810002280BD1D9F80000CF
:1016D000400207D42868800716D5E068012800D1A9
:1016E00012E033E1E068B8B10120C8F80000FFF76C
:1016F00019FE064605E000BFFFF714FE801B022816
:10170000C0D828688007F7D52868216920F0F8003C
:1017100040EAC10028600DE0C8F800A0FFF702FE13
:10172000064604E0FFF7FEFD801B02281FD828684C
:101730008007F7D42078000722D5864F8748616953
:10174000703771B101210160FFF7ECFD064604E03E
:10175000FFF7E8FD801B022809D838688007F7D515
:101760000EE0C0F800A0FFF7DDFD064605E082E0D0
:10177000FFF7D8FD801B02287DD838688007F7D492
:101780002078400768D5DFF8CCB100270BF13C0B7F
:10179000DBF80000C0000BD4DBF8001041F08051F2
:1017A000CBF80010DBF80000012700F0805000901B
:1017B0006B4E3068C00510D4306840F480703060E3
:1017C000FFF7B0FD009005E0FFF7ACFD0099401A6F
:1017D000022850D83068C005F6D55E4EA0686C3639
:1017E00001280FD00528306810D020F001003060AB
:1017F000306820F004003060A068B8B1FFF792FDB7
:1018000000900FE0306840F00100F4E740F0040081
:101810003060F7E7FFF786FD0099411A41F2883002
:10182000814266D830688007F4D50EE0FFF77AFD74
:10183000009007E0FFF776FD0099411A41F28830E9
:10184000814256D830688007F4D42FB1DBF80010FD
:1018500021F08051CBF80010A069C8B33D49091DA3
:101860000968C1F3810102294AD00228504607D0F5
:10187000C8F8600000E03CE0FFF754FD04463BE0A0
:101880004746C8F86000FFF74DFD064605E000BF7B
:10189000FFF748FD801B02282BD828688001F7D469
:1018A000D4E907010843A16A2E4A490802EB014125
:1018B000626A41EA8211084394F82C1040EA0161FF
:1018C000C9F8001001203866FFF72CFD044606E039
:1018D0003EE000BFFFF726FD001B022809D828685C
:1018E0008001F7D534E000BFFFF71CFD001B022884
:1018F00002D90320BDE8F88F28688001F4D427E0DE
:101900000128F7D0D9F80000E26900F48001914283
:101910001CD1226A00F03F01914217D147F6C071F5
:10192000626A0140B1EB821F10D1A26A4FF0FF330F
:1019300000F4403103EB5202B1EB024F06D194F8B0
:101940002C1000F07060B0EB016F01D00120D1E7E6
:101950000020CFE70438024000004742800E474293
:10196000007000400000FFFF704770B5040009D010
:10197000606A002540B125616561A56294F8510057
:1019800040B10CE0012070BD6068B0F5827FF4D0FA
:10199000E561F2E784F85050204600F045F8022057
:1019A00084F851002068016821F040010160A0889E
:1019B000218900F4827001F404410843A18901F4F3
:1019C00000610843217C01F002010843217D01F000
:1019D00001010843218B01F400710843217F01F0CC
:1019E0003801084394F8201001F080010843218D4C
:1019F00001F40051084321680860A069042101EA4C
:101A0000104094F8241001F0100108432168486048
:101A10002068C16921F40061C1616565012084F815
:101A20005100002070BD000070B586B0064614213C
:101A30006846FEF7C3FC1F493068884238D11E480B
:101A40000025016841F480510160006800F4805075
:101A5000059019481438016841F0010101600068DF
:101A6000694600F001000590A02000900220CDE919
:101A7000010503200390052004901048FFF750FB58
:101A8000104C0F4820604FF0C06060604020C4E9F7
:101A900002050001C4E90405A561E561256220464F
:101AA0006562FFF789FA08B1FEF7D7FFB464A66351
:101AB00006B070BD003001404438024000000240D2
:101AC00058640240440100202DE9F041044690F89A
:101AD00050000026012809D0012784F8507094F89E
:101AE00051000025012804D002264EE00220BDE866
:101AF000F08189B182B1032084F8510065652163CA
:101B0000A286E286A56365642564A587E587A0684B
:101B1000B0F5004F02D00BE0012636E020680168E6
:101B200021F0400101602068016841F480410160BA
:101B3000A16C18480864A16C1748C863A16C1748C9
:101B4000C864A06C0565E38E2268216B0C32A06C22
:101B5000FFF79CFA38B1606D40F010006065012617
:101B600084F8517011E020680168490603D40168C7
:101B700041F0400101602068416841F0200141606E
:101B80002068416841F00201416084F850503046BD
:101B9000ADE700000D2A0008172A0008EB2900080D
:101BA0007047704710B5401EB0F1807F01D301200F
:101BB00010BD4FF0E02460610F21601701F056FA6C
:101BC0000020A06107202061002010BD70477047F1
:101BD00070B590F83C20012A32D0012480F83C40B6
:101BE000022280F83D2003685A689D6822F0700642
:101BF0000A6832435A60134B02689A4214D0B2F119
:101C0000804F11D0104B9A420ED0104B9A420BD0FD
:101C10000F4B9A4208D00F4B9A4205D00E4B9A4276
:101C200002D00E4B9A4204D1496825F08003194333
:101C3000916080F83D40002180F83C10084670BD5E
:101C4000022070BD00000140000400400008004078
:101C5000000C00400004014000400140001800401A
:101C600010B5040003D094F83D0010B107E0012046
:101C700010BD002084F83C00204600F01FF8022030
:101C800084F83D00211D206801F04AF9012084F804
:101C9000460084F83E0084F83F0084F8400084F851
:101CA000410084F8420084F8430084F8440084F83A
:101CB000450084F83D00002010BD000008B5006814
:101CC000B0F1804F12D10A48016841F00101016072
:101CD0000068002200F00100009011461C20FFF770
:101CE0008FFBBDE808401C20FFF77CBB08BD00004F
:101CF0004038024090F83D10012901D00120704782
:101D0000022180F83D100168CA6842F00102CA60F1
:101D100000681149884214D0B0F1804F11D00F49AA
:101D200088420ED00E4988420BD00E49884208D016
:101D30000D49884205D00D49884202D00C4988429D
:101D400004D1816801F00701062903D0016841F040
:101D500001010160002070470000014000040040C4
:101D600000080040000C0040000401400040014019
:101D70000018004070B5044690F83C00002501288A
:101D800017D0012684F83C60022084F83D002068CA
:101D9000826822F0770222F47F428260086850282D
:101DA00038D00DDC20284FD005DC90B3102811D19D
:101DB0004AE0022070BD302846D040280AD13BE0DE
:101DC00060282FD070280DD0B0F5805F03D0B0F51B
:101DD000005F12D0012584F83D60002084F83C00AB
:101DE000284670BDCB68D1E90121206801F0FCF8DC
:101DF0002068816841F0770109E0CB68D1E90121D1
:101E0000206801F0F1F82068816841F48041816028
:101E1000E1E719E0CA684968206801F0F7F8502145
:101E2000206806E0CA684968206801F000F960216E
:101E3000206801F0E3F8CEE7CA684968206801F03D
:101E4000E5F840212068F4E7226801461046F0E7F3
:101E5000704770B50446006801694FF00005C9433A
:101E6000890715D4C168C943890711D4E91E0161E6
:101E700001202077206880698007204602D0FFF784
:101E8000E7FF04E000F098F8204600F096F8257788
:101E900020680169C943490717D4C168C943490784
:101EA00013D46FF00401016102202077206880695B
:101EB00010F4407F204602D0FFF7CAFF04E000F094
:101EC0007BF8204600F079F8257720680169C9433E
:101ED000090716D4C168C943090712D46FF0080175
:101EE0000161042020772068C0698007204602D065
:101EF000FFF7AEFF04E000F05FF8204600F05DF869
:101F0000257720680169C943C90617D4C168C94348
:101F1000C90613D46FF010010161082020772068F2
:101F2000C06910F4407F204602D0FFF791FF04E023
:101F300000F042F8204600F040F82577206801695B
:101F4000C943C90708D1C168C943C90704D1891E5B
:101F50000161204600F032F820680169C943090692
:101F600009D4C168C943090605D46FF08001016135
:101F70002046FFF72BFE20680169C943490609D4B2
:101F8000C168C943490605D46FF04001016120468C
:101F900000F01CF820680169C94389060BD4C168A8
:101FA000C943890607D46FF0200101612046BDE8CE
:101FB0007040FFF70CBE70BD704770470249884201
:101FC00001D100F0E9B97047A401002070477047C3
:101FD00070B5054600F0DCFD0E4CE178884216D065
:101FE0000120FFF78BF800F0D3FD0146E078814235
:101FF0000DD02179491CC9B22171012904D90021D0
:1020000021712870012070BD00F0C2FDE070002039
:1020100070BD000018000020002803D0002901D066
:1020200041618861704700007FB50025194800951F
:102030000195029516490395C0E9001501248560B4
:102040000461047680F820501349C0E90A1502267D
:10205000C661C56080F830404461FEF7BCFD08B140
:10206000FEF7FBFCCDE9005469460A480295FEF7ED
:1020700009FD08B1FEF7F1FCCDE9004669460548C7
:10208000FEF700FD002801D0FEF7E7FC7FBD000051
:1020900000200140440000200100000F094808B55D
:1020A000016841F4800101600068002200F48000B2
:1020B000009011463B20FFF7A3F9BDE808403B2004
:1020C000FFF790B9303802402DE9F04186B0142175
:1020D0006846FEF773F922480024016841F01001B8
:1020E0000160016801F010010591016841F00101F2
:1020F0000160016801F001010591016841F00401EE
:1021000001600068174F00F0040005900122502183
:102110003846FFF702F9DFF85080012210214046CF
:10212000FFF7FBF8182001258DE8310069460F48BC
:10213000FEF7F6FF50200326CDE90005CDE9024663
:1021400069463846FEF7ECFF1020CDE90005CDE9E1
:10215000024669464046FEF7E3FF06B0BDE8F0815F
:1021600030380240000002400008024000100240E7
:102170000F4810B50D4901604FF482714160002194
:102180008160C1604FF400720161C0E90512C16154
:102190000162416281620A21C162FFF7E6FB002809
:1021A00003D0BDE81040FEF758BC10BD0030014020
:1021B000EC00002010B586B000241748009401946C
:1021C0000294039404944FF080410594016040F21E
:1021D000CF21C0E901146321C0E90314802181618A
:1021E000FFF73EFD08B1FEF738FC4FF48050009039
:1021F00069460948FFF7BEFD08B1FEF72EFC0494BE
:1022000004A905480594FFF7E3FC002801D0FEF778
:1022100024FC06B010BD0000A40100202DE9FC4103
:1022200000260124CDE90046102320223146222039
:10223000FEF7ECFA1D4D1E494FF4FA772860C16194
:102240003A461021FEF710FB28681023CDE9004024
:10225000202219462220FEF7D9FA1649C161C4721C
:102260003A460821FEF700FB28681023CDE900401C
:10227000202200212220FEF7C9FA07460E48F86105
:10228000CDE900461023202200212220FEF7BEFACD
:1022900001463846FFF7C0FE286800F039F90749C3
:1022A000416007480470BDE8FC8100002800002060
:1022B000293100085D3100089D310008C531000852
:1022C00018000020FEE700002DE9FF5F9346039C05
:1022D000204600F021FF02460021084606E0635C2C
:1022E0007F2B01D9891C00E0491C401C9142F6D388
:1022F00000F0FF0A00202EE002461D48039900F07E
:1023000073FD28B300244000A0F10209194809EB2D
:10231000D40100EB0117002504F0070001268640D8
:10232000785D30420CD0009800280BEB040017D0E9
:1023300002B201980123284401B2009800F05EF92E
:102340006D1CEDB2102DEBD3641CE4B2102CDDD368
:1023500008F10100C0B280465045CDD3BDE8FF9FD3
:1023600001B201980122284400B200F057FFE7E7CC
:10237000AC3A0008B13A0008002809D0002305E073
:1023800039B18069002803D05B1C9BB29342F7D31C
:1023900070474069F6E700002DE9F041224D002129
:1023A0002A782869002A3DD000283BD001226A7093
:1023B00002693AB10389012B04D0D37A012B01D0F1
:1023C0001046F5E7041E4FF0000601D1304609E043
:1023D000C2683AB11389012B04D0C37A012B01D012
:1023E0001046F5E70746206AA8B10288521C92B24F
:1023F0000280206A43889A420DD10680E08C40F02A
:102400000100E08494F82400800603D5E16909B94D
:10241000204688470121BC4201D0E468E3E7002957
:1024200000D16E70BDE8F081180000202DE9F84F52
:10243000824691460D461E46184600F06DFE002469
:102440000746009426E0335D7F2B0FD98DF80030CE
:1024500030196B4640788DF801004A4629465046AF
:10246000FFF732FF10352DB2A41C13E0DFF82C80EB
:10247000D8F804004078C0F1100101EB090002B265
:102480002946504600F0D6F8D8F80400641C0078BD
:10249000284405B2BC42D6D3BDE8F88F3C000020EA
:1024A000002809D0002305E039B10069002803D0D5
:1024B0005B1C9BB29342F7D37047C068F6E70028D5
:1024C00008D00189012905D00169CA7A012A01D001
:1024D0000846F6E7704700280AD0C168002907D0EF
:1024E0000A89012A04D0C27A012A01D00846F4E7F9
:1024F0007047000010B50446FDF7BAFE002803D06F
:1025000002498A6822448A6010BD00001800002039
:1025100070B50546FEF7A3FA040003D094F8240032
:10252000400601D5002070BD0C20FFF7E3FF002816
:10253000F9D0A18C084A41F04001A184D16811B9B9
:10254000D06004E011468A68002AFBD1886000212F
:10255000C0E90051816070BD180000202DE9F041F4
:102560002548FFF735FD244E01211736A6F11C043E
:1025700010B1607900B1317160784FF0000818B186
:1025800084F80180317102E03079002832D000F007
:1025900007FC206900F040FB206968B1FFF78FFF5E
:1025A0000546FFF798FF0746E96909B128468847BD
:1025B000BD4201D0ED68F7E72069FEF71EFAD4E9C5
:1025C00003207AB1FEF74BFA60B190F82410490667
:1025D00008D501E092682AB111688142FAD15068A9
:1025E00000B1804700F052FDFEF754F984F80580F1
:1025F00086F80480BDE8F0811D000020F0B40028BA
:1026000015D00488458886880C44154424B22DB220
:102610008E420CDBC088904209DB002907DB002AD0
:1026200005DB29462046F0BC1A4600F0F7BDF0BC99
:10263000704700002DE9FF5FDFF8A09092468B46BF
:10264000D9F8040007784678A3F120005F2800D36A
:102650002023203B03F0FF08002432E000252CE07B
:1026600006EB8600C0F39C010A20B1FBF0F200FBF0
:10267000121000284FEAD60000D0401C18FB07F1CA
:102680004843E10817FB0101D9F800002844085C21
:1026900004F00701C84010F0010F0CD0009800288A
:1026A00004EB0A0011D002B205EB0B0001B20123CA
:1026B0000098FFF7A3FF6D1CEDB2BD42D0D3641CA0
:1026C000E4B2B442CAD3BDE8FF9F01B205EB0B00F0
:1026D00000B2012200F0A2FDEDE700003C00002066
:1026E0002DE9F0411C4617460D468046084E09E08C
:1026F0003A4629464046FFF79DFF7068641C007803
:10270000284405B22378002BF2D1BDE8F081000007
:102710003C0000202DE9F05F00261D4692468846C9
:1027200083463446194FDDF828902AE0281B401EC6
:102730000A23C1B2012000E05843491EC9B2FBD2AE
:10274000B9FBF0F00A21B0FBF1F201FB120026B94F
:10275000691E8C4201DA40B101263030C3B278687C
:10276000017811FB048001B205E07868017811FB63
:10277000048001B2202352465846FFF75BFF641CD9
:10278000E4B2AC42D2D3BDE8F09F00003C00002090
:10279000FEE7F0B50446002901DA4A4200E00A46A5
:1027A00096B200280CD00025CF0F0CE0012239464C
:1027B000FFF7E2FD18B1817A012904D101E020463A
:1027C000F0BD6D1CADB2B542F0D3F0BDF0B504461E
:1027D000002901DA4A4200E00A4696B200280CD0ED
:1027E0000025CF0F0CE001223946FFF759FE18B142
:1027F000817A012904D101E02046F0BD6D1CADB203
:10280000B542F0D3F0BD70B5002404F1B000C0B201
:10281000002100F0C3F80021084600F0BFF80021B5
:10282000102000F0BBF800250121002000F0B6F8D0
:102830006D1CEDB2802DF7D3641CE4B2082CE4D3F8
:1028400070BD000010B5494C012240212046FEF722
:1028500064FD6420FEF752FC002240212046FEF772
:102860005CFD6420FEF74AFC012240212046FEF771
:1028700054FD0021AE2000F091F80021084600F040
:102880008DF80021102000F089F80021402000F090
:1028900085F80021812000F081F80021CF2000F090
:1028A0007DF80021A12000F079F80021C82000F077
:1028B00075F80021A62000F071F80021A82000F092
:1028C0006DF800213F2000F069F80021D32000F0CE
:1028D00065F80021084600F061F80021D52000F0DD
:1028E0005DF80021802000F059F80021D92000F087
:1028F00055F80021F12000F051F80021DA2000F015
:102900004DF80021122000F049F80021DB2000F0F2
:1029100045F80021402000F041F80021202000F07F
:102920003DF80021022000F039F800218D2000F050
:1029300035F80021142000F031F80021A42000F027
:102940002DF80021A62000F029F80021AF2000F08A
:1029500025F80021AF2000F021F8FFF754FF0021F7
:10296000BDE81040084600F003B800000000024037
:1029700010B50446B031C8B2002100F00FF81020A5
:1029800040EA1410002100F009F804F00F00BDE83F
:10299000104040F001000021AFF3008073B50F4CF0
:1029A00009B1012200E0002210212046FEF7B5FC0B
:1029B0000B4D002210212846FEF7AFFC012269468C
:1029C0000848FFF781F8012210212846FEF7A5FCF0
:1029D000012210212046FEF7A0FC7CBD0008024029
:1029E00000000240EC000020704710B5806B0168C9
:1029F0004A6822F003024A60416D41F010014165CE
:102A0000012180F85110FEF7AFFF10BD10B5806BAB
:102A1000FFF7C7F810BD38B50546846BFEF782FC9A
:102A2000024628680068C00523D42068416821F068
:102A3000200141602068416821F002014160642169
:102A4000204600F01BF818B1606D40F02000606572
:102A5000A068002118B92068C26880680090E186EB
:102A6000012084F85100606D18B12046FEF77CFF0C
:102A700038BD2046FFF794F838BD000038B504464D
:102A80001248134B0068B0FBF3F04FF47A735843CD
:102A900000906068B0F5827F0DD10B460092002255
:102AA0008021204600F016F870B1606D40F02000E3
:102AB0006065032038BD009830B1401E009020684A
:102AC0008068C0430006F6D5002038BD1400002001
:102AD00000366E012DE9F8431E46914688460446AD
:102AE000089DFEF71FFC401B351AFEF71BFC07462E
:102AF00025480068C0F3CB30684338E0701C37D0FD
:102B0000FEF710FCC01BA84203D215B1009860B3B9
:102B10002CE02068416821F0E00141606068B0F578
:102B2000827F0BD1A068B0F5004F02D0B0F5806F66
:102B300004D12068016821F040010160A06AB0F56D
:102B4000005F09D12068016821F40051016020680C
:102B5000016841F400510160012084F85100002017
:102B600084F850000320BDE8F8830025401E009043
:102B70002068816838EA010004D000214945BDD1B0
:102B80000020F0E70121F9E7140000207047000061
:102B900070B51B4C10212046FEF7BAFB68B1082126
:102BA0002046FEF7B5FB50B1164840F63A431649A9
:102BB00004689C4205D903201EE0022070BD03205A
:102BC00070BDA4F297554FF4C7760022B54201D8E4
:102BD0008A7003E0822C01D204200DE04068984204
:102BE00001D9022008E0A0F29753B34201D88A70BD
:102BF00004E0822802D20120887070BD887870BD00
:102C0000001002400000002018000020014AC2E924
:102C1000000170473C0000202DE9FC5FDFF87C914B
:102C20000346D9F81400FDF722FF0090D9F81800E8
:102C3000FFF751FC07461846FDF711FF834618467B
:102C4000FDF715FF01901846FFF739FC04461846BA
:102C5000FFF741FC8246D9F814004FF0000878B91C
:102C60005846C9F814B0FDF702FF00902046C9F895
:102C70001840FFF730FC0746D9F81400002872D03E
:102C8000009800286FD0D9F81860002E6BD0002F64
:102C900069D0D9F814505D4554D000BF95F8240090
:102CA000400706D5E88C40F00400E884E96928462E
:102CB0008847D9F81800854202D14FF0010802E098
:102CC000B8F1000F0AD095F82400C00606D5E88CAC
:102CD00040F01000E884E96928468847BD4201D1E8
:102CE0004FF000080098854201D0ED68D6E75D46B8
:102CF00095F82400800706D5E88C40F00200E884AF
:102D0000E96928468847A54202D14FF0010802E050
:102D1000B8F1000F0AD095F82400000706D5E88C1A
:102D200040F00800E884E96928468847554501D104
:102D30004FF000080198854201D0ED68D8E7C9F846
:102D400014B022E0A64226D096F82400C00606D58C
:102D5000F08C40F01000F084F16930468847BE42A4
:102D600002D0F668F0E716E04FEA040595F8240073
:102D7000000706D5E88C40F00800E884E969284699
:102D80008847554501D0ED68F0E7C9F81840BDE81F
:102D9000FC5FFDF77FBDBDE8FC9F00001800002030
:102DA00010B5104C4FF0FF31204663790069012BBC
:102DB0000CD0022B0ED00022032B0DD0042B08D1F7
:102DC000836903B16271FFF7E4FC01E0FFF7FEFCE9
:102DD000206110BD0121F9E7416901B16271012152
:102DE000F1E70000180000202DE9F04105461446E7
:102DF0000E46084600F090F90746284600F08CF988
:102E00000021034608468C46BC422ED26BB367B302
:102E1000621C0AE0775C7F2F05D9891CA04203D190
:102E20004FF0010C00E0491C401C9042F2D30022FC
:102E30001046314417E0521C2C5CBCF1000F05D049
:102E400011F8026CB44208D12C18647811F8016CA6
:102E5000B44202D1D0B2BDE8F0812C5C7F2C01D904
:102E6000801C00E0401C9A42E5D30020F3E7FEF707
:102E70005FBA000030B593B030216846FDF79EFA86
:102E800014210CA8FDF79AFA1C480024016841F0AF
:102E900080510160006800F080501190184801686E
:102EA00041F4804101600068022500F480401190E7
:102EB0000120039010200490009506950820CDE98C
:102EC00007404820CDE9090504200B906846FEF72D
:102ED00095FB08B172B6FEE70F20CDE90C054FF463
:102EE0008050CDE90E4002210CA81094FEF7BAFAEA
:102EF000002801D072B6FEE713B030BD4038024062
:102F0000007000400248016841F4700101607047A0
:102F100088ED00E00148FEF79CBF0000A4010020FE
:102F2000F0B50268254C264D264E274F274B4FF013
:102F3000804CA04209D0604507D0A84205D0B042DD
:102F400003D0B84201D0984204D122F0700E4A68F2
:102F500042EA0E02A0421BD0604519D0A84217D009
:102F6000B04215D0B84213D0984211D0184DA842A3
:102F70000ED0184DA8420BD0174DA84208D0174DBF
:102F8000A84205D0164DA84202D0164DA84203D142
:102F900022F44075CA682A434D6922F080022A4310
:102FA00002608A68C2620A688262A04201D09842C6
:102FB00001D10969016301214161F0BD00000140B7
:102FC0000004004000080040000C004000040140E4
:102FD000004001400044014000480140001800400A
:102FE000001C00400020004010B5846842EA032223
:102FF00024F47F440A432243826010BD826822F099
:1030000070020A4342F007018160704710B5036AFD
:10301000046A24F001040462846924F0F00444EAA0
:10302000021423F00A020A438461026210BD10B543
:10303000036A23F0100303628369046A23F4704374
:1030400043EA023224F0A00343EA011182610162E3
:1030500010BD10B50022002806D0C38C0B4202D050
:1030600001228B43C384104610BDFEE70907090EF9
:10307000002804DB00F1E02080F80014704700F025
:103080000F0000F1E02080F8141D70472DE9F04199
:1030900000240D4E0D4F11E0E1B20020FFF768FC57
:1030A0005FF0000505EBC4100121305CFFF776FCF2
:1030B0006D1CADB2802DF5D3641CA4B27888A042FB
:1030C000EAD8BDE8F0810000EC01002034000020C7
:1030D000FEF736F9FFF7CEFEFEF7F6FFFEF7DEFF4E
:1030E000FFF746F8FFF766F8FEF79EFFFFF7AAFB2B
:1030F000FFF794F80548FEF7FDFD02220449054854
:10310000FDF7E0FDFFF72AFAFCE70000A40100202C
:1031100000000020440000200146002000E0401C88
:103120000A5C002AFBD1704738B5044609490A48B1
:10313000FFF76CFD10212046FFF78BFF002807D119
:103140007B2000220090032311462046FFF7E2FA7D
:1031500038BD00007E3200088032000838B50446D1
:103160000B490C48FFF752FD08212046FFF771FF7D
:1031700020B109480178491C017038BD4FF4E47052
:1031800000220090032311462046FFF7C3FA38BD02
:103190007E320008803200083A00002010B5044654
:1031A00005490648FFF732FD20460022BDE81040E1
:1031B00003A31146FFF73AB97E32000880320008B7
:1031C0003300000008B50D490D48FFF71FFD002131
:1031D0000CA320220846FFF783FA00210CA32A2221
:1031E0000846FFF723F90C480022032300780090DB
:1031F00011461046FFF78EFA08BD0000703800082F
:10320000723800086173643132337E7B7C7D00004C
:1032100033D7CCC9FA3100003A00002010B57F281E
:1032200018DA402916DA002814DB002912DBCB1744
:1032300001EB5374E31024F0070400EBC3100C1BE4
:10324000054B0121A140002A1A5C01D00A4300E08D
:103250008A431A5410BD0000EC0100204FF040706A
:10326000E1EE100A70470006101600061016000066
:10327000000000000000010203040607080908100E
:10328000000000000000000000000000000000003E
:10329000000000F8000000000000003330000000D3
:1032A00000100C06100C06000000000000000000DA
:1032B00040C07840C0784000043F04043F0404004C
:1032C000007088FC08300000001820FF211E00005C
:1032D000F008F000E018000000211C031E211E0071
:1032E00000F00888700000001E21232419272110F7
:1032F00010160E000000000000000000000000009A
:10330000000000E018040200000000071820400040
:1033100000020418E0000000004020180700000030
:10332000404080F0804040000202010F0102020094
:10333000000000F0000000000101011F0101010078
:10334000000000000000000080B0700000000000DD
:103350000000000000000000000101010101010166
:1033600000000000000000000030300000000000FD
:1033700000000000806018040060180601000000D2
:1033800000E010080810E000000F102020100F00CF
:10339000001010F8000000000020203F2020000056
:1033A00000700808088870000030282422213000AE
:1033B00000300888884830000018202020110E00B6
:1033C0000000C02010F8000000070424243F24005F
:1033D00000F80888880808000019212020110E0034
:1033E00000E0108888180000000F112020110E0046
:1033F00000380808C83808000000003F000000003E
:103400000070880808887000001C222121221C00FE
:1034100000E010080810E0000000312222110F0027
:10342000000000C0C00000000000003030000000BC
:10343000000000800000000000008060000000002C
:103440000000804020100800000102040810200045
:103450004040404040404000040404040404040090
:103460000008102040800000002010080402010025
:10347000007048080808F000000000303601000025
:10348000C030C828E810E0000718272423140B00D8
:103490000000C038E0000000203C23020227382052
:1034A00008F8888888700000203F202020110E0036
:1034B000C03008080808380007182020201008002D
:1034C00008F808080810E000203F202020100F0016
:1034D00008F88888E8081000203F202023201800E2
:1034E00008F88888E8081000203F2000030000004A
:1034F000C03008080838000007182020221E0200EB
:1035000008F808000008F808203F210101213F20A9
:10351000000808F8080800000020203F20200000D4
:1035200000000808F8080800C08080807F000000C4
:1035300008F888C028180800203F200126382000FD
:1035400008F8080000000000203F20202020300064
:1035500008F8F800F8F80800203F003F003F20007E
:1035600008F830C00008F808203F200007183F0086
:10357000E01008080810E0000F10202020100F00B5
:1035800008F808080808F000203F210101010000A8
:10359000E01008080810E0000F18242438504F00ED
:1035A00008F8888888887000203F2000030C3020AD
:1035B00000708808080838000038202121221C00EB
:1035C000180808F8080818000000203F2000000034
:1035D00008F808000008F808001F202020201F001D
:1035E0000878880000C83808000007380E0100007D
:1035F000F80800F80008F800033C0700073C030047
:10360000081868808068180820302C03032C3020AC
:103610000838C800C83808000000203F200000001B
:1036200010080808C8380800203826212020180073
:10363000000000FE020202000000007F4040400047
:10364000000C30C000000000000000010638C0007F
:1036500000020202FE000000004040407F00000027
:10366000000004020202040000000000000000004C
:10367000000000000000000080808080808080804A
:103680000002020400000000000000000000000032
:1036900000008080808000000019242222223F2028
:1036A00008F8008080000000003F112020110E006B
:1036B0000000008080800000000E112020201100FA
:1036C000000000808088F800000E112020103F20AC
:1036D0000000808080800000001F22222222130030
:1036E000008080F0888888180020203F202000007B
:1036F0000000808080808000006B94949493600030
:1037000008F8008080800000203F210000203F203A
:1037100000809898000000000020203F202000003A
:10372000000000809898000000C08080807F00002A
:1037300008F8000080808000203F24022D30200007
:10374000000808F8000000000020203F20200000B2
:103750008080808080808000203F20003F20003FCC
:103760008080008080800000203F210000203F20DA
:103770000000808080800000001F202020201F008B
:10378000808000808000000080FFA12020110E00BA
:103790000000008080808000000E112020A0FF80AB
:1037A000808080008080800020203F212000010058
:1037B00000008080808080000033242424241900AD
:1037C000008080E0808000000000001F20200000BA
:1037D0008080000000808000001F202020103F20FB
:1037E000808080000080808000010E30080601008B
:1037F00080800080008080800F300C030C300F0030
:1038000000808000808080000020312E0E3120005A
:10381000808080000080808080818E70180601008A
:1038200000808080808080000021302C22213000A8
:1038300000000000807C020200000000003F4040C9
:1038400000000000FF00000000000000FF0000007A
:103850000002027C800000000040403F00000000A9
:103860000006010102020404000000000000000044
:1038700006080000000000000000002F000000000B
:103880000700070000147F147F1400242A7F2A12E7
:1038900000626408132300364955225000000503D6
:1038A000000000001C224100000041221C00001406
:1038B000083E08140008083E0808000000A0600048
:1038C00000080808080800006060000000201008D8
:1038D0000402003E5149453E0000427F4000004244
:1038E00061514946002141454B31001814127F10A7
:1038F000002745454539003C4A49493000017109D6
:10390000050300364949493600064949291E000089
:103910003636000000005636000000081422410030
:103920000014141414140000412214080002015160
:10393000090600324959513E007C1211127C007F69
:1039400049494936003E41414122007F4141221C04
:10395000007F49494941007F09090901003E414969
:10396000497A007F0808087F0000417F410000205D
:1039700040413F01007F08142241007F4040404009
:10398000007F020C027F007F0408107F003E41414F
:10399000413E007F09090906003E4151215E007F3A
:1039A000091929460046494949310001017F0101B1
:1039B000003F4040403F001F2040201F003F403854
:1039C000403F006314081463000708700807006193
:1039D0005149454300007F41410000552A552A5571
:1039E000000041417F000004020102040040404009
:1039F0004040000001020400002054545478007F2D
:103A00004844443800384444442000384444487F03
:103A100000385454541800087E0901020018A4A468
:103A2000A47C007F080404780000447D400000402E
:103A300080847D00007F102844000000417F40000A
:103A4000007C04180478007C08040478003844449E
:103A5000443800FC242424180018242418FC007C7A
:103A60000804040800485454542000043F444020F3
:103A7000003C4040207C001C2040201C003C40308A
:103A8000403C004428102844001CA0A0A07C004416
:103A900064544C44000010FE8200000000FF00004F
:103AA0000082FE100000020101020201D7CCC9FA17
:103AB000001060028C0008C8398E0808CC3B8808CA
:103AC0000004047E0100635A46E100635A46E100A7
:103AD000008040301E101010FF1010101010100049
:103AE00000404042424242427F42424242424040C3
:103AF00000000000143B000800000020440000000B
:103B0000C4010008583B0008440000200C0C0000D1
:103B1000E0010008000000000000000001000000BB
:103B200010000000000000000024F400000000006D
:103B30000000000000000000000000000000000085
:103B400000000000000000008000080001000000EC
:083B5000803200087E320008FB
:040000050800018965
:00000001FF
