:020000040800F2
:10000000380B002031020008F51C0008E11500083B
:10001000A1190008DD060008852200080000000084
:10002000000000000000000000000000F1200008B7
:10003000A9070008000000004D1F0008DF2100088C
:100040004B0200084B0200084B0200084B0200085C
:100050004B0200084B0200084B0200084B0200084C
:100060004B0200084B0200084B0200084B0200083C
:100070004B0200084B0200084B0200084B0200082C
:100080004B0200084B0200084B0200084B0200081C
:100090004B0200084B0200084B0200084B0200080C
:1000A0004B0200084B0200084B0200084B020008FC
:1000B0004B0200084B0200084B0200084B020008EC
:1000C0004B0200084B0200084B0200084B020008DC
:1000D0004B0200084B0200084B0200084B020008CC
:1000E0004B0200084B0200084B0200084B020008BC
:1000F0004B0200084B0200084B0200084B020008AC
:100100004B0200084B0200084B0200084B0200089B
:100110004B0200084B0200084B0200084B0200088B
:100120004B0200084B0200084B020008F9060008C9
:100130004B0200084B0200084B0200084B0200086B
:100140004B0200084B0200084B0200084B0200085B
:100150004B0200084B0200084B0200084B0200084B
:100160004B0200084B0200084B0200084B0200083B
:100170004B0200084B0200084B0200080000000080
:100180004B0200084B02000800F002F800F040F8B3
:100190000AA090E8000C82448344AAF10107DA45E2
:1001A00001D100F035F8AFF2090EBAE80F0013F0F4
:1001B000010F18BFFB1A43F001031847B8290000CC
:1001C000D8290000103A24BF78C878C1FAD852075D
:1001D00024BF30C830C144BF04680C6070470000C1
:1001E0000023002400250026103A28BF78C1FBD840
:1001F000520728BF30C148BF0B6070471FB502F0DF
:100200008BF99DE8030000F01FF91FBD10B510BD6C
:1002100000F09EF91146FFF7F1FF02F067F800F0D9
:10022000BCF903B4FFF7F2FF03BC00F0EDF90000E6
:100230000948804709480047FEE7FEE7FEE7FEE77A
:10024000FEE7FEE7FEE7FEE7FEE7FEE704480549B6
:10025000054A064B70470000752200088901000816
:1002600038050020380B0020380700203807002010
:1002700070B5064600F0CCF8056806F10B0020F0DA
:100280000704B4429CBF002070BD2B466A68BAB117
:100290001068A04210D304F1080188423CBF5068A6
:1002A000586007D35168101941601168091B01603B
:1002B00058601460101D70BD13465268002AE7D1C3
:1002C0002146284600F0ACF80028DED170BD53EA84
:1002D000020C00F069802DE9F04B4FF00006002B76
:1002E0001FBFB3FA83F503FA05F424FA05F65E405E
:1002F00012BF1643B2FA82F502FA05F4C5F12005E1
:100300001EBF22FA05FC44EA0C04203556EA044CD0
:100310004FEA144418BF641C4FF000084FF0000966
:10032000904271EB030C39D3002919BFB1FA81F760
:1003300001FA07F6B0FA80F700FA07F6C7F12007CE
:100340001EBF20FA07FC46EA0C062037B6FBF4FC79
:10035000A7EB0507103F07F01F0BCBF120060CFAA7
:100360000BFB2CFA06F644BFB3460026202FA4BF91
:100370005E464FF0000B5BEA060C08BF4FF0010B26
:1003800019EB0B09ABFB027C48EB0608C01B06FB14
:1003900002CC0BFB03CC71EB0C01C1E70B46024610
:1003A00041464846BDE8F08B13B54FF000004FF0D2
:1003B0000001AFF30080BDE81C4070474FF0000221
:1003C00000B5134694469646203922BFA0E80C504B
:1003D000A0E80C50B1F12001BFF4F7AF090728BF26
:1003E000A0E80C5048BF0CC05DF804EB890028BFA2
:1003F00040F8042B08BF704748BF20F8022B11F0CB
:10040000804F18BF00F8012B704770477047704746
:1004100000487047E00400207047704770477047FD
:1004200038B504460A4600206946AFF3008000282C
:1004300008BF38BD02460099204600F067F8012049
:1004400038BD012000F07CB8F8B5AFF30080054658
:1004500000200C46102000BF0646A819A0420DD966
:10046000324669460020AFF30080070008BF00F065
:1004700067F80098A04218BF0546C419FFF7C8FFE7
:1004800005600746F01D20F007004619284600F0D9
:100490000AF8B44208BFF8BDA21B31463868BDE86F
:1004A000F84000F033B800210160C0E90110704746
:1004B0001020704770B50446051FFFF7A9FF0068BC
:1004C000002C14BF446870BD002C18BFAC423CBF68
:1004D00020466468F8D301680A18AA4218BF45602C
:1004E00003D12A6805461144016028684119A142D8
:1004F0001CBF6C6070BD6168696021680844286039
:1005000070BD000000487047D804002003464068D2
:100510008C46002818BF88423CBF03464068F8D389
:1005200018681844884207D00CF1030020F0070037
:10053000001D411A521A0146081D0A60FFF7BABF92
:1005400010B500F039F8BDE8104000F02FB8704742
:100550007546FFF7D7FFAE4605006946534620F0C3
:100560000700854618B020B5FFF770FEBDE82040B3
:100570004FF000064FF000074FF000084FF0000B5F
:1005800021F00701AC46ACE8C009ACE8C009ACE812
:10059000C009ACE8C0098D46704710B50446AFF3FA
:1005A00000802046BDE81040FFF73BBE002801D088
:1005B00000F02AB87047000010B5012805D00021CE
:1005C00003A000F027F8012010BD09A1F8E7000002
:1005D00053494752544D454D3A204F7574206F662C
:1005E0002068656170206D656D6F72790000000094
:1005F0003A2048656170206D656D6F727920636F78
:10060000727275707465640001491820ABBEFEE714
:100610002600020070B505460C460A2000E06D1C5D
:1006200000F011F835B128780028F8D102E0641CF8
:1006300000F009F814B120780028F8D1BDE8704026
:100640000A20AFF3008008B569468DF8000003204A
:10065000ABBE08BD2DE9F0470746DDE908A91C46F9
:1006600015460E462420FFF703FE0346B9F10000AD
:100670004FF0000807D000F0CDF8C3601861008982
:10068000401C188103E001201881C3F81080802FDE
:1006900000D37F2738B21880402E00D33F2631B2D6
:1006A00042195980802A01D9C0F1800508199D801E
:1006B000402801DDC1F14004DC8083F80AA083F802
:1006C0000B80C3F80C80C3F81480C3F81880C3F8FB
:1006D0001C80A3F820801846BDE8F087FEE70000E4
:1006E0000020044B4FF4806102461A54401C88429B
:1006F000FBD37047D8000020014800F097B80000F5
:100700007800002001681823CAB2103AB2FBF3F255
:10071000054B6FF30901032A9B5CC36500D9091DD2
:1007200081650846704700002225000810B5014683
:1007300000208B698A6A4FF0C07453B1B3F5005F33
:1007400015D072B1012A0CD0022A0AD0032A09D18D
:1007500004E01AB1012A06D0022A03D1C96AC901EC
:1007600000D5012010BDC96AA142FAD010BD002AEF
:10077000F7D0012AF2D0022AF3D0032AF3D010BD19
:1007800030B50468256825F4802525600468636019
:100790008368402B036803D099600068C26030BD55
:1007A0009A600068C16030BD70472DE9F0410028B3
:1007B00021D0058881884488C08829448EB220448D
:1007C00087B2234632461946284600F02FFF2A46B4
:1007D0003B462146104600F029FF3B462A46194673
:1007E000304600F023FF324623463946BDE8F0414B
:1007F000104600F01BBFBDE8F08172B6FEE700288E
:1008000007D00189012904D00169002901D00846D7
:10081000F7E77047002807D0C168002904D00A898B
:10082000012A01D00846F7E7704700002DE9F84398
:1008300004464FF00009CDF8009063484FF416517C
:10084000A56D0068B0FBF1F72E6894F85C100820E5
:1008500000FA01F131420FD021680A6852070BD526
:100860000A6822F004020A6094F85C108840A860CC
:10087000606D40F00100606594F85C104FF0010875
:1008800008FA01F0304208D021684969090604D508
:10089000A860606D40F00200606594F85C10042070
:1008A0008840304208D021680968890704D5A860CB
:1008B000606D40F00400606594F85C101020884082
:1008C000304218D021680968090714D5A86020684B
:1008D0000168490304D50068000308D5A16C07E04E
:1008E0000168C90503D4016821F008010160216C89
:1008F00009B12046884794F85C1020208840304297
:1009000031D021680968C9062DD5A86094F8350052
:1009100005282068016806D0490347D50068000310
:100920001DD4616C1CE021F0160101602068416952
:1009300021F080014161206C08B9A06C20B12068D1
:10094000016821F00801016094F85C103F208840A4
:10095000A86084F8358084F83490216D1FE0E16B45
:1009600009B120468847606D00282BD0606DC00714
:1009700014D0052084F835002068016821F00101B9
:1009800001600098401C0090B84203D820680068BD
:10099000C007F6D184F8358084F83490E16C0029E2
:1009A00010D001B02046BDE8F04308470168C905F2
:1009B000D5D4016821F01001016084F8358084F8F5
:1009C0003490CCE7BDE8F8830C0000202DE9F0411D
:1009D000044600F0B1F906465CB1022084F8350007
:1009E000002584F834502068016821F0010101607D
:1009F0000DE00120BDE8F08100F09EF9801B052884
:100A000005D920206065032084F83500F2E72068CE
:100A10000068C007F0D12268116820480140D4E97D
:100A200001031843D4E90336334318436369184379
:100A3000A3691843E3691843236A18430843616AAA
:100A4000042903D1D4E90B1319430843106020682B
:100A50004069666A20F0070130460E4301270428EA
:100A60000CD1A06A0643E06A40B12046FFF75EFE63
:100A700020B14020606584F83570BAE7206846618F
:100A80002046FFF73FFE94F85C203F2191408160B3
:100A9000656584F835700020ACE700003F8010F0F9
:100AA0002DE9F0410446866D90F8340000250128B8
:100AB0000DD0012084F8340094F835700020012F07
:100AC00007D084F8340002252846BDE8F0810220D2
:100AD000FBE7022784F8357060652046FFF750FE7B
:100AE00094F85C103F208840B0602068016841F0B5
:100AF00016010160206C20B12068016841F00801F6
:100B000001602068016841F001010160DCE700003C
:100B100070B5044600F010F90546601C02D0044888
:100B20000078044400F008F9401BA042FAD370BDDD
:100B3000000000202DE9F84FDFF8BCA100220125BC
:100B400003264FF00F090AF1040BAAF1040E00BFAF
:100B50000B6805FA02F42340A34270D10F7907F025
:100B60000307012F01D0022F16D187684FEA4208F0
:100B700006FA08FC27EA0C07D1F80CC00CFA08FCAE
:100B80004CEA070CC0F808C04768A7430C79C4F3C7
:100B9000001494403C4344600C79E443A4070AD019
:100BA000C4684FEA420C06FA0CF7BC438F6807FA98
:100BB0000CF72743C7600C7904F00304022C12D110
:100BC000D40800EB840CDCF820405707FF0E09FA2C
:100BD00007F824EA0804D1F8108008FA07F848EA70
:100BE0000408CCF8208004684FEA420C06FA0CF79F
:100BF000BC430F7907F0030707FA0CF72743076098
:100C00004C6814F4403F70D03C4C276847F4804750
:100C10002760246822F0030704F480440094384CD1
:100C200007EB040CDCF8084897074FEA177809FA35
:100C300008F7BC43334FB84202D1002724E054E008
:100C4000314FB84201D101271EE0304FB84201D1E7
:100C5000022719E02E4FB84201D1032714E02D4F8F
:100C6000B84201D104270FE02B4FB84201D105272C
:100C70000AE02A4FB84201D1062705E0284FB842C2
:100C800001D1072700E0082707FA08F72743CCF827
:100C90000878DAF800405746D1F804C09C435FEA70
:100CA000CC2C00D51C433C60DBF800405F46D1F8FB
:100CB00004C09C435FEA8C2C00D51C433C60DEF8EA
:100CC00000407746D1F804C09C435FEA8C3C00D5D5
:100CD0001C433C60084F083F3C68D1F804C09C436B
:100CE0005FEACC3C00D51C433C60521C102AFFF448
:100CF0002FAFBDE8F88F0000083C014044380240A7
:100D000000300140000002400004024000080240A0
:100D1000000C024000100240001402400018024083
:100D2000001C02400069084000D0012070470AB151
:100D3000816170470904FBE7014880687047000043
:100D400000000020024881680278114481607047E9
:100D5000000000200B4810B5016841F400710160EB
:100D6000016841F480610160016841F480710160B3
:100D7000032000F06FF80F2000F006F800F024F8D0
:100D8000002010BD003C024070B50D4D04464FF4EC
:100D90007A712878B1FBF0F00A490968B1FBF0F0EC
:100DA00000F00AFC48B9102C07D200222146501E40
:100DB00000F030F800206C6070BD012070BD0000B4
:100DC000000000200C0000200A4808B5016841F42A
:100DD00080410160006800F4804000900548001FD9
:100DE000016841F080510160006800F0805000907F
:100DF00008BD000044380240002809DB00F01F0253
:100E0000012191404009800000F1E020C0F800116C
:100E100070470000F0B40E4B1B680C46C3F302236E
:100E2000C3F10705042D00D90425191D072901D296
:100E3000002300E0DB1E012606FA05F1491E2140D1
:100E400099409E40761E16403143F0BC01F01BBA1B
:100E50000CED00E0064900F0070208684FF6FF03BA
:100E6000184040EA0220034A10430860704700001F
:100E70000CED00E00000FA052DE9F0470E460500F4
:100E800065D0DFF81481D8F80000F7B200F0070051
:100E9000B04207D288F80070D8F8000000F00700D0
:100EA000B04254D128683D4C810712D5400703D584
:100EB000206840F4E05020602878000703D52068BF
:100EC00040F4604020602068A96820F0F0000843EA
:100ED00020602878C0072DD030496868083901287B
:100EE00012D0022813D0032811D0096889070029DD
:100EF0002DDA216821F0030101432160FFF71CFF77
:100F0000814641F2883A0EE009688903EFE70968F3
:100F10008901ECE7FFF710FFA0EB0901514502D969
:100F20000320BDE8F0872068696800F00C00B0EB92
:100F3000810FEFD1D8F80010404601F00701B1420F
:100F400007D90770006800F00700B04201D0012007
:100F5000E7E72878400705D52068E96820F4E050E5
:100F6000084320602878000706D52068296920F406
:100F7000604040EAC100206000F018F82168084A8B
:100F8000C1F30311515CC840064908600648006877
:100F9000FFF7FAFE0020C4E7003C02400838024098
:100FA0002A2500080C00002004000020154810B578
:100FB000006810F00C02144813D01449042A0FD012
:100FC000082A0ED10F4C241F2268236802F03F022A
:100FD0005B0207D52068C0F38810A0FB010106E082
:100FE000084610BD2168C1F38811A1FB0001002350
:100FF000FFF76DF92168C1F30141491C4900B0FBBD
:10100000F1F010BD083802400024F40040787D0162
:101010002DE9F84F04006ED02078DFF84C93C0071C
:10102000A9F104054AD009F104000168C1F3810166
:10103000012908D00068C0F3810002280AD1D9F83C
:101040000000400206D52868800337D56068002874
:10105000E1D033E06068B0F5803F10D0B0F5A02F4C
:10106000286810D020F480302860286820F4802080
:1010700028606068A8B1FFF75FFE06460DE02868AB
:1010800040F48030F4E740F480202860F7E700BFA8
:10109000FFF752FE801B642873D828688003F7D5B9
:1010A0000CE0FFF749FE064605E000BFFFF744FEEF
:1010B000801B6428F0D828688003F7D42078DFF8F4
:1010C000AC8280074FF0000A3ED5A748001D01689A
:1010D00011F00C0F08D00068C0F3810002280BD17A
:1010E000D9F80000400207D42868800716D5E068C8
:1010F000012800D112E033E1E068B8B10120C8F85E
:101100000000FFF719FE064605E000BFFFF714FEDA
:10111000801B0228C0D828688007F7D52868216975
:1011200020F0F80040EAC10028600DE0C8F800A0F7
:10113000FFF702FE064604E0FFF7FEFD801B0228D3
:101140001FD828688007F7D42078000722D5864F5B
:1011500087486169703771B101210160FFF7ECFDCB
:10116000064604E0FFF7E8FD801B022809D838682E
:101170008007F7D50EE0C0F800A0FFF7DDFD0646BA
:1011800005E082E0FFF7D8FD801B02287DD8386893
:101190008007F7D42078400768D5DFF8CCB1002766
:1011A0000BF13C0BDBF80000C0000BD4DBF80010A7
:1011B00041F08051CBF80010DBF80000012700F06F
:1011C000805000906B4E3068C00510D4306840F4F9
:1011D00080703060FFF7B0FD009005E0FFF7ACFDD8
:1011E0000099401A022850D83068C005F6D55E4EE6
:1011F000A0686C3601280FD00528306810D020F088
:1012000001003060306820F004003060A068B8B1A0
:10121000FFF792FD00900FE0306840F00100F4E726
:1012200040F004003060F7E7FFF786FD0099411AAF
:1012300041F28830814266D830688007F4D50EE0EC
:10124000FFF77AFD009007E0FFF776FD0099411A5D
:1012500041F28830814256D830688007F4D42FB1EB
:10126000DBF8001021F08051CBF80010A069C8B362
:101270003D49091D0968C1F3810102294AD00228AC
:10128000504607D0C8F8600000E03CE0FFF754FD8E
:1012900004463BE04746C8F86000FFF74DFD0646B0
:1012A00005E000BFFFF748FD801B02282BD8286807
:1012B0008001F7D4D4E907010843A16A2E4A4908FE
:1012C00002EB0141626A41EA8211084394F82C1052
:1012D00040EA0161C9F8001001203866FFF72CFDD3
:1012E000044606E03EE000BFFFF726FD001B022893
:1012F00009D828688001F7D534E000BFFFF71CFD4E
:10130000001B022802D90320BDE8F88F286880015D
:10131000F4D427E00128F7D0D9F80000E26900F4FE
:10132000800191421CD1226A00F03F01914217D105
:1013300047F6C071626A0140B1EB821F10D1A26A08
:101340004FF0FF3300F4403103EB5202B1EB024F98
:1013500006D194F82C1000F07060B0EB016F01D052
:101360000120D1E70020CFE70438024000004742C7
:10137000800E4742007000400000FFFF704770B5CC
:10138000040009D0606A002540B125616561A5624D
:1013900094F8510040B10CE0012070BD6068B0F5D8
:1013A000827FF4D0E561F2E784F85050204600F0E7
:1013B00045F8022084F851002068016821F04001BE
:1013C0000160A088218900F4827001F4044108437F
:1013D000A18901F400610843217C01F00201084366
:1013E000217D01F001010843218B01F400710843C4
:1013F000217F01F03801084394F8201001F08001AA
:101400000843218D01F40051084321680860A06958
:10141000042101EA104094F8241001F0100108435F
:10142000216848602068C16921F40061C161656577
:10143000012084F85100002070BD000070B586B016
:10144000064614216846FEF7B9FF1F4930688842F6
:1014500038D11E480025016841F4805101600068C0
:1014600000F48050059019481438016841F00101DA
:1014700001600068694600F001000590A02000901E
:101480000220CDE9010503200390052004901048B7
:10149000FFF750FB104C0F4820604FF0C0606060B9
:1014A0004020C4E902050001C4E90405A561E56125
:1014B000256220466562FFF789FA08B1FFF79DF9BA
:1014C000B464A66306B070BD0030014044380240E9
:1014D0000000024058640240780000202DE9F041ED
:1014E000044690F850000026012809D0012784F80E
:1014F000507094F851000025012804D002264EE0D7
:101500000220BDE8F08189B182B1032084F8510046
:1015100065652163A286E286A56365642564A58767
:10152000E587A068B0F5004F02D00BE0012636E059
:101530002068016821F0400101602068016841F4E1
:1015400080410160A16C18480864A16C1748C86309
:10155000A16C1748C864A06C0565E38E2268216BF6
:101560000C32A06CFFF79CFA38B1606D40F01000AF
:101570006065012684F8517011E020680168490611
:1015800003D4016841F0400101602068416841F0E6
:10159000200141602068416841F00201416084F807
:1015A00050503046ADE70000711F00087B1F000857
:1015B0004F1F00087047704710B5401EB0F1807F84
:1015C00001D3012010BD4FF0E02460610F216017AE
:1015D00000F059FE0020A06107202061002010BD0E
:1015E000FEE7000070B5054600F084FD0E4C217842
:1015F000884216D00120FFF78BFA00F07BFD0146F0
:10160000207881420DD06178491CC9B261700129EE
:1016100004D9002161702870012070BD00F06AFDBE
:101620002070002070BD0000100000202DE9FE4F4A
:10163000161ACDE900104FF000085D1A47464FF02A
:10164000FF30002E02DD4FF0010102E003D14FF028
:1016500000018B4602E08346C6F10006002D02DD44
:101660004FF0010002E003D14FF00000824602E09B
:101670008246C5F10005AE4201DD344600E02C464D
:10168000601C4FF00009029019E00098012281B21D
:10169000019880B200F026FFB0442F44A04504DD3D
:1016A0000198A8EB040858440190A74203DD009874
:1016B0003F1B5044009009F101001FFA80F9029984
:1016C0008945E2DDBDE8FE8F002803D0002901D066
:1016D0004161886170470000094808B5016841F41C
:1016E000800101600068002200F480000090114633
:1016F0003B20FFF78FFBBDE808403B20FFF77CBB9A
:10170000303802402DE9F04186B014216846FEF7DA
:1017100055FE22480024016841F010010160016873
:1017200001F010010591016841F0010101600168BB
:1017300001F001010591016841F0040101600068B8
:10174000174F00F004000590012250213846FFF7A2
:10175000EEFADFF85080012210214046FFF7E7FA49
:10176000182001258DE8310069460F48FFF7E2F99E
:1017700050200326CDE90005CDE9024669463846EA
:10178000FFF7D8F91020CDE90005CDE902466946FA
:101790004046FFF7CFF906B0BDE8F081303802408F
:1017A0000000024000080240001002400F4810B53F
:1017B0000D4901604FF48271416000218160C16078
:1017C0004FF400720161C0E90512C161016241621A
:1017D00081620A21C162FFF7D2FD002803D0BDE873
:1017E0001040FFF70AB810BD003001402000002073
:1017F0002DE9FC4100270124CDE9004710232022D8
:1018000039462C20FEF726FF544D1023182228605D
:10181000CDE9004019463020FEF71CFF2868102350
:10182000CDE90040182220213020FEF713FF286860
:101830001023CDE90040182200213020FEF70AFFD6
:1018400028681023CDE90040182219463020FEF701
:1018500001FF286842490122C161002100F03CF9E2
:101860004049C16102220021286800F035F93E4953
:10187000C16103220021286800F02EF93B49C161B3
:1018800004220021286800F027F93949C1610222A9
:101890000021286800F020F9C472286800F074F86C
:1018A000CDE900471023082200213820FEF7D2FEA0
:1018B0000646CDE900461023082219463820FEF7D7
:1018C000C9FECDE900461023082220213820FEF76A
:1018D000C1FECDE90046102308222F217620FEF715
:1018E000B9FE2448F06101220021304600F0F4F8EE
:1018F0002149C16102220021304600F0EDF81F4964
:10190000C16103220021304600F0E6F81C49C161A4
:10191000304600F039F831462868FFF7D5FE03223B
:101920000021304600F0D8F8B1694161CDE90047A7
:101930001023182200213820FEF78CFE044611489F
:10194000E0612146F068FFF7BFFE00221146204605
:1019500000F0C2F8A1694161BDE8FC8114000020DB
:10196000252300083923000859230008792300089B
:1019700099230008B9230008D92300085924000836
:10198000792400089924000800B5020007D0FEF76A
:1019900036FF03461046FEF73DFFC360186100BDE9
:1019A000FEE700002DE9FF5F9346039C204600F010
:1019B000B1FC02460021084606E0635C7F2B01D99A
:1019C000891C00E0491C401C9142F6D300F0FF0A3C
:1019D00000202BE002461C48039900F0BDFB10B329
:1019E00000244000A0F10209184909EBD40001EBE2
:1019F0000017002504F0070001268640785D30427C
:101A000009D00098B8B101980BEB040241190123E9
:101A1000009800F0ABF86D1CEDB2102DEED3641CF5
:101A2000E4B2102CE0D308F10100C0B2804650456A
:101A3000D0D3BDE8FF9F01980BEB0401284401229D
:101A400000F050FDE7E700002C2B0008312B0008C8
:101A5000002809D0002305E039B18069002803D0AF
:101A60005B1C9BB29342F7D370474069F6E70000D6
:101A70002DE9FE43814690460D461E46184600F06D
:101A800049FC0024074602941DE0305D7F280FD9F1
:101A90008DF80800301902AB40788DF809004246F5
:101AA00029464846FFF77EFF1035EDB2A41C0AE038
:101AB000CDE900802B46064A0649484600F07AF8F0
:101AC0000835EDB2641CBC42DFD3BDE8FE830000E4
:101AD0003A2500083C250008002809D0002305E02D
:101AE00039B10069002803D05B1C9BB29342F7D345
:101AF0007047C068F6E7000070B51B48FFF772FD3D
:101B00001949891DA1F1080520B1A87810B101205B
:101B1000087102E00879002824D00020087100F044
:101B2000FDFA6C68ACB12089012805D0206918B194
:101B3000C17A09B90446F6E7E16909B12046884748
:101B4000E06830B1E17A21B90189012901D0044668
:101B5000F2E76868FEF729FE00F0A6FBBDE87040DA
:101B6000FEF7BEBD70BD000012000020F0B4048876
:101B70000C4425B24488802D144424B217DA402C3A
:101B800015DA002D13DB002C11DBB0F904608E4256
:101B90000DDBB0F90600904209DB002907DB002AC3
:101BA00005DBA1B2A8B2F0BC1A4600F09BBCF0BCA9
:101BB000704700002DE9FF5F9A46DDE90EB020383E
:101BC00089461778567800F0FF0800242FE000259A
:101BD00029E000BF06EB8600C0F39C010A22B1FB9E
:101BE000F2F002FB101000284FEAD60000D0401C93
:101BF00018FB07F14843E10817FB010109EB050059
:101C0000085C04F00701C84010F0010F09D00098EB
:101C100088B104EB0B0205EB0A0101230098FFF7E2
:101C2000A5FF6D1CEDB2BD42D4D3641CE4B2B44236
:101C3000CDD3BDE8FF9F04EB0B0105EB0A000122A9
:101C400000F050FCEDE72DE9FC471D46DDE90A7484
:101C50001646884681460BE0CDE900702B46324699
:101C600041464846FFF7A6FF3078641C2844C5B2B9
:101C700020780028F0D1BDE8FC872DE9FF4F83B024
:101C80000026DDE910951F4690468B463446DDF868
:101C900048A02AE0281B401E0A22C1B2012000E011
:101CA0005043491EC9B2FBD2BAFBF0F00A21B0FB87
:101CB000F1F201FB120026B9691E8C4201DA28B14B
:101CC00001263030C0B2CDE9009002E02021CDE9FC
:101CD000009198F8000010FB0470C3B242465946C8
:101CE0000398FFF767FF641CE4B2AC42D2D307B09D
:101CF000BDE8F08FFEE7F0B50446002901DA4A425C
:101D000000E00A4696B200280CD00025CF0F0CE068
:101D100001223946FFF79CFE18B1817A012904D1CE
:101D200001E02046F0BD6D1CADB2B542F0D3F0BD70
:101D3000F0B50446002901DA4A4200E00A4696B2AC
:101D400000280CD00025CF0F0CE001223946FFF708
:101D5000C3FE18B1817A012904D101E02046F0BD0B
:101D60006D1CADB2B542F0D3F0BD70B5002404F1E6
:101D7000B000C0B2002100F0C3F80021084600F016
:101D8000BFF80021102000F0BBF800250121002041
:101D900000F0B6F86D1CEDB2802DF7D3641CE4B2F0
:101DA000082CE4D370BD000010B5494C012240213D
:101DB0002046FEF7BCFF6420FEF7AAFE0022402169
:101DC0002046FEF7B4FF6420FEF7A2FE0122402168
:101DD0002046FEF7ACFF0021AE2000F091F8002174
:101DE000084600F08DF80021102000F089F800214D
:101DF000402000F085F80021812000F081F80021CA
:101E0000CF2000F07DF80021A12000F079F800211A
:101E1000C82000F075F80021A62000F071F800211C
:101E2000A82000F06DF800213F2000F069F80021A3
:101E3000D32000F065F80021084600F061F8002189
:101E4000D52000F05DF80021802000F059F8002135
:101E5000D92000F055F80021F12000F051F80021C0
:101E6000DA2000F04DF80021122000F049F800219E
:101E7000DB2000F045F80021402000F041F800216F
:101E8000202000F03DF80021022000F039F8002168
:101E90008D2000F035F80021142000F031F80021E9
:101EA000A42000F02DF80021A62000F029F8002140
:101EB000AF2000F025F80021AF2000F021F8FFF757
:101EC00054FF0021BDE81040084600F003B80000B0
:101ED0000000024010B50446B031C8B2002100F045
:101EE0000FF8102040EA1410002100F009F804F067
:101EF0000F00BDE8104040F001000021AFF300806A
:101F000073B50F4C09B1012200E0002210212046D8
:101F1000FEF70DFF0B4D002210212846FEF707FFAC
:101F2000012269460848FFF7D9FA01221021284604
:101F3000FEF7FDFE012210212046FEF7F8FE7CBDD3
:101F4000000802400000024020000020704710B549
:101F5000806B01684A6822F003024A60416D41F0DB
:101F600010014165012180F85110FFF707FA10BDFB
:101F700010B5806BFFF71FFB10BD38B50546846BAD
:101F8000FEF7DAFE024628680068C00523D4206800
:101F9000416821F0200141602068416821F0020180
:101FA00041606421204600F01BF818B1606D40F0DC
:101FB00020006065A068002118B92068C2688068A8
:101FC0000090E186012084F85100606D18B1204630
:101FD000FFF7D4F938BD2046FFF7ECFA38BD000012
:101FE00038B504461248134B0068B0FBF3F04FF4C9
:101FF0007A73584300906068B0F5827F0DD10B462C
:10200000009200228021204600F016F870B1606D29
:1020100040F020006065032038BD009830B1401EBC
:10202000009020688068C0430006F6D5002038BDC7
:102030000C00002000366E012DE9F8431E46914643
:1020400088460446089DFEF777FE401B351AFEF7CA
:1020500073FE074625480068C0F3CB30684338E07C
:10206000701C37D0FEF768FEC01BA84203D215B122
:10207000009860B32CE02068416821F0E0014160E5
:102080006068B0F5827F0BD1A068B0F5004F02D038
:10209000B0F5806F04D12068016821F04001016033
:1020A000A06AB0F5005F09D12068016821F40051F1
:1020B00001602068016841F400510160012084F84A
:1020C0005100002084F850000320BDE8F88300256B
:1020D000401E00902068816838EA010004D0002189
:1020E0004945BDD10020F0E70121F9E70C000020AF
:1020F0007047000010B5084C10212046FEF712FE74
:1021000030B108212046FEF70DFE18B1002010BDA9
:10211000022010BD032010BD0010024010B50D4C70
:10212000A07801280CD002280DD0032810D16068B7
:10213000416909B10021A1700121FFF7DCFD06E032
:102140004FF0FF3100E001216068FFF7F1FD6060B2
:1021500010BD0000100000202DE9F0410546144696
:102160000E46084600F0D6F80746284600F0D2F89A
:102170000021034608468C46BC422ED26BB367B39F
:10218000621C0AE0775C7F2F05D9891CA04203D12D
:102190004FF0010C00E0491C401C9042F2D3002299
:1021A0001046314417E0521C2C5CBCF1000F05D0E6
:1021B00011F8026CB44208D12C18647811F8016C43
:1021C000B44202D1D0B2BDE8F0812C5C7F2C01D9A1
:1021D000801C00E0401C9A42E5D30020F3E7FEF7A4
:1021E000B1BD000030B593B030216846FEF7E6F887
:1021F00014210CA8FEF7E2F81C480024016841F005
:1022000080510160006800F080501190184801680A
:1022100041F4804101600068022500F48040119083
:102220000120039010200490009506950820CDE928
:1022300007404820CDE9090504200B906846FEF7C9
:10224000E7FE08B172B6FEE70F20CDE90C054FF4AA
:102250008050CDE90E4002210CA81094FEF70CFE30
:10226000002801D072B6FEE713B030BD40380240FE
:10227000007000400248016841F47001016070473D
:1022800088ED00E0FEE70907090E002804DB00F1F5
:10229000E02080F80014704700F00F0000F1E0200B
:1022A00080F8141D704700002DE9F04100240D4E08
:1022B0000D4F11E0E1B20020FFF70CFE5FF00005CA
:1022C00005EBC4100121305CFFF71AFE6D1CADB2A6
:1022D000802DF5D3641CA4B27888A042EAD8BDE86A
:1022E000F0810000D800002018000020FEF732FD29
:1022F000FFF778FFFFF706FAFFF7EEF9FFF756FA58
:10230000FFF752FDFFF774FAFFF7F6FB0A20FEF71E
:10231000FFFBF9E70146002000E0401C0A5C002AB0
:10232000FBD17047002202A31146FFF7A1BB0000BA
:10233000D7CCC9FA000000001CB505A20021CDE9E8
:102340000012044A0B46911CFFF77DFC1CBD0000E7
:10235000315F32003A2500081CB505A20021CDE905
:102360000012044A0B46911CFFF76DFC1CBD0000D7
:10237000315F33003A2500081CB505A20021CDE9E4
:102380000012044A0B46911CFFF75DFC1CBD0000C7
:10239000315F34003A2500081CB505A20021CDE9C3
:1023A0000012044A0B46911CFFF74DFC1CBD0000B7
:1023B000315F35003A2500081CB505A20021CDE9A2
:1023C0000012044A0B46911CFFF73DFC1CBD0000A7
:1023D0002B0000003A250008FEB507464FF0FF31FC
:1023E000FFF7A6FC184D194E194C2968884207D1F1
:1023F0003078032804D12078092801D2401C2070AD
:1024000001213846FFF794FC2968884206D13078CC
:10241000032803D1207830B1401E20702078042892
:1024200001D9012000E00020082101EBC000B880A4
:102430000020227801218DE80700064A0346911CFE
:102440003846FFF71AFCFEBD1400002012000020E1
:102450001E0000203A2500081CB505A20021CDE988
:102460000012044A0B46911CFFF7EDFB1CBD000057
:102470002D0000003A2500081CB505A20021CDE979
:102480000012044A0B46911CFFF7DDFB1CBD000047
:102490003C0000003A2500081CB5044600200CA1B1
:1024A0000C4ACDE900010346911C2046FFF7CBFB07
:1024B000A07809A11830C0B2CDE900012078054A02
:1024C0001038C3B2911C0020FFF7BDFB1CBD0000FB
:1024D000335F31003A2500084E6F7468696E6721DA
:1024E0002100000010B57F2812D2402910D2C1F37C
:1024F000C703C0B200EBC31001F00704054B012174
:10250000A140002A1A5C01D00A4300E08A431A5411
:1025100010BD0000D80000204FF04070E1EE100A1E
:10252000704700061016000610160000000000009C
:10253000000001020304060708090810000000005B
:10254000000000000000000000000000000000F893
:1025500000000000000000333000000000100C06F6
:10256000100C0600000000000000000040C0784091
:10257000C0784000043F04043F040400007088FC5D
:1025800008300000001820FF211E0000F008F000B5
:10259000E018000000211C031E211E0000F0088826
:1025A000700000001E2123241927211010160E0090
:1025B000000000000000000000000000000000E03B
:1025C0001804020000000007182040000002041850
:1025D000E00000000040201807000000404080F0AC
:1025E000804040000202010F01020200000000F0E2
:1025F000000000000101011F0101010000000000B6
:102600000000000080B0700000000000000000002A
:1026100000000000000101010101010100000000B3
:10262000000000000030300000000000000000004A
:1026300080601804006018060100000000E0100827
:102640000810E000000F102020100F00001010F8FC
:10265000000000000020203F20200000007008083B
:1026600008887000003028242221300000300888BB
:10267000884830000018202020110E000000C020E3
:1026800010F8000000070424243F240000F8088804
:10269000880808000019212020110E0000E0108891
:1026A00088180000000F112020110E0000380808C3
:1026B000C83808000000003F0000000000708808D3
:1026C00008887000001C222121221C0000E0100854
:1026D0000810E0000000312222110F00000000C0AD
:1026E000C00000000000003030000000000000804A
:1026F000000000000000806000000000000080403A
:102700002010080000010204081020004040404052
:1027100040404000040404040404040000081020A5
:1027200040800000002010080402010000704808EA
:102730000808F0000000003036010000C030C82852
:10274000E810E0000718272423140B000000C0380D
:10275000E0000000203C23020227382008F8888887
:1027600088700000203F202020110E00C030080893
:1027700008083800071820202010080008F808086A
:102780000810E000203F202020100F0008F8888863
:10279000E8081000203F20202320180008F888882F
:1027A000E8081000203F200003000000C0300808A7
:1027B0000838000007182020221E020008F8080030
:1027C0000008F808203F210101213F20000808F8F7
:1027D000080800000020203F20200000000008081A
:1027E000F8080800C08080807F00000008F888C0DA
:1027F00028180800203F20012638200008F808008B
:1028000000000000203F20202020300008F8F800C1
:10281000F8F80800203F003F003F200008F830C0D3
:102820000008F808203F200007183F00E0100808C3
:102830000810E0000F10202020100F0008F80808F2
:102840000808F000203F210101010000E010080805
:102850000810E0000F18242438504F0008F888882A
:1028600088887000203F2000030C3020007088080A
:10287000080838000038202121221C00180808F818
:10288000080818000000203F2000000008F8080099
:102890000008F808001F202020201F00087888006A
:1028A00000C83808000007380E010000F80800F8DA
:1028B0000008F800033C0700073C03000818688084
:1028C0008068180820302C03032C30200838C800FA
:1028D000C83808000000203F200000001008080849
:1028E000C83808002038262120201800000000FEEB
:1028F000020202000000007F40404000000C30C097
:1029000000000000000000010638C00000020202C2
:10291000FE000000004040407F0000000000040274
:10292000020204000000000000000000000000009F
:10293000000000008080808080808080000202048F
:102940000000000000000000000000000000808087
:10295000808000000019242222223F2008F80080F5
:1029600080000000003F112020110E0000000080B8
:1029700080800000000E1120202011000000008047
:102980008088F800000E112020103F200000808079
:1029900080800000001F222222221300008080F08D
:1029A000888888180020203F2020000000008080B8
:1029B00080808000006B94949493600008F80080FD
:1029C00080800000203F210000203F200080989858
:1029D000000000000020203F2020000000000080B8
:1029E0009898000000C08080807F000008F80000F8
:1029F00080808000203F24022D302000000808F84D
:102A0000000000000020203F202000008080808007
:102A100080808000203F20003F20003F8080008099
:102A200080800000203F210000203F2000008080A7
:102A300080800000001F202020201F008080008058
:102A40008000000080FFA12020110E000000008007
:102A500080808000000E112020A0FF8080808000F8
:102A60008080800020203F21200001000000808025
:102A7000808080000033242424241900008080E01A
:102A8000808000000000001F2020000080800000E7
:102A900000808000001F202020103F2080808000C8
:102AA0000080808000010E300806010080800080D8
:102AB000008080800F300C030C300F0000808000FD
:102AC000808080000020312E0E3120008080800028
:102AD0000080808080818E701806010000808080D8
:102AE000808080000021302C222130000000000076
:102AF000807C020200000000003F40400000000017
:102B0000FF00000000000000FF0000000002027C47
:102B1000800000000040403F00000000000601016E
:102B2000020204040000000000000000D7CCC9FA33
:102B3000001060028C0008C8398E0808CC3B880859
:102B40000004047E0100635A46E100635A46E10036
:102B5000008040301E101010FF10101010101000D8
:102B600000404042424242427F4242424242404052
:102B700000000000942B000800000020200000004E
:102B8000C4010008B42B000820000020180B00002E
:102B9000E00100080100000010000000000000003B
:102BA0000024F40000000000000000008000080085
:042BB0000100000020
:040000050800018965
:00000001FF
