:020000040800F2
:10000000F80C002031020008CD2A0008392400082D
:100010006926000835080008B13600080000000015
:10002000000000000000000000000000052F000894
:100030001909000800000000252D00086D32000895
:100040004B0200084B0200084B0200084B0200085C
:100050004B0200084B0200084B0200084B0200084C
:100060004B0200084B0200084B0200084B0200083C
:100070004B0200084B0200084B0200084B0200082C
:100080004B0200084B0200084B0200084B0200081C
:100090004B0200084B0200084B0200084B0200080C
:1000A0004B0200084B0200084B0200084B020008FC
:1000B000113300084B0200084B0200084B020008F5
:1000C0004B0200084B0200084B0200084B020008DC
:1000D0004B020008913600084B0200084B02000852
:1000E0004B0200084B0200084B0200084B020008BC
:1000F0004B0200084B0200084B0200084B020008AC
:100100004B0200084B0200084B0200084B0200089B
:100110004B0200084B0200084B0200084B0200088B
:100120004B0200084B0200084B0200086908000857
:100130004B0200084B0200084B0200084B0200086B
:100140004B0200084B0200084B0200084B0200085B
:100150004B0200084B0200084B0200084B0200084B
:100160004B0200084B0200084B0200084B0200083B
:100170004B0200084B0200084B0200080000000080
:100180004B0200084B02000800F002F800F040F8B3
:100190000AA090E8000C82448344AAF10107DA45E2
:1001A00001D100F035F8AFF2090EBAE80F0013F0F4
:1001B000010F18BFFB1A43F001031847303F00003E
:1001C000503F0000103A24BF78C878C1FAD85207CF
:1001D00024BF30C830C144BF04680C6070470000C1
:1001E0000023002400250026103A28BF78C1FBD840
:1001F000520728BF30C148BF0B6070471FB503F0DE
:1002000049FB9DE8030000F01FF91FBD10B510BDAC
:1002100000F09EF91146FFF7F1FF03F0ABFA00F092
:10022000BCF903B4FFF7F2FF03BC00F0EDF90000E6
:100230000948804709480047FEE7FEE7FEE7FEE77A
:10024000FEE7FEE7FEE7FEE7FEE7FEE704480549B6
:10025000054A064B70470000013300088901000879
:10026000F8060020F80C0020F8080020F80800200C
:1002700070B5064600F0CCF8056806F10B0020F0DA
:100280000704B4429CBF002070BD2B466A68BAB117
:100290001068A04210D304F1080188423CBF5068A6
:1002A000586007D35168101941601168091B01603B
:1002B00058601460101D70BD13465268002AE7D1C3
:1002C0002146284600F0ACF80028DED170BD53EA84
:1002D000020C00F069802DE9F04B4FF00006002B76
:1002E0001FBFB3FA83F503FA05F424FA05F65E405E
:1002F00012BF1643B2FA82F502FA05F4C5F12005E1
:100300001EBF22FA05FC44EA0C04203556EA044CD0
:100310004FEA144418BF641C4FF000084FF0000966
:10032000904271EB030C39D3002919BFB1FA81F760
:1003300001FA07F6B0FA80F700FA07F6C7F12007CE
:100340001EBF20FA07FC46EA0C062037B6FBF4FC79
:10035000A7EB0507103F07F01F0BCBF120060CFAA7
:100360000BFB2CFA06F644BFB3460026202FA4BF91
:100370005E464FF0000B5BEA060C08BF4FF0010B26
:1003800019EB0B09ABFB027C48EB0608C01B06FB14
:1003900002CC0BFB03CC71EB0C01C1E70B46024610
:1003A00041464846BDE8F08B13B54FF000004FF0D2
:1003B0000001AFF30080BDE81C4070474FF0000221
:1003C00000B5134694469646203922BFA0E80C504B
:1003D000A0E80C50B1F12001BFF4F7AF090728BF26
:1003E000A0E80C5048BF0CC05DF804EB890028BFA2
:1003F00040F8042B08BF704748BF20F8022B11F0CB
:10040000804F18BF00F8012B704770477047704746
:10041000004870479C06002070477047704770473F
:1004200038B504460A4600206946AFF3008000282C
:1004300008BF38BD02460099204600F067F8012049
:1004400038BD012000F07CB8F8B5AFF30080054658
:1004500000200C46102000BF0646A819A0420DD966
:10046000324669460020AFF30080070008BF00F065
:1004700067F80098A04218BF0546C419FFF7C8FFE7
:1004800005600746F01D20F007004619284600F0D9
:100490000AF8B44208BFF8BDA21B31463868BDE86F
:1004A000F84000F033B800210160C0E90110704746
:1004B0001020704770B50446051FFFF7A9FF0068BC
:1004C000002C14BF446870BD002C18BFAC423CBF68
:1004D00020466468F8D301680A18AA4218BF45602C
:1004E00003D12A6805461144016028684119A142D8
:1004F0001CBF6C6070BD6168696021680844286039
:1005000070BD000000487047940600200346406814
:100510008C46002818BF88423CBF03464068F8D389
:1005200018681844884207D00CF1030020F0070037
:10053000001D411A521A0146081D0A60FFF7BABF92
:1005400010B500F039F8BDE8104000F02FB8704742
:100550007546FFF7D7FFAE4605006946534620F0C3
:100560000700854618B020B5FFF770FEBDE82040B3
:100570004FF000064FF000074FF000084FF0000B5F
:1005800021F00701AC46ACE8C009ACE8C009ACE812
:10059000C009ACE8C0098D46704710B50446AFF3FA
:1005A00000802046BDE81040FFF73BBE002801D088
:1005B00000F02AB87047000010B5012805D00021CE
:1005C00003A000F027F8012010BD09A1F8E7000002
:1005D00053494752544D454D3A204F7574206F662C
:1005E0002068656170206D656D6F72790000000094
:1005F0003A2048656170206D656D6F727920636F78
:10060000727275707465640001491820ABBEFEE714
:100610002600020070B505460C460A2000E06D1C5D
:1006200000F011F835B128780028F8D102E0641CF8
:1006300000F009F814B120780028F8D1BDE8704026
:100640000A20AFF3008008B569468DF8000003204A
:10065000ABBE08BD10B50146806B026C12F0500FA6
:1006600005D0026CD20626D500F0C4FA10BD016C8C
:1006700041F40071016401688A6812F0405F17D18B
:10068000027EAAB9CA6A12F4700F02D08A685205B3
:100690000ED44A6822F020024A60016C21F4807175
:1006A0000164016CC90403D4016C41F001010164CF
:1006B00000F09EFA10BD806BC26CBDE81040084689
:1006C000104710B5806B40210164416C41F004017A
:1006D000416400F08FFA10BD10B5806B00F089FA0C
:1006E00010BD0000464910B54A6822F440324A6005
:1006F0004A6843681A434A6001684A6822F4807273
:100700004A6001684A68036942EA03224A60016854
:100710004A6822F040724A6001684A6883681A4356
:100720004A6001688A6822F400628A6001688A6807
:10073000C3681A438A60816A6FF07062D1420168AF
:100740008A6822F070628A6001688A680CD0836AC5
:100750001A438A6001688A6822F040528A60016800
:100760008A68C36A1A4301E022F040528A60016835
:100770008A6822F002028A6001688A68037E42EA7F
:1007800043028A6090F82010002901684A680FD05F
:1007900042F400624A6001684A6822F460424A609A
:1007A00001684A68174C436A04EB43331A4301E07B
:1007B00022F400624A600168CA6A22F47002CA62C6
:1007C0000168CA6A838B104C04EB03531A43CA6254
:1007D00001688A6822F400728A6001688A6890F869
:1007E000303042EA43228A6001688A6822F48062DB
:1007F0008A6001688A68406942EA8020886010BD8A
:100800000023014000E0FFFF0000F0FF70B50E463E
:1008100004000ED0F00709D01546042001F0CAFFED
:10082000206218B100210180206A4580A08C3043ED
:10083000A08470BDFEE700000020044B4FF48061EF
:1008400002461A54401C8842FBD3704740020020E5
:100850000449002008808880488010310880488042
:100860007047000040000020014800F041BB00003C
:100870005401002001681823CAB2103AB2FBF3F207
:10088000054B6FF30901032A9B5CC36500D9091D61
:1008900081650846704700009E38000810B5014683
:1008A00000208B698A6A4FF0C07453B1B3F5005FC2
:1008B00015D072B1012A0CD0022A0AD0032A09D11C
:1008C00004E01AB1012A06D0022A03D1C96AC9017B
:1008D00000D5012010BDC96AA142FAD010BD002A7E
:1008E000F7D0012AF2D0022AF3D0032AF3D010BDA8
:1008F00030B50468256825F48025256004686360A8
:100900008368402B036803D099600068C26030BDE3
:100910009A600068C16030BD70472DE9FE4F161A1D
:10092000CDE900104FF000085D1A47464FF0FF3048
:10093000002E02DD4FF0010102E003D14FF0000173
:100940008B4602E08346C6F10006002D02DD4FF023
:10095000010002E003D14FF00000824602E082462F
:10096000C5F10005AE4201DD344600E02C46601CB6
:100970004FF00009029019E00098012201B201989D
:1009800000B202F071FFB0442F44A04504DD01988D
:10099000A8EB040858440190A74203DD00983F1BD0
:1009A0005044009009F101001FFA80F9029989452D
:1009B000E2DDBDE8FE8F2DE9F0418288002A32D0C9
:1009C000C18800292FD0B0F90050802D2BDAB0F962
:1009D0000240402C27DAD54225D4CC4223D4681ECD
:1009E000104407B2601E084406B223463A46194630
:1009F0002846FFF792FF701E03B2641C2A4621B2FC
:100A000098460C461046FFF788FF33462A4619469B
:100A10003846FFF782FF3A4623464146BDE8F0419B
:100A20001046FFF77ABFBDE8F081000070B5114CA9
:100A30000020A178D1B1254602F066FAA17988425A
:100A400013D0012000F0C6FB02F05EFAA1798842C3
:100A50000BD0297002F058FAA07160702178012043
:100A6000002902D004F11C01087170BD6070207073
:100A700070BD00001800002072B6FEE7002804D008
:100A80000189012901D00069FAE77047002807D0E1
:100A9000C168002904D00A89012A01D00846F7E775
:100AA0007047000078B50024009490F83C20012A9B
:100AB00019D0012280F83C200A6807230568092A1A
:100AC00013D9EE680A3A02EB420293409E43EE606D
:100AD0000B788A680A3B03EB43039A400368DD689E
:100AE0002A43DA6010E0022078BD2E6902EB420250
:100AF00093409E432E610B788A6803EB43039A4030
:100B000003681D692A431A614A681F23072A13D202
:100B100005686E6B521E02EB820293409E436E6329
:100B20000B790A885B1E92B203EB83039A40036839
:100B30005D6B2A435A6327E005680D2A12D22E6B9B
:100B4000D21F02EB820293409E432E630B790A88E8
:100B5000DB1F92B203EB83039A4003681D6B2A43A9
:100B60001A6311E0EE6A0D3A02EB820293409E4353
:100B7000EE620B790A880D3B92B203EB83039A4035
:100B80000368DD6A2A43DA62164B0568144A9D42FF
:100B900006D10D68122D03D1556845F480055560C6
:100BA00005689D4218D10B68102B01D0112B13D171
:100BB000536843F400035360096810290CD10A49B3
:100BC0000A4A0968B1FBF2F101EB8101490000E03A
:100BD000491E00910029FBD180F83C40002078BDDF
:100BE00000230140002001401400002040420F007B
:100BF00070477047704770B504004FF0000503D090
:100C0000206C002610B107E0012070BD204600F0E6
:100C10001DF8666484F83C60206CC00610D4206C1B
:100C200020F4885040F0020020642046FFF75AFD6F
:100C30006664206C20F0020040F00100206400E0B7
:100C4000012584F83C60284670BD000070B586B070
:100C5000064614216846FFF7B1FB1D4930688842FB
:100C600033D11C480025016841F48071016000689F
:100C700000F48070059017481438016841F00101B4
:100C800001600068694600F00100059003200090B3
:100C9000CDE90105104800F0AFFA114C0F48C4E946
:100CA00000050015A560C4E9035080006061800064
:100CB000A0618011C4E907052046656200F0E8F9EB
:100CC00008B1FFF7D9FEB463A66306B070BD00009B
:100CD00000200140443802400000024010640240FD
:100CE0009C000020F8B5044600200E46009094F8C1
:100CF0003C10012907D0012184F83C1021688B6841
:100D0000DB0702D011E00220F8BD8B6843F001033D
:100D10008B604049404B0968B1FBF3F101EB4101A5
:100D200000E0491E00910029FBD121688B68DB059A
:100D300003D58B6823F480738B6021688B68DB0795
:100D40005DD0236C40F20165AB4343F480732364B0
:100D50004968490505D5216C21F4005141F48051C1
:100D60002164216CC90404D5616C21F00601616421
:100D700000E0606484F83C00A16B2948274DC863FB
:100D8000A16B28480864A16B2748C86421686FF0EC
:100D9000220008602068416841F08061416020685D
:100DA000816841F4807181602168134632464C317C
:100DB000A06B00F0D7F968681C49C006206806D00F
:100DC000884224D1816811F0405F13D01FE088422F
:100DD000F8D0174A904203D1D1F80423D206F1D0BB
:100DE000144A904213D1D1F8041301F01F011029C5
:100DF000E8D30CE0816841F08041816007E0206C1D
:100E000040F010002064606C40F00100606400203D
:100E1000F8BD00001400002040420F0000230140F4
:100E200055060008D9060008C30600080020014046
:100E300000210140002201402DE9F0410446876D68
:100E400000F0DCFA064694F835000025022806D0AA
:100E50008020606584F834500120BDE8F08120686E
:100E6000016821F0160101602068416921F08001CC
:100E70004161206C08B9A06C20B12068016821F0A4
:100E8000080101602068016821F0010101600CE0A7
:100E900000F0B4FA801B052807D9202060650320E4
:100EA00084F8350084F83450D7E720680068C0071C
:100EB000EED194F85C103F208840B860012084F89F
:100EC000350084F834500020C7E790F83510022927
:100ED00003D08021416501207047052180F835103D
:100EE0000068016821F001010160002070470000E6
:100EF0002DE9F84304464FF00009CDF8009063480F
:100F00004FF41651A56D0068B0FBF1F72E6894F808
:100F10005C10082000FA01F131420FD021680A6804
:100F200052070BD50A6822F004020A6094F85C109C
:100F30008840A860606D40F00100606594F85C1026
:100F40004FF0010808FA01F0304208D021684969E1
:100F5000090604D5A860606D40F00200606594F851
:100F60005C1004208840304208D021680968890755
:100F700004D5A860606D40F00400606594F85C10D2
:100F800010208840304218D021680968090714D51C
:100F9000A86020680168490304D50068000308D5EB
:100FA000A16C07E00168C90503D4016821F00801BC
:100FB0000160216C09B12046884794F85C1020201C
:100FC0008840304231D021680968C9062DD5A86013
:100FD00094F8350005282068016806D0490347D5F4
:100FE000006800031DD4616C1CE021F01601016053
:100FF0002068416921F080014161206C08B9A06C32
:1010000020B12068016821F00801016094F85C10AB
:101010003F208840A86084F8358084F83490216DA2
:101020001FE0E16B09B120468847606D00282BD096
:10103000606DC00714D0052084F835002068016871
:1010400021F0010101600098401C0090B84203D8D3
:1010500020680068C007F6D184F8358084F83490A1
:10106000E16C002910D001B02046BDE8F0430847EC
:101070000168C905D5D4016821F01001016084F828
:10108000358084F83490CCE7BDE8F8831400002064
:101090002DE9F041044600F0B1F906465CB10220AA
:1010A00084F83500002584F834502068016821F068
:1010B000010101600DE00120BDE8F08100F09EF922
:1010C000801B052805D920206065032084F83500A1
:1010D000F2E720680068C007F0D122681168204854
:1010E0000140D4E901031843D4E9033633431843DC
:1010F00063691843A3691843E3691843236A1843D3
:101100000843616A042903D1D4E90B131943084346
:10111000106020684069666A20F0070130460E437F
:10112000012704280CD1A06A0643E06A40B120469A
:10113000FFF7B4FB20B14020606584F83570BAE752
:10114000206846612046FFF795FB94F85C203F211C
:1011500091408160656584F835700020ACE700003F
:101160003F8010F02DE9F0410446866D90F8340080
:10117000002501280DD0012084F8340094F8357042
:101180000020012F07D084F8340002252846BDE84E
:10119000F0810220FBE7022784F835706065204665
:1011A000FFF7A6FB94F85C103F208840B0602068F1
:1011B000016841F016010160206C20B120680168CF
:1011C00041F0080101602068016841F001010160FF
:1011D000DCE7000070B5044600F010F90546601C1D
:1011E00002D004480078044400F008F9401BA042F3
:1011F000FAD370BD080000202DE9F84FDFF8BCA13C
:101200000022012503264FF00F090AF1040BAAF171
:10121000040E00BF0B6805FA02F42340A34270D10C
:101220000F7907F00307012F01D0022F16D187682D
:101230004FEA420806FA08FC27EA0C07D1F80CC06E
:101240000CFA08FC4CEA070CC0F808C04768A74332
:101250000C79C4F3001494403C4344600C79E4439B
:10126000A4070AD0C4684FEA420C06FA0CF7BC4344
:101270008F6807FA0CF72743C7600C7904F0030462
:10128000022C12D1D40800EB840CDCF82040570764
:10129000FF0E09FA07F824EA0804D1F8108008FACA
:1012A00007F848EA0408CCF8208004684FEA420CAA
:1012B00006FA0CF7BC430F7907F0030707FA0CF79F
:1012C000274307604C6814F4403F70D03C4C2768BB
:1012D00047F480472760246822F0030704F4804421
:1012E0000094384C07EB040CDCF8084897074FEAE9
:1012F000177809FA08F7BC43334FB84202D10027E8
:1013000024E054E0314FB84201D101271EE0304FB4
:10131000B84201D1022719E02E4FB84201D103276C
:1013200014E02D4FB84201D104270FE02B4FB842F3
:1013300001D105270AE02A4FB84201D1062705E06E
:10134000284FB84201D1072700E0082707FA08F71D
:101350002743CCF80878DAF800405746D1F804C0A3
:101360009C435FEACC2C00D51C433C60DBF800407A
:101370005F46D1F804C09C435FEA8C2C00D51C4327
:101380003C60DEF800407746D1F804C09C435FEA39
:101390008C3C00D51C433C60084F083F3C68D1F8AA
:1013A00004C09C435FEACC3C00D51C433C60521C0B
:1013B000102AFFF42FAFBDE8F88F0000083C014071
:1013C0004438024000300140000002400004024066
:1013D00000080240000C02400010024000140240CD
:1013E00000180240001C02400069084000D00120A3
:1013F00070470AB1816170470904FBE701488068C2
:1014000070470000080000200248816802781144FB
:1014100081607047080000200B4810B5016841F456
:1014200000710160016841F480610160016841F46C
:1014300080710160032000F06FF80F2000F006F8C3
:1014400000F024F8002010BD003C024070B50D4DA6
:1014500004464FF47A712878B1FBF0F00A49096824
:10146000B1FBF0F000F02AFC48B9102C07D20022A2
:101470002146501E00F030F800206C6070BD012045
:1014800070BD000008000020140000200A4808B5C4
:10149000016841F480410160006800F480400090E0
:1014A0000548001F016841F080510160006800F0AC
:1014B0008050009008BD000044380240002809DB3D
:1014C00000F01F02012191404009800000F1E0205E
:1014D000C0F8001170470000F0B40E4B1B680C46BA
:1014E000C3F30223C3F10705042D00D90425191DF8
:1014F000072901D2002300E0DB1E012606FA05F1D0
:10150000491E214099409E40761E16403143F0BC52
:1015100002F0F0B80CED00E0064900F007020868A0
:101520004FF6FF03184040EA0220034A10430860C8
:10153000704700000CED00E00000FA052DE9F047CF
:101540000E46050065D0DFF81481D8F80000F7B228
:1015500000F00700B04207D288F80070D8F8000009
:1015600000F00700B04254D128683D4C810712D5E5
:10157000400703D5206840F4E05020602878000739
:1015800003D5206840F4604020602068A96820F0FE
:10159000F000084320602878C0072DD030496868E3
:1015A0000839012812D0022813D0032811D0096865
:1015B000890700292DDA216821F003010143216008
:1015C000FFF71CFF814641F2883A0EE00968890363
:1015D000EFE709688901ECE7FFF710FFA0EB0901CD
:1015E000514502D90320BDE8F0872068696800F002
:1015F0000C00B0EB810FEFD1D8F80010404601F09D
:101600000701B14207D90770006800F00700B04237
:1016100001D00120E7E72878400705D52068E96870
:1016200020F4E050084320602878000706D52068A1
:10163000296920F4604040EAC100206000F038F8D9
:101640002168084AC1F30311515CC840064908608B
:1016500006480068FFF7FAFE0020C4E7003C02409D
:1016600008380240A6380008140000200C000020B2
:101670000448054900680968044AC1F38221515CA5
:10168000C84070471400002008380240B6380008EF
:101690000448054900680968044AC1F34231515CB5
:1016A000C84070471400002008380240B6380008CF
:1016B000154810B5006810F00C02144813D01449F6
:1016C000042A0FD0082A0ED10F4C241F2268236849
:1016D00002F03F025B0207D52068C0F38810A0FB30
:1016E000010106E0084610BD2168C1F38811A1FB85
:1016F00000010023FEF7EBFD2168C1F30141491C05
:101700004900B0FBF1F010BD083802400024F4009D
:1017100040787D012DE9F84F04006ED02078DFF885
:101720004C93C007A9F104054AD009F104000168EF
:10173000C1F38101012908D00068C0F381000228AB
:101740000AD1D9F80000400206D52868800337D5B1
:1017500060680028E1D033E06068B0F5803F10D0C9
:10176000B0F5A02F286810D020F4803028602868B9
:1017700020F4802028606068A8B1FFF73FFE06468D
:101780000DE0286840F48030F4E740F480202860C1
:10179000F7E700BFFFF732FE801B642873D8286884
:1017A0008003F7D50CE0FFF729FE064605E000BFF1
:1017B000FFF724FE801B6428F0D828688003F7D444
:1017C0002078DFF8AC8280074FF0000A3ED5A748AA
:1017D000001D016811F00C0F08D00068C0F38100F3
:1017E00002280BD1D9F80000400207D428688007EE
:1017F00016D5E068012800D112E033E1E068B8B105
:101800000120C8F80000FFF7F9FD064605E000BF1B
:10181000FFF7F4FD801B0228C0D828688007F7D5A1
:101820002868216920F0F80040EAC10028600DE036
:10183000C8F800A0FFF7E2FD064604E0FFF7DEFD72
:10184000801B02281FD828688007F7D4207800075B
:1018500022D5864F87486169703771B101210160D7
:10186000FFF7CCFD064604E0FFF7C8FD801B022809
:1018700009D838688007F7D50EE0C0F800A0FFF758
:10188000BDFD064605E082E0FFF7B8FD801B02289B
:101890007DD838688007F7D42078400768D5DFF80E
:1018A000CCB100270BF13C0BDBF80000C0000BD4DF
:1018B000DBF8001041F08051CBF80010DBF800009D
:1018C000012700F0805000906B4E3068C00510D4A6
:1018D000306840F480703060FFF790FD009005E0C4
:1018E000FFF78CFD0099401A022850D83068C005D7
:1018F000F6D55E4EA0686C3601280FD005283068FA
:1019000010D020F001003060306820F0040030601A
:10191000A068B8B1FFF772FD00900FE0306840F0AA
:101920000100F4E740F004003060F7E7FFF766FDE0
:101930000099411A41F28830814266D830688007A8
:10194000F4D50EE0FFF75AFD009007E0FFF756FDD3
:101950000099411A41F28830814256D83068800798
:10196000F4D42FB1DBF8001021F08051CBF8001037
:10197000A069C8B33D49091D0968C1F38101022965
:101980004AD00228504607D0C8F8600000E03CE08A
:10199000FFF734FD04463BE04746C8F86000FFF718
:1019A0002DFD064605E000BFFFF728FD801B02283D
:1019B0002BD828688001F7D4D4E907010843A16A2D
:1019C0002E4A490802EB0141626A41EA821108434A
:1019D00094F82C1040EA0161C9F800100120386623
:1019E000FFF70CFD044606E03EE000BFFFF706FDF2
:1019F000001B022809D828688001F7D534E000BF11
:101A0000FFF7FCFC001B022802D90320BDE8F88F79
:101A100028688001F4D427E00128F7D0D9F8000025
:101A2000E26900F4800191421CD1226A00F03F017A
:101A3000914217D147F6C071626A0140B1EB821F33
:101A400010D1A26A4FF0FF3300F4403103EB520291
:101A5000B1EB024F06D194F82C1000F07060B0EB9F
:101A6000016F01D00120D1E70020CFE70438024008
:101A700000004742800E4742007000400000FFFF18
:101A8000704770B5040009D0606A002540B1256137
:101A90006561A56294F8510040B10CE0012070BD71
:101AA0006068B0F5827FF4D0E561F2E784F85050C9
:101AB000204600F045F8022084F8510020680168B3
:101AC00021F040010160A088218900F4827001F4B6
:101AD00004410843A18901F400610843217C01F01D
:101AE00002010843217D01F001010843218B01F42B
:101AF00000710843217F01F03801084394F8201059
:101B000001F080010843218D01F400510843216850
:101B10000860A069042101EA104094F8241001F043
:101B200010010843216848602068C16921F4006100
:101B3000C1616565012084F85100002070BD00007E
:101B400070B586B0064614216846FEF737FC1F497B
:101B50003068884238D11E480025016841F4805120
:101B60000160006800F4805005901948143801683D
:101B700041F0010101600068694600F00100059034
:101B8000A02000900220CDE901050320039005204C
:101B900004901048FFF730FB104C0F4820604FF0C6
:101BA000C06060604020C4E902050001C4E904058A
:101BB000A561E561256220466562FFF769FA08B113
:101BC000FEF75AFFB464A66306B070BD0030014052
:101BD0004438024000000240586402405401002092
:101BE0002DE9F041044690F850000026012809D064
:101BF000012784F8507094F851000025012804D082
:101C000002264EE00220BDE8F08189B182B10320B6
:101C100084F8510065652163A286E286A563656448
:101C20002564A587E587A068B0F5004F02D00BE0DA
:101C3000012636E02068016821F04001016020683B
:101C4000016841F480410160A16C18480864A16CEE
:101C50001748C863A16C1748C864A06C0565E38E7B
:101C60002268216B0C32A06CFFF77CFA38B1606DF2
:101C700040F010006065012684F8517011E0206882
:101C80000168490603D4016841F040010160206801
:101C9000416841F0200141602068416841F0020143
:101CA000416084F850503046ADE70000872D0008B1
:101CB000912D0008652D00087047704710B5401E33
:101CC000B0F1807F01D3012010BD4FF0E0246061AE
:101CD0000F21601701F00EFD0020A0610720206198
:101CE000002010BD7047704770B590F83C20012A65
:101CF00032D0012480F83C40022280F83D20036865
:101D00005A689D6822F070060A6832435A60134B85
:101D100002689A4214D0B2F1804F11D0104B9A420F
:101D20000ED0104B9A420BD00F4B9A4208D00F4B5B
:101D30009A4205D00E4B9A4202D00E4B9A4204D1E1
:101D4000496825F080031943916080F83D400021E7
:101D500080F83C10084670BD022070BD00000140B4
:101D60000004004000080040000C00400004014056
:101D7000004001400018004010B5040003D094F862
:101D80003D0010B107E0012010BD002084F83C00A8
:101D9000204600F01FF8022084F83D00211D206835
:101DA00001F0BCFA012084F8460084F83E0084F873
:101DB0003F0084F8400084F8410084F8420084F831
:101DC000430084F8440084F8450084F83D00002076
:101DD00010BD000008B50068B0F1804F12D10A486C
:101DE000016841F0010101600068002200F001007B
:101DF000009011461C20FFF76FFBBDE808401C2037
:101E0000FFF75CBB08BD00004038024090F83D1071
:101E1000012901D001207047022180F83D1001689E
:101E2000CA6842F00102CA6000681149884214D0B1
:101E3000B0F1804F11D00F4988420ED00E49884230
:101E40000BD00E49884208D00D49884205D00D4973
:101E5000884202D00C49884204D1816801F0070110
:101E6000062903D0016841F001010160002070479C
:101E7000000001400004004000080040000C004049
:101E800000040140004001400018004070B50446C5
:101E900090F83C000025012817D0012684F83C600A
:101EA000022084F83D002068826822F0770222F444
:101EB0007F4282600868502838D00DDC20284FD03F
:101EC00005DC90B3102811D14AE0022070BD302803
:101ED00046D040280AD13BE060282FD070280DD092
:101EE000B0F5805F03D0B0F5005F12D0012584F813
:101EF0003D60002084F83C00284670BDCB68D1E9E5
:101F00000121206801F06EFA2068816841F07701B4
:101F100009E0CB68D1E90121206801F063FA20686B
:101F2000816841F480418160E1E719E0CA6849684D
:101F3000206801F069FA5021206806E0CA68496803
:101F4000206801F072FA6021206801F055FACEE7AE
:101F5000CA684968206801F057FA40212068F4E710
:101F6000226801461046F0E7704770B504460068E5
:101F700001694FF00005C943890715D4C168C943F9
:101F8000890711D4E91E016101202077206880694A
:101F90008007204602D0FFF7E7FF04E000F098F842
:101FA000204600F096F8257720680169C943490763
:101FB00017D4C168C943490713D46FF00401016104
:101FC000022020772068806910F4407F204602D0EC
:101FD000FFF7CAFF04E000F07BF8204600F079F834
:101FE000257720680169C943090716D4C168C94328
:101FF000090712D46FF008010161042020772068DE
:10200000C0698007204602D0FFF7AEFF04E000F071
:102010005FF8204600F05DF8257720680169C94324
:10202000C90617D4C168C943C90613D46FF010019B
:102030000161082020772068C06910F4407F2046A5
:1020400002D0FFF791FF04E000F042F8204600F0D4
:1020500040F8257720680169C943C90708D1C168DC
:10206000C943C90704D1891E0161204600F032F836
:1020700020680169C943090609D4C168C943090632
:1020800005D46FF0800101612046FFF72BFE206828
:102090000169C943490609D4C168C943490605D441
:1020A0006FF040010161204600F01CF820680169D2
:1020B000C94389060BD4C168C943890607D46FF0A8
:1020C000200101612046BDE87040FFF70CBE70BDE5
:1020D000704770470249884201D100F0D5BA704775
:1020E000B40100207047704770470000F8B50168E0
:1020F00004460868CA684B6910F00F0F4FF00005DE
:1021000059D003F0010602F49077374365D0C10738
:1021100005D0D10503D5216C41F0010121644107AF
:1021200005D5D90703D0216C41F002012164810754
:1021300005D5D90703D0216C41F0040121640107C2
:1021400007D502F02001314303D0216C41F0080192
:102150002164216C00293AD0800604D5900602D56E
:10216000204601F0AFF920684069216CC0F380106F
:10217000090700D460B3204601F07DF9206840696A
:10218000400621D52068143050E8001F21F040019E
:1021900040E80012002AF5D1A06BA8B16C49016596
:1021A000A06BFEF792FE002811D0A06B016D01B06C
:1021B000BDE8F040084783060FD593060DD52046AD
:1021C000BDE8F84001F07EB92046FFF78DFFF8BD6D
:1021D0002046FFF789FF2564F8BD266B2023012EDA
:1021E00079D1C60677D5D60675D5086848680090B7
:1021F0004869400640D5A16B086840680004000C9F
:10220000EAD0A28D8242E7D9E085C869B0F5807F27
:102210002DD020680C3050E8001F21F4807140E878
:102220000012002AF5D12068143050E8001F21F078
:10223000010140E80012002AF5D12068143050E86E
:10224000001F21F0400140E80012002AF5D184F877
:102250003E30256320680C3050E8001F21F010014B
:1022600040E80012002AF5D1A06BFEF7E5FDA08D35
:10227000E18D401A81B229E0A08DE18D401A81B232
:10228000E08D0028A8D00029A6D020680C3050E8A6
:10229000002F22F4907240E80026002EF5D120682D
:1022A000143050E8002F22F0010240E80026002EF2
:1022B000F5D184F83E30256320680C3050E8002FBB
:1022C00022F0100240E80023002BF5D12046FFF752
:1022D0000AFFF8BDFFE705062BD5150629D594F8AA
:1022E0003D002128F5D1A068B0F5805F01D12069BB
:1022F000B0B1206A411C2162216800784860E08CFE
:10230000401E0004000CE084E3D12068C16821F085
:102310008001C1602068C16841F04001C160D8E718
:10232000206A0088C0F308004860206A801C206290
:10233000E5E74006CDD55006CBD5CA68204622F049
:102340004002CA6084F83D3000F075F8C1E7000033
:102350006734000870B5040004D094F83D000025EF
:1023600010B106E0012070BD84F83C50204600F01A
:1023700023F8242084F83D002068C16821F400512E
:10238000C160204601F0FEF82068016921F4904107
:1023900001612068416921F02A0141612068C1681A
:1023A00041F40051C1602564202084F83D0084F888
:1023B0003E00002070BD000010B586B00446142118
:1023C0006846FDF7FBFF18492068884229D1174865
:1023D0000021026842F010020260006800F0100064
:1023E000059012481438026842F001020260006849
:1023F00000F0010005904FF4C06000900220CDE98C
:102400000101032003900720049069460848FEF765
:10241000F3FE002211462520FFF75EF82520FFF786
:102420004DF806B010BD00000010014044380240D5
:102430000000024070477047FEE700007FB50025AE
:10244000194800950195029516490395C0E90015B4
:10245000012485600461047680F820501349C0E9A6
:102460000A150226C661C56080F830404461FEF757
:10247000C2FB08B1FEF700FBCDE9005469460A48EB
:102480000295FEF70FFB08B1FEF7F6FACDE900461C
:1024900069460548FEF706FB002801D0FEF7ECFA76
:1024A0007FBD000000200140540000200100000F0B
:1024B000094808B5016841F4800101600068002204
:1024C00000F48000009011463B20FFF705F8BDE8BE
:1024D00008403B20FEF7F2BF303802402DE9F041C2
:1024E00086B014216846FDF769FF22480024016880
:1024F00041F010010160016801F0100105910168CF
:1025000041F001010160016801F0010105910168DC
:1025100041F0040101600068174F00F004000590CD
:10252000012250213846FEF764FFDFF85080012277
:1025300010214046FEF75DFF182001258DE831008F
:1025400069460F48FEF758FE50200326CDE90005E6
:10255000CDE9024669463846FEF74EFE1020CDE929
:102560000005CDE9024669464046FEF745FE06B045
:10257000BDE8F0813038024000000240000802400F
:10258000001002400F4810B50D4901604FF48271F0
:10259000416000218160C1604FF400720161C0E9B7
:1025A0000512C1610162416281620A21C162FFF7C5
:1025B00068FA002803D0BDE81040FEF75DBA10BDF0
:1025C00000300140FC00002010B586B00024174800
:1025D000009401940294039404944FF08041059474
:1025E000016040F2CF21C0E901146321C0E9031466
:1025F00080218161FFF7C0FB08B1FEF73DFA4FF47F
:102600008050009069460948FFF740FC08B1FEF78A
:1026100033FA049404A905480594FFF765FB0028E4
:1026200001D0FEF729FA06B010BD0000B401002069
:102630000C4810B50A4901604FF4E13141600021B6
:1026400081600C22C160C0E904128161C161FFF7A1
:1026500081FE002803D0BDE81040FEF70DBA10BD82
:1026600000100140FC010020FEE7002809D00023F3
:1026700005E039B18069002803D05B1C9BB293420E
:10268000F7D370474069F6E72DE9F041224D00216C
:10269000EA782869002A3DD000283BD001222A711F
:1026A00002693AB10389012B04D0D37A012B01D0FE
:1026B0001046F5E7041E4FF0000601D1304609E050
:1026C000C2683AB11389012B04D0C37A012B01D01F
:1026D0001046F5E70746206AA8B10288521C92B25C
:1026E0000280206A43889A420DD10680E08C40F037
:1026F0000100E08494F82400800603D5E16909B163
:10270000204688470121BC4201D0E468E3E7002964
:1027100000D12E71BDE8F081180000203EB500F018
:102720002FFA012410210020CDE900140246029066
:1027300020233021064800F097FC064964220860F7
:102740000549C1610121FEF761F8044804703EBDEE
:102750004006002028000020D13700081B00002080
:10276000002809D0002305E039B10069002803D012
:102770005B1C9BB29342F7D37047C068F6E7002812
:1027800008D00189012905D00169CA7A012A01D03E
:102790000846F6E7704700280AD0C168002907D02C
:1027A0000A89012A04D0C27A012A01D00846F4E736
:1027B0007047000010B50446FDF75AFD002803D00D
:1027C00002498A6822448A6010BD00001800002077
:1027D00070B521491F4B8A8898540B885B1C9BB2AB
:1027E0000B80292B01D329230B80521C92B2002588
:1027F0008A80292A00D38D80174C10346188238861
:102800004A1C92B20A2810D00A2B0AD303291DD0E1
:102810006280042A04D3521E6280012000F0FAFB79
:1028200025802088401C208070BD0A2B0BD0628040
:10283000258060880428F7D3C01EC0B200F0EAFBF0
:102840000320608070BD891C6180F1E70A2BE4D011
:10285000E6E7000068060020400000202DE9F04176
:10286000FEF7E4F8224C4FF0000804F11C06207932
:1028700020B184F804800120307102E03079002812
:1028800033D02069002830D000F0C6FCD4E9032002
:1028900072B1FEF7F3F890F82410490608D501E06C
:1028A00092682AB111688142FAD1506800B180471C
:1028B000206900F003FC2069FFF761FF0546FFF780
:1028C0006AFF0746E96909B128468847BD4201D039
:1028D000ED68F7E72069FEF76EF800F01BFFFDF7E3
:1028E000ABFF84F8008086F80480BDE8F08100002A
:1028F00018000020F0B4002815D004884588868888
:102900000C44154424B22DB28E420CDDC088904296
:1029100009DD002907DB002A05DB29462046F0BC3B
:102920001A4600F0A1BFF0BC704700002DE9FF5F20
:10293000DFF8C89092468B46D9F80C0007784678A5
:10294000A3F120005F2800D32023203B03F0FF08E1
:10295000002447E0002541E006EB8600C0F39C011F
:102960000A20B1FBF0F200FB121000284FEAD6005B
:1029700000D0401C18FB07F14843E10817FB010198
:10298000D9F808002844085C04F00701C84010F09A
:10299000010F10D00098002804EB0A0005D002B205
:1029A00005EB0B0001B2012313E001B205EB0B00B4
:1029B00000B201221FE01248007801280CD10098D3
:1029C000002804EB0A0011D002B205EB0B0001B2A3
:1029D00000230098FFF78EFF6D1CEDB2BD42BBD304
:1029E000641CE4B2B442B5D3BDE8FF9F01B205EB6D
:1029F0000B0000B2002200F037FFEDE7400000209E
:102A00003B0000202DE9F0411C4617460D4680464C
:102A1000084E09E03A4629464046FFF787FFF0682E
:102A2000641C0078284405B22378002BF2D1BDE85D
:102A3000F0810000400000202DE9F05F83460A9EEF
:102A40001C00924688464FF0000730464FF00A09B6
:102A500007D140B14946B0FBF1F0641CE4B2002854
:102A6000F9D100252CE001240025601B401E0A221C
:102A7000C1B2012000E05043491EC9B2FBD2B6FBEF
:102A8000F0F1B1FBF9F209FB12100F4927B9621EF0
:102A9000954201DA40B101273030C3B2C8680178ED
:102AA00001FB058001B205E0C8682023017801FB25
:102AB000058001B252465846FFF738FF6D1CEDB253
:102AC000A542D2D3BDE8F09F40000020FEE7F0B55C
:102AD0000446002901DA4A4200E00A4696B200287C
:102AE0000CD00025CF0F0CE001223946FFF7BDFDC9
:102AF00018B1817A012904D101E02046F0BD6D1C96
:102B0000ADB2B542F0D3F0BDF0B50446002901DA0C
:102B10004A4200E00A4696B200280AD00025CF0FAC
:102B20000DE001223946FFF71BFE08B1A04201D19A
:102B30002046F0BD817A012901D16D1CADB2B542AC
:102B4000EFD3F0BD70B5002404F1B000C0B2002195
:102B500000F0C2F80021084600F0BEF80021102065
:102B600000F0BAF800250121002000F0B5F86D1C36
:102B7000EDB2802DF7D3641CE4B2082CE4D370BD11
:102B800010B5494C012240212046FEF732FC64205A
:102B9000FEF720FB002240212046FEF72AFC64209D
:102BA000FEF718FB012240212046FEF722FC0021FF
:102BB000AE2000F091F80021084600F08DF80021C9
:102BC000102000F089F80021402000F085F8002155
:102BD000812000F081F80021CF2000F07DF8002155
:102BE000A12000F079F80021C82000F075F800213C
:102BF000A62000F071F80021A82000F06DF8002157
:102C00003F2000F069F80021D32000F065F8002192
:102C1000084600F061F80021D52000F05DF80021A1
:102C2000802000F059F80021D92000F055F800214B
:102C3000F12000F051F80021DA2000F04DF80021D9
:102C4000122000F049F80021DB2000F045F80021B7
:102C5000402000F041F80021202000F03DF8002144
:102C6000022000F039F800218D2000F035F8002115
:102C7000142000F031F80021A42000F02DF80021EC
:102C8000A62000F029F80021AF2000F025F800214F
:102C9000AF2000F021F8FFF755FF0021BDE81040FC
:102CA000084600F003B800000000024010B50446DA
:102CB000B031C8B2002100F00FF8102040EA141023
:102CC000002100F009F804F00F00BDE8104040F0CA
:102CD00001000021AFF3008073B50F4C09B1012250
:102CE00000E0002210212046FEF783FB0B4D00225E
:102CF00010212846FEF77DFB012269460848FEF7B1
:102D00006FFF012210212846FEF773FB01221021DC
:102D10002046FEF76EFB7CBD00080240000002402A
:102D2000FC00002070470000CA1701EB527210B57A
:102D3000D310002806DB002904DB04467F2801DAD3
:102D4000402901DB002010BD04EBC310044B22F02E
:102D50000702891A185CC84000F0010010BD00008D
:102D60004002002010B5806B01684A6822F003021F
:102D70004A60416D41F010014165012180F8511018
:102D8000FEF77EFE10BD10B5806BFEF796FF10BDFE
:102D900038B50546846BFEF731FB024628680068AB
:102DA000C00523D42068416821F0200141602068DB
:102DB000416821F0020141606421204600F01AF8C8
:102DC00018B1606D40F020006065A068002118B95E
:102DD0002068C26880680090E186012084F8510074
:102DE000606D18B12046FEF74BFE38BD2046FEF759
:102DF00063FF38BD38B504461248134B0068B0FB7A
:102E0000F3F04FF47A73584300906068B0F5827F16
:102E10000DD10B46009200228021204600F016F8CA
:102E200070B1606D40F020006065032038BD0098EF
:102E300030B1401E009020688068C0430006F6D57F
:102E4000002038BD1400002000366E012DE9F84343
:102E50001E46914688460446089DFEF7CFFA401B61
:102E6000351AFEF7CBFA074625480068C0F3CB3089
:102E7000684338E0701C37D0FEF7C0FAC01BA84288
:102E800003D215B1009860B32CE02068416821F0AE
:102E9000E00141606068B0F5827F0BD1A068B0F5B9
:102EA000004F02D0B0F5806F04D12068016821F096
:102EB00040010160A06AB0F5005F09D12068016897
:102EC00021F4005101602068016841F40051016063
:102ED000012084F85100002084F850000320BDE850
:102EE000F8830025401E00902068816838EA0100C0
:102EF00004D000214945BDD10020F0E70121F9E7C8
:102F0000140000207047000070B51B4C10212046B3
:102F1000FEF76AFA68B108212046FEF765FA50B15B
:102F2000164840F63A43164904689C4205D90320E6
:102F30001EE0022070BD032070BDA4F297554FF42F
:102F4000C7760022B54201D84A7103E0822C01D233
:102F500004200DE04068984201D9022008E0A0F268
:102F60009753B34201D84A7104E0822802D201206B
:102F7000487170BD487970BD00100240000000200B
:102F8000180000202DE9F74F82B0002000901F4864
:102F90000027924644888B4625463E46DFF87080DF
:102FA000814628E0641CA4B2292C00D3002418F820
:102FB00005106D1CADB28DF80010292D00D3002531
:102FC00001B30A2912D000BFD9F80C00427816FBD1
:102FD00002A10AB2017817FB01B001B26B46029858
:102FE000FFF710FD7F1CFFB20A2F04D3761C0027C9
:102FF000F6B2042E03D2B9F804108C42D2D105B037
:10300000BDE8F08F20218DF80010DDE740000020A2
:103010006806002070B50F490FE009220E4C00250C
:103020004B88E65C0A2E0CD05B1C9BB24B80292B94
:1030300000D34D80521ED2B2F2D2401EC0B2ECD2AA
:1030400070BD9AB2521C92B24A80292AF5D3293A0D
:103050004A80F2E74000002068060020014AC2E9E9
:1030600002017047400000202DE9F0430F46DDE9E2
:103070000891DDF81C801646041E1DD0002541B1C4
:103080000846FDF703FDC46020610089401C2081D3
:1030900002E001202081256127806680A380A4F8BA
:1030A000068084F80A90E572E5606561A561E561D6
:1030B000A584E58420462562BDE8F0832DE9F84F1C
:1030C000DFF850810346D8F81400FDF7DFFC834693
:1030D000D8F81800FFF75FFB82461846FDF7CEFCD4
:1030E00081461846FDF7D2FC00901846FFF747FBD3
:1030F00005461846FFF74FFB0746D8F81400002690
:1031000058B94846C8F81490FDF7C0FC83462846D5
:10311000C8F81850FFF73FFB8246D8F814404C45DA
:103120004CD000BF94F82400400706D5E08C40F056
:103130000400E084E16920468847D8F818008442FA
:1031400001D1012600E056B194F82400C00606D54E
:10315000E08C40F01000E084E16920468847544547
:1031600000D100265C4501D0E468DBE74FEA0904A2
:1031700094F82400800706D5E08C40F00200E0843B
:10318000E16920468847AC4201D1012600E056B1F2
:1031900094F82400000706D5E08C40F00800E08495
:1031A000E16920468847BC4200D10026009884424D
:1031B00001D0E468DCE7C8F8149022E0D8F81840A1
:1031C000AC4224D094F82400C00606D5E08C40F030
:1031D0001000E084E16920468847544501D0E46846
:1031E000F0E72C4694F82400000706D5E08C40F068
:1031F0000800E084E16920468847BC4201D0E468C9
:10320000F0E7C8F81850BDE8F84FFDF715BBBDE86A
:10321000F88F00001800002010B5134C4FF0FF335A
:10322000204621780069012911D0022911D00022FD
:10323000032913D0042910D1FDF720FC20618169F6
:1032400001B122704FEA0301FFF741FC04E0194687
:1032500000E00121FFF758FC206110BD416901B178
:1032600022700121F0E7000018000020FEF7CCB822
:1032700030B593B030216846FDF7A0F814210CA8B2
:10328000FDF79CF81C480024016841F08051016062
:10329000006800F0805011901848016841F48041A6
:1032A00001600068022500F4804011900120039025
:1032B00010200490009506950820CDE9074048208D
:1032C000CDE9090504200B906846FEF723FA08B102
:1032D00072B6FEE70F20CDE90C054FF48050CDE922
:1032E0000E4002210CA81094FEF728F9002801D006
:1032F00072B6FEE713B030BD4038024000700040A7
:103300000248016841F470010160704788ED00E0F7
:103310000148FEF72ABE0000B4010020F0B50268A3
:10332000254C264D264E274F274B4FF0804CA04270
:1033300009D0604507D0A84205D0B04203D0B842BA
:1033400001D0984204D122F0700E4A6842EA0E027F
:10335000A0421BD0604519D0A84217D0B04215D06A
:10336000B84213D0984211D0184DA8420ED0184D33
:10337000A8420BD0174DA84208D0174DA84205D03F
:10338000164DA84202D0164DA84203D122F4407532
:10339000CA682A434D6922F080022A4302608A6883
:1033A000C2620A688262A04201D0984201D10969D2
:1033B000016301214161F0BD0000014000040040B3
:1033C00000080040000C00400004014000400140A3
:1033D000004401400048014000180040001C00402B
:1033E0000020004010B5846842EA032224F47F44A0
:1033F0000A432243826010BD826822F070020A43B1
:1034000042F007018160704710B5036A046A24F036
:1034100001040462846924F0F00444EA021423F0F5
:103420000A020A438461026210BD10B5036A23F0E8
:10343000100303628369046A23F4704343EA02328F
:1034400024F0A00343EA01118261016210BD10B5AE
:103450000022002806D0C38C0B4202D001228B43ED
:10346000C384104610BD10B5806B0021C185C18496
:10347000FEF73AFE10BD01680C3151E8002F22F42E
:10348000907241E80023002BF5D10168143151E816
:10349000002F22F0010241E80023002BF5D1016B3F
:1034A000012909D101680C3151E8002F22F01002E6
:1034B00041E80023002BF5D1202180F83E100021A7
:1034C0000163704708B590F83E10222901D0022010
:1034D00008BD82684FF480539A4201D1016921B13D
:1034E000816A9A421BD04AB10AE00268816A526836
:1034F000C2F308020A80816A891C08E0026972B17D
:103500000268526802F07F020A70816A491C816277
:10351000C18D491E0904090CC18503D019E0026858
:103520005268F1E70168CA6822F02002CA600168A7
:10353000CA6822F48072CA6001684A6922F00102F6
:103540004A61202180F83E10016B012903D0FEF76B
:1035500071FF002008BD0021016301680C3151E8B2
:10356000002F22F0100241E80023002BF5D1016862
:103570000A68D20602D50A6849680091818DFEF773
:10358000B2FDE6E770B5044600680169E26821F41F
:103590004051114301612169A068E26908436169F2
:1035A000114308432168CA6849F20C639A430243F5
:1035B000CA6020684169A26921F4407111434161E8
:1035C00031492068884202D03049884202D1FEF752
:1035D0005FF801E0FEF74CF8E26900231921642549
:1035E0003226B2F5004F626828D0A0FB0101930F8C
:1035F0009200FCF76CFE0146B0FBF5F06FF018028C
:10360000504301EB800006EB0010B0FBF5F000F03A
:10361000F002B1FBF5F002EB0012B1FBF5F06FF038
:103620001803584301EB800006EB0010B0FBF5F0E7
:1036300000F00F0021681044886070BDA0FB0101FC
:1036400092185B41FCF743FE0146B0FBF5F0020126
:10365000B1FBF5F06FF01803584301EB800006EB67
:10366000C000B0FBF5F000F0F80002EB4002B1FB47
:10367000F5F0584301EB800006EBC000B0FBF5F01D
:1036800000F00700D6E700000010014000140140E0
:10369000054810B54068C0B2FFF79AF8BDE8104081
:1036A0000248FEF723BD000000100140FC0100208D
:1036B000FEE7000010B57F2818DA402916DA002846
:1036C00014DB002912DBCB1701EB5374E31024F059
:1036D000070400EBC3100C1B054B0121A140002A7D
:1036E0001A5C01D00A4300E08A431A5410BD00005E
:1036F000400200200907090E002804DB00F1E02049
:1037000080F80014704700F00F0000F1E02080F80E
:10371000141D70472DE9F0410024134E134FDFF8BC
:1037200050801BE0E1B20020FFF7C0FA002530789E
:1037300010B1012804D00BE005EBC410385C04E0A4
:1037400005EBC410385CC043C0B20121FFF7C4FAD6
:103750006D1CADB2802DEAD3641CA4B2B8F802008F
:10376000A042DFD8BDE8F0813A00002040020020EE
:1037700034000020FDF750FEFFF77AFDFEF7AEFEA5
:10378000FEF796FEFEF7FEFEFEF71EFFFEF756FE64
:10379000FEF74EFF09480068C16841F02001C16092
:1037A000FEF7BCFF0648FEF731FB0222054906483A
:1037B000FDF798FAFFF752F8FCE70000FC01002043
:1037C000B40100200000002054000020FFF7ACBA34
:1037D000F8B505460121FFF73AFE1A4C70B11A4EB2
:1037E0003078012804D12078401C2070FDF730F893
:1037F0003078022802D12078401E207020780023E3
:1038000000901A4619462846FFF716F90F48008817
:1038100070B10F490F48FFF721FC14221146002018
:10382000FFF7B0FBBDE8F8400B490C48FFF716BCAA
:1038300001B01922BDE8F04009A311460020FFF7AE
:10384000E1B800003C0000201900002040000020EA
:10385000B03E0008B23E0008BE380008C03800087C
:10386000776169742E2E2E0030B5054608480C4647
:103870000078022805D12846FFF7A8FF30B10022C2
:1038800021462846BDE83040FFF714BF0122F7E784
:103890003B0000204FF04070E1EE100A7047000638
:1038A00010160006101600000000000000000102C3
:1038B00003040607080900000000010203040810C1
:1038C00000000000000000000000000000000000F8
:1038D000000000F80000000000000033300000008D
:1038E00000100C06100C0600000000000000000094
:1038F00040C07840C0784000043F04043F04040006
:10390000007088FC08300000001820FF211E000015
:10391000F008F000E018000000211C031E211E002A
:1039200000F00888700000001E21232419272110B0
:1039300010160E0000000000000000000000000053
:10394000000000E0180402000000000718204000FA
:1039500000020418E00000000040201807000000EA
:10396000404080F0804040000202010F010202004E
:10397000000000F0000000000101011F0101010032
:10398000000000000000000080B070000000000097
:103990000000000000000000000101010101010120
:1039A00000000000000000000030300000000000B7
:1039B000000000008060180400601806010000008C
:1039C00000E010080810E000000F102020100F0089
:1039D000001010F8000000000020203F2020000010
:1039E0000070080808887000003028242221300068
:1039F00000300888884830000018202020110E0070
:103A00000000C02010F8000000070424243F240018
:103A100000F80888880808000019212020110E00ED
:103A200000E0108888180000000F112020110E00FF
:103A300000380808C83808000000003F00000000F7
:103A40000070880808887000001C222121221C00B8
:103A500000E010080810E0000000312222110F00E1
:103A6000000000C0C0000000000000303000000076
:103A700000000080000000000000806000000000E6
:103A800000008040201008000001020408102000FF
:103A9000404040404040400004040404040404004A
:103AA00000081020408000000020100804020100DF
:103AB000007048080808F0000000003036010000DF
:103AC000C030C828E810E0000718272423140B0092
:103AD0000000C038E0000000203C2302022738200C
:103AE00008F8888888700000203F202020110E00F0
:103AF000C0300808080838000718202020100800E7
:103B000008F808080810E000203F202020100F00CF
:103B100008F88888E8081000203F2020232018009B
:103B200008F88888E8081000203F20000300000003
:103B3000C03008080838000007182020221E0200A4
:103B400008F808000008F808203F210101213F2063
:103B5000000808F8080800000020203F202000008E
:103B600000000808F8080800C08080807F0000007E
:103B700008F888C028180800203F200126382000B7
:103B800008F8080000000000203F2020202030001E
:103B900008F8F800F8F80800203F003F003F200038
:103BA00008F830C00008F808203F200007183F0040
:103BB000E01008080810E0000F10202020100F006F
:103BC00008F808080808F000203F21010101000062
:103BD000E01008080810E0000F18242438504F00A7
:103BE00008F8888888887000203F2000030C302067
:103BF00000708808080838000038202121221C00A5
:103C0000180808F8080818000000203F20000000ED
:103C100008F808000008F808001F202020201F00D6
:103C20000878880000C83808000007380E01000036
:103C3000F80800F80008F800033C0700073C030000
:103C4000081868808068180820302C03032C302066
:103C50000838C800C83808000000203F20000000D5
:103C600010080808C838080020382621202018002D
:103C7000000000FE020202000000007F4040400001
:103C8000000C30C000000000000000010638C00039
:103C900000020202FE000000004040407F000000E1
:103CA0000000040202020400000000000000000006
:103CB0000000000000000000808080808080808004
:103CC00000020204000000000000000000000000EC
:103CD00000008080808000000019242222223F20E2
:103CE00008F8008080000000003F112020110E0025
:103CF0000000008080800000000E112020201100B4
:103D0000000000808088F800000E112020103F2065
:103D10000000808080800000001F222222221300E9
:103D2000008080F0888888180020203F2020000034
:103D30000000808080808000006B949494936000E9
:103D400008F8008080800000203F210000203F20F4
:103D500000809898000000000020203F20200000F4
:103D6000000000809898000000C08080807F0000E4
:103D700008F8000080808000203F24022D302000C1
:103D8000000808F8000000000020203F202000006C
:103D90008080808080808000203F20003F20003F86
:103DA0008080008080800000203F210000203F2094
:103DB0000000808080800000001F202020201F0045
:103DC000808000808000000080FFA12020110E0074
:103DD0000000008080808000000E112020A0FF8065
:103DE000808080008080800020203F212000010012
:103DF0000000808080808000003324242424190067
:103E0000008080E0808000000000001F2020000073
:103E10008080000000808000001F202020103F20B4
:103E2000808080000080808000010E300806010044
:103E300080800080008080800F300C030C300F00E9
:103E400000808000808080000020312E0E31200014
:103E5000808080000080808080818E701806010044
:103E600000808080808080000021302C2221300062
:103E700000000000807C020200000000003F404083
:103E800000000000FF00000000000000FF00000034
:103E90000002027C800000000040403F0000000063
:103EA00000060101020204040000000000000000FE
:103EB00006080000000000000000002F00000000C5
:103EC0000700070000147F147F1400242A7F2A12A1
:103ED0000062640813230036495522500000050390
:103EE000000000001C224100000041221C000014C0
:103EF000083E08140008083E0808000000A0600002
:103F00000008080808080000606000000020100891
:103F10000402003E5149453E0000427F40000042FD
:103F200061514946002141454B31001814127F1060
:103F3000002745454539003C4A494930000171098F
:103F4000050300364949493600064949291E000043
:103F500036360000000056360000000814224100EA
:103F6000001414141414000041221408000201511A
:103F7000090600324959513E007C1211127C007F23
:103F800049494936003E41414122007F4141221CBE
:103F9000007F49494941007F09090901003E414923
:103FA000497A007F0808087F0000417F4100002017
:103FB00040413F01007F08142241007F40404040C3
:103FC000007F020C027F007F0408107F003E414109
:103FD000413E007F09090906003E4151215E007FF4
:103FE000091929460046494949310001017F01016B
:103FF000003F4040403F001F2040201F003F40380E
:10400000403F00631408146300070870080700614C
:104010005149454300007F41410000552A552A552A
:10402000000041417F0000040201020400404040C2
:104030004040000001020400002054545478007FE6
:104040004844443800384444442000384444487FBD
:1040500000385454541800087E0901020018A4A422
:10406000A47C007F080404780000447D40000040E8
:1040700080847D00007F102844000000417F4000C4
:10408000007C04180478007C080404780038444458
:10409000443800FC242424180018242418FC007C34
:1040A0000804040800485454542000043F444020AD
:1040B000003C4040207C001C2040201C003C403044
:1040C000403C004428102844001CA0A0A07C0044D0
:1040D00064544C44000010FE8200000000FF000009
:1040E0000082FE1000000201010202010C410008E2
:1040F0000000002054000000C401000860410008D6
:1041000054000020A40C0000E001000800000000A2
:10411000000000000100000010000000000000008E
:104120000024F40000000100000000000000000076
:10413000000000000000000000000000000000007F
:1041400080000800010000000400000000000000E2
:1041500000000000C0380008BE3800080000000061
:040000050800018965
:00000001FF
