:020000040800F2
:10000000480C00203102000887290008CF21000891
:100010005D250008550900081B330008000000009A
:10002000000000000000000000000000FD2E00089D
:10003000210A000800000000DD2B00082331000821
:100040004B0200084B0200084B0200084B0200085C
:100050004B0200084B0200084B0200084B0200084C
:100060004B0200084B0200084B0200084B0200083C
:100070004B0200084B0200084B0200084B0200082C
:100080004B0200084B0200084B0200084B0200081C
:100090004B0200084B0200084B0200084B0200080C
:1000A0004B0200084B0200084B0200084B020008FC
:1000B000C93100084B0200084B0200084B0200083F
:1000C0004B0200084B0200084B0200084B020008DC
:1000D0004B0200084B0200084B0200084B020008CC
:1000E0004B0200084B0200084B0200084B020008BC
:1000F0004B0200084B0200084B0200084B020008AC
:100100004B0200084B0200084B0200084B0200089B
:100110004B0200084B0200084B0200084B0200088B
:100120004B0200084B0200084B020008710900084E
:100130004B0200084B0200084B0200084B0200086B
:100140004B0200084B0200084B0200084B0200085B
:100150004B0200084B0200084B0200084B0200084B
:100160004B0200084B0200084B0200084B0200083B
:100170004B0200084B0200084B0200080000000080
:100180004B0200084B02000800F002F800F040F8B3
:100190000AA090E8000C82448344AAF10107DA45E2
:1001A00001D100F035F8AFF2090EBAE80F0013F0F4
:1001B000010F18BFFB1A43F001031847DC5600007B
:1001C000FC560000103A24BF78C878C1FAD852070C
:1001D00024BF30C830C144BF04680C6070470000C1
:1001E0000023002400250026103A28BF78C1FBD840
:1001F000520728BF30C148BF0B6070471FB504F0DD
:100200003BFF9DE8030000F01FF91FBD10B510BDB6
:1002100000F0ACF91146FFF7F1FF04F067F800F0C9
:10022000CAF903B4FFF7F2FF03BC00F0FBF90000CA
:100230000948804709480047FEE7FEE7FEE7FEE77A
:10024000FEE7FEE7FEE7FEE7FEE7FEE704480549B6
:10025000054A064B70470000B931000889010008C3
:1002600048060020480C00204808002048080020CC
:1002700070B5064600F0CCF8056806F10B0020F0DA
:100280000704B4429CBF002070BD2B466A68BAB117
:100290001068A04210D304F1080188423CBF5068A6
:1002A000586007D35168101941601168091B01603B
:1002B00058601460101D70BD13465268002AE7D1C3
:1002C0002146284600F0ACF80028DED170BD53EA84
:1002D000020C00F069802DE9F04B4FF00006002B76
:1002E0001FBFB3FA83F503FA05F424FA05F65E405E
:1002F00012BF1643B2FA82F502FA05F4C5F12005E1
:100300001EBF22FA05FC44EA0C04203556EA044CD0
:100310004FEA144418BF641C4FF000084FF0000966
:10032000904271EB030C39D3002919BFB1FA81F760
:1003300001FA07F6B0FA80F700FA07F6C7F12007CE
:100340001EBF20FA07FC46EA0C062037B6FBF4FC79
:10035000A7EB0507103F07F01F0BCBF120060CFAA7
:100360000BFB2CFA06F644BFB3460026202FA4BF91
:100370005E464FF0000B5BEA060C08BF4FF0010B26
:1003800019EB0B09ABFB027C48EB0608C01B06FB14
:1003900002CC0BFB03CC71EB0C01C1E70B46024610
:1003A00041464846BDE8F08B13B54FF000004FF0D2
:1003B0000001AFF30080BDE81C4070474FF0000221
:1003C00000B5134694469646203922BFA0E80C504B
:1003D000A0E80C50B1F12001BFF4F7AF090728BF26
:1003E000A0E80C5048BF0CC05DF804EB890028BFA2
:1003F00040F8042B08BF704748BF20F8022B11F0CB
:10040000804F18BF00F8012B704770477047704746
:1004100000487047EC0500207047704770477047F0
:1004200038B504460A4600206946AFF3008000282C
:1004300008BF38BD02460099204600F075F801203B
:1004400038BD012000F08AB8F8B5AFF3008005464A
:1004500000200C46102000BF0646A819A0420DD966
:10046000324669460020AFF30080070008BF00F065
:1004700075F80098A04218BF0546C419FFF7C8FFD9
:1004800005600746F01D20F007004619284600F0D9
:100490000AF8B44208BFF8BDA21B31463868BDE86F
:1004A000F84000F041B800210160C0E90110704738
:1004B0001020704770B50446051FFFF7A9FF0068BC
:1004C000002C14BF446870BD002C18BFAC423CBF68
:1004D00020466468F8D301680A18AA4218BF45602C
:1004E00003D12A6805461144016028684119A142D8
:1004F0001CBF6C6070BD6168696021680844286039
:1005000070BD10B500F00CF8006810BD10B50446C1
:1005100000F006F8046010BD00487047E4050020B4
:1005200000487047E4050020034640688C460028D8
:1005300018BF88423CBF03464068F8D31868184487
:10054000884207D00CF1030020F00700001D411A7B
:10055000521A0146081D0A60FFF7ACBF10B500F043
:1005600039F8BDE8104000F02FB870477546FFF726
:10057000D3FFAE4605006946534620F00700854686
:1005800018B020B5FFF762FEBDE820404FF000062E
:100590004FF000074FF000084FF0000B21F007016B
:1005A000AC46ACE8C009ACE8C009ACE8C009ACE8AE
:1005B000C0098D46704710B50446AFF30080204651
:1005C000BDE81040FFF72DBE002801D000F02AB88A
:1005D0007047000010B5012805D0002103A000F0ED
:1005E00027F8012010BD09A1F8E700005349475240
:1005F000544D454D3A204F7574206F6620686561F3
:1006000070206D656D6F7279000000003A204865BA
:100610006170206D656D6F727920636F7272757095
:100620007465640001491820ABBEFEE72600020095
:1006300070B505460C460A2000E06D1C00F011F86C
:1006400035B128780028F8D102E0641C00F009F8E0
:1006500014B120780028F8D1BDE870400A20AFF32B
:10066000008008B569468DF800000320ABBE08BDC8
:1006700010B50146806B026C12F0500F05D0026C71
:10068000D20626D500F0A6FB10BD016C41F4007126
:10069000016401688A6812F0405F17D1027EAAB92E
:1006A000CA6A12F4700F02D08A6852050ED44A68E2
:1006B00022F020024A60016C21F480710164016C17
:1006C000C90403D4016C41F00101016400F080FB16
:1006D00010BD806BC26CBDE810400846104710B5D5
:1006E000806B40210164416C41F00401416400F0E1
:1006F00071FB10BD10B5806B00F06BFB10BD0000EE
:10070000464910B54A6822F440324A604A68436854
:100710001A434A6001684A6822F480724A6001689C
:100720004A68036942EA03224A6001684A6822F083
:1007300040724A6001684A6883681A434A600168E7
:100740008A6822F400628A6001688A68C3681A4372
:100750008A60816A6FF07062D14201688A6822F013
:1007600070628A6001688A680CD0836A1A438A6062
:1007700001688A6822F040528A6001688A68C36A08
:100780001A4301E022F040528A6001688A6822F030
:1007900002028A6001688A68037E42EA43028A6034
:1007A00090F82010002901684A680FD042F40062D6
:1007B0004A6001684A6822F460424A6001684A68F7
:1007C000174C436A04EB43331A4301E022F40062FE
:1007D0004A600168CA6A22F47002CA620168CA6A81
:1007E000838B104C04EB03531A43CA6201688A6876
:1007F00022F400728A6001688A6890F8303042EA18
:1008000043228A6001688A6822F480628A600168F3
:100810008A68406942EA8020886010BD0023014058
:1008200000E0FFFF0000F0FF2DE9F0470746DDE99B
:1008300008A91C4615460E462420FFF719FD03465D
:10084000B9F100004FF0000807D000F00FFAC360C4
:1008500018610089401C188103E001201881C3F849
:100860001080802F00D37F2738B21880402E00D30D
:100870003F2631B242195980802A01D9C0F1800542
:1008800008199D80402801DDC1F14004DC8083F817
:100890000AA083F80B80C3F80C80C3F81480C3F857
:1008A0001880C3F81C80A3F820801846BDE8F087A4
:1008B0002DE9F04106000F480F4684680BD08046B2
:1008C000002554B90C20FFF7D3FCC8F808000580B8
:1008D0004780C0E90165BDE8F081A06808B1044621
:1008E000FBE70C20FFF7C4FC05804780C0E90165E9
:1008F000A060F0E7180000202DE9F041144F0C46ED
:100900000600FD6814D0E00705D011463046FFF719
:10091000CFFF60080CD0F8684FF0000850B90C20E9
:10092000FFF7A6FCF86006600481C0F804804481EB
:10093000BDE8F081686808B10546FBE70C20FFF7C9
:1009400097FC06600481C0F8048044816860EFE78A
:1009500018000020FEE700000020044B4FF48061E7
:1009600002461A54401C8842FBD37047E401002021
:10097000014800F051BB00003C0100200168182331
:10098000CAB2103AB2FBF3F2054B6FF30901032A26
:100990009B5CC36500D9091D81650846704700004E
:1009A0008250000810B5014600208B698A6A4FF01A
:1009B000C07453B1B3F5005F15D072B1012A0CD0E9
:1009C000022A0AD0032A09D104E01AB1012A06D06A
:1009D000022A03D1C96AC90100D5012010BDC96A24
:1009E000A142FAD010BD002AF7D0012AF2D0022A83
:1009F000F3D0032AF3D010BD30B50468256825F480
:100A000080252560046863608368402B036803D0F9
:100A100099600068C26030BD9A600068C16030BDF6
:100A200070472DE9FC4F80460025144603200F46F1
:100A3000A0EB440647E0381B01B208EB050000B20A
:100A400082460122019103F0A3FD781B01B208EB5D
:100A5000040000B281460122009103F099FD78194B
:100A600001B28B464846012203F092FD381901B2CB
:100A700089465046012203F08BFDA8EB050049464C
:100A800000B28146012203F083FDA8EB040000B20E
:100A900059468246012203F07BFD48460122019916
:100AA00003F076FD50460122009903F071FD6D1CA4
:100AB000002E03DA06EB8506B61D04E0281B06EBC4
:100AC0008006641E0A36A542B5DDBDE8FC8F2DE91F
:100AD000F84F80460025144603200F46A0EB44063D
:100AE00033E0381903B208EB0500391B00B209B234
:100AF00099460246009100F02CF8781903B208EBF1
:100B00000400791B00B209B29B4602468A4600F0F7
:100B100020F8A8EB050000B24B460246009900F011
:100B200018F8A8EB040000B25B460246514600F0FC
:100B300010F86D1C002E03DA06EB8506B61D04E0E6
:100B4000281B06EB8006641E0A36A542C9DDBDE8F7
:100B5000F88F2DE9FE4F161ACDE900104FF000086E
:100B60005D1A47464FF0FF30002E02DD4FF00101C5
:100B700002E003D14FF000018B4602E08346C6F14C
:100B80000006002D02DD4FF0010002E003D14FF01E
:100B90000000824602E08246C5F10005AE4201DD5A
:100BA000344600E02C46601C4FF00009029019E02A
:100BB0000098012201B2019800B203F0E9FCB044B0
:100BC0002F44A04504DD0198A8EB04085844019087
:100BD000A74203DD00983F1B5044009009F101003B
:100BE0001FFA80F902998945E2DDBDE8FE8F2DE903
:100BF000F04100282BD0B0F90410002927DDB0F90E
:100C00000620002A23DD058840886B1E1944431EF8
:100C1000D41803B20AB228B21F4616461946054632
:100C2000FFF797FF23B22A461C4639461046FFF7C6
:100C300090FF23462A4619463046FFF78AFF324680
:100C40003B462146BDE8F0411046FFF782BFBDE8B4
:100C5000F08172B6FEE7002807D00189012904D08F
:100C60000169002901D00846F7E77047002807D03E
:100C7000C168002904D00A89012A01D00846F7E793
:100C80007047000078B50024009490F83C20012AB9
:100C900019D0012280F83C200A6807230568092A38
:100CA00013D9EE680A3A02EB420293409E43EE608B
:100CB0000B788A680A3B03EB43039A400368DD68BC
:100CC0002A43DA6010E0022078BD2E6902EB42026E
:100CD00093409E432E610B788A6803EB43039A404E
:100CE00003681D692A431A614A681F23072A13D221
:100CF00005686E6B521E02EB820293409E436E6348
:100D00000B790A885B1E92B203EB83039A40036857
:100D10005D6B2A435A6327E005680D2A12D22E6BB9
:100D2000D21F02EB820293409E432E630B790A8806
:100D3000DB1F92B203EB83039A4003681D6B2A43C7
:100D40001A6311E0EE6A0D3A02EB820293409E4371
:100D5000EE620B790A880D3B92B203EB83039A4053
:100D60000368DD6A2A43DA62164B0568144A9D421D
:100D700006D10D68122D03D1556845F480055560E4
:100D800005689D4218D10B68102B01D0112B13D18F
:100D9000536843F400035360096810290CD10A49D1
:100DA0000A4A0968B1FBF2F101EB8101490000E058
:100DB000491E00910029FBD180F83C40002078BDFD
:100DC00000230140002001401400002040420F0099
:100DD00070477047704770B504004FF0000503D0AE
:100DE000206C002610B107E0012070BD204600F005
:100DF0001DF8666484F83C60206CC00610D4206C3A
:100E000020F4885040F0020020642046FFF778FC70
:100E10006664206C20F0020040F00100206400E0D5
:100E2000012584F83C60284670BD000070B586B08E
:100E3000064614216846FFF7C1FA1D49306888420A
:100E400033D11C480025016841F4807101600068BD
:100E500000F48070059017481438016841F00101D2
:100E600001600068694600F00100059003200090D1
:100E7000CDE90105104800F053FA114C0F48C4E9C0
:100E800000050015A560C4E9035080006061800082
:100E9000A0618011C4E907052046656200F08CF965
:100EA00008B1FFF7D6FEB463A66306B070BD0000BC
:100EB000002001404438024000000240106402401B
:100EC00084000020F8B5044600200E46009094F8F7
:100ED0003C10012907D0012184F83C1021688B685F
:100EE000DB0702D011E00220F8BD8B6843F001035C
:100EF0008B604049404B0968B1FBF3F101EB4101C4
:100F000000E0491E00910029FBD121688B68DB05B8
:100F100003D58B6823F480738B6021688B68DB07B3
:100F20005DD0236C40F20165AB4343F480732364CE
:100F30004968490505D5216C21F4005141F48051DF
:100F40002164216CC90404D5616C21F0060161643F
:100F500000E0606484F83C00A16B2948274DC86319
:100F6000A16B28480864A16B2748C86421686FF00A
:100F7000220008602068416841F08061416020687B
:100F8000816841F4807181602168134632464C319A
:100F9000A06B00F07BF968681C49C006206806D089
:100FA000884224D1816811F0405F13D01FE088424D
:100FB000F8D0174A904203D1D1F80423D206F1D0D9
:100FC000144A904213D1D1F8041301F01F011029E3
:100FD000E8D30CE0816841F08041816007E0206C3B
:100FE00040F010002064606C40F00100606400205C
:100FF000F8BD00001400002040420F000023014013
:1010000071060008F5060008DF0600080020014010
:1010100000210140002201402DE9F84304464FF031
:101020000009CDF8009063484FF41651A56D006893
:10103000B0FBF1F72E6894F85C10082000FA01F17B
:1010400031420FD021680A6852070BD50A6822F096
:1010500004020A6094F85C108840A860606D40F05B
:101060000100606594F85C104FF0010808FA01F087
:10107000304208D021684969090604D5A860606D2E
:1010800040F00200606594F85C1004208840304213
:1010900008D021680968890704D5A860606D40F010
:1010A0000400606594F85C1010208840304218D02D
:1010B00021680968090714D5A860206801684903F8
:1010C00004D50068000308D5A16C07E00168C905D4
:1010D00003D4016821F008010160216C09B12046A8
:1010E000884794F85C1020208840304231D0216835
:1010F0000968C9062DD5A86094F835000528206830
:10110000016806D0490347D5006800031DD4616C0F
:101110001CE021F0160101602068416921F0800186
:101120004161206C08B9A06C20B12068016821F0F1
:101130000801016094F85C103F208840A86084F8A2
:10114000358084F83490216D1FE0E16B09B12046B1
:101150008847606D00282BD0606DC00714D0052033
:1011600084F835002068016821F0010101600098D1
:10117000401C0090B84203D820680068C007F6D130
:1011800084F8358084F83490E16C002910D001B0E7
:101190002046BDE8F04308470168C905D5D4016879
:1011A00021F01001016084F8358084F83490CCE798
:1011B000BDE8F883140000202DE9F041044600F05A
:1011C000B1F906465CB1022084F83500002584F8A8
:1011D00034502068016821F0010101600DE0012018
:1011E000BDE8F08100F09EF9801B052805D920207C
:1011F0006065032084F83500F2E720680068C007C6
:10120000F0D12268116820480140D4E90103184355
:10121000D4E903363343184363691843A369184379
:10122000E3691843236A18430843616A042903D118
:10123000D4E90B1319430843106020684069666ABB
:1012400020F0070130460E43012704280CD1A06A84
:101250000643E06A40B12046FFF7A4FB20B14020DE
:10126000606584F83570BAE7206846612046FFF76C
:1012700085FB94F85C203F2191408160656584F88E
:1012800035700020ACE700003F8010F02DE9F04100
:101290000446866D90F83400002501280DD0012009
:1012A00084F8340094F835700020012F07D084F8BA
:1012B000340002252846BDE8F0810220FBE7022722
:1012C00084F8357060652046FFF796FB94F85C1053
:1012D0003F208840B0602068016841F0160101603D
:1012E000206C20B12068016841F00801016020688D
:1012F000016841F001010160DCE7000070B50446BF
:1013000000F010F90546601C02D00448007804443F
:1013100000F008F9401BA042FAD370BD080000207D
:101320002DE9F84FDFF8BCA10022012503264FF07C
:101330000F090AF1040BAAF1040E00BF0B6805FAAD
:1013400002F42340A34270D10F7907F00307012F65
:1013500001D0022F16D187684FEA420806FA08FC2E
:1013600027EA0C07D1F80CC00CFA08FC4CEA070C71
:10137000C0F808C04768A7430C79C4F30014944030
:101380003C4344600C79E443A4070AD0C4684FEAA4
:10139000420C06FA0CF7BC438F6807FA0CF7274398
:1013A000C7600C7904F00304022C12D1D40800EBBE
:1013B000840CDCF820405707FF0E09FA07F824EAEE
:1013C0000804D1F8108008FA07F848EA0408CCF8B5
:1013D000208004684FEA420C06FA0CF7BC430F79F0
:1013E00007F0030707FA0CF7274307604C6814F46B
:1013F000403F70D03C4C276847F480472760246802
:1014000022F0030704F480440094384C07EB040CEA
:10141000DCF8084897074FEA177809FA08F7BC4341
:10142000334FB84202D1002724E054E0314FB84294
:1014300001D101271EE0304FB84201D1022719E047
:101440002E4FB84201D1032714E02D4FB84201D1ED
:1014500004270FE02B4FB84201D105270AE02A4F9D
:10146000B84201D1062705E0284FB84201D107272D
:1014700000E0082707FA08F72743CCF80878DAF8DD
:1014800000405746D1F804C09C435FEACC2C00D5FD
:101490001C433C60DBF800405F46D1F804C09C432D
:1014A0005FEA8C2C00D51C433C60DEF80040774698
:1014B000D1F804C09C435FEA8C3C00D51C433C60DF
:1014C000084F083F3C68D1F804C09C435FEACC3C1D
:1014D00000D51C433C60521C102AFFF42FAFBDE81E
:1014E000F88F0000083C01404438024000300140C1
:1014F000000002400004024000080240000C0240CC
:10150000001002400014024000180240001C02407B
:101510000069084000D0012070470AB1816170471E
:101520000904FBE7014880687047000008000020BC
:1015300002488168027811448160704708000020E9
:101540000B4810B5016841F400710160016841F475
:1015500080610160016841F480710160032000F046
:101560006FF80F2000F006F800F024F8002010BDFE
:10157000003C024070B50D4D04464FF47A71287856
:10158000B1FBF0F00A490968B1FBF0F000F00AFC89
:1015900048B9102C07D200222146501E00F030F826
:1015A00000206C6070BD012070BD000008000020AC
:1015B000140000200A4808B5016841F48041016028
:1015C000006800F4804000900548001F016841F069
:1015D00080510160006800F08050009008BD00005C
:1015E00044380240002809DB00F01F02012191402D
:1015F0004009800000F1E020C0F8001170470000B1
:10160000F0B40E4B1B680C46C3F30223C3F107056D
:10161000042D00D90425191D072901D2002300E05B
:10162000DB1E012606FA05F1491E214099409E4025
:10163000761E16403143F0BC01F088BE0CED00E090
:10164000064900F0070208684FF6FF03184040EA19
:101650000220034A10430860704700000CED00E0D0
:101660000000FA052DE9F0470E46050065D0DFF8C9
:101670001481D8F80000F7B200F00700B04207D29A
:1016800088F80070D8F8000000F00700B04254D18C
:1016900028683D4C810712D5400703D5206840F4E7
:1016A000E05020602878000703D5206840F46040AF
:1016B00020602068A96820F0F000084320602878A6
:1016C000C0072DD0304968680839012812D0022897
:1016D00013D0032811D00968890700292DDA216861
:1016E00021F0030101432160FFF71CFF814641F215
:1016F000883A0EE009688903EFE709688901ECE799
:10170000FFF710FFA0EB0901514502D90320BDE806
:10171000F0872068696800F00C00B0EB810FEFD112
:10172000D8F80010404601F00701B14207D9077010
:10173000006800F00700B04201D00120E7E72878F8
:10174000400705D52068E96820F4E0500843206090
:101750002878000706D52068296920F4604040EA0F
:10176000C100206000F018F82168084AC1F3031195
:10177000515CC8400649086006480068FFF7FAFE59
:101780000020C4E7003C0240083802408A500008AC
:10179000140000200C000020154810B5006810F05F
:1017A0000C02144813D01449042A0FD0082A0ED171
:1017B0000F4C241F2268236802F03F025B0207D50A
:1017C0002068C0F38810A0FB010106E0084610BDA8
:1017D0002168C1F38811A1FB00010023FEF777FD0A
:1017E0002168C1F30141491C4900B0FBF1F010BD73
:1017F000083802400024F40040787D012DE9F84FBC
:1018000004006ED02078DFF84C93C007A9F10405DE
:101810004AD009F104000168C1F38101012908D00F
:101820000068C0F3810002280AD1D9F80000400204
:1018300006D52868800337D560680028E1D033E0FA
:101840006068B0F5803F10D0B0F5A02F286810D0A8
:1018500020F480302860286820F4802028606068A8
:10186000A8B1FFF75FFE06460DE0286840F480301F
:10187000F4E740F480202860F7E700BFFFF752FE4E
:10188000801B642873D828688003F7D50CE0FFF725
:1018900049FE064605E000BFFFF744FE801B6428B2
:1018A000F0D828688003F7D42078DFF8AC8280076E
:1018B0004FF0000A3ED5A748001D016811F00C0F3B
:1018C00008D00068C0F3810002280BD1D9F80000CD
:1018D000400207D42868800716D5E068012800D1A7
:1018E00012E033E1E068B8B10120C8F80000FFF76A
:1018F00019FE064605E000BFFFF714FE801B022814
:10190000C0D828688007F7D52868216920F0F8003A
:1019100040EAC10028600DE0C8F800A0FFF702FE11
:10192000064604E0FFF7FEFD801B02281FD828684A
:101930008007F7D42078000722D5864F8748616951
:10194000703771B101210160FFF7ECFD064604E03C
:10195000FFF7E8FD801B022809D838688007F7D513
:101960000EE0C0F800A0FFF7DDFD064605E082E0CE
:10197000FFF7D8FD801B02287DD838688007F7D490
:101980002078400768D5DFF8CCB100270BF13C0B7D
:10199000DBF80000C0000BD4DBF8001041F08051F0
:1019A000CBF80010DBF80000012700F08050009019
:1019B0006B4E3068C00510D4306840F480703060E1
:1019C000FFF7B0FD009005E0FFF7ACFD0099401A6D
:1019D000022850D83068C005F6D55E4EA0686C3637
:1019E00001280FD00528306810D020F001003060A9
:1019F000306820F004003060A068B8B1FFF792FDB5
:101A000000900FE0306840F00100F4E740F004007F
:101A10003060F7E7FFF786FD0099411A41F2883000
:101A2000814266D830688007F4D50EE0FFF77AFD72
:101A3000009007E0FFF776FD0099411A41F28830E7
:101A4000814256D830688007F4D42FB1DBF80010FB
:101A500021F08051CBF80010A069C8B33D49091DA1
:101A60000968C1F3810102294AD00228504607D0F3
:101A7000C8F8600000E03CE0FFF754FD04463BE09E
:101A80004746C8F86000FFF74DFD064605E000BF79
:101A9000FFF748FD801B02282BD828688001F7D467
:101AA000D4E907010843A16A2E4A490802EB014123
:101AB000626A41EA8211084394F82C1040EA0161FD
:101AC000C9F8001001203866FFF72CFD044606E037
:101AD0003EE000BFFFF726FD001B022809D828685A
:101AE0008001F7D534E000BFFFF71CFD001B022882
:101AF00002D90320BDE8F88F28688001F4D427E0DC
:101B00000128F7D0D9F80000E26900F48001914281
:101B10001CD1226A00F03F01914217D147F6C071F3
:101B2000626A0140B1EB821F10D1A26A4FF0FF330D
:101B300000F4403103EB5202B1EB024F06D194F8AE
:101B40002C1000F07060B0EB016F01D00120D1E7E4
:101B50000020CFE70438024000004742800E474291
:101B6000007000400000FFFF704770B5040009D00E
:101B7000606A002540B125616561A56294F8510055
:101B800040B10CE0012070BD6068B0F5827FF4D0F8
:101B9000E561F2E784F85050204600F045F8022055
:101BA00084F851002068016821F040010160A0889C
:101BB000218900F4827001F404410843A18901F4F1
:101BC00000610843217C01F002010843217D01F0FE
:101BD00001010843218B01F400710843217F01F0CA
:101BE0003801084394F8201001F080010843218D4A
:101BF00001F40051084321680860A069042101EA4A
:101C0000104094F8241001F0100108432168486046
:101C10002068C16921F40061C1616565012084F813
:101C20005100002070BD000070B586B0064614213A
:101C30006846FEF7C3FB1F493068884238D11E480A
:101C40000025016841F480510160006800F4805073
:101C5000059019481438016841F0010101600068DD
:101C6000694600F001000590A02000900220CDE917
:101C7000010503200390052004901048FFF750FB56
:101C8000104C0F4820604FF0C06060604020C4E9F5
:101C900002050001C4E90405A561E561256220464D
:101CA0006562FFF789FA08B1FEF7D3FFB464A66353
:101CB00006B070BD003001404438024000000240D0
:101CC000586402403C0100202DE9F041044690F8A0
:101CD00050000026012809D0012784F8507094F89C
:101CE00051000025012804D002264EE00220BDE864
:101CF000F08189B182B1032084F8510065652163C8
:101D0000A286E286A56365642564A587E587A06849
:101D1000B0F5004F02D00BE0012636E020680168E4
:101D200021F0400101602068016841F480410160B8
:101D3000A16C18480864A16C1748C863A16C1748C7
:101D4000C864A06C0565E38E2268216B0C32A06C20
:101D5000FFF79CFA38B1606D40F010006065012615
:101D600084F8517011E020680168490603D40168C5
:101D700041F0400101602068416841F0200141606C
:101D80002068416841F00201416084F850503046BB
:101D9000ADE700007F2D0008892D00085D2D0008AB
:101DA0007047704710B5401EB0F1807F01D301200D
:101DB00010BD4FF0E02460610F21601701F0C6FAFA
:101DC0000020A06107202061002010BD70477047EF
:101DD00070B590F83C20012A32D0012480F83C40B4
:101DE000022280F83D2003685A689D6822F0700640
:101DF0000A6832435A60134B02689A4214D0B2F117
:101E0000804F11D0104B9A420ED0104B9A420BD0FB
:101E10000F4B9A4208D00F4B9A4205D00E4B9A4274
:101E200002D00E4B9A4204D1496825F08003194331
:101E3000916080F83D40002180F83C10084670BD5C
:101E4000022070BD00000140000400400008004076
:101E5000000C004000040140004001400018004018
:101E600010B5040003D094F83D0010B107E0012044
:101E700010BD002084F83C00204600F01FF802202E
:101E800084F83D00211D206801F0A4F9012084F8A8
:101E9000460084F83E0084F83F0084F8400084F84F
:101EA000410084F8420084F8430084F8440084F838
:101EB000450084F83D00002010BD000008B5006812
:101EC000B0F1804F12D10A48016841F00101016070
:101ED0000068002200F00100009011461C20FFF76E
:101EE0008FFBBDE808401C20FFF77CBB08BD00004D
:101EF0004038024090F83D10012901D00120704780
:101F0000022180F83D100168CA6842F00102CA60EF
:101F100000681149884214D0B0F1804F11D00F49A8
:101F200088420ED00E4988420BD00E49884208D014
:101F30000D49884205D00D49884202D00C4988429B
:101F400004D1816801F00701062903D0016841F03E
:101F500001010160002070470000014000040040C2
:101F600000080040000C0040000401400040014017
:101F70000018004070B5044690F83C000025012888
:101F800017D0012684F83C60022084F83D002068C8
:101F9000826822F0770222F47F428260086850282B
:101FA00038D00DDC20284FD005DC90B3102811D19B
:101FB0004AE0022070BD302846D040280AD13BE0DC
:101FC00060282FD070280DD0B0F5805F03D0B0F519
:101FD000005F12D0012584F83D60002084F83C00A9
:101FE000284670BDCB68D1E90121206801F056F97F
:101FF0002068816841F0770109E0CB68D1E90121CF
:10200000206801F04BF92068816841F480418160CB
:10201000E1E719E0CA684968206801F051F95021E8
:10202000206806E0CA684968206801F05AF9602112
:10203000206801F03DF9CEE7CA684968206801F0E0
:102040003FF940212068F4E7226801461046F0E796
:10205000704770B50446006801694FF00005C94338
:10206000890715D4C168C943890711D4E91E0161E4
:1020700001202077206880698007204602D0FFF782
:10208000E7FF04E000F098F8204600F096F8257786
:1020900020680169C943490717D4C168C943490782
:1020A00013D46FF004010161022020772068806959
:1020B00010F4407F204602D0FFF7CAFF04E000F092
:1020C0007BF8204600F079F8257720680169C9433C
:1020D000090716D4C168C943090712D46FF0080173
:1020E0000161042020772068C0698007204602D063
:1020F000FFF7AEFF04E000F05FF8204600F05DF867
:10210000257720680169C943C90617D4C168C94346
:10211000C90613D46FF010010161082020772068F0
:10212000C06910F4407F204602D0FFF791FF04E021
:1021300000F042F8204600F040F825772068016959
:10214000C943C90708D1C168C943C90704D1891E59
:102150000161204600F032F820680169C943090690
:1021600009D4C168C943090605D46FF08001016133
:102170002046FFF72BFE20680169C943490609D4B0
:10218000C168C943490605D46FF04001016120468A
:1021900000F01CF820680169C94389060BD4C168A6
:1021A000C943890607D46FF0200101612046BDE8CC
:1021B0007040FFF70CBE70BD7047704702498842FF
:1021C00001D100F035BA70479C0100207047FEE74E
:1021D00070B5054600F094FE0E4CE178884216D0AA
:1021E0000120FFF78BF800F08BFE0146E07881427A
:1021F0000DD02179491CC9B22171012904D90021CE
:1022000021712870012070BD00F07AFEE07000207E
:1022100070BD000018000020002803D0002901D064
:1022200041618861704700007FB50025194800951D
:102230000195029516490395C0E9001501248560B2
:102240000461047680F820501349C0E90A1502267B
:10225000C661C56080F830404461FEF7BCFD08B13E
:10226000FEF7F7FCCDE9005469460A480295FEF7EF
:1022700009FD08B1FEF7EDFCCDE9004669460548C9
:10228000FEF700FD002801D0FEF7E3FC7FBD000053
:10229000002001403C0000200100000F094808B563
:1022A000016841F4800101600068002200F48000B0
:1022B000009011463B20FFF7A3F9BDE808403B2002
:1022C000FFF790B9303802402DE9F04186B0142173
:1022D0006846FEF773F822480024016841F01001B7
:1022E0000160016801F010010591016841F00101F0
:1022F0000160016801F001010591016841F00401EC
:1023000001600068174F00F0040005900122502181
:102310003846FFF702F9DFF85080012210214046CD
:10232000FFF7FBF8182001258DE8310069460F48BA
:10233000FEF7F6FF50200326CDE90005CDE9024661
:1023400069463846FEF7ECFF1020CDE90005CDE9DF
:10235000024669464046FEF7E3FF06B0BDE8F0815D
:1023600030380240000002400008024000100240E5
:102370000F4810B50D4901604FF482714160002192
:102380008160C1604FF400720161C0E90512C16152
:102390000162416281620A21C162FFF7E6FB002807
:1023A00003D0BDE81040FEF754BC10BD0030014022
:1023B000E400002010B586B0002417480094019472
:1023C0000294039404944FF080410594016040F21C
:1023D000CF21C0E901146321C0E903148021816188
:1023E000FFF73EFD08B1FEF734FC4FF4805000903B
:1023F00069460948FFF7BEFD08B1FEF72AFC0494C0
:1024000004A905480594FFF7E3FC002801D0FEF776
:1024100020FC06B010BD00009C0100202DE9FC410D
:1024200000260125CDE90056102320223146322016
:10243000FEF7FAF93A4F3B490A223860C16101219F
:10244000FEF75AFACDE90056102308220021382061
:10245000FEF7EAF904463448E061CDE90054102360
:10246000082219463820FEF7DFF93049C161CDE96D
:1024700000541023082220213820FEF7D5F92C49DA
:10248000C161CDE90054102308222F217620FEF7E8
:10249000CBF92849C161CDE900640021102308224D
:1024A0000846FEF7C1F92449C161012200212046F6
:1024B00000F03EF94FF4FA721121FEF71DFA0422E2
:1024C0000021204600F034F964220921FEF714FAB5
:1024D000204600F037F821463868FFF79DFE0322BA
:1024E0000021204600F024F9A1694161CDE90056A0
:1024F0001023182200213820FEF796F906460F48CF
:10250000F0613146E068FFF787FE00221146304651
:1025100000F00EF9B169416109480570BDE8FC8120
:102520002800002045430008ED4300080D44000842
:10253000B9440008D9440008F9440008454500089A
:102540001900002000B5020007D0FEF784FB034607
:102550001046FEF78BFBC360186100BDFEE700006C
:102560002DE9FF5F9346039C204601F0E3FE0246FF
:102570000021084606E0635C7F2B01D9891C00E03E
:10258000491C401C9142F6D300F0FF0A00202EE0C7
:1025900002461D48039900F081FD28B30024400045
:1025A000A0F10209194809EBD40100EB011700253D
:1025B00004F0070001268640785D30420CD0009878
:1025C00000280BEB040017D002B201980123284425
:1025D00001B2009800F016F96D1CEDB2102DEBD38E
:1025E000641CE4B2102CDDD308F10100C0B28046B7
:1025F0005045CDD3BDE8FF9F01B201980122284488
:1026000000B201F0C5FFE7E78C56000891560008BC
:10261000002809D0002305E039B18069002803D0E3
:102620005B1C9BB29342F7D370474069F6E700000A
:102630002DE9F04F234C00256178A368206900291B
:102640003DD000283BD0002B39D06179002936D10C
:1026500004F114010A79012A31D0012289460A7154
:1026600000F075F8804600F080F80646A246AB46BA
:102670004446586800F06BF80746DAF8100000F09E
:1026800066F8874214D15868A04203D0B4420FD0F4
:10269000E468F9E71988491C89B219805A8891427F
:1026A00006D3A3F800B0018C012541F0010101849B
:1026B0009B68002BDCD1002D01D189F804B0BDE866
:1026C000F08F0000180000202DE9FE43814690465F
:1026D0000D461E46184601F02DFE002407460294C2
:1026E0001DE0305D7F280FD98DF80800301902AB4E
:1026F00040788DF80900424629464846FFF730FFEA
:1027000010352DB2A41C0AE0CDE900802B46064A04
:102710000649484600F094F808352DB2641CBC42C6
:10272000DFD3BDE8FE8300009A5000089C500008EB
:10273000002809D0002305E039B10069002803D042
:102740005B1C9BB29342F7D37047C068F6E7002842
:102750000AD00169002907D00289012A04D0CA7A67
:10276000012A01D00846F4E7704700280AD0C16862
:10277000002907D00A89012A04D0C27A012A01D08F
:102780000846F4E77047000070B51D48FFF720FDCC
:102790001B4E0F36A6F1140528B1687918B1012037
:1027A0003071287002E03079002827D000F052FC08
:1027B000286900F0E3FB2C69ACB12089012805D021
:1027C000206918B1C17A09B90446F6E7E16909B18F
:1027D00020468847E06830B1E17A21B901890129B2
:1027E00001D00446F2E72869FEF701FA01F050FD36
:1027F000FEF7B2F8002028706871307170BD0000DB
:102800001D000020F0B4002817D004884588B0F9D6
:1028100004600C44154424B22DB28E420DDBB0F995
:102820000600904209DB002907DB002A05DB294668
:102830002046F0BC1A4601F0ABBEF0BC7047000069
:102840002DE9FF5F9A46DDE90EB0203889461778FA
:10285000567800F0FF08002432E000252CE000BF8D
:1028600006EB8600C0F39C000A21B0FBF1F201FBED
:10287000120000284FEAD60000D0401C18FB07F1D8
:102880004843E10817FB010109EB0500085C04F06F
:102890000701C84010F0010F0CD00098002804EB8D
:1028A0000B0011D002B205EB0A0001B2012300981F
:1028B000FFF7A8FF6D1CEDB2BD42D1D3641CE4B29A
:1028C000B442CAD3BDE8FF9F01B205EB0A0000B2D3
:1028D000012201F05DFEEDE72DE9FC471D46DDE933
:1028E0000A741646884681460BE0CDE900702B46F7
:1028F000324641464846FFF7A3FF3078641C28441F
:1029000005B220780028F0D1BDE8FC872DE9FF4F03
:1029100083B00026DDE910951F4690468B4634466D
:10292000DDF848A02AE0281B401E0A22C1B201207F
:1029300000E05043491EC9B2FBD2BAFBF0F00A21B5
:10294000B0FBF1F201FB120026B9691E8C4201DADC
:1029500028B101263030C0B2CDE9009002E020213C
:10296000CDE9009198F8000010FB047003B24246D4
:1029700059460398FFF764FF641CE4B2AC42D2D31B
:1029800007B0BDE8F08FFEE7F0B50446002901DA94
:102990004A4200E00A4696B200280CD00025CF0F2C
:1029A0000CE001223946FFF733FE18B1817A012984
:1029B00004D101E02046F0BD6D1CADB2B542F0D3AC
:1029C000F0BDF0B50446002901DA4A4200E00A46AB
:1029D00096B200280CD00025CF0F0CE0012239461A
:1029E000FFF7A6FE18B1817A012904D101E0204643
:1029F000F0BD6D1CADB2B542F0D3F0BD70B5002492
:102A000004F1B000C0B2002100F0C2F80021084675
:102A100000F0BEF80021102000F0BAF800250121D6
:102A2000002000F0B5F86D1CEDB2802DF7D3641CCA
:102A3000E4B2082CE4D370BD10B5494C012240210A
:102A40002046FEF76AFD6420FEF758FC0022402174
:102A50002046FEF762FD6420FEF750FC0122402173
:102A60002046FEF75AFD0021AE2000F091F800212B
:102A7000084600F08DF80021102000F089F80021B0
:102A8000402000F085F80021812000F081F800212D
:102A9000CF2000F07DF80021A12000F079F800217E
:102AA000C82000F075F80021A62000F071F8002180
:102AB000A82000F06DF800213F2000F069F8002107
:102AC000D32000F065F80021084600F061F80021ED
:102AD000D52000F05DF80021802000F059F8002199
:102AE000D92000F055F80021F12000F051F8002124
:102AF000DA2000F04DF80021122000F049F8002102
:102B0000DB2000F045F80021402000F041F80021D2
:102B1000202000F03DF80021022000F039F80021CB
:102B20008D2000F035F80021142000F031F800214C
:102B3000A42000F02DF80021A62000F029F80021A3
:102B4000AF2000F025F80021AF2000F021F8FFF7BA
:102B500055FF0021BDE81040084600F003B8000012
:102B60000000024010B50446B031C8B2002100F0A8
:102B70000FF8102040EA1410002100F009F804F0CA
:102B80000F00BDE8104040F001000021AFF30080CD
:102B900073B50F4C09B1012200E00022102120463C
:102BA000FEF7BBFC0B4D002210212846FEF7B5FCBA
:102BB000012269460848FFF787F8012210212846BC
:102BC000FEF7ABFC012210212046FEF7A6FC7CBDDF
:102BD0000008024000000240E400002070470000AE
:102BE0002DE9F05F98462DED068B93468A46044604
:102BF000DDE910969FED51AB86B1304601F051FFF3
:102C00009FED501B53EC112B01F076FF9FED4F1BF6
:102C100053EC112B01F090FD41EC1A0BA9EB0B05C5
:102C200005FB05F0A8EB0A0707FB070001F039FFD9
:102C300041EC100B00F0C8FEB0EE408AF0EE608A66
:102C4000384601F02EFF41EC190B284601F029FF10
:102C500041EC100BB0EE491AF0EE691A00F0F4FCEA
:102C600066B112980A25002853EC1A2B51EC100B70
:102C70009FED389B37D001F0B7FC36E0C4E90089FE
:102C8000BDEC068BBDE8F09F01F0DEFE401C01E0CC
:102C900001F0DAFE47EC106B206000F031FE53ECDF
:102CA000182B51EC100B01F027FF41EC180B584684
:102CB00001F0F7FE53EC182B01F096FC41EC180BD9
:102CC00053EC192B01F018FF01F0BEFEB0FBF5F13B
:102CD00005FB1100052851EC180B2CD901F0B4FEAE
:102CE000401C6060CCE702F0DDF80F46064647EC7A
:102CF000100B00F0A1FD53EC182B51EC100B01F060
:102D0000FBFE41EC1A0B504601F0CBFE53EC1A2BA4
:102D100001F06AFC41EC1A0B53EC192B01F0ECFEAC
:102D200001F092FEB0FBF5F105FB1100052851EC16
:102D30001A0BADD9A8E701F087FED2E7000000002A
:102D40000000000044174154FB210940000000002E
:102D500000806640000000000000244010B5806B39
:102D600001684A6822F003024A60416D41F0100197
:102D70004165012180F85110FEF7F6FE10BD10B537
:102D8000806BFFF70EF810BD38B50546846BFEF773
:102D9000C9FB024628680068C00523D42068416842
:102DA00021F0200141602068416821F0020141606A
:102DB0006421204600F01AF818B1606D40F0200040
:102DC0006065A068002118B92068C268806800901A
:102DD000E186012084F85100606D18B12046FEF7AD
:102DE000C3FE38BD2046FEF7DBFF38BD38B50446CC
:102DF0001248134B0068B0FBF3F04FF47A7358435A
:102E000000906068B0F5827F0DD10B4600920022E1
:102E10008021204600F016F870B1606D40F020006F
:102E20006065032038BD009830B1401E00902068D6
:102E30008068C0430006F6D5002038BD140000208D
:102E400000366E012DE9F8431E4691468846044639
:102E5000089DFEF767FB401B351AFEF763FB07462C
:102E600025480068C0F3CB30684338E0701C37D089
:102E7000FEF758FBC01BA84203D215B1009860B3FF
:102E80002CE02068416821F0E00141606068B0F505
:102E9000827F0BD1A068B0F5004F02D0B0F5806FF3
:102EA00004D12068016821F040010160A06AB0F5FA
:102EB000005F09D12068016821F400510160206899
:102EC000016841F400510160012084F851000020A4
:102ED00084F850000320BDE8F8830025401E0090D0
:102EE0002068816838EA010004D000214945BDD13D
:102EF0000020F0E70121F9E71400002070470000EE
:102F000070B51B4C10212046FEF702FB68B108216A
:102F10002046FEF7FDFA50B1164840F63A431649EE
:102F200004689C4205D903201EE0022070BD0320E6
:102F300070BDA4F297554FF4C7760022B54201D870
:102F40008A7003E0822C01D204200DE04068984290
:102F500001D9022008E0A0F29753B34201D88A7049
:102F600004E0822802D20120887070BD887870BD8C
:102F700000100240000000201800002030B50500BD
:102F80003348C36852D0190050D0007800284DD083
:102F90002846FFF7DCFB04461868FFF7D8FB197AD0
:102FA00089070DD51968A94241D19A7A920707D4A9
:102FB0000A8C42F002020A84598941F002015981C7
:102FC000197A49070DD51968A94234D09A7A52075F
:102FD00007D40A8C42F004020A84598941F00401A2
:102FE0005981197A09070DD5844228D1997A0907A0
:102FF00008D419680A8C42F008020A84598941F001
:1030000008015981197AC9060DD584421BD0987AD6
:10301000C00608D41868018C41F010010184588959
:1030200040F0100058815B68002BB5D130BD598944
:1030300021F00201C3E7598921F00401D0E7598941
:1030400021F00801DDE7588920F01000EAE70000D0
:103050001800002010B5104C4FF0FF312046637966
:103060000069012B0CD0022B0ED00022032B0DD0B7
:10307000042B08D1836903B16271FFF785FC01E07D
:10308000FFF79FFC206110BD0121F9E7416901B103
:1030900062710121F1E70000180000202DE9F041E4
:1030A000054614460E46084601F044F907462846F0
:1030B00001F040F90021034608468C46BC422ED25E
:1030C0006BB367B3621C0AE0775C7F2F05D9891C5C
:1030D000A04203D14FF0010C00E0491C401C90427B
:1030E000F2D300221046314417E0521C2C5CBCF194
:1030F000000F05D011F8026CB44208D12C18647886
:1031000011F8016CB44202D1D0B2BDE8F0812C5C60
:103110007F2C01D9801C00E0401C9A42E5D300209E
:10312000F3E7FEF705BA000030B593B030216846EA
:10313000FDF744F914210CA8FDF740F91C480024C0
:10314000016841F080510160006800F080501190EA
:103150001848016841F4804101600068022500F4CC
:103160008040119001200390102004900095069556
:103170000820CDE907404820CDE9090504200B903F
:103180006846FEF73BFB08B172B6FEE70F20CDE9BB
:103190000C054FF48050CDE90E4002210CA810948C
:1031A000FEF760FA002801D072B6FEE713B030BD1A
:1031B00040380240007000400248016841F470014C
:1031C0000160704788ED00E00148FEF742BF000053
:1031D0009C010020F0B50268254C264D264E274F55
:1031E000274B4FF0804CA04209D0604507D0A84241
:1031F00005D0B04203D0B84201D0984204D122F0A9
:10320000700E4A6842EA0E02A0421BD0604519D0F7
:10321000A84217D0B04215D0B84213D0984211D06E
:10322000184DA8420ED0184DA8420BD0174DA842F9
:1032300008D0174DA84205D0164DA84202D0164D11
:10324000A84203D122F44075CA682A434D6922F08E
:1032500080022A4302608A68C2620A688262A042CF
:1032600001D0984201D10969016301214161F0BD9A
:10327000000001400004004000080040000C004035
:10328000000401400040014000440140004801406A
:1032900000180040001C00400020004010B5846869
:1032A00042EA032224F47F440A432243826010BD91
:1032B000826822F070020A4342F007018160704781
:1032C00010B5036A046A24F001040462846924F0DE
:1032D000F00444EA021423F00A020A438461026201
:1032E00010BD10B5036A23F0100303628369046AFA
:1032F00023F4704343EA023224F0A00343EA0111AD
:103300008261016210BD10B502460020138C0B4291
:1033100002D001208B43138410BDFEE703B4019853
:103320004100009850EAC12018BF04204A0D18BF80
:1033300040F0010040F2FF72B2EB515F08BF40F075
:103340000200012808BF052002B070470907090ED6
:10335000002804DB00F1E02080F80014704700F042
:103360000F0000F1E02080F8141D704700000000FD
:1033700070B59B482DED020B2DED068B079D25F0BA
:103380000044A04218DC9748844202DC0AD1069827
:1033900040B19DED060BBDEC068B02B0BDE8704060
:1033A00000F03ABF002DCCBF9FED8F0B9FED900B2F
:1033B000BDEC068B02B070BD8F48A04215DD8F4872
:1033C000A042D8BF4FF0FF3458DD9DED060B51EC05
:1033D000100BFFF7A3FF042808BF00F041FF9DED8D
:1033E000060BBDEC068B02B070BD9DED060B51ECDB
:1033F000100B00F06FFFCDE9060181489FED828B35
:10340000A0423CDD8248A0421FDD00249FED82AB3C
:103410009DED060B53EC1A2B51EC100B01F0E4F868
:103420009DED060B41EC190B53EC1A2B51EC100BD4
:1034300001F062FB53EC182B01F034FD53EC192B17
:1034400001F07AF9CDE9060149E09DED060B012472
:1034500053EC182B51EC100B01F0C6F89DED060B48
:1034600041EC190B53EC182B51EC100B01F01AFD29
:1034700053EC192B01F060F9CDE906012FE0684803
:10348000A0421FDD02249FED689B9DED060B53ECCF
:10349000192B51EC100B01F02FFB53EC182B01F002
:1034A000A3F89DED060B41EC180B53EC192B51ECD6
:1034B000100B01F0F7FC53EC182B01F03DF9CDE9AE
:1034C00006010CE09DED060B032453EC102B9FED41
:1034D000580B51EC100B01F02FF9CDE906019DEDD1
:1034E000060B53EC102B51EC100B01F005FB41ECDB
:1034F000180B53EC182B01F0FFFA41EC190B4E4856
:103500000621B0EE490AF0EE690A784400F070FD39
:1035100053EC182B51EC100B01F0EEFA41EC180BA8
:103520004648B0EE490AF0EE690A0521784400F0F9
:103530005FFD53EC192B51EC100B01F0DDFA41EC5F
:10354000100B51EC180B53EC102B002C0EDA01F081
:103550004BF89DED061B53EC112B01F0CDFA9DEDC0
:10356000061B53EC112B01F0C5FB35E001F03CF8D4
:103570009DED061B53EC112B01F0BEFA41EC100B34
:103580002F48784400EBC40090ED001B51EC100B69
:1035900053EC112B01F086FC9DED061B53EC112B17
:1035A00001F080FC41EC100B2648784400EBC4008D
:1035B00090ED001B51EC100B53EC112B01F09AFB1A
:1035C00041EC100B002DA2BFBDEC068B02B070BD0C
:1035D00051EC100B00F0FCFF41EC100B01E7000078
:1035E000000010440000F07F182D4454FB21F93FE7
:1035F000182D4454FB21F9BF0000DC3F0000203EA1
:103600000000F33F00000000000000000000F03F59
:103610000000E63F00000000000000000000004045
:103620000080034000000000000000000000F83FA0
:10363000000000000000F0BF32220000E82100007E
:10364000722100002A21000070B56B4E2DED040B95
:103650002DED028B82B0DDF81CC0DDE905235C4254
:103660002CF000411C4341EAD474049D22F0004038
:10367000B44205D86C422C4340EAD474B4420BD90E
:103680009DED061B9DED040B02B0BDEC028B04B05A
:10369000BDE8704000F0CABDACF14054A4F17F64B5
:1036A0001C430BD0022404EAAC7444EAD2740543F0
:1036B0009FED538B9FED542B07D015E09DED040B30
:1036C00051EC100B00F0DCFD42E0002C11BF012C8E
:1036D0009DED040B02B0BDEC028B04BF04B070BDC5
:1036E000022C38D0032C3BD00B439FED491B9FEDA0
:1036F0004A0B0AD0B14218D1B04209D121F0804121
:1037000020F08040079105900FE0002A15DA10E0C4
:10371000434B7B44002C08BF93ED000B0DD0012CD4
:1037200010D0022C17D0032C1AD0B0421DD1002A81
:1037300003DAB0EE410AF0EE610A02B0BDEC028B92
:1037400004B070BD93ED000B51EC100B00F040FF86
:1037500041EC100BF1E7B0EE480AF0EE680AECE736
:10376000B0EE420AF0EE620AE7E7401A00153C2884
:10377000C8BF8DED000B19DCBCF1000FBEBF10F10E
:103780003C0F9FED290B8DED000B0FDB9DED060B24
:1037900053EC102B9DED040B51EC100B00F0CCFF03
:1037A00000F098FD00F06CFDCDE90001002C08BF91
:1037B0009DED000BC1D0012C10D0022C9FED1C0BF5
:1037C00053EC102B9DED000B51EC100B0DD001F0C4
:1037D00069FB53EC182B01F065FBB9E7019880F009
:1037E000004001909DED000BA7E701F05BFB53EC5F
:1037F000182B01F07FFAABE70000F07F000000001B
:10380000182D4454FB210940182D4454FB2109C0B4
:10381000182D4454FB21F9BF182D4454FB21F93FC6
:103820008A200000000000000000000000000000EE
:10383000075C143326A6A13C10B52F499FED2C1B25
:103840002DED020B84B0059820F000408842D8BFCF
:103850009DED040B2DDD2949884209D1049840B91A
:103860004FF00100FCF752FE00F0EAFC06B010BD7C
:1038700005DB9DED040B00F0CFFC06B010BD6846E3
:103880009DED040B00F0E0F810F0030004BF9DED87
:10389000021B9DED000B0CD001280ED09DED021BEC
:1038A0009DED000B022817D0012000F01DFC06B092
:1038B00010BD00F0E5FA06B010BD9DED021B9DEDB8
:1038C000000B012000F010FC51EC100B00F080FE0A
:1038D00006B041EC100B10BD00F0D2FA51EC100B09
:1038E00000F076FE06B041EC100B10BD00000000A9
:1038F0000000000000000000FB21E93F0000F07F15
:1039000010B52F499FED2C1B2DED020B84B00598AF
:1039100020F000408842DCBF00209DED040B32DD2A
:103920002849884209D1049840B94FF00100FCF7BA
:10393000EDFD00F085FC06B010BD05DB9DED040B30
:1039400000F06AFC06B010BD68469DED040B00F067
:103950007BF810F0030011D0012818D09DED021B58
:103960009DED000B02281AD000F08AFA51EC100BE2
:1039700000F02EFE06B041EC100B10BD9DED021BB9
:103980009DED000B012000F0AFFB06B010BD9DEDDA
:10399000021B9DED000B00F073FA06B010BD012074
:1039A00000F0A2FB51EC100B00F012FE06B041EC4F
:1039B000100B10BD0000000000000000000000001F
:1039C000FB21E93F0000F07F00B52DED048BB0EE48
:1039D000409AF0EE609A83B051EC190B01F096F921
:1039E00041EC180B18EE100A18EE901A8DED008BB2
:1039F000002818BF0120084320F00040C0F17F607C
:103A000000F1E040C00F14D019EE101A19EE900A20
:103A10008DED009B002918BF0121084320F00040D4
:103A2000C0F17F6000F1E040C00F04BF0120FCF74F
:103A30006DFDB0EE480A03B0F0EE680ABDEC048BF1
:103A400000BD0000000000002DE9F14F04462DEDFF
:103A5000020B2DED088B8AB09FEDE70B80ED020B7A
:103A6000139EE74826F0004585420ADC9DED120BC7
:103A7000002084ED000B0AB0BDEC088B03B0BDE85C
:103A8000F08FE0489FEDE0AB9FEDE1BBA84247DD42
:103A9000E14F9FEDE39B9FEDE48B9DED120B53EC0B
:103AA0001A2B51EC100B002E1CDD01F0FBF941EC40
:103AB000100BBD4208D053EC1B2B51EC100B01F046
:103AC000F1F9C4E900010BE053EC192B51EC100B98
:103AD00001F0E8F953EC182B01F0E4F9C4E9000116
:103AE0000120C8E700F080FD41EC100BBD4208D07A
:103AF00053EC1B2B51EC100B00F076FDC4E90001D8
:103B00000BE053EC192B51EC100B00F06DFD53EC56
:103B1000182B00F069FDC4E900014FF0FF30AAE75F
:103B2000C348A84279DB9DED120B51EC100B00F05D
:103B3000D1FB41EC180B9FEDC00B53EC102B00F0A8
:103B4000DBFF9FEDBF1B53EC112B00F04DFD00F090
:103B50004BFF074600F0A5FF41EC190B53EC1A2B65
:103B600000F0CAFF53EC182B01F0C4F841EC180B1D
:103B700053EC1B2B51EC190B00F0BEFFDFF8C8A271
:103B800041EC100B4FEA15580125FA4453EC102B69
:103B900051EC180B01F086F9032DC4E900013DD06A
:103BA000C1F30A5005EB4511A8EB00001139814221
:103BB00034DA0AEB051BB0EE48AA9BED000BF0EEE1
:103BC00068AA53EC102B51EC190B00F095FF41EC57
:103BD0001B0B51EC1A0B53EC1B2B01F063F941EC5E
:103BE000180B51EC1A0B53EC182B01F05BF953EC4A
:103BF0001B2B01F057F99BED020B41EC1A0B53EC18
:103C0000102B51EC190B00F077FF53EC1A2B01F03D
:103C100049F941EC100B6D1CB8E70EE0002EA8BF6F
:103C20003846BFF628AF94ED000B51EC100B00F0B6
:103C3000CFFCC4E9000178421DE7C6F3130040F44D
:103C4000801EC6F30A50A0F2F530471100F01F05A0
:103C5000C5F12000DDF848B00890002006900790DC
:103C60000520EC467949002D07EB0002794408BF96
:103C700051F8221009D051F8223001EB8201AB40FB
:103C80004A68089922FA01F11943A1FB0E26A1FB0B
:103C90000B131A449A4234BF0123002303EB060896
:103CA0000CEB8003D3E901A60E448E4234BF012100
:103CB000002192448A4411B1924502D903E0924511
:103CC00001D2012100E00021C3E901A641444CF8E2
:103CD0002010011EA0F10100C4DC029800F1005088
:103CE000850F0298DDE903678000DDF8148000F09D
:103CF000D8FE41EC1A0B304600F0EAFE9FED541B53
:103D000053EC112B00F0F8FE41EC1B0B384600F091
:103D1000DFFE9FED511B53EC112B00F0EDFE41EC4B
:103D2000180B404600F0D4FE9FED4D1B53EC112BB9
:103D300000F0E2FE41EC190B51EC180B53EC192B7F
:103D400000F052FC53EC1B2B00F04EFC53EC1A2BF2
:103D500000F04AFCCDE90801002008909DED080B19
:103D600053EC1A2B51EC100B01F09CF853EC1B2B6D
:103D700001F098F853EC182B01F094F853EC192B40
:103D800000F0B8FF9FED381B53EC112B00F0B4FE90
:103D90009FED370B41EC180B53EC102B9DED080BEE
:103DA00051EC100B00F0A8FE53EC182B00F01CFC9B
:103DB0009FED310B41EC180B53EC102B9DED080BD4
:103DC00051EC100B00F098FE53EC182B00F00CFC9B
:103DD00041EC100B139810F0004F06D06D4251ECDF
:103DE000100B00F0F5FB41EC100B284684ED000BA6
:103DF00041E600000000000000000000000000009C
:103E0000FB21E93F7CD9024000004054FB21F93FEF
:103E10003163621A61B4D03DFB21F93F000000001C
:103E20000000601A61B4D03D7370032E8A19A33B61
:103E3000FB2139410000000083C8C96D305FE43FB9
:103E4000000000000000E03F1A1C0000681B00009A
:103E5000000000000000103E000000000000103CC8
:103E6000000000000000103A182D4454FB21F93DD9
:103E70003326A611460B113C00000054FB21F93DEE
:103E800010B52DED040B2DED088B82B0B0EE419AEC
:103E9000F0EE619A0B9820F000449FED4BABB4F12B
:103EA000795F11DA9DED0A0B51EC100B00F09CFDCF
:103EB000002801BFB0EE4A0AF0EE6A0A02B0BDEC7B
:103EC000088B04BF04B010BD9DED0A0B53EC102B02
:103ED00051EC100B00F010FE41EC180B3C48062191
:103EE000B0EE480AF0EE680A784400F081F853EC2E
:103EF000182B51EC100B00F0FFFD9DED0A0B41EC6F
:103F00001B0B53EC192B51EC100B00F0F5FD41ECA1
:103F1000190B53EC1B2B51EC180B00F0EDFD53EC7F
:103F2000192B00F0BFFF9FED2C0B41EC190B53EC4C
:103F3000102B51EC180B00F0DFFD41EC100B284862
:103F4000844210DA53EC192B51EC100B00F0AAFF4D
:103F500053EC1A2B00F0CEFE41EC100B02B0BDEC7E
:103F6000088B04B010BD1F48A042BCBF9FED1E1BB4
:103F70008DED001B06DBA4F50010019000200090E1
:103F80009DED001B51EC100B53EC112B00F08AFF40
:103F90009DED000B41EC180B53EC102B51EC1A0B60
:103FA00000F080FF41EC1A0B53EC192B51EC180B6D
:103FB00000F078FF53EC1A2B00F09CFE41EC100B44
:103FC000CCE7000000000000000000000000F03F0F
:103FD0008418000000000000000000000000E03F26
:103FE0003333D33F0000E93F000000000000D23F20
:103FF00070B504462DED028B4D1E00EBC500B0EEF2
:10400000408AF0EE608A90ED000B35F0060017D084
:1040100053EC182B51EC100B00F06EFD41EC100B23
:104020006D1E04EBC50090ED001B51EC100B53EC22
:10403000112B00F0D9FA41EC100B35F00600E7D156
:10404000022D36D0042D1CD0062D1CBFBDEC028BDA
:1040500070BD53EC182B51EC100B00F04DFD94ED9E
:104060000A1B53EC112B00F0BFFA53EC182B00F095
:1040700043FD94ED081B53EC112B00F0B5FA41EC15
:10408000100B53EC182B51EC100B00F035FD94ED98
:10409000061B53EC112B00F0A7FA53EC182B00F081
:1040A0002BFD94ED040B53EC102B00F09DFA41EC2A
:1040B000100B53EC182B51EC100B00F01DFD94ED80
:1040C000021B53EC112B00F08FFA53EC182B00F06D
:1040D00013FD94ED001B53EC112B00F085FABDECA1
:1040E000028B41EC100B70BD31B504462DED040B75
:1040F0002DED0A8BB0EE41BAF0EE61BA0B989DED52
:104100000A0B20F00040B0F1795F0DDA51EC100B92
:10411000FFF704F9042808BF00F0A2F89DED0A0B90
:10412000BDEC0A8B05B030BD53EC102B51EC100BDD
:1041300000F0E2FC41EC180B9DED0A0B53EC182B40
:1041400051EC100B00F0D8FC41EC190B2C48B0EEF0
:10415000480AF0EE680A05217844FFF749FF9FED11
:104160002ACBB0EE40AAF0EE60AA9CB353EC1C2B15
:1041700051EC190B00F0C0FC41EC1C0B53EC1A2B5A
:1041800051EC190B00F0B8FC9FED210B41EC190B21
:1041900053EC102B51EC1B0B00F0AEFC53EC192B25
:1041A00000F080FE53EC182B00F0A6FC53EC1B2B08
:1041B00000F078FE53EC1C2B00F074FE9DED0A1B02
:1041C00053EC112B00F096FDBDEC0A8B05B041ECD1
:1041D000100B30BDFFE753EC1A2B51EC180B00F01D
:1041E0008BFC53EC1C2B00F0FFF953EC192B00F067
:1041F00083FC9DED0A1B53EC112B00F0F5F9E3E76E
:104200001417000000000000495555555555C5BF0D
:10421000000000000000E03F10B553EC102B51EC03
:10422000100B00F0E1F941EC100B10BD10B553EC90
:10423000112B51EC100B00F0D7F941EC100B10BD15
:104240009FED050B10B553EC102B51EC100B00F04B
:1042500073FA41EC100B10BD0000000000000000DC
:104260009FED050B10B553EC102B51EC100B00F02B
:1042700043FC41EC100B10BD0000000000000010DA
:1042800010B541EC100BFFF773F851EC100B10BD9B
:104290002DE9F04100240D4E0D4F11E0E1B2002058
:1042A000FEF760FC5FF0000505EBC4100121305CF7
:1042B000FEF76EFC6D1CADB2802DF5D3641CA4B26C
:1042C0007888A042EAD8BDE8F0810000E40100202F
:1042D0002C00002082B0CDE9000121F000400190C7
:1042E0009DED000B02B051EC100B7047FDF728F963
:1042F000FEF71AFFFDF7E8FFFDF7D0FFFEF738F8ED
:10430000FEF758F8FDF790FFFEF796FBFEF786F8EC
:104310000548FDF7EFFD022204490548FCF7D2FDF0
:10432000FEF732FAFCE700009C01002000000020AC
:104330003C0000200146002000E0401C0A5C002AEE
:10434000FBD17047F0B585B00026074603960121E2
:104350000496FEF7D8FF224C0A2580B16068401C05
:104360006060B0F5347F00D366606068B0FBF5F143
:1043700005FB110018B9207810B30020207001222D
:10438000202061688DE8070002465023402103A8E1
:10439000FEF726FC002213A311463846FEF794F9D7
:1043A0000498042201B2039800B2FCF790FB207835
:1043B00000286068B0FBF5F105FB110004D101E0B5
:1043C0000120DBE7C0F10A00C2B220214020FCF747
:1043D0007EFB102220214020FCF723FB05B0F0BD1E
:1043E00034000020D7CCC9FA000000001CB505A29B
:1043F0000021CDE90012044A0B46911CFEF76CFA2D
:104400001CBD00002B0000009A5000082DE9FE435F
:1044100080461021FEF777FF234C002500B1657020
:1044200001214046FEF76FFF30B16078401CC0B2FA
:104430006070092800D965704FF0FF314046FEF7E3
:10444000C0FA1A4E1A4F3168884207D138780328CB
:1044500004D16078092801D2401C607001214046D7
:10446000FEF7AFFA3168884206D13878032803D1C5
:10447000607830B1401E60706078042801D9012056
:1044800000E00020082101EBC001A8F804106078CA
:1044900001210095CDE90110064A0023911C4046F8
:1044A000FEF734FABDE8FE83340000202800002027
:1044B0001D0000209A5000081CB505A20021CDE97E
:1044C0000012044A0B46911CFEF706FA1CBD0000C0
:1044D0002D0000009A5000081CB505A20021CDE96E
:1044E0000012044A0B46911CFEF7F6F91CBD0000B1
:1044F0003C0000009A500008FEB506460121FEF778
:1045000002FF0E4C002530B1A078401CC0B2A07054
:10451000092800D9A57008213046FEF7F4FE00B145
:10452000A570A07801210095CDE90110044A00236F
:10453000911C3046FEF7EAF9FEBD00003400002071
:104540009A5000081CB5044600200CA10C4ACDE985
:1045500000010346911C2046FEF7BEF9608809A1C0
:10456000183000B2CDE900012088054A103803B2A6
:10457000911C0020FEF7B0F91CBD0000335F310034
:104580009A5000084E6F7468696E67212100000020
:1045900010B57F2818DA402916DA002814DB002924
:1045A00012DBCB1701EB5374E31024F0070400EB8C
:1045B000C3100C1B054B0121A140002A1A5C01D03D
:1045C0000A4300E08A431A5410BD0000E4010020B1
:1045D00081F00041704780F00040704721F00041B9
:1045E000704720F00040704710B591EA030F48BFB4
:1045F00083F0004300F15E84841A71EB030C05D252
:10460000121943EB0C03001B61EB0C01DFF824E1F2
:104610004FEA1154A4EB135C1EEA430F18BF9EEA45
:10462000445F73D023EA0E03DCF1200E21EA04512B
:1046300043F4801332D322FA0CFE10EB0E0023FA5F
:104640000CFE41EB0E01CCF1200E03FA0EFE10EB36
:104650000E0051F10001B1F5801FCCF1200E32D2D5
:1046600001EB045112FA0EF2BDE8104058BF70473A
:10467000401C38BF5FEA420218BF7047002814BFD1
:1046800020F0010041F100014FEA410313F5001F42
:1046900038BF7047A1F1C04100F026BB012A43EBAF
:1046A0000302ACF1200CDCF11F0E32BF4FF0000E04
:1046B00023FA0CF310EB030041EB0451B4EB115F50
:1046C000D0D0A1EB045101F5801149085FEA300018
:1046D00001EB04510ED350F1000038BF12FA0EFE68
:1046E00008D1BDE81040C9E7401C38BF5FEA42026C
:1046F000CAD1C3E7BDE810404FEA410313F5001FDC
:1047000038BF7047A1F1C04100F0EEBA9EEA445FA5
:1047100008D011EA5E0FBDE8104004BF01F000416F
:1047200000207047BDE8104070B500F08FFA00BF60
:1047300064FBBE3E0000E0FF2DE9C04130B4DFF86D
:10474000A0C23CEA111418BF3CEA131400F0EC803C
:1047500081EA03051CEA111444EAD57418BF1CEA67
:10476000131500F0C780A4EB05044FF0004545EA9F
:10477000C12145EAC32341EA505143EA525304F1AF
:104780007F74994204F500344FEAC0204FEAC222F8
:1047900008BF904200F09C804FEA13650FF240166C
:1047A000765D4FEA134506FB05F7C7F1807706FBF8
:1047B00007F74FEAD737A7FB03687642C8F580387A
:1047C000A7FB06CE38BFA8F1010807FB08E64FF0AB
:1047D000000EA6FB028CE6FB03CEDCF1000CCEF152
:1047E000004E38BFAEF1010EA6FB0C584FF000078B
:1047F0004FF00005E6FB0E87A1FB08C6A0FB07CE25
:1048000016EB0E0645F10005E1FB076515F1E04EDC
:104810007EBFA4F580345FEA46066D4116F180073D
:1048200045F100054FEA17274FEA066647EA056794
:10483000A6F1DE46B6F1805F4FEA15251FD938464E
:1048400024F0010C05EBC471BCF1FE6F01EB0C11FF
:1048500002D8F0BCBDE8008124425CBF01F5801E97
:104860009EEAC47F02D4F0BCBDE80081244238D463
:10487000F0BCA1F1C041BDE8004100F035BA4FEAFB
:10488000D22242EA43524FEAD323A7FB02864FEAE1
:10489000D02040EA415007FB03661EEA0E0F4FEAA4
:1048A000D12105FB026658BFA6EB0056B6EB0056B9
:1048B0004FEA520E4EEAC37E18EB0E0E56EB530E25
:1048C000BDD518EB02085E417F1C55F10005B6E727
:1048D0004FF480154FF000074FF000064FF000082E
:1048E000ADE7F0BC4FF0000001F1C04101F0004124
:1048F000BDE8008111EA0C1F0CEA131500D00CE092
:1049000013EA0C1F00F025804FF00000F0BC81EA94
:10491000030101F00041BDE80081F0BCBDE80041A9
:1049200081EA030100F0E0B9F0BCBDE8004170B5D8
:1049300000F08CF9097EFC3E00F007B881EA030123
:104940004FF0000001F00041704781EA030100F0E0
:10495000CBB9F0BCBDE800414FF0000021497047E1
:10496000FFFDFBF9F7F5F4F2F0EEEDEBE9E8E6E434
:10497000E3E1E0DEDDDBDAD8D7D5D4D3D1D0CFCDBB
:10498000CCCBCAC8C7C6C5C4C2C1C0BFBEBDBCBBF4
:10499000BAB9B8B7B6B5B4B3B2B1B0AFAEADACABEF
:1049A000AAA9A8A8A7A6A5A4A3A3A2A1A09F9F9EC9
:1049B0009D9C9C9B9A99999897979695959493937B
:1049C000929191908F8F8E8E8D8C8C8B8B8A898912
:1049D0008888878786858584848383828281818095
:1049E0000000FF070000F87F4FEA41034FEA5353EE
:1049F000A3F58063D3F11E03C8BFD3F1210C0CDDF6
:104A00004FF0004242EAC12242EA505232FA03FC1D
:104A10008CEAE17CACEBE1707047102BC4BF002046
:104A2000704703F5787CBCF1FF3F04D06FF0004283
:104A300082EA2100704770B500F008F9499224809D
:104A400000207047F2E700004FEA1153A3F580639E
:104A5000D3F11E03A8BFD3F1200C08DB4FF00042B6
:104A600042EAC12252EA505232FA03F07047094238
:104A70000BD4102BC4BF0020704703F5787CBCF129
:104A8000FF3F05D04FF0FF3070474FF000007047F8
:104A900070B500F0DBF800BF499224800020704719
:104AA000F0E710F0004248BF4042B0FA80F310FA3D
:104AB00003F10AD0C3F11D0303F580634FEA4150AF
:104AC00002EB035202EBD12170474FF00000704718
:104AD000B0FA80F310FA03F10AD0C3F11D0303F515
:104AE00080634FEA41504FEA035202EBD1217047F5
:104AF0004FF0000070470000DFF848C170B51CEAB5
:104B0000111E1EBF1CEA13159EEA0C0F95EA0C0F2E
:104B100000F06F8081EA030423EA4C134EEAD47E4E
:104B200021EA4C1141F4801143F48013AE44A1FBFF
:104B3000024CA0FB0365AEF17F7E361955EB0C05E8
:104B4000A1FB034C4CF10003A0FB021C16EB0C066E
:104B5000654153F10003094218BF46F0010613F402
:104B6000007F0BD14FEA03314FEA0530340341EAAD
:104B7000155140EA16506FF003020AE04FEAC321D4
:104B80004FEAC520F40241EA555140EA56506FF011
:104B9000020202EB2E4201EB025585EACE710AD0E9
:104BA0005FEA440C18BF24F0004450F1000041F1CA
:104BB000000120EAD47040F2FE7C624500D270BD54
:104BC000A84214BF4FF080444FF04044002E08BF6D
:104BD0000024BEF1806FA8BFA1F1C041BDE87040C4
:104BE00080F282804FF0000001F1C04101F00041ED
:104BF00070479EEA0C0F0CEA131518BF95EA0C0FCC
:104C000006D04FF0000081EA030E0EF0004170BDA7
:104C100000F01CF88900013E00F007B800F009B868
:104C20004FEA430C5FEA5C5C08D081EA030100F0C4
:104C30005BB84FEA410C5FEA5C5CF6D14FF00000D4
:104C4000014970470000FF070000F87F0EF1020ED7
:104C50002EF0030E5EF8046B364205D4012A43EBB6
:104C6000030515F5001F12D8012841EB010C1CF5B6
:104C7000001F0CD80ED14FEAD17C15F5001F0CEBAC
:104C80004C0C0CF1020C08BF4CEBD37C04E04FF051
:104C9000080C01E04FEAD37C0CEB4C0526FA05F634
:104CA00006F00706B6F1040C06D20EEB860CBDE842
:104CB00070404CF0010C6047DFE80CF0090B020279
:104CC0004FF000414FF00000A1F5002170BD1946E2
:104CD0001046012851EB010418BFD4F5001484BF1D
:104CE000002001F0004170BD0808A0F500114FEA56
:104CF0003101704791EA030F10B581F000413FF593
:104D00007BAC83F0004300F0D5B800002DE9F04102
:104D100001F5801CBCF5001FC0F2A9804FEA115CB0
:104D200021EA0C510CF1FD0C41F480115FEA5C0C9E
:104D30000CF5C07C01D34000494130A4890241EA0E
:104D4000905187028E0E0A0CA45D04FB04F602FB50
:104D500006F6C6F14046A4FB0662F60D46EA422678
:104D600006FB06F4A4FB01235242C3F1404338BFC3
:104D70005B1EA6FB02420024E6FB0324D20B42EAA0
:104D80004446A6FB0623A1FB02E2A3FB07E4E3FBE8
:104D900061426442C2F1404E38BFAEF1010EA6FB43
:104DA00004234FF00002E6FB0E32A2FB0346340060
:104DB000E2FB6264A1FB06E6A4FB07E8E4FB616892
:104DC0007642C8F1405838BFA8F10108A2FB06E4BA
:104DD000A3FB08E5E2FB6854A1FB05E6A7FB04E89A
:104DE000E1FB648618F1200556F10006A809A8F138
:104DF0001B08B10908F03F08B8F10A0F40EA8660C5
:104E00001CD901EB0C51BDE8F08100BFFCF5EEE8C8
:104E1000E2DDD8D3CFCBC7C3C0BDB9B6B4B1AEAC59
:104E2000A9A7A5A3A19F9D9B9A9896959392908FD1
:104E30008D8C8B898887868584838281A0FB00681E
:104E400000FB01F208EB4208B8EB872807D53418BD
:104E500058EB0104D5D5401C51F10001D1E7341ABB
:104E600078EB0104CDD4401E71F10001C9E75FEA7F
:104E70004C0C5FEA9C5C0DD105D34FF0000001F0B3
:104E80000041BDE8F081BDE8F04170B5FFF7DEFEFE
:104E90006DDBFFBEBDE8F0414FF0000000497047F8
:104EA0000000F87F10B591EA030F48BF83F000437C
:104EB0003FF5A2AB841A71EB030C07D212198CF0E8
:104EC000004C43EB0C03001B61EB0C01DFF8A4E189
:104ED0004FEA1154A4EB135C1EEA430F18BF9EEA7D
:104EE000445F00F0B08023EA6E03524221EA04518D
:104EF000C3EB6E0338BF5B1EDCF1200E25D322FA14
:104F00000CFE10EB0E0043FA0CFE41EB0E01CCF14F
:104F1000200E03FA0EFE10EB0E0051F10001CCF151
:104F2000200E29D412FA0EF201EB0451BDE8104014
:104F300058BF7047401C1CBFB2F1004F704700289B
:104F40000CBF491C20F00100704712EB020E43EB2E
:104F5000030218BF4FF0010E4EEA4202ACF1200CE2
:104F6000DCF11E0E54D943FA0CFE10EB0E0051F189
:104F7000FF31CCF11E0ED5D50EF1010E12FA0EFE48
:104F8000404141EB010101EB445C5FEA5C5C10D9FC
:104F900010EBDE7001EB045138BFBEF1004FBDE8ED
:104FA000104018BF704700280CBF491C20F00100BA
:104FB000704730D24FEAD42C11F5001124F400646C
:104FC0001BD0B1FA81F20B3AA41AA41ED2F120032D
:104FD000914030FA03F31943904001EBCC71002C5F
:104FE00001EB0451BDE81040A8BF704701F1C0417A
:104FF0004FF0000001F000417047B0FA80F310FA62
:1050000003F100D110BDE41A173C4805C90AE4E7D2
:1050100001EB045110BD491001EB0451BDE81040F3
:105020004FEA300002E04FF0000170474A0008BF2D
:105030000042F8D0B2F5001F28BF704701F00041D0
:105040004FF0000070479EEA445F07D011EA5E0F00
:10505000BDE8104004BF002100207047BDE81040AB
:1050600070B5FFF7F3FD00BF40DFF63E83F000416F
:10507000104670470000E0FF4FF04070E1EE100A6C
:105080007047000610160006101600000000000011
:1050900000000102030406070809081000000000D0
:1050A000000000000000000000000000000000F808
:1050B00000000000000000333000000000100C066B
:1050C000100C0600000000000000000040C0784006
:1050D000C0784000043F04043F040400007088FCD2
:1050E00008300000001820FF211E0000F008F0002A
:1050F000E018000000211C031E211E0000F008889B
:10510000700000001E2123241927211010160E0004
:10511000000000000000000000000000000000E0AF
:1051200018040200000000071820400000020418C4
:10513000E00000000040201807000000404080F020
:10514000804040000202010F01020200000000F056
:10515000000000000101011F01010100000000002A
:105160000000000080B0700000000000000000009F
:105170000000000000010101010101010000000028
:1051800000000000003030000000000000000000BF
:1051900080601804006018060100000000E010089C
:1051A0000810E000000F102020100F00001010F871
:1051B000000000000020203F2020000000700808B0
:1051C0000888700000302824222130000030088830
:1051D000884830000018202020110E000000C02058
:1051E00010F8000000070424243F240000F8088879
:1051F000880808000019212020110E0000E0108806
:1052000088180000000F112020110E000038080837
:10521000C83808000000003F000000000070880847
:1052200008887000001C222121221C0000E01008C8
:105230000810E0000000312222110F00000000C021
:10524000C0000000000000303000000000000080BE
:1052500000000000000080600000000000008040AE
:1052600020100800000102040810200040404040C7
:10527000404040000404040404040400000810201A
:10528000408000000020100804020100007048085F
:105290000808F0000000003036010000C030C828C7
:1052A000E810E0000718272423140B000000C03882
:1052B000E0000000203C23020227382008F88888FC
:1052C00088700000203F202020110E00C030080808
:1052D00008083800071820202010080008F80808DF
:1052E0000810E000203F202020100F0008F88888D8
:1052F000E8081000203F20202320180008F88888A4
:10530000E8081000203F200003000000C03008081B
:105310000838000007182020221E020008F80800A4
:105320000008F808203F210101213F20000808F86B
:10533000080800000020203F20200000000008088E
:10534000F8080800C08080807F00000008F888C04E
:1053500028180800203F20012638200008F80800FF
:1053600000000000203F20202020300008F8F80036
:10537000F8F80800203F003F003F200008F830C048
:105380000008F808203F200007183F00E010080838
:105390000810E0000F10202020100F0008F8080867
:1053A0000808F000203F210101010000E01008087A
:1053B0000810E0000F18242438504F0008F888889F
:1053C00088887000203F2000030C3020007088087F
:1053D000080838000038202121221C00180808F88D
:1053E000080818000000203F2000000008F808000E
:1053F0000008F808001F202020201F0008788800DF
:1054000000C83808000007380E010000F80800F84E
:105410000008F800033C0700073C030008186880F8
:105420008068180820302C03032C30200838C8006E
:10543000C83808000000203F2000000010080808BD
:10544000C83808002038262120201800000000FE5F
:10545000020202000000007F40404000000C30C00B
:1054600000000000000000010638C0000002020237
:10547000FE000000004040407F00000000000402E9
:105480000202040000000000000000000000000014
:105490000000000080808080808080800002020404
:1054A00000000000000000000000000000008080FC
:1054B000808000000019242222223F2008F800806A
:1054C00080000000003F112020110E00000000802D
:1054D00080800000000E11202020110000000080BC
:1054E0008088F800000E112020103F2000008080EE
:1054F00080800000001F222222221300008080F002
:10550000888888180020203F20200000000080802C
:1055100080808000006B94949493600008F8008071
:1055200080800000203F210000203F2000809898CC
:10553000000000000020203F20200000000000802C
:105540009898000000C08080807F000008F800006C
:1055500080808000203F24022D302000000808F8C1
:10556000000000000020203F20200000808080807C
:1055700080808000203F20003F20003F808000800E
:1055800080800000203F210000203F20000080801C
:1055900080800000001F202020201F0080800080CD
:1055A0008000000080FFA12020110E00000000807C
:1055B00080808000000E112020A0FF80808080006D
:1055C0008080800020203F2120000100000080809A
:1055D000808080000033242424241900008080E08F
:1055E000808000000000001F20200000808000005C
:1055F00000808000001F202020103F20808080003D
:105600000080808000010E3008060100808000804C
:10561000008080800F300C030C300F000080800071
:10562000808080000020312E0E312000808080009C
:105630000080808080818E7018060100008080804C
:10564000808080000021302C2221300000000000EA
:10565000807C020200000000003F4040000000008B
:10566000FF00000000000000FF0000000002027CBC
:10567000800000000040403F0000000000060101E3
:10568000020204040000000000000000D7CCC9FAA8
:10569000001060028C0008C8398E0808CC3B8808CE
:1056A0000004047E0100635A46E100635A46E100AB
:1056B000008040301E101010FF101010101010004D
:1056C00000404042424242427F42424242424040C7
:1056D00000000000000000004FBB610567ACDD3F2B
:1056E000182D4454FB21E93F9BF681D20B73EF3F09
:1056F000182D4454FB21F93FE2652F227F2B7A3C81
:10570000075C143326A6813CBDCBF07A8807703C39
:10571000075C143326A6913CC4EB98999999C9BFAC
:10572000711623FEC671BCBF6D9A74AFF2B0B3BFE1
:105730009AFDDE522DDEADBF2F6C6A2C44B4A2BFA1
:105740000D5555555555D53FFF8300922449C23F0D
:105750006E204CC5CD45B73F513DD0A0660DB13F41
:10576000EB0D76244B7BA93F11DA22E33AAD903F53
:105770004C5555555555A53F7751C1166CC156BF6F
:105780009015CB19A001FA3EAD529C804F7E92BE7F
:10579000C4B1B4BD9EEE213ED43888BEE9FAA8BD9E
:1057A000000000000000000000004054FB21F93F11
:1057B0003163621A61B4D03D0000601A61B4D03D1B
:1057C0007370032E8A19A33B0000002E8A19A33B95
:1057D000C14920259A837B390000000000000000A9
:1057E0006E83F9A22915444ED15727FCC0DD34F54C
:1057F000999562DB4190433CAB6351FE61C5BBDED2
:105800003A6E24B7E0D24D42EA2E49061C92D109E5
:105810001CEB1DFE3EA729B1F53582E88444BB2E62
:1058200026709CE9417E5FB439D69139F4395383AF
:105830008B5F849C3B28F9BDFF97F81F0F9805DE0E
:105840008B112FEF1F6D0A5ACF7E366DB709CB270C
:10585000663F464F2DEA5F9EC7BA27757BF1E5EBA1
:10586000F739073DEA92528AB15FFB6B085D8D1FE5
:10587000A6F810111111813FD561C119A0012ABFED
:105880007DFEB157E31DC73EEB9C2B8AE6E55ABE71
:105890007CD5CF5A3AD9E53DB85800080000002021
:1058A0003C000000C4010008F45800083C0000203F
:1058B0000C0C0000E00100080000000000000000E7
:1058C0000100000010000000000000000024F400AF
:1058D00000000000000000000000000000000000C8
:1058E000000000008000080001000000000000002F
:0458F00000000000B4
:040000050800018965
:00000001FF
