:020000040800F2
:10000000800F00203D020008A34F0008EF3F0008CA
:1000100035450008551F00083B5B00080000000044
:10002000000000000000000000000000C9540008AB
:100030007322000800000000AD510008C1590008FB
:10004000570200085702000857020008570200082C
:10005000570200085702000857020008570200081C
:10006000570200085702000857020008570200080C
:10007000570200083D2200085702000857020008F6
:1000800057020008570200085702000857020008EC
:1000900057020008570200085702000857020008DC
:1000A00057020008570200085702000857020008CC
:1000B00057020008415A000857020008570200087A
:1000C00057020008570200085702000857020008AC
:1000D000570200085702000857020008570200089C
:1000E00057020008570200085702000800F002F803
:1000F00000F094F80AA090E8000C82448344AAF12E
:100100000107DA4501D100F089F8AFF2090EBAE82B
:100110000F0013F0010F18BFFB1A43F0010318473B
:10012000CC640000EC640000103A24BF78C878C1A9
:10013000FAD8520724BF30C830C144BF04680C60ED
:10014000704700000023002400250026103A28BF35
:1001500078C1FBD8520728BF30C148BF0B60704739
:100160006E2900F01782702900F06183662905F07E
:100170009186652905F08E86672905F08B866129B1
:1001800005F08A8603681B0A28BF41F080016929AF
:1001900000F0C481642900F0C181752900F0BE819E
:1001A0006F2900F0EF82782900F02D83E92900F013
:1001B0008982E42900F08682F52900F08382EF2904
:1001C00000F0EC82F82900F02C830368DB0928BFDB
:1001D00041F08001632901F04B80732901F05080C8
:1001E000E32901F05B80F32901F060800020704773
:1001F0001FB59DE8030000F0D1F801F0B1F804004C
:100200000020002105F030FE401C6060002000212D
:1002100005F014FEE0601FBD10B510BD01F072F8CE
:100220001146FFF7E5FF05F04FFD01F04BF903B470
:10023000FFF7F2FF03BC01F079F90000094880479D
:1002400009480047FEE7FEE7FEE7FEE7FEE7FEE7B8
:10025000FEE7FEE7FEE7FEE704480549054A064BD0
:10026000704700003F5A0008ED0000088009002098
:10027000800F0020800B0020800B002070B5064608
:1002800000F070F8056806F10B0020F00704B44296
:100290009CBF002070BD2B466A68BAB11068A042AE
:1002A00010D304F1080188423CBF5068586007D35E
:1002B0005168101941601168091B01605860146091
:1002C000101D70BD13465268002AE7D1214628460A
:1002D00000F050F80028DED170BD00007CB51D464E
:1002E00016460C00009001D02044401E074B7B4472
:1002F0002A4669460190304600F065F905461CB172
:100300000020694600F072F928467CBD0503000014
:100310004FF0000200B5134694469646203922BF9E
:10032000A0E80C50A0E80C50B1F12001BFF4F7AFE9
:10033000090728BFA0E80C5048BF0CC05DF804EBCB
:10034000890028BF40F8042B08BF704748BF20F839
:10035000022B11F0804F18BF00F8012B7047704737
:100360007047704700487047240900207047704765
:100370007047704738B504460A4600206946AFF317
:100380000080002808BF38BD02460099204600F0D2
:1003900021FB012038BD012000F0ACBFF8B5AFF360
:1003A0000080054600200C46102000BF0646A81914
:1003B000A0420DD9324669460020AFF30080070005
:1003C00008BF00F097FF0098A04218BF0546C41967
:1003D000FFF7C8FF05600746F01D20F0070046192B
:1003E000284600F00AF8B44208BFF8BDA21B314607
:1003F0003868BDE8F84000F0EDBA00210160C0E9BE
:10040000011070471020704770B50446051FFFF7B4
:10041000A9FF0068002C14BF446870BD002C18BFF1
:10042000AC423CBF20466468F8D301680A18AA426F
:1004300018BF456003D12A68054611440160286849
:100440004119A1421CBF6C6070BD61686960216880
:100450000844286070BD70B5044685690068C1060F
:1004600001D5302600E02026C00707D070BDD4E9B2
:10047000012130469047206A401C20626D1EF6D54F
:1004800070BD70B5044685690078C00707D170BD9E
:10049000D4E9012120209047206A401C20626D1E73
:1004A000F6D570BD09684A0501D540B27047C90547
:1004B000FCD500B2704709684A0501D5C0B2704743
:1004C000C905FCD580B2704770B50C460546012AB7
:1004D00005D02878800600D5EA69002302E00123D0
:1004E00005E05B1C934202D2E05C0028F9D1A869C8
:1004F000E618C01AA861286A184428622846FFF73F
:10050000AAFF04E0D5E9012114F8010B9047B44299
:10051000F8D32846FFF7B5FF70BD00002DE9F04184
:100520000646002410687529314616A510D0FFF73D
:10053000B9FF002802DA404213A507E031688A07B4
:1005400001D512A502E0490704D511A5012401E057
:10055000FFF7B1FF00210A2206F1240709E0B0FBF2
:10056000F2FCB0FBF2F302FB1C003030785418466A
:10057000491C0028F3D123462A463046BDE8F04105
:1005800000F087BA000000002D0000002B000000E2
:100590002000000011680268006A530501D5087048
:1005A0000AE0D30501D5088006E0130603D5C2177B
:1005B000C1E9000200E008600120704701694A1C9F
:1005C00002610878704700B58FB0CDE90131002194
:1005D000059105497944CDE903101146684600F0BC
:1005E00031F90FB000BD0000E5FFFFFF0A6802F817
:1005F000010B0A607047D1E900239A4202D2531CD2
:100600000B601070704700002DE9FF5F15468A46A9
:100610000446DFF8AC80F8440027D8E900103E46D5
:10062000CDE9001010E03AF816106A4602A800F072
:1006300041FE411C07D02178890603D5E2693918AB
:1006400091420DD80744761C2078800602D5E069D7
:10065000B84205DDAE42E6DB3AF816000028E2D1EA
:10066000A069C01BA0612046FFF7F5FED8E9001085
:10067000CDE90010002017E03AF818106A4602A8E9
:1006800000F018FEB0F1FF3F81460BD000250DF1C0
:10069000080B05E0D4E901211BF8050090476D1C0B
:1006A0004D45F7D308F10100B0428046E4DB206AF3
:1006B000384420622046FFF7E4FEBDE8FF9F0000BB
:1006C000D65E00002DE9F0418046D21D22F00702DF
:1006D0000025D2E90002F52915A614D0011E72F1F9
:1006E000000106DA0023D0EB030063EB020211A63F
:1006F00008E0D8F800108B0701D50FA602E04907E3
:1007000001D50EA601251146002408F1240704E0B6
:1007100000F07AF930323A55641C50EA0102F7D100
:100720002B46324621464046BDE8F04100F0B1B9C3
:10073000000000002D0000002B0000002000000041
:1007400030B4002100F1240408E002F00705D208CB
:10075000303542EA4372DB086554491C52EA03050E
:10076000F3D10468002310A2250708D504F0200463
:100770000C4304D0C46901230CA2641EC46130BCC4
:1007800000F087B910B5044621461068FFF793FEC4
:1007900002462046BDE810400023D1E7D21D22F0DA
:1007A0000701D1E90023CBE7000000003000000082
:1007B000F0B40D460188090502D5214C7C4402E0C5
:1007C0001F4C7C440E34002100F1240608E002F0A6
:1007D0000F071209E75D42EA03721B097754491CAF
:1007E00052EA0307F3D102780023120704D5702DD3
:1007F00006D009B1022311342246F0BC00F049B9F9
:1008000001231034F8E770B504460D462146106800
:10081000FFF751FE024629462046BDE870400023FE
:10082000C6E7D21D22F00703D3E90023C0E703681F
:10083000126843F0200303600823C3610023B7E775
:10084000385D00002DE9F05F894604464FF0000A4C
:10085000DFF874B1FB44C0F820A02046E168884767
:10086000002874D0252806D0D4E901219047206AB9
:10087000401C2062F1E700265F462046E168884779
:100880002028054607DB312D05D2781910F8200CF9
:1008900008B10643F1E7B00701D526F00406C4F815
:1008A0001CA00027C4F818A02A2D09D0284605F05E
:1008B00089F938B304EB8708303DC8F8185019E0BF
:1008C00059F8041B204604EB87029161E1688847D0
:1008D000012F054618D1E069002820DA26F020060D
:1008E0001DE0D8F8180000EB800005EB4000303820
:1008F000C8F818002046E1688847054605F062F907
:100900000028EED1012F0AD02E2D08D12046E16813
:1009100088477F1C0546022F46F02006C4DBA069ED
:10092000002803DA404246F00106A061F00701D03A
:1009300026F010066C2D0BD0682D09D04C2D39D027
:100940006A2D35D0742D35D07A2D33D016E038E0AD
:10095000E1682F4620468847B842054609D16C2FEA
:1009600026D04FF48060E16806432046884705465C
:1009700004E06C2F1AD04FF4807006430DB3A5F13C
:100980004100192802D8203546F400664A46294617
:10099000204626604E46FFF7E3FB80B101280BD0CE
:1009A000F61D26F0070000F1080956E74020E4E7AD
:1009B0008020D8E70020D6E706F104094DE7284655
:1009C00052E7206ABDE8F09FC85C0000004870470D
:1009D0001C090020034640688C46002818BF884246
:1009E0003CBF03464068F8D318681844884207D0D3
:1009F0000CF1030020F00700001D411A521A0146B5
:100A0000081D0A60FFF700BD30B5B0F10A024FEAD9
:100A1000900E71F100034EEA817EB0EB0E0061EBA7
:100A200091014FEA101E4EEA017E10EB0E0041EBE1
:100A300011114FEA102E4EEA016E10EB0E0041EB41
:100A400011214FEA104E4EEA014E10EB0E0041EB21
:100A50001141401841F100014FEAD00040EA4170D5
:100A60004FEAD10110EB80054FEA810444EA90740B
:100A700044EB01046D1944EB0404521BA3414FF0F5
:100A8000000348BF0A3200D530BD401C41F10001CF
:100A900030BD2DE9F0470D4699469246044600F1D7
:100AA00024080168880604D5E06921F0100121605E
:100AB00000E00120A84201DD471B00E00027A169FA
:100AC0007A1902EB0900081AA0612078C00602D446
:100AD0002046FFF7C0FC002608E0D4E901211AF8FF
:100AE00006009047206A401C761C20624E45F4DBCD
:100AF0002078C0060AD52046FFF7ADFC06E0D4E911
:100B0000012130209047206A401C2062381EA7F146
:100B10000107F4DC07E0D4E9012118F8050090474B
:100B2000206A401C2062281EA5F10105F3DC204646
:100B3000FFF7A7FC2078000602D50220BDE8F08769
:100B40000120FBE770472DE9FF4F0C461E464FF092
:100B5000FF378BB0D2E90001DDF860800A908A4649
:100B6000C1F30A5505B93D46002108464FF0000083
:100B7000BAF1000F00F4400005DA00EB80004FF4FA
:100B8000400101EA50004FEA9059B9F1010F00DD30
:100B9000B9460A9850EA4A000ED044F61050A5F221
:100BA000FF3545432F14B8F1000F1ED07542291EA2
:100BB0001EDDC9F100021CE0B8F1010F4FF000008A
:100BC00001D0302103E0F24305E02154401CB04243
:100BD000FBDB30460022002121540B99C1F808802C
:100BE000C1E900200FB0BDE8F08FBD1B6D1CDEE732
:100BF0004A4600DA694206A800F0F6FB06AB93E825
:100C0000070003AB83E8070050460A9900F0F5FCA3
:100C10008DE80700A0F500501F3800900398002DC4
:100C200009DD42F21F014A46084403A903906846C1
:100C300000F054FF08E0A0F500504A461F3803A911
:100C40000390684600F05EFF8DE807000004000C8A
:100C500003D04FF0FF30410800E01046B8F1000F1C
:100C600003D00022009215461EE0751E05D4FFF742
:100C7000CBFE303262556D1EF9D5B34601220843D2
:100C800002D000227F1C04E02078302801D100220D
:100C90007F1E002A099786D01DE0112D07DAFFF785
:100CA000B3FE303262556D1C50EA0102F5D10843A3
:100CB00002D00098C8B10EE00021681E05E0235C58
:100CC000625C63542254401E491C8142F7DBAB46F0
:100CD000A81B401E0990002004F80B000B98099AED
:100CE000C0F80880C0E9002B7CE711264FF000080F
:100CF00059E72DE9F04F88460446D21D22F007013E
:100D000091B0D1E90001CDE90A0104F037FF0246B4
:100D10000B98C00F01D02D2007E02068810701D576
:100D20002B2002E0202101EAC000032A099001D013
:100D3000072A05DB03464146204600F015FB0BE180
:100D40002078800601D5E06900E00620B8F1650F43
:100D5000814606D0B8F1660F18D0B8F1670F70D190
:100D600031E00020B9F1110F009001DB112301E007
:100D700009F101030AAA01A90CA8FFF7E4FEDDE9C5
:100D80000C70002609F10105834647E001204B461F
:100D900000904FF000470AAA01A90CA8FFF7D3FE64
:100DA000DDE90DB00C995D46002610B909F101008E
:100DB0000D18B9EB050003D4C0F1FF3609F10105A8
:100DC000A5EB09002BE0B9F1010F01DA4FF00109A1
:100DD0000020B9F1110F0090484601DD112300E019
:100DE00003460AAA01A90CA8FFF7ADFEDDE90C70C5
:100DF0004D4600268346207800070AD4AB4500DA2A
:100E00005D4601A8012D04DD411911F8011C3029AE
:100E100007D04F4502DA17F1040F04DA01208246A9
:100E20000FE06D1EEEE7002F02DCED1B3E4403E0F9
:100E3000781CA84200DD7D1CB81B00F1010A4FF0B0
:100E400000472078000703D4AA4501DB4FF0FF3AA2
:100E50000021B7F1004F0DF143088DF8431024D065
:100E600002202B23002F01DA7F422D230A21021EAC
:100E7000A0F1010000DC5FB197FBF1FC97FBF1F200
:100E800001FB1C7C17460CF1300C08F801CDEEE795
:100E9000A8F1010003702188090501D5452100E072
:100EA0006521A0F1010800F8011C09980FA9A1EB28
:100EB0000807FF1D00B10120411901EBEA70A1698B
:100EC0003844081A401EA0612078C00602D420468B
:100ED000FFF7C1FA099828B1D4E901219047206AA7
:100EE000401C20622078C00622D52046FFF7B3FAC6
:100EF0001EE0002E04DBB34502DD01A8805D00E0AA
:100F00003020D4E901219047206A401C2062761CE1
:100F1000AAF101005FEA000A0AD100F021FAC068D4
:100F20000168405CD4E901219047206A401C20629E
:100F3000281EA5F10105DCDC07E0D4E9012118F841
:100F4000010B9047206A401C2062381EA7F1010760
:100F5000F3DC2046FFF795FA032011B043E60000CA
:100F60002DE9F04F04460D46D21D22F0070089B04E
:100F7000D0E9009248461746394604F0FFFD024684
:100F8000F80F01D02D2307E02068810701D52B231E
:100F900002E0202101EAC0038DF820300BB10120CE
:100FA00000E00020032A824601D0072A04DB2946FC
:100FB000204600F0D9F93DE12078800601D40D25C6
:100FC00000E0E569C7F30A560D2D49DA00214FEA22
:100FD000175B08464FF00000002F00F4400007DACE
:100FE00000EB80004FF4400100EBD07001EA60009C
:100FF0008115012901DD4FF0FF3100224FEA850CF8
:10100000BCF1180F06D31346ACF118004FF0805214
:10101000C24003E04FF4801323FA0CF30CF10C0CE4
:10102000BCF1200F04D3ACF1200C09FA0CF001E064
:1010300007FA0CF000294FF0004801DD18B90FE065
:101040000ED140450CD319EB02095F4121B940454F
:1010500002D19F4329EA0209BBEB175F00D0761C3F
:101060002088000502D57B48784402E0794878441E
:10107000193808AA302302F80A30037C0AF101016A
:10108000002E0AF1020A53546A4602DC4FF0300186
:1010900001E04FF031014FF001088DF8001002D04F
:1010A000A6F2FF3603E059EA470100D06A4E002D50
:1010B00002DC2178090704D54FF002082E218DF8B3
:1010C0000110C44600210BE0C7F303433F01C35C9A
:1010D000491C6D1E02F80830052908F1010801DAE3
:1010E000002DF1DC00210CE000EB1973491C1B788A
:1010F0006D1E082902F808304FEA091908F10108A5
:1011000001DA002DF0DC2178890602D514E0A8F17F
:101110000108E04505DD02EB080111F8011C30294A
:10112000F5D0B8F1000F07DD02EB080111F8011C42
:101130002E2901D1A8F10108002D05DD3E2102F87C
:1011400008106D1E08F10108407C002E02F808000E
:1011500008F1010804DA2D20764202F8080002E0C6
:101160002B2002F808000A214FF47A70864208F119
:1011700001080BDB96FBF0F3303302F8083096FBE6
:10118000F0F308F1010800FB136601E0642E0CDBAC
:10119000642096FBF0F3303302F8083096FBF0F34E
:1011A00008F1010800FB136601E00A2E06DB96FB3E
:1011B000F1F0303002F8080008F1010896FBF1F078
:1011C00001FB1060303002F80800A16908F1010845
:1011D00008EB050202EB0A00081AA0612078C0069D
:1011E00002D42046FFF737F9216A08AE01EB0A0066
:1011F000206204E0D4E9012116F8010B9047BAF10E
:10120000010AF7D22078C00602D52046FFF723F95D
:101210006E4609E016F8010B3E280FD0D4E90121F3
:101220009047206A401C2062B8F10108F2D22046A3
:10123000FFF727F909B00320BDE8F08F206A2844A2
:10124000206203E0D4E90121302090476D1EEBD3EA
:10125000F8E70000D854000002FCFFFF10B5436916
:1012600013B1AFF3008001E0FFF72EF9012010BDAC
:10127000127800F124010A7000224A700122EDE781
:1012800011684FF0FF32E9E710B5436913B1AFF3CE
:10129000008001E0FFF7B8F9012010BD128800F1CD
:1012A000240182840022C2840122EDE711684FF0FC
:1012B000FF32E9E770B516460C46054600F048F8DF
:1012C000036893F80101012806D0FF2C0FD8185DA0
:1012D00068B101202C7070BDD3F807013246214659
:1012E00003F2071303442846BDE8704018474FF047
:1012F000FF3070BD10B500F0F1F8BDE8104000F00F
:10130000E7B870477546FFF761FBAE4605006946D2
:10131000534620F00700854618B020B5FEF79CFF25
:10132000BDE820404FF000064FF000074FF00008E6
:101330004FF0000B21F00701AC46ACE8C009ACE867
:10134000C009ACE8C009ACE8C0098D467047000090
:1013500010B500F005F8001D10BD00BF0D4B0000DA
:10136000004870473C0900202DE9F0411F46044623
:1013700003260168072A01F4006004DB08B116A502
:1013800005E016A503E008B115A500E015A521F0BC
:1013900010002060A069C01EA0610FB1401EA061B6
:1013A0002046FFF758F84FB1D4E90121384690475D
:1013B000206A401C2062C01C206206E0206AFAE716
:1013C000D4E9012115F8010B9047761EF8D220468A
:1013D000FFF757F8BDE8F0814E414E006E616E0098
:1013E000494E4600696E66002DE9F0478146164673
:1013F0008AB0334878440DC88DE80D0030487844F1
:10140000801C03AC0DC884E80D0041F69B300844F5
:10141000372190FBF1F290FBF1F5A5F1800501FB7E
:1014200012041B3C02D56442012000E00020DFF8DA
:1014300090A080460027FA44AAF1BE0A0DE0E0071A
:1014400009D03246684607EB47010AEB810100F0FC
:1014500059FB8DE8070064107F1C002CEFD1184F5A
:101460007F44AC3F18E0E80714D007EB04100DF1FF
:10147000180A90E80E008AE80E00C068F04201D118
:1014800098190890324606A903A800F03BFB03AB6D
:1014900083E807006D10641C002DE4D132466946D4
:1014A000B8F1000F03A802D000F018FB01E000F033
:1014B00029FBC9E90001C9F808200AB0BDE8F08796
:1014C000DC5100000446AFF300802046FEF7AFFE7B
:1014D000002801D000F02AB87047000010B501289C
:1014E00005D0002103A000F027F8012010BD09A1BC
:1014F000F8E7000053494752544D454D3A204F7587
:1015000074206F662068656170206D656D6F7279FB
:10151000000000003A2048656170206D656D6F72B3
:101520007920636F727275707465640001491820C8
:10153000ABBEFEE72600020070B505460C460A2049
:1015400000E06D1C00F052F835B128780028F8D181
:1015500002E0641C00F04AF814B120780028F8D1A9
:10156000BDE870400A2000F041B800004FF0013C97
:1015700050F8042B51F8043B9A4221D1A2EB0C0302
:10158000934313EACC1317D150F8042B51F8043BC2
:101590009A4215D1A2EB0C03934313EACC130BD15F
:1015A00050F8042B51F8043B9A4209D1A2EB0C03EA
:1015B000934313EACC13DBD04FF00000704700BF19
:1015C000D01A01BAB1FA81F101F0180122FA01F042
:1015D000CB40C1F12001DBB2C0B2C01A2CFA01F33A
:1015E000D11A914311EAC311E6D1704708B5694693
:1015F0008DF800000320ABBE08BD5FEA400C08BFB9
:1016000091F0000F4FEA8C234FEAC12243EA515177
:101610004FEA1C5018BF00F5F0404FEA300018BFE9
:1016200041F000415FEA6C5C00F02980BCF1FF3FB3
:1016300008BF40F080407047130C06BF12044FF003
:10164000100C4FF0000C130E04BF12020CF1080C2A
:10165000130F04BF12010CF1040C930F04BF92008E
:101660000CF1020CD30F04BF52000CF1010C114617
:101670004FF00002A0F11F00A0EB0C00704711F02A
:10168000004F08BF704731F000413FF4D5AF0B0C5D
:1016900006BF09044FF0100C4FF0000C0B0E04BFF6
:1016A00009020CF1080C0B0F04BF09010CF1040C2A
:1016B0008B0F04BF89000CF1020CCB0F04BF490053
:1016C0000CF1010CCCF12003A0EB0C0022FA03F387
:1016D00002FA0CF241EA030100F10100704720F028
:1016E0007F4C80EA030023F07F47ACEB070303F550
:1016F0007C5300F0004003F1FF032DE980494FEADD
:10170000154B09B44FEA144325EA0B4E24EA03486B
:101710000FF2042606EB132749083E785FEA3202EF
:1017200003FB0667C7F5000707FB06F64FEA5437C9
:101730004FEAD64606F1020607FB066CCCF1005CC8
:101740004FEA1C472CEA074C07FB06F40CFB06F596
:1017500004EB15464FEA961634BF00204FF00040C8
:101760004FEAD13706FB07FC4FEA1C4C0CFB0BF78A
:10177000D21B03FB0CF761EB07010CFB0EF7B0EB80
:10178000074072EB17420CFB08F734BFA2EB07428D
:10179000B2EB074261EB17414FEA0C444FEA910765
:1017A00006FB07FC4FEA1C4C0CFB0BF7B0EBC740E9
:1017B00072EB573203FB0CF734BFA2EBC742B2EB1C
:1017C000C74261EB57310CFB0EF7B0EBC70072EB71
:1017D00057720CFB08F734BFA2EBC702B2EBC7028B
:1017E00061EB5771039F4FEA816141EA921104EB6B
:1017F000CC044FEAD1374FEA826206FB07FC42EA8B
:1018000090124FEA80604FEA1C4C0CFB0BF7D21B86
:1018100003FB0CF761EB07010CFB0EF7B0EB074085
:1018200072EB17420CFB08F734BFA2EB0742B2EB96
:10183000074261EB17414FEA8C554FEA910704EBE1
:101840009C2406FB07FC4FEA1C4C0CFB0BF7B0EB8F
:10185000C74072EB573203FB0CF734BFA2EBC74211
:10186000B2EBC74261EB57310CFB0EF7B0EBC70090
:1018700072EB57720CFB08F734BFA2EBC702B2EB56
:10188000C70261EB577115EB4C254FEA816141EAC4
:1018900092114FEA82624FEAD13742EA901206FB78
:1018A00007FC44F100044FEA80604FEA1C4C0CFB3B
:1018B0000BF7D21B03FB0CF761EB07010CFB0EF7D8
:1018C000B0EB074072EB17420CFB08F734BFA2EBFA
:1018D0000742B2EB074261EB174115EB1C154FEACB
:1018E000813141EA92414FEA823242EA90424FEA24
:1018F00080304FEA0C7644F1000448EA03434EEA94
:101900000B484FF0000EB2EB080C71EB030724BF3D
:10191000624639464EEB0E0E4FF0000B0018524156
:1019200049414BEB0B0BB2EB080C71EB03077BF15E
:10193000000B24BF624639464EEB0E0E4FF0000BF3
:101940000018524149414BEB0B0BB2EB080C71EB09
:1019500003077BF1000B24BF624639464EEB0E0EA7
:1019600051EA020718BF46F0010616EB0E7655F154
:10197000000254F1000103D5BDE88901BDE80088EB
:10198000BDE88901BDE80048B619524141EB0101AB
:10199000A3F10103704780807F7E7D7C7B7A79781C
:1019A000777676757473727171706F6E6E6D6C6C24
:1019B0006B6A6A69686867666665646463636261C6
:1019C0006160605F5F5E5E5D5D5C5C5B5B5A5A5947
:1019D00059585857575656555555545453535252B3
:1019E0005251515050504F4F4F4E4E4D4D4D4C4C0B
:1019F0004C4B4B4B4A4A4A49494948484847474754
:101A00004746464645454544444444434343434290
:101A1000424242414141002B26D4770021D01CB5DF
:101A20004FEA370703B44FF010004FF010014FF0AA
:101A300000000FBCBDE810400BF1010BBBF1010F22
:101A400008BF5FEA170722BF12F1010211F101017D
:101A50004FF0004143F1000300F0004043EA000072
:101A60007047F9D35708DAE746EA064613F1400F04
:101A70004FEA16461FDD13F1200FDFBF16430A465B
:101A8000002120335B42C8D0C3F1200746EA064656
:101A900002FA07F74FEA164646EA0706C3F120079F
:101AA00022FA03F201FA07F721FA03F14FF00003DB
:101AB00042EA0702B1E746EA020646EA06464FEA6C
:101AC000164646EA0106BCBF46EA0646360C4FF00B
:101AD00000034FF000024FF000019EE72DE9C048DF
:101AE000934630B491E8380007C831EA400C48BF4B
:101AF00034EA430C03D5FFF7F2FDFFF78CFFF0BC8F
:101B0000BDE800882DE9C048934630B491E838001C
:101B100007C810F0804F08BF13F0804F03D100F0CA
:101B200005F8FFF778FFF0BCBDE8008820F07F479C
:101B300080EA030023F07F4C07EB0C03A3F57C53F2
:101B400000F00040A3F1FE0392F0000F00F0B3801C
:101B500095F0000F00F077802DE901494FEA114020
:101B60004FEA144621EA004800FB06FC24EA064737
:101B700008FB06F607FB08F800FB07F718EB06481A
:101B80004CEB164C4FEA124B18EB07484FEA154640
:101B90004CEB174022EA0B4E0BFB06FC25EA0647EE
:101BA0000EFB06F607FB0EFE0BFB07F71EEB064EC1
:101BB0004CEB164C4FF000061EEB074E4CEB174B50
:101BC00018EB0B0840F1000018EB0E0B58EB000867
:101BD00040F100008F1A4FF000013CBFC943661B63
:101BE00014BFB5EB040C00213CBFC943F61B4FEA00
:101BF00017444EEA8E0E27EA04454FEA1C4704FBC1
:101C000007622CEA074C05FB07F70CFB05F604FB03
:101C10000CFC16EB074642EB174216EB0C4642EB68
:101C20001C421BEB060658EB0202414146EA9E06A7
:101C300001D5BDE80189B619524141EB0101A3F17B
:101C40000103BDE801894FEA14454FEA114724EA30
:101C5000054621EA074C05FB07F406FB07F70CFBDA
:101C600006F105FB0CFC11EB074144EB17444FEA6E
:101C7000124711EB0C4144EB1C4422EA074C05FBD4
:101C800007F206FB07F70CFB06F605FB0CFC16EB50
:101C9000074642EB174216EB0C4642EB1C456A180E
:101CA00054F1000148BF7047B619524141EB0101A0
:101CB000A3F10103704795F0000F37D04FEA1142AE
:101CC0004FEA144721EA024624EA074C02FB07F1D7
:101CD00006FB07F70CFB06F402FB0CFC14EB0744B5
:101CE00041EB17414FEA154714EB0C4441EB1C4103
:101CF00025EA074C02FB07F506FB07F70CFB06F687
:101D000002FB0CFC16EB074645EB174516EB0C46A1
:101D100045EB1C42121951F1000148BF7047B6193A
:101D2000524141EB0101A3F1010370474FEA144511
:101D30004FEA114724EA054621EA074C05FB07F163
:101D400006FB07F70CFB06F24FF0000605FB0CFC48
:101D500012EB074241EB174112EB0C4251EB1C41D5
:101D600048BF7047921841EB0101A3F1010370478E
:101D700070B5044600688168C943C90717D18168F6
:101D800021F00101816001F0AFFA05460AE000BFD1
:101D900001F0AAFA401B022804D920688068C043D9
:101DA000C00706D020688068C043C007F0D000207C
:101DB00070BDA06A40F01000A062E06A40F001002F
:101DC000E062012070BD10B50146406A826A12F0DF
:101DD000500F05D0006A026BBDE81040084610475E
:101DE000816A41F40071816201688968C1F34241EE
:101DF00007290CD1017B51B9816A21F4807181627C
:101E0000816AC90403D4816A41F00101816200F052
:101E1000F3FE10BD10B5406A816A41F04001816255
:101E2000C16A41F00401C16200F0E8FE10BD10B5C6
:101E3000406A00F0E2FE10BDF8B5002604460096A8
:101E400000688168C943C9072DD0816841F001014C
:101E50008160164816490068B0FBF1F000E0401EB2
:101E600000900028FBD101F03FFA054616E000BFC4
:101E700001F03AFA401B022810D920688068C0435C
:101E8000C0070BD0A06A40F01000A062E06A40F0EA
:101E90000100E06284F824600120F8BD20688068B9
:101EA000C043C007E4D10020F8BD00000C000020B2
:101EB00040420F00F8B507461C4615460E4618204E
:101EC00002F0ECFD002805D02B463246394600943E
:101ED00003F00EFCF8BD70B50E4604000ED0F007FE
:101EE00009D01546042002F0D9FD206218B1002166
:101EF0000180206A4580A08C3043A08470BD70476B
:101F00002DE9F0419846069F14460E4600281FD042
:101F1000B04205D1002C1BD02836541EA4B2C76194
:101F2000002C15D01A46314600F035FD0125C76159
:101F30000CE000BF05EB850006EBC001A1F1280015
:101F4000424600F028FD6D1CADB2C761A542F1D339
:101F5000BDE8F081FEE72DE9F0471D46089E914659
:101F6000884607001AD000F062FD0446384600F0AB
:101F700066FD0127014600222088284400B2208007
:101F80003EB9404503DBA38803444B4501DDE772BE
:101F900000E0E2728C4201D0E468EDE7BDE8F08732
:101FA0002DE9F0471D46089E9146884607001BD044
:101FB00000F03DFD0446384600F041FD0123014696
:101FC00000226088284400B2608046B9404504DBA6
:101FD000E7883844401E484501DDE37200E0E272C4
:101FE0008C4201D0E468ECE7BDE8F0872DE9FF5FA3
:101FF0000024DDF838B09A462746A046A1465E4642
:1020000025460C21324800F011F901E06D1CADB2FB
:1020100016F8010B0028F9D1BAF1000F37D14FF6AD
:10202000FF7A34E01BF807306D1E7F1CADB2BFB2E3
:102030000A2B3DD027480299C068467809FB061153
:10204000067801980AB208FB060001B2009802F077
:10205000E9FD08F101001FFA80F8D0450ED309F11F
:1020600001001FFA80F91A484FF00008817A491CD4
:1020700081728188A14200D28480002414480188A2
:10208000491C01801348C0680078204484B2002DA8
:10209000C8D11048C1680E480A7882714978C17168
:1020A0008188A14200D2848004B00948BDE8F09F35
:1020B00009F101001FFA80F905484FF00008817A04
:1020C000491C81728188A14200D284800024DEE70D
:1020D000920800207C0000202DE9FF4F83B04B4880
:1020E00000250095C068DDF840A09B4640782F464B
:1020F000A846A9465446102800D210200190002678
:102100000C21434800F092F801E0761CB6B214F8B6
:10211000010B0028F9D13E4CBBF1000F41D14FF625
:10212000FF7B3EE0761E1AF80700B6B28DF800007D
:102130007F280CD90AEB0701BF1C49788DF80110E4
:10214000761E6188BFB2491CB6B2618001E07F1C77
:10215000BFB20A2817D07F2836D9059A01996B4655
:1021600009FB012002B20498404401B2039802F036
:1021700029FB00208DF8010008F1100010351FFA2E
:1021800080F8ADB23FE009F101001FFA80F9A07AB2
:102190004FF00008401CA072A088A84200D2A58081
:1021A0000025002EBED11948C0680178A171407881
:1021B000E071102020726072A088A84200D2A58031
:1021C00007B01348BDE8F08F10486B46C0684078F0
:1021D000C0F1100105980A18019909FB012002B20B
:1021E0000498404401B2039802F0EAFD0748C06831
:1021F000027802EB08011FFA81F82188491C21802E
:102200000078284485B2D845CBD3BCE77C000020B9
:10221000AA0800200020044B4FF4806102461A54A3
:10222000401C8842FBD3704740040020002201E09C
:1022300000F8012B491E89B2FAD27047014800F01C
:102240003BBE00006C01002030B590F840500124E6
:10225000AC40C56B6C60046863604368102B036816
:1022600003D099600068C26030BD9A600068C160A8
:1022700030BD70472DE9F05F8046500099460E460C
:10228000C2F101074FF0010AC0F1000B002514460E
:102290005DE0002F03DB0BF1020B5F44641E0AF1CB
:1022A000020A6D1C57445FEA497011D5301901B21A
:1022B00008EB050000B2012203F0A4FDA54207DAF5
:1022C000701901B208EB040000B2012203F09AFD7C
:1022D0005FEA897011D5301B01B208EB050000B22E
:1022E000012203F08FFDA54207DA701B01B208EB53
:1022F000040000B2012203F085FD5FEA097011D5E8
:10230000701901B2A8EB040000B2012203F07AFDBB
:10231000A54207DA301901B2A8EB050000B201228C
:1023200003F070FD5FEAC97011D0701B01B2A8EB19
:10233000040000B2012203F065FDA54207DA301B5C
:1023400001B2A8EB050000B2012203F05BFDA5423B
:102350009FDBBDE8F09F70B58618002800DA0020EA
:1023600004460DB205E00122294620B203F04AFDE1
:10237000641CB442F7DB70BD70B58E18002900DA1A
:1023800000210C4605B205E0012221B2284603F0E7
:1023900039FD641CB442F7DB70BD2DE9FF5F814657
:1023A000500001278846C2F10106C0F1000B00254C
:1023B0001446DDF838A03AE0002E03DB0BF1020BE7
:1023C0005E44641EBF1C03986D1C3E44C00715D0BC
:1023D0000AEB4400401CC2B2A8EB040109EB050063
:1023E000FFF7CAFFA54209DA0AEB4500401CC2B25A
:1023F000A8EB050109EB0400FFF7BEFF0398800777
:1024000015D50AEB4400401CC2B2A8EB0401A9EBAD
:102410000500FFF7B1FFA54209DA0AEB4500401CB1
:10242000C2B2A8EB0501A9EB0400FFF7A5FFA54286
:10243000C2DBBDE8FF9F2DE9F0411C4616460D4664
:10244000074608E02819401E01B23246384600F01F
:1024500091FA641EA4B2002CF4D1BDE8F0812DE9FC
:10246000FE4F8246B0F90A90B0F908708689C58996
:102470000468007C01906188A1EB090000B2009023
:102480002088C01B0FFA80FB009803F03FFC80B24D
:102490000290584603F03AFCA18880B200296FD020
:1024A000E288002A6CD09AF81130012B08D00198EC
:1024B000D3B20090CAB2B4F90210B4F90000B6E089
:1024C000B4F902806FF00B02D31DC8453AD0DDF895
:1024D00008C0BCF10C0F09D9DDF800C0BCF1000F39
:1024E00002DD4FF00C0829E0904627E0BCF1050F13
:1024F00009D9DDF800C0BCF1000F02DD4FF005087E
:102500001CE098461AE0BCF1030F0AD9DDF800C0C0
:10251000BCF1000F02DD4FF003080FE06FF002087E
:102520000CE0BCF1000F0DD0DDF800C0BCF1000FD5
:1025300002DD4FF0010801E04FF0FF3808EB090C15
:102540000FFA8CF9B4F900C0BC4524D00C2805D989
:10255000BBF1000F00DD0C22D0191BE0052805D9C6
:10256000BBF1000F00DD0523D81913E0032808D9BB
:10257000BBF1000F01DD03200BE06FF0020008E06B
:1025800062E040B1BBF1000F01DD012001E04FF03E
:10259000FF30384407B26FF00508B1421BD0881BEA
:1025A00003F0B4FB0628A088A0EB060005D900289C
:1025B00001DD06200EE040460CE003F0A7FB0328F7
:1025C000A088A0EB060015D9002801DD032001E05A
:1025D0006FF002000644E088A84222D0401B03F0BE
:1025E00095FB0628E088A0EB05000CD9002808DD43
:1025F000062015E0002801DD0120EBE74FF0FF3059
:10260000E8E740460CE003F081FB0328E088A0EBFC
:1026100005001BD9002801DD032001E06FF0020056
:10262000054401980090EBB2F2B24946384600F0FA
:102630005CF8AAF80870AAF80A90AAF80C60AAF840
:102640000E5001988AF81000BDE8FE8F002801DDC9
:102650000120E5E74FF0FF30E2E72DE9F84F904623
:102660000A9F8146C7F1000B02EB4B0AC4191D46B5
:102670000E460AF0FF022046FFF76DFE7119009129
:102680000AF0FF022046491EFFF765FE05EB4B0AE4
:10269000F5190AF0FF0229464846FFF76DFE09EBDF
:1026A00008060AF0FF022946701EFFF765FE29465C
:1026B000204601233A46FFF7DDFDF61B2946701E32
:1026C00002233A46FFF7D6FD0099701ECD1B691E06
:1026D00004233A46FFF7CEFD691E01B020463A4674
:1026E000BDE8F04F0823FFF7C5BD2DE9F84F1D46A3
:1026F0000A9C16008A46814626D0002D24D0C4F1BB
:10270000000806EB480082B209EB040738B20FFA62
:102710008AF1FFF790FE05EB4800A0F1010809EBF4
:1027200006000AEB0405001B012322462946401E31
:10273000CDF80080FFF731FE2946384602232246B5
:10274000CDF80080FFF729FEBDE8F88F72B6FEE7EE
:102750002DE9F84F8346C8180A9C0FFA80FC10191F
:1027600007B2D01702EB507424F00700161A002AA3
:1027700008DA06F10800C51700EB557525F00705C6
:10278000401B00E03046C5B20020BCF1000F6FDBFB
:10279000002F6DDB80296BDA402A69DA3F2F00DDDC
:1027A0003F27DFF8A4A14FF0FF0E12F1080F04DC61
:1027B000E21003FB120080B23246C0E00C4602F188
:1027C0000809B7E0002C03DA001B80B2002406E001
:1027D0007F2C04DBACEB0402104480B2ADE05B4B19
:1027E0001B78022B4FD0032B21D0002A0CDBD310F7
:1027F00004EBC3131BF800801AF8036008FA05F80D
:1028000046EA08060AF80360B9F13F0F2FDC75B3FA
:102810001BF80060002AC5F1080326FA03F67ADAED
:102820001AF8048046EA08060AF804607EE0002AE6
:102830000CDBD31004EBC3131BF800801AF8036001
:1028400008FA05F886EA08060AF80360B9F13F0FAE
:102850006CDC65B11BF80060002AC5F1080326FA9C
:1028600003F606DA1AF8048086EA0806DCE751E087
:1028700068E0D31004EBC31808EB0A0393F88080D8
:1028800086EA080650E0002A14DBD31004EBC316D6
:1028900000961AF80630C5F108082EFA08F63340FB
:1028A000009E0AF806301BF80060AE403343009EDD
:1028B0000AF80630B9F13F0F38DC5DB3002A10DAB0
:1028C0001AF804600EFA05F31E400AF804601BF8BB
:1028D0000030C5F1080823FA08F333430AF804303E
:1028E00024E0D31004EBC31606EB0A030EFA05F638
:1028F00093F8808008EA060883F88080CDF800808D
:102900001BF80060C5F1080826FA08F6DDF800801B
:1029100008E000E00AE0D31004EBC31808EB0A0358
:1029200093F8808046EA080683F88060641C401CA7
:1029300024B280B26445FFF645AF0FFA89F2BA427D
:10294000FFF63CAFBDE8F88F4004002031000020C6
:10295000F8B51D4616460C4640B103784078009005
:102960002A4631462046FFF7F3FEF8BD237860780B
:102970008C1CF4E770B514460E46054608E028198D
:10298000401E00B20122314603F03CFA641EA4B29C
:10299000002CF4D170BD7EB516460D0012D0012377
:1029A00090B100F044F8044600F049F8A6B1012EB9
:1029B0002BD0827AC1880091CDE901204288114450
:1029C0000AB22DE000207EBD0020CDE900030346C1
:1029D00002460146029026E0B0F90210C28801EBDF
:1029E0004206402E0BDDC372A17AE2880092CDE947
:1029F0000110A388B4F90220B4F9001013E0837A1F
:102A00000290CDE900231144DAE7B0F90220C18831
:102A10000A44402AE7DA837A0091CDE9013012B204
:102A20008388B0F90010284602F0AEFE7EBD002873
:102A300004D00189012901D00069FAE77047002814
:102A400007D0C168002904D00A89012A01D00846AC
:102A5000F7E7704770B50A484178846801290DD1BD
:102A60000025457008E0A07D012804D1A575E16826
:102A700009B120698847A468002CF4D170BD00001A
:102A80006C0000202DE9F04107461448012600257E
:102A9000846846701EE0E07D01281AD12068384421
:102AA00020606168884214D32560607D012803D9C5
:102AB000A0F10100607501E000D1E575207D0128DD
:102AC00001D028B105E0E16819B12069884700E02C
:102AD000A675A468002CDED1BDE8F0816C00002052
:102AE000037A012B01D000207047C3790B70417924
:102AF000117000214171017201207047F8B5002466
:102B0000009490F824202546012A12D0012280F852
:102B100024204A681F23072A0DD20668776B521EAD
:102B200002EB820293409F430B6893401F437763FD
:102B300019E00220F8BD06680D2A0AD2376BD21FB1
:102B400002EB820293409F430B6893401F4337631D
:102B500009E0F76A0D3A02EB820293409F430B684B
:102B600093401F43F7620A68072306680A2A0AD3BC
:102B7000F7680A3A02EB420293409F438B68934006
:102B80001F43F76008E0376902EB420293409F431E
:102B90008B6893401F4337610A68102A01D0112ABD
:102BA00020D1124B02689A4217D193681B0219D4A4
:102BB000936843F4000393600968102912D10C490B
:102BC0000C4A0968B1FBF2F101EB8101490000E018
:102BD000491E00910029FBD104E0816A41F02001E7
:102BE0008162012480F824502046F8BD0024014071
:102BF0000C00002040420F007047704770470000F3
:102C00002DE9F0414FF0000704003D467ED0A06A58
:102C1000002628B9E66284F82460204600F07EF899
:102C20002046FFF7A5F8A16A01F01001014304D086
:102C3000A06A40F01000A06268E0A16A21F4885107
:102C400041F00201A1626268E169237B0A4347EA1D
:102C500043010A43A1684FF48077B94208D00129A3
:102C600006D0002194F814C0BCF1010F02D00AE094
:102C70003946F7E7F3B1A36A43F02003A362E36A9E
:102C800043F00103E3622368D3F804C02CF4694CD9
:102C90004CEA010CC3F804C023689968DFF870C0DF
:102CA00001EA0C0111439960A168B9420BD00129D6
:102CB00009D00CE0DFF85CC0A3690CEB43330B4395
:102CC00043F40061DFE7218A0D05A5F58015216831
:102CD000CB6A23F470032B43CB62216889680E4BC7
:102CE0001940914208D1E662A16A21F0020141F047
:102CF0000101A162BDE8F081A06A20F0020040F06D
:102D00001000A062E06A40F00100E0620120F1E7FB
:102D1000FDF7E1FF00E0FFFFFE0E1FFF70B586B07C
:102D200000250646009501950295039500681A490D
:102D300088422ED11949886940F4007088618869F9
:102D400000F400700490886940F00400886188698C
:102D5000694600F0040004900F20009003200190C9
:102D60000F4800F0CBF9104C0E48C4E90005802054
:102D7000C4E9025080002061800060612020C4E925
:102D80000605204600F042F908B1FFF7DFFC346287
:102D9000666206B070BD00000024014000100240D1
:102DA0000008014008000240D00000202DE9F04753
:102DB000894604463B4900683B4F0E1D90468842B9
:102DC00001D0B84207D1306810F4702F03D001252C
:102DD0002846BDE8F08794F8240001280CD0012093
:102DE00084F824002046FFF727F805004FF0000084
:102DF00004D084F82400EBE70220EAE7A16A40F659
:102E00000162914341F48071A1622168B94218D1F5
:102E1000326812F4702F14D0A16A41F48011A162BB
:102E20003168490505D5A16A21F4005141F480516A
:102E3000A162A16AC9040AD5E16A21F00601E16232
:102E400006E0A26A22F48012A2624968E9E7E06221
:102E500084F82400216A15488862216A1448C862EF
:102E6000216A1448086321686FF002000860206836
:102E7000816841F480718160216843464A464C3143
:102E8000206A00F0F1F820688168C1F34241072907
:102E9000816803D041F48011816099E741F4A00179
:102EA000FAE700000024014000280140C71D000887
:102EB0002F1E0008151E00082DE9F05FC16B0C687D
:102EC00001680B68D0F840C0042202FA0CF2494DA8
:102ED000DFF824A1494E4A4FDFF828B1DFF828E196
:102EE00022422CD05A072AD50A68920603D40A68CF
:102EF00022F004020A600168A94201D1042219E00B
:102F0000514501D1402215E0B14202D14FF4806217
:102F100010E0B94202D14FF480420BE0594502D192
:102F20004FF4802206E0714502D14FF4800201E0A7
:102F30004FF080622F4908394A60C16A3BE04FF088
:102F4000020808FA0CF818EA040F4FF000094FF0D5
:102F5000010235D05FEA837832D50B689B0605D431
:102F60000B6823F00A030B6080F821200168A94256
:102F700001D1022219E0514501D1202215E0B142D0
:102F800002D14FF4007210E0B94202D14FF4005266
:102F90000BE0594502D14FF4003206E0714502D1F1
:102FA0004FF4001201E04FF00072124908394A60F4
:102FB00080F82090816A00291AD0BDE8F05F0847A8
:102FC000082505FA0CF5254212D01B0710D50B6811
:102FD00023F00E030B6090F84010C36B02FA01F16E
:102FE0005960826380F8212080F82090016BE2E72D
:102FF000BDE8F09F080002401C0002403000024083
:1030000044000240580002406C00024030B528B332
:1030100008C8134914221944B1FBF2F18900C163B5
:1030200010498163022141771A6843F6F0718A439F
:10303000D0E900142143D0E902452C43214304691F
:1030400021434469214384692143114319600021CC
:103050004163012242770177084630BD012030BD2F
:10306000F8FFFDBF0000024070B5044690F8200054
:10307000002501280CD0012084F8200094F821605C
:103080000020012E06D084F820000225284670BDBD
:10309000022070BD022684F82160A06320680668C3
:1030A00026F0010606602046FFF7CEF8E06A002809
:1030B0002068016802D041F00E0106E021F0040111
:1030C00001602068016841F00A0101602068016820
:1030D00041F001010160D9E770B5044600F004F940
:1030E0000546601C02D004480078044400F0FCF857
:1030F000401BA042FAD370BD000000202DE9F84F1C
:10310000DFF8B891002409F1040A0AF1040B234600
:103110000F270BF1040EC9E00125A5402A40AA4261
:103120007DD1674ED1F804C0ACEB0608B44532D06F
:1031300014DCBCF1030F3AD009DCBCF1000F2AD03B
:10314000BCF1010F1CD0BCF1020F31D11DE0BCF16C
:10315000110F17D0BCF1120F2AD119E0B8F5881F52
:1031600019D006DCB8F5803F15D0B8F5801F1FD107
:1031700011E0B8F5001F0ED0B8F5041F18D10AE011
:10318000CB6815E0CB681B1D12E0CB6808330FE05D
:10319000CB680C330CE08B682BB1012B4FF008038C
:1031A00003D0456104E0042302E0056100E0002350
:1031B000FF2A01D8064601E000F104064FEA840523
:1031C00001D9A5F12005D6F8008007FA05FC28EA08
:1031D0000C0803FA05F548EA0508C6F800804D68B2
:1031E000ED0062D5374DAE6946F00106AE61AD69BE
:1031F00024F0030605F001050095334D06EB050CA0
:10320000DCF80850A607360F07FA06F825EA080585
:10321000DFF8B880404503D14FF0000817E044E0E4
:10322000DFF8AC80404502D14FF001080FE0DFF835
:10323000A480404502D14FF0020808E0DFF89880F2
:10324000404502D14FF0030801E04FF0040808FAAE
:1032500006F848EA0508CCF808804D68D9F80060FF
:10326000ED034D4601D5164300E096432E604D68B0
:10327000DAF80060AD03554601D5164300E09643E9
:103280002E604D68DBF80060ED025D4601D5164307
:1032900000E096432E604D68DEF80060AD02754692
:1032A00001D5164300E096432E60641C0D682A4643
:1032B000E5407FF431AFBDE8F88F00000004014025
:1032C0000000111000100240000001400008014001
:1032D000000C014000100140001401400AB10161DE
:1032E00070470904FBE70000014880687047000050
:1032F0000000002002488168027811448160704714
:1033000000000020074810B5016841F0100101607D
:10331000032000F075F80F2000F006F800F024F804
:10332000002010BD0020024070B50D4D04464FF442
:103330007A712878B1FBF0F00A490968B1FBF0F026
:1033400000F066FC48B9102C07D200222146501E1E
:1033500000F036F800206C6070BD012070BD0000E8
:10336000000000200C0000200C4808B5816941F0E5
:1033700001018161816901F001010091C16941F0A0
:103380008051C161C06900F08050009004484168DC
:1033900021F0E06141F00071416008BD0010024081
:1033A00000000140002809DB00F01F0201219140CC
:1033B0004009800000F1E020C0F8001170470000D3
:1033C000F0B40E4B1B680C46C3F30223C3F1070590
:1033D000042D00D90425191D072901D2002300E07E
:1033E000DB1E012606FA05F1491E214099409E4048
:1033F000761E16403143F0BC02F0D4BB0CED00E069
:10340000064900F0070208684FF6FF03184040EA3B
:103410000220034A10430860704700000CED00E0F2
:103420000000FA052DE9F84305460078354CC00741
:1034300054D0E0690026C00008D4E06940F0805014
:10344000E061E069012600F0805000902E4801689C
:10345000C90512D40168804641F480710160FFF70C
:1034600043FF074605E000BFFFF73EFFC01B64288F
:1034700023D8D8F80000C005F6D5206A10F44070B3
:1034800021D0A98801F4407181421CD0206A1F49D3
:10349000012220F440700A6000220A602062C00706
:1034A00011D0FFF721FF074641F2883808E000BF3E
:1034B000FFF71AFFC11B414502D90320BDE8F8837D
:1034C000206A8007F4D5206A696820F440700843B8
:1034D00020621EB1E06920F08050E061287880070A
:1034E00005D56068A96820F44040084360602878EA
:1034F000C00605D56068E96820F480000843606074
:103500000020DBE70010024000700040400442420F
:10351000704700002DE9F0470F46050061D0434E8B
:10352000306800F00700B84209D2306820F0070088
:1035300038433060306800F00700B84251D1286845
:103540003B4C810712D5400703D5606840F4E0602A
:1035500060602878000703D5606840F460506060C0
:103560006068A96820F0F000084360602878C00710
:1035700028D06868012810D02168022810D0890757
:1035800000292EDA616821F0030101436160FFF731
:10359000ABFE804641F288390DE021688903EFE7F0
:1035A0008901EDE7FFF7A0FEA0EB0801494502D92C
:1035B0000320BDE8F0876068696800F00C00B0EB9C
:1035C000810FEFD1306800F00700B8420BD93068A6
:1035D00020F0070038433060306800F00700B84240
:1035E00001D00120E5E72878400705D56068E96843
:1035F00020F4E060084360602878000706D5606822
:10360000296920F4605040EAC100606000F01EF8B3
:103610006168084AC1F30311515CC840064908605B
:1036200006480068FFF780FE0020C2E70020024045
:10363000001002409C5E00080C00002004000020E6
:1036400001490120C86470470000424212A185B0C0
:103650000FC98DE80F0014A0144A00680490516847
:10366000134801F00C03042B10D0082B0ED1C1F32A
:103670008343C9031DF803000AD5516804AAC1F3A6
:103680004041515C0A4A5043B0FBF1F005B070472D
:1036900008494843FAE70000020304050607080941
:1036A0000A0B0C0D0E0F101001020000001002405A
:1036B00000127A0000093D0010B5044CA068000615
:1036C00003D5FFF725FF8020A07210BD0010024037
:1036D0002DE9F84F040070D02078C04DC00749D0C4
:1036E0006868C0F38100012807D06868C0F38100D2
:1036F000022809D16868C00306D52868800339D537
:1037000060680028E7D035E06068B0F5803F0BD0F6
:1037100010B1B0F5A02F11D0286820F480302860B7
:10372000286820F4802002E0286840F48030286077
:10373000606890B1FFF7D8FD06460AE0286840F4BB
:1037400080202860F0E700BFFFF7CEFD801B6428D3
:1037500073D828688003F7D50CE0FFF7C5FD06464F
:1037600005E000BFFFF7C0FD801B6428F0D8286883
:103770008003F7D420789A4E80074FF001094FF06C
:10378000000839D5686810F00C0F07D06868C0F3DE
:103790008100022809D16868C00306D42868800720
:1037A00014D52069012808D110E02069B0B1C6F80D
:1037B0000090FFF799FD074605E00AE1FFF794FD49
:1037C000C01B0228C4D828688007F7D5286861691B
:1037D00020F0F80040EAC10028600DE0C6F8008043
:1037E000FFF782FD074604E0FFF77EFDC01B0228BD
:1037F00023D828688007F7D4207800072CD579488B
:10380000A169D9B1C0F80090FFF76EFD074604E04A
:10381000FFF76AFDC01B02280FD8686A8007F7D53A
:1038200071484FF4FA510068B0FBF1F0009000BF0E
:103830000098411E0091FAD20EE080E0C0F80080AE
:10384000FFF752FD074604E0FFF74EFDC01B0228BC
:1038500075D8686A8007F7D42078400760D5E86992
:103860000027C00008D4E86940F08050E861E869AA
:10387000012700F0805000905C480168C90513D40E
:103880000168834641F480710160FFF72DFD824697
:1038900006E000BFFFF728FDA0EB0A0064284ED821
:1038A000DBF80000C005F5D5E06801280AD008B1B2
:1038B000052813D0286A20F001002862286A20F029
:1038C000040002E0286A40F001002862E06841F24A
:1038D000883B98B1FFF708FD82460BE0286A40F06C
:1038E00004002862EEE700BFFFF7FEFCA0EB0A0130
:1038F00059455AD8286A8007F6D50CE0FFF7F4FC42
:10390000824605E0FFF7F0FCA0EB0A0159454CD8D0
:10391000286A8007F6D41FB1E86920F08050E8617A
:10392000E06988B36968C1F38101022944D00228A3
:10393000C6F8608004D0FFF7D7FC044638E034E0D6
:10394000FFF7D2FC074604E0FFF7CEFCC01B0228BD
:103950002BD828688001F7D4206AB0F5803F05D1C4
:103960006868A16820F4003008436860D4E9080161
:103970000843696821F4741108436860C6F86090D0
:10398000FFF7B2FC044606E025E000BFFFF7ACFC01
:10399000001B022809D828688001F7D51BE000BF6A
:1039A000FFF7A2FC001B022802D90320BDE8F88F14
:1039B00028688001F4D40EE00128F7D06868226AF4
:1039C00000F48031914204D1616A00F470108842A1
:1039D00001D00120EAE70020E8E7000000100240E3
:1039E00000004242800442420C000020007000406F
:1039F000704770B5040009D0606A002540B12561A8
:103A00006561A56294F8510040B10CE0012070BDE1
:103A10006068B0F5827FF4D0E561F2E784F8505039
:103A2000204600F03FF8022084F851002068016829
:103A300021F040010160A088218900F4827001F426
:103A400004410843A18901F400610843217C01F08D
:103A500002010843217D01F001010843218B01F49B
:103A600000710843217F01F03801084394F82010C9
:103A700001F080010843218D01F4005108432168C1
:103A80000860A069042101EA1040216848602068AC
:103A9000C16921F40061C1616565012084F85100AC
:103AA000002070BD70B586B00025064600950195D2
:103AB0000295039500681A4988422ED119498869F0
:103AC00040F480508861886900F4805004908869CF
:103AD00040F0040088618869694600F004000490A1
:103AE000A020009002200190032003900E48FFF7D1
:103AF00005FB0F4C0D4820601020C4E90105802013
:103B0000C4E903056561A5612046E561FFF77EFA1A
:103B100008B1FEF71BFEB464666206B070BD00001B
:103B20000030014000100240000801403000024017
:103B30006C0100202DE9F041044690F85000002669
:103B4000012809D0012784F8507094F8510000250D
:103B5000012804D002264EE00220BDE8F08189B1A0
:103B600082B1032084F8510065652163A286E28654
:103B7000A56365642564A587E587A068B0F5004F57
:103B800002D00BE0012636E02068016821F04001F8
:103B900001602068016841F480410160A16C18480F
:103BA000C862A16C17488862A16C17480863A06CB2
:103BB0004563E38E2268216B0C32A06CFFF754FA48
:103BC00038B1606D40F010006065012684F85170D6
:103BD00011E020680168490603D4016841F0400102
:103BE00001602068416841F020014160206841681F
:103BF00041F00201416084F850503046ADE70000CA
:103C0000835300088D5300086153000870477047C4
:103C100010B5401EB0F1807F01D3012010BD4FF0E0
:103C2000E02460610F21601701F0BCFF0020A0615B
:103C300007202061002010BD7047704770B590F8D4
:103C40003C20012A26D0012480F83C40022280F842
:103C50003D2003685A689D6822F070060A68324366
:103C60005A600D4B02689A4208D0B2F1804F05D0DD
:103C70000A4B9A4202D00A4B9A4204D1496825F075
:103C800080031943916080F83D40002180F83C108A
:103C9000084670BD022070BD002C014000040040A9
:103CA0000008004010B5040003D094F83D0010B1A6
:103CB00007E0012010BD002084F83C00204600F001
:103CC0001FF8022084F83D00211D206801F0BEFE8F
:103CD000012084F8460084F83E0084F83F0084F810
:103CE000400084F8410084F8420084F8430084F8DE
:103CF000440084F8450084F83D00002010BD000019
:103D000008B500680B49884212D10B48C16941F0DF
:103D10000201C161C069002200F00200009011465A
:103D20001D20FFF74DFBBDE808401D20FFF73ABB03
:103D300008BD0000000400400010024090F83D1053
:103D4000012901D001207047022180F83D1001684F
:103D5000CA6842F00102CA6000680B49884208D074
:103D6000B0F1804F05D00949884202D00849884205
:103D700004D1816801F00701062903D0016841F0F0
:103D80000101016000207047002C01400004004048
:103D90000008004070B5044690F83C00012817D098
:103DA000012584F83C50022084F83D002068826898
:103DB00022F0770222F47F4282600868502830D0D7
:103DC0000DDC20284DD005DC98B310283BD148E00D
:103DD000022070BD302844D0402834D139E060281A
:103DE00028D0702806D0B0F5805F2CD0B0F5005FE9
:103DF00029D10AE0CB68D1E90121206801F05CFEFD
:103E00002068816841F0770109E0CB68D1E90121A0
:103E1000206801F051FE2068816841F48041816092
:103E200011E0CA684968206801F058FE50212068F6
:103E300007E016E0CA684968206801F060FE60216A
:103E4000206801F043FE84F83D50002084F83C00D7
:103E500070BDCA684968206801F040FE40212068B2
:103E6000EFE7226801461046EBE7704770B504465D
:103E7000006801694FF00005C943890715D4C1687E
:103E8000C943890711D4E91E016101202077206808
:103E900080698007204602D0FFF7E7FF04E000F0CA
:103EA00098F8204600F096F8257720680169C94304
:103EB000490717D4C168C943490713D46FF00401F7
:103EC0000161022020772068806910F4407F20463D
:103ED00002D0FFF7CAFF04E000F07BF8204600F0B4
:103EE00079F8257720680169C943090716D4C168A4
:103EF000C943090712D46FF008010161042020773B
:103F00002068C0698007204602D0FFF7AEFF04E0BA
:103F100000F05FF8204600F05DF825772068016921
:103F2000C943C90617D4C168C943C90613D46FF081
:103F300010010161082020772068C06910F4407FDB
:103F4000204602D0FFF791FF04E000F042F820463F
:103F500000F040F8257720680169C943C90708D1F6
:103F6000C168C943C90704D1891E0161204600F018
:103F700033F820680169C943090609D4C168C943F7
:103F8000090605D46FF0800101612046FFF754FE59
:103F900020680169C943490609D4C168C943490673
:103FA00005D46FF040010161204600F01FF8206841
:103FB0000169C94389060BD4C168C943890607D47E
:103FC0006FF0200101612046BDE87040FFF735BE6B
:103FD00070BD7047704700000349884202D132200B
:103FE00000F0B0BF70470000B00100207047FEE74E
:103FF0002DE9F04F002836D0042800D90420DFF83E
:1040000070B00023DFF864A0BBF8029029E0002222
:10401000BBF8005021E00021C0F10406DFF854E0B5
:1040200002EBC31414E08E4209DD67181EF800800D
:104030001AF807C00CEA080C0AF807C004E004EB01
:10404000010800270AF80870491C89B2042902D225
:104050005718802FE7D3121D92B29542DBD85B1C14
:104060009BB29945D3D8BDE8F08F000040040020F2
:104070004C000020B45E00080D4BDA6812B9D8601D
:1040800004E01A46D368002BFBD1D060017061B107
:10409000002141704FF496714180002101714171FE
:1040A0008171C1710172C16070470121F1E70000A7
:1040B0006C00002070B5204900224FF49675C96845
:1040C000012336E00C7A012C32D04C780E78B442C1
:1040D00020D14C88844207D9241A2404240C4C8013
:1040E0000DD00C7914B107E04A8008E0C8244C8058
:1040F0004C79641C4C710B71CB714C88C4B98C79B0
:104100000444E4B28C71C82C01D98A710B72022468
:10411000CC710DE00A718A714C88AC4201D2044422
:104120004C80CC79012C03D14C88AC4200D30B726B
:10413000C9680029C6D170BD6C0000207CB500257F
:1041400006468DF800508DF8045001F0BFF9154C6B
:10415000E17A88420ED00120FEF7BEFF01F0B6F9E9
:104160000146E07A814205D0307001F0AFF9E0728B
:10417000A07015E0A1780C48491E032902D801213E
:10418000417000E0457001AA69460748FEF7A8FCA7
:10419000002806D09DF80000022801D1A0783070D8
:1041A00001207CBD2C00002040080020002803D006
:1041B000002901D041618861704700002DE9FC5F52
:1041C0001E4693460446F9B1194D2079C00719D00F
:1041D000184F22684FF0000838684FF00109042A90
:1041E00014D0BA46012200F00AFACDE90069074668
:1041F0005B4632461946DAF80000A8473844C0B298
:10420000022811D0BDE8FC9F0B4DDEE7012200F033
:10421000F6F90028F6D0CDE900695B46324619462A
:104220003868A8470028EDD084F80480EAE7000049
:104230002D5500085400002005560008FEB5002446
:104240002048009401941E49029401608915816000
:10425000012505730475042606614FF4602144604E
:10426000C161FEF7CDFC08B1FEF770FACDE900455B
:10427000694614480294FEF741FC08B1FEF766FA5D
:104280000224CDE9005469460E48FEF737FC08B118
:10429000FEF75CFA0094032469460A480194FEF78D
:1042A0002DFC08B1FEF752FACDE9004669460548F3
:1042B000FEF724FC002801D0FEF748FAFEBD0000FE
:1042C00000240140A0000020094808B5416941F0E0
:1042D000010141614069002200F001000090114697
:1042E0000D20FFF76DF8BDE808400D20FFF75AB824
:1042F0000010024070B586B000241C480094019460
:1043000002940394816941F020018161816901F087
:1043100020010491816941F004018161816901F00A
:1043200004010491816941F0080181618069104EA6
:1043300000F008004FF44065049000222946304602
:10434000FEF7CCFF0220CDE9024000950125694629
:1043500001953046FEF7D2FE28038DE8310069460C
:104360003046FEF7CBFE06B070BD000000100240E4
:10437000000C0140104810B50E4901604FF48271E5
:10438000416000218160C1604FF400720161C0E9A9
:1043900005120822C0E90721416281620A21C16237
:1043A000FFF727FB002803D0BDE81040FEF7CEB989
:1043B00010BD0000003001401401002010B586B08F
:1043C0000024174800940194029403940494134920
:1043D0000594016040F2CF21C0E9011441F2873118
:1043E000C0E903148461FFF75DFC08B1FEF7AEF984
:1043F0004FF48050009069460948FFF7CBFC08B1A4
:10440000FEF7A4F9049404A905480594FFF716FCE7
:10441000002801D0FEF79AF906B010BD0004004054
:10442000B0010020FEB53549354800F0ABFD0A204B
:10443000009032480E23322200210C3800F07EFF1B
:10444000012404722D492F480C310023016044746B
:104450002D4A19463220FDF72DFD1026274800254C
:1044600000962023182230210C30CDE9014501F0BF
:104470008BF9264FC7612148002200962023114660
:104480003430CDE9014501F07FF92149C161009146
:104490001A4902235C310A22A1F12800FDF730FD00
:1044A00016493431A1F12800FFF780FE1949022294
:1044B000A1F5DC70FEF76FFA1749C16115488572E6
:1044C000A0F5DC7000F02AF8002202211148FDF767
:1044D00002FD104800220096202311462830CDE925
:1044E000014501F051F9C76103B00A49BDE8F04048
:1044F0002831A1F5B470FFF759BE00000402002076
:104500006800002054000020B94A00086D5D0008D2
:10451000E15D0008F0030020F94E000800B502003C
:1045200007D0FEF784FA03461046FEF788FAC36008
:10453000186100BDFEE7002000F0ECB838B51D485A
:104540000178491C49B20170282901DD0021017060
:1045500090F90000002300901A464621184600F00A
:104560005BFC154D2868FEF762FA4FF0FF3100F052
:104570001BFD124C008901216080204601F02EF9BC
:104580002868282223210389204600F011FEA07903
:104590002521801CC0B200906079801DC3B22079B3
:1045A000801DC2B22020FEF758F8BDE83840012037
:1045B00000F0B0B81000002054000020F8010020E6
:1045C0003F23002211460148FFF7F8BD04020020F6
:1045D00070B50E46050011D0FEF731FA04462846A4
:1045E0000EB9FEF724FAA04208D0C1680288A142A1
:1045F0000A8042884A8001D0C968F7E770BD2DE97A
:10460000F04714460D4607004FF0010909D038461F
:10461000FEF70DFA06463846FEF711FA02469642B4
:1046200002D10120BDE8F087F0686FF01006B710E6
:104630006FF0010C4FF0FF3895B101690B88898844
:1046400074B3B0F900A00B44AAEB030109B241B363
:1046500001F11103222B3CD9002938DA112149E05C
:1046600001694B88C98819446CB1B0F902A0AAEB62
:1046700001010BB2ABB103F11101222907D9002BC3
:1046800003DA112316E0418038E0334612E0591D69
:104690000A2907D9002B01DA05230BE03B4609E084
:1046A00012E02BE0991C042908D9002B01DA02231F
:1046B00000E063460AEB030141801DE0002B01DAB4
:1046C0000123F7E74346F5E71944018016E0314638
:1046D00010E04B1D0A2B05D9002901DA052109E05C
:1046E000394607E08B1C042B0CD9002901DA022182
:1046F00000E06146514401804FF00009904207D02C
:10470000C06899E7002901DA0121F3E74146F1E7A2
:10471000484687E72DE9F041274C264E01272178AE
:1047200030B1B9B325486178405CFFF761FC3EE0E9
:10473000DFF88C80002559B901F04CFA30B901F04E
:10474000F1FA6061042806D0032804D0207800B371
:10475000607830B10DE03570012000F0C3FF657066
:104760002770D8F800102161D8F80410E160C8F86B
:1047700000106078401CC0B26070032817D96069CF
:1047800001F02EFA25702169C8F800106078401EEB
:1047900060700CE0FFE7617849B10848001D405C9B
:1047A000491E6170FFF724FC607800B937702078EB
:1047B000BDE8F0813000002014000020AC5E00084D
:1047C000540000202DE9FC5F804656A01446006886
:1047D000009055480D4682469B4601F09BFA002604
:1047E0000746B146022843D3584601F093FA0228FF
:1047F0003ED19BF800007F283AD97F1E3BE000BFE6
:104800001AF806107F2935D9761C9BF801101AF882
:10481000062009F101098A422CD10AEB060111F8A0
:10482000011C814226D1B9F1000F21D0B8F1000F4F
:1048300024D005F10F0104F10F00002D24DB002C22
:1048400022DBB8F804208A421EDDB8F80620824236
:104850001ADDB8F80200204403B2B8F8000028447A
:1048600002B2324800EB491168462039FEF770F871
:10487000BDE8FC9F761CBE42C2D3F9E72B49234614
:1048800001EB49112A46EFE7002D01DA6A4200E008
:10489000002212B20192002C01DA624200E00022F2
:1048A000B8F8043012B28B4201DD102100E0591B30
:1048B0000FFA81FAB8F80610814201DD102000E0FD
:1048C000081B0FFA80FBD6B229E00198C7B222E09C
:1048D0004FEA4900801E00EBD601144806F007029B
:1048E00000EB01100121C05D9140084205D0A019E4
:1048F00002B2E81901B2012308E00D48007802284D
:1049000007D1A01902B2E81901B20023404600F015
:104910006DF97F1CFFB25745DADB761CF6B25E45B7
:10492000D3DBA5E710100000AB640008B0640008FA
:10493000310000202DE9F14F3C4800250468002C8F
:1049400071D02046016939B10289012A04D0CA7A9E
:10495000012A01D00846F5E7814620004FF0000605
:1049600001D1304609E0C16839B10A89012A04D071
:10497000C27A012A01D00846F5E780460CB93446D0
:1049800004E02089012801D02469FAE7200001D140
:10499000304606E0C16821B10A89012A01D00846E3
:1049A000F8E7DFF888B007464FF0010AABF1280BB3
:1049B000206A28B34C4501D1012500E025B394F8C5
:1049C0002410490624D402880099114489B2018038
:1049D000206A4288914210D30680E08C40F00100AA
:1049E000E08408E00680E08C40F00100E084E169AA
:1049F00009B1204688478BF809A0444500D100251D
:104A0000BC4210D0E468D3E794F824104906F4D5EA
:104A100002880099114489B20180206A428891423B
:104A2000E0D2EAE7FFE7BDE8F88F0000540000207D
:104A300010B500F04FFAFFF7F5FC024901200870AD
:104A400010BD000034000020002809D0002305E03C
:104A500039B10069002803D05B1C9BB29342F7D3A5
:104A60007047C068F6E7002808D00189012905D001
:104A70000169CA7A012A01D00846F6E77047002882
:104A80000AD0C168002907D00A89012A04D0C27A55
:104A9000012A01D00846F4E77047000010B504462B
:104AA000FBF7ECFB002803D00249CA682244CA6025
:104AB00010BD00002C00002004490A7908B1104400
:104AC00002E0002A01D10120087170474C0000204B
:104AD0002DE9F041434CE07800B3601CFFF72EFB5A
:104AE000FDF7B8FF607A002618B166720020FFF764
:104AF000E3FFDFF8F08008F1200898F804000028B0
:104B00006CD008F108052868002867D000F018FF6D
:104B1000FDF780FBE079012805D00DE03148C01C8D
:104B200000F042FFDCE7206928602661A07901F0EF
:104B300057F8A6710220E071D5E90001814202D048
:104B4000207801F04DF8FFF7F6FC2748006801F0E7
:104B500051F8286800F046FEFFF732FD28686269C8
:104B600072B1FDF764FF90F82410090608D501E042
:104B700092682AB111688142FAD1506800B1804729
:104B80002B681846FFF76FFF05461846FFF777FFBB
:104B90000746284601F068F818B995F82400800601
:104BA00003D5E96909B128468847BD4201D0ED68BF
:104BB000EFE70C482830817C012904D10321617181
:104BC000FDF74DFC6671FFF7B9FC01F023F8667044
:104BD00098F8041011B1491E88F80410BDE8F0419E
:104BE000FDF78DB92C00002068000020F0B40028EB
:104BF00015D00488458886880C44154424B22DB20B
:104C00008E420CDDC088904209DD002907DB002AB6
:104C100005DB29462046F0BC1A4601F0F3B8F0BC8B
:104C2000704700002DE9FE4F1546634A82460E4646
:104C3000D068A3F120075F2F01784478894600D31C
:104C40002023203B03F0FF0B5B4BBAF1000F9B6866
:104C500035D0771ECF197DD4691E14EB010C79D4A1
:104C6000BAF80410B14275DDBAF80620AA4271DD27
:104C7000002E39DB002D37DB8F4235DA944533DAED
:104C800004EB8401C1F39C020A21B2FBF1F701FBA2
:104C9000172100294FEAD40100D0491C0BFB09F26F
:104CA00002FB0131BAF802202A4413B2BAF80020FC
:104CB000324412B203B0BDE8F04FFDF749BE04EB39
:104CC0008401C1F39C020A21B2FBF1F701FB172119
:104CD00000294FEAD40100D0491C0BFB09F202FB6A
:104CE00001312B463246E5E7002E01DA704200E042
:104CF000002000B20290002D01DA684200E000209E
:104D000006EB09035B1E00B28B4201DA494600E064
:104D1000891B09B201912919491E914201DA2146E4
:104D200000E0511B09B200913EE00298C7B236E0A4
:104D300004EB8400C0F39C000A21B0FBF1F201FBFC
:104D4000120000284FEAD40000D0401C0BFB09F1F0
:104D5000484300E02DE04FEAD80209FB0201164863
:104D600080683844095C08F00700C14011F0010F69
:104D700006D008EB050002B2B81901B2012309E020
:104D80000E480078022808D108EB050002B2B819D5
:104D900001B200235046FFF729FF7F1CFFB20198A4
:104DA0008742C5DB08F1010000F0FF08009880454C
:104DB000BBDBBDE8FE8F00007C000020310000203E
:104DC0002DE9F0470F4681461D4690460C211048BC
:104DD000FDF72CFA0E4C0F4E0CE042463946484681
:104DE000FFF720FFF0680078384407B22088401CA5
:104DF00020806D1C2B78002BEFD1F0680178A17119
:104E00004078E07120884843A0800148BDE8F087E1
:104E1000860800207C0000202DE9FF5F8B46DDF82E
:104E200038A01C464FF0000955460C212748FDF7D5
:104E3000FDF94FF00A083CB95DB14046B5FBF0F50D
:104E4000641CE4B2002DF9D1204E0025204F34809F
:104E50002EE00124F8E7601B401E0A22C1B20120A7
:104E600000E05043491EC9B2FBD2BAFBF0F1B1FBDE
:104E7000F8F208FB1210B9F1000F05D1611E8D4246
:104E800002DA48B14FF001093030C3B2F868017856
:104E900001FB05B001B205E0F8682023017801FBB1
:104EA00005B001B2029A0098FFF7BCFE6D1CEDB28E
:104EB000A542D0D3F8680178B1714078F07130889C
:104EC0004843B08004B00148BDE8F09F7A08002054
:104ED0007C000020064810B5002141740121817436
:104EE00000F080F8BDE8104001210248FFF7C4B887
:104EF00054000020400800207CB50546022100F047
:104F000010FE002819D00D4C6068FDF790FD0C498B
:104F100088420CD12846FDF78AFD00223F21CDE9C9
:104F20000012134640F6B832002100F06BFB2068F7
:104F3000BDE87C400021FFF74BBB7CBD5400002046
:104F40001002002010B504460748007A00280AD055
:104F50002046FFF7EFFC2046FDF794FD2046BDE814
:104F60001040FFF7A7B810BD2C000020002808D083
:104F70000279D30703D142F0010201600271806817
:104F8000F4E7704702680AB9016004E0906808B16C
:104F90000246FBE7916000200860087188600846BF
:104FA0007047FEF789FBFEE7F0B50446002901DAF9
:104FB0004A4200E00A4696B200280AD00025CF0FE8
:104FC0000DE001223946FFF73FFD08B1A04201D1B3
:104FD0002046F0BD817A012901D16D1CADB2B542E8
:104FE000EFD3F0BD70B50122564D940221462846FC
:104FF000FEF774F96420FEF76FF800222146284678
:10500000FEF76CF96420FEF767F801222146284676
:10501000FEF764F90021AE2000F0ACF8002108464C
:1050200000F0A8F80021102000F0A4F80021402092
:1050300000F0A0F80021812000F09CF80021CF2092
:1050400000F098F80021A12000F094F80021C82079
:1050500000F090F80021A62000F08CF80021A82094
:1050600000F088F800213F2000F084F80021D320D0
:1050700000F080F80021084600F07CF80021D520DF
:1050800000F078F80021802000F074F80021D92089
:1050900000F070F80021F12000F06CF80021DA2017
:1050A00000F068F80021122000F064F80021DB20F5
:1050B00000F060F80021402000F05CF80021202082
:1050C00000F058F80021084600F054F800218D2027
:1050D00000F050F80021142000F04CF80021A4202A
:1050E00000F048F80021A62000F044F80021AF208D
:1050F00000F040F80021AF2000F03CF85FF0000421
:1051000004F1B000C0B2002100F034F800210846DC
:1051100000F030F80021102000F02CF800250121CB
:10512000002000F027F86D1CEDB2802DF7D3641C31
:10513000E4B2082CE4D3BDE870400021084600F03A
:1051400003B80000000C014010B50446B031C8B2ED
:10515000002100F00FF8102040EA1410002100F0A8
:1051600009F804F00F00BDE8104040F001000021F4
:10517000AFF3008073B50B4D4FF4006409B1012209
:1051800000E0002221462846FEF7A8F801226946E1
:105190000548FEF7CFFC012221462846FEF79EF87F
:1051A0007CBD0000000C014014010020704700008D
:1051B0002DE9F84F0446408892468B46984200D22B
:1051C0000346A27994F8088094F809C05142B8F1D6
:1051D000000F4FEACC7C1CD0BCF1000F29D094F812
:1051E00005C000BF0CEB4101594391FBF0F0218851
:1051F00000EB4200401A00B25FEA00083CD000F029
:1052000085FD09281BD92188B8F1000F14DD09207C
:1052100030E0BCF1000F09D094F805C00CEB41015F
:105220005943B1FBF0F000EB420024E094F804C0D5
:10523000F4E794F804C0D5E76FF008001AE04046A0
:1052400000F064FD052808D92188B8F1000F01DDC0
:1052500005200FE06FF004000CE0404600F056FD22
:105260002188032819D9B8F1000F01DD032001E0DE
:105270006FF00200084420802088A179B0EB410F34
:1052800001D248002080627A2B4872B1012A15D0E1
:10529000022A1FD0032A36D128E0B8F1000F01DD21
:1052A0000120E7E74FF0FF30E4E7B4F800906579BC
:1052B0000BEB09025F465646028014E094F8049016
:1052C00025880BEB590202805F4656460AEB050221
:1052D000428018E0237922885B449B1A1FB26579CB
:1052E00056469146078006EB5502F1E7637925881B
:1052F00003EB0A02521B94F8049016B20BEB59020E
:1053000002805F464680E079800707D40091EBB2C7
:1053100009F0FF0231463846FDF7E7F9E079C007AA
:1053200007D1A07900906379227951465846FDF75C
:1053300094F90148BDE8F88F1A00002030B5002428
:10534000039D04804580027143719A4200D31A463E
:1053500052088271047201F003014172C47130BDC0
:1053600010B5406A01684A6822F003024A60416D44
:1053700041F010014165012180F85110FEF738FB22
:1053800010BD10B5406AFEF742FC10BD38B50546A9
:10539000446AFDF7A9FF024628680068800623D406
:1053A0002068416821F0200141602068416821F0B7
:1053B000020141606421204600F01AF818B1606DC6
:1053C00040F020006065A068002118B92068C2681C
:1053D00080680090E186012084F85100606D18B16A
:1053E0002046FEF705FB38BD2046FEF70FFC38BD12
:1053F00038B50B46009204460022802100F008F8E0
:10540000002804D0606D40F020006065032038BDA6
:105410002DE9F8431E46914688460446089DFDF74F
:1054200063FF401B351AFDF75FFF074625480068FC
:10543000C0F3CB30684338E0701C37D0FDF754FF21
:10544000C01BA84203D215B1009860B32CE02068BD
:10545000416821F0E00141606068B0F5827F0BD1C6
:10546000A068B0F5004F02D0B0F5806F04D120687D
:10547000016821F040010160A06AB0F5005F09D128
:105480002068016821F4005101602068016841F43E
:1054900000510160012084F85100002084F8500080
:1054A0000320BDE8F8830025401E00902068816835
:1054B00038EA010004D000214945BDD10020F0E7C1
:1054C0000121F9E70C00002070470000F0B51548F5
:1054D00040F65C5214490468944201D903201CE050
:1054E000A4F2B9674FF4C77500234FF4D276AF42E8
:1054F00001D88B7203E0B44201D204200DE0406871
:10550000904201D9022008E0A0F2B962AA4201D873
:105510008B7204E0B04202D201208872F0BD887A1A
:10552000F0BD0000900000202C0000202DE9F84F75
:105530001C46DDE90A579046894682460126FDF75A
:1055400076FA818C8A0509D441F4007181840023A4
:105550004246494650460097FCF7FDFCA14500DD58
:10556000A1464046454500DD0546BAF90010002237
:105570000120A1421BDA2FB1611A112905DD112387
:1055800000900DE0601A009224E0092902DD092351
:10559000009005E00329009001DD032300E00123D2
:1055A000424649465046FCF7D6FC002618E0BAF8B9
:1055B0000430CC18A4F1010CAC4511DD37B1611BEE
:1055C000112910DD6FF010030090E9E7681AC01A86
:1055D000401C009203B2424649465046FCF7BBFCD1
:1055E0003046BDE8F88F092903DD6FF0080300900D
:1055F000D6E70329009002DD6FF00203D0E74FF0F9
:10560000FF33CDE72DE9F84F1C46DDE90A589146F6
:105610008A4607004FF0010625D0FDF708FA818C75
:10562000CA050AD441F48071818400234A46514658
:105630003846CDF80080FCF7B3FCA24500DDA24659
:1056400048464D4500DD0546B7F90210002201200D
:10565000A14220DAB8F1000F08D0611A112908DD43
:105660001123009010E00120BDE8F88F601A00922D
:1056700025E0092902DD0923009005E003290090B7
:1056800001DD032300E001234A4651463846FCF77A
:1056900087FC002624E0FB88CC18A4F1010CAC4563
:1056A0001EDDB8F1000F06D0611B112909DD6FF076
:1056B00010030090E8E7681AC01A401C009203B279
:1056C000E2E7092903DD6FF008030090DCE7032916
:1056D000009002DD6FF00203D6E74FF0FF33D3E70F
:1056E0003046C1E701490870704700006C00002097
:1056F00070B50028049E14D00A4DAC6814B9A86097
:1057000004E02C46A568002DFBD1A06000240125F3
:105710008460C5758475C0E9004102754475C0E9AF
:10572000033670BD6C000020F0B5857A00278488B0
:10573000C6796D1C2AB3407AB04200D906466E4342
:10574000B0B29BB11A7812B1A24200D914465A786D
:1057500012B1824200D910469A7812B1A24200D208
:105760001446DA7812B1824200D210468A88A242E8
:1057700002D1CA88824202D08C80C8800127384674
:10578000F0BD7543A8B2DCE72DE9F0430F46DDE933
:105790000891DDF81C80164604001DD0002541B19B
:1057A0000846FDF74CF9C46020610089401C208147
:1057B00002E001202081256127806680A380A4F873
:1057C000068084F80A90E572E5606561A561E5618F
:1057D000A584E58420462562BDE8F083C2790A43AA
:1057E000C27170472DE9F84FDFF850810346D8F8B1
:1057F0001800FDF724F98346D8F81C00FFF73FF99D
:1058000082461846FDF713F981461846FDF717F949
:1058100000901846FFF727F905461846FFF72FF9BD
:105820000746D8F81800002658B94846C8F8189016
:10583000FDF705F983462846C8F81C50FFF71FF905
:105840008246D8F818404C454CD000BF94F824004C
:10585000400706D5E08C40F00400E084E169204672
:105860008847D8F81C00844201D1012600E056B1D7
:1058700094F82400C00606D5E08C40F01000E084C7
:10588000E16920468847544500D100265C4501D097
:10589000E468DBE74FEA090494F82400800706D5A2
:1058A000E08C40F00200E084E16920468847AC4289
:1058B00001D1012600E056B194F82400000706D576
:1058C000E08C40F00800E084E16920468847BC4253
:1058D00000D100260098844201D0E468DCE7C8F8D3
:1058E000189022E0D8F81C40AC4224D094F8240050
:1058F000C00606D5E08C40F01000E084E169204647
:105900008847544501D0E468F0E72C4694F8240019
:10591000000706D5E08C40F00800E084E1692046ED
:105920008847BC4201D0E468F0E7C8F81C50BDE8E5
:10593000F84FFCF76FBCBDE8F88F00002C0000208A
:1059400010B5184C0023A4F12802D4E900018142CB
:1059500000D0D3716060117999B15178117001292B
:1059600015D0022916D0032919D0042916D1FDF724
:105970005EF88069002811D0817A01290ED1537018
:105980000BE00848BDE81040243800F00DB84FF097
:10599000FF3100E00121FFF707FB206010BD4069E7
:1059A000E8E7000054000020044A0021D31C1170D5
:1059B000984201D191705170704700002C00002076
:1059C000FDF798BC30B593B028216846FAF7A0FCE3
:1059D00014210AA8FAF79CFC002501200F951095C8
:1059E0001195010412958DE8230004904FF4E01006
:1059F000CDE90810022407946846FDF769FE08B156
:105A000072B6FEE70AA90F2081E831004FF48060EA
:105A1000CDE90D0502210AA8FDF77CFD08B172B69B
:105A2000FEE74FF4004011900F940FA8FDF7FAFC29
:105A300008B172B6FEE7FDF703FE13B030BD704744
:105A40000148FEF713BA0000B0010020F0B502686B
:105A5000164B174C174D4FF08047984205D0B8426F
:105A600003D0A04201D0A84203D122F070064A68B8
:105A70003243984205D0B84203D0A04201D0A84298
:105A800003D122F44074CA6822434C6922F0800298
:105A9000224302608A68C2620A688262984201D127
:105AA0000969016301214161F0BD0000002C014042
:105AB000000400400008004010B5846842EA032258
:105AC00024F47F440A432243826010BD826822F09E
:105AD00070020A4342F007018160704710B5036A03
