:020000040800F2
:10000000A00F0020D1010008B732000853260008D5
:10001000812A0008BD0600083340000800000000E7
:10002000000000000000000000000000C1370008D0
:10003000DB09000800000000C13400088D3D000805
:10004000EB010008EB010008EB010008EB010008E0
:10005000EB010008EB010008EB010008EB010008D0
:10006000EB010008EB010008EB010008EB010008C0
:10007000EB010008A5090008EB010008EB010008EE
:10008000EB010008EB010008EB010008EB010008A0
:10009000EB010008EB010008EB010008EB01000890
:1000A000EB010008EB010008EB010008EB01000880
:1000B000EB0100080D3E0008EB010008EB01000811
:1000C000EB010008EB010008EB010008EB01000860
:1000D000EB010008EB010008EB010008EB01000850
:1000E000EB010008EB010008EB01000800F002F84A
:1000F00000F05EF80AA090E8000C82448344AAF164
:100100000107DA4501D100F053F8AFF2090EBAE861
:100110000F0013F0010F18BFFB1A43F0010318473B
:1001200094500000B45000000A444FF0000C10F846
:10013000013B13F0070408BF10F8014B1D1108BF65
:1001400010F8015B641E05D010F8016B641E01F805
:10015000016BF9D113F0080F1EBF10F8014BAD1C55
:100160000C1B09D16D1E58BF01F801CBFAD505E073
:1001700014F8016B01F8016B6D1EF9D59142D6D3CD
:10018000704700000023002400250026103A28BFF5
:1001900078C1FBD8520728BF30C148BF0B607047F9
:1001A0001FB59DE8030000F0A9F81FBD10B510BDF4
:1001B00000F028F91146FFF7F3FF03F0B7FF00F056
:1001C00046F903B4FFF7F2FF03BC00F073F9000037
:1001D0000948804709480047FEE7FEE7FEE7FEE7DB
:1001E000FEE7FEE7FEE7FEE7FEE7FEE70448054917
:1001F000054A064B704700000B3E0008ED00000862
:10020000A0090020A00F0020A00B0020A00B0020C0
:1002100070B5064600F056F8056806F10B0020F0B0
:100220000704B4429CBF002070BD2B466A68BAB177
:100230001068A04210D304F1080188423CBF506806
:10024000586007D35168101941601168091B01609B
:1002500058601460101D70BD13465268002AE7D123
:100260002146284600F036F80028DED170BD4FF058
:10027000000200B5134694469646203922BFA0E8F6
:100280000C50A0E80C50B1F12001BFF4F7AF090702
:1002900028BFA0E80C5048BF0CC05DF804EB8900F3
:1002A00028BF40F8042B08BF704748BF20F8022B36
:1002B00011F0804F18BF00F8012B7047704770474E
:1002C0007047000000487047480900207047704799
:1002D0007047704738B504460A4600206946AFF3B8
:1002E0000080002808BF38BD02460099204600F073
:1002F00067F8012038BD012000F07CB8F8B5AFF3F5
:100300000080054600200C46102000BF0646A819B4
:10031000A0420DD9324669460020AFF300800700A5
:1003200008BF00F067F80098A04218BF0546C4193E
:10033000FFF7C8FF05600746F01D20F007004619CB
:10034000284600F00AF8B44208BFF8BDA21B3146A7
:100350003868BDE8F84000F033B800210160C0E91A
:10036000011070471020704770B50446051FFFF755
:10037000A9FF0068002C14BF446870BD002C18BF92
:10038000AC423CBF20466468F8D301680A18AA4210
:1003900018BF456003D12A680546114401602868EA
:1003A0004119A1421CBF6C6070BD61686960216821
:1003B0000844286070BD00000048704740090020D4
:1003C000034640688C46002818BF88423CBF03465D
:1003D0004068F8D318681844884207D00CF103002D
:1003E00020F00700001D411A521A0146081D0A603C
:1003F000FFF7BABF10B500F035F8BDE8104000F0C7
:100400002CB870477546FFF7D7FFAE460500694622
:10041000534620F00700854618B020B5FFF7E6FEEA
:10042000BDE820404FF000064FF000074FF00008F5
:100430004FF0000B21F00701AC46ACE8C009ACE876
:10044000C009ACE8C009ACE8C0098D467047044655
:10045000AFF300802046FFF7B4FE002801D000F083
:1004600029B8704710B5012805D0002103A000F07D
:1004700027F8012010BD09A1F8E7000053494752B1
:10048000544D454D3A204F7574206F662068656164
:1004900070206D656D6F7279000000003A2048652C
:1004A0006170206D656D6F727920636F7272757007
:1004B0007465640001491820ABBEFEE72600020007
:1004C00070B505460C460A2000E06D1C00F011F8DE
:1004D00035B128780028F8D102E0641C00F009F852
:1004E00014B120780028F8D1BDE870400A20AFF39D
:1004F000008008B569468DF800000320ABBE08BD3A
:1005000070B5044600688168C943C90717D181687E
:1005100021F00101816001F019FA05460AE000BFEF
:1005200001F014FA401B022804D920688068C043F7
:10053000C00706D020688068C043C007F0D0002004
:1005400070BDA06A40F01000A062E06A40F00100B7
:10055000E062012070BD10B50146406A826A12F067
:10056000500F05D0006A026BBDE8104008461047E6
:10057000816A41F40071816201688968C1F3424176
:1005800007290CD1017B51B9816A21F48071816204
:10059000816AC90403D4816A41F00101816200F0DB
:1005A0005DFE10BD10B5406A816A41F04001816274
:1005B000C16A41F00401C16200F052FE10BD10B5E5
:1005C000406A00F04CFE10BDF8B5002604460096C7
:1005D00000688168C943C9072DD0816841F00101D5
:1005E0008160164816490068B0FBF1F000E0401E3B
:1005F00000900028FBD101F0A9F9054616E000BFE4
:1006000001F0A4F9401B022810D920688068C0437B
:10061000C0070BD0A06A40F01000A062E06A40F072
:100620000100E06284F824600120F8BD2068806841
:10063000C043C007E4D10020F8BD00000C0000203A
:1006400040420F00F8B507461C4615460E461820D6
:1006500002F032FC002805D02B4632463946009481
:1006600003F0E6F9F8BD70472DE9F0419846069F82
:1006700014460E4600281FD0B04205D1002C1BD0D6
:100680002836541EA4B2C761002C15D01A46314634
:1006900000F0B3FC0125C7610CE000BF05EB85004D
:1006A00006EBC001A1F12800424600F0A6FC6D1C3B
:1006B000ADB2C761A542F1D3BDE8F081FEE72DE9F7
:1006C000F0471D46089E9146884607001AD000F064
:1006D000E0FC0446384600F0E4FC01270146002215
:1006E0002088284400B220803EB9404503DBA3881F
:1006F00003444B4501DDE77200E0E2728C4201D019
:10070000E468EDE7BDE8F0872DE9F0471D46089E57
:100710009146884607001BD000F0BBFC04463846D3
:1007200000F0BFFC0123014600226088284400B28B
:10073000608046B9404504DBE7883844401E4845A0
:1007400001DDE37200E0E2728C4201D0E468ECE784
:10075000BDE8F0872DE9FF5F0024DDF838B09A4648
:100760002746A046A1465E4625460C21324800F0A9
:1007700011F901E06D1CADB216F8010B0028F9D19A
:10078000BAF1000F37D14FF6FF7A34E01BF807308B
:100790006D1E7F1CADB2BFB20A2B3DD02748029917
:1007A000C068467809FB0611067801980AB208FB72
:1007B000060001B2009802F043FC08F101001FFAA4
:1007C00080F8D0450ED309F101001FFA80F91A48CC
:1007D0004FF00008817A491C81728188A14200D2C1
:1007E0008480002414480188491C01801348C06893
:1007F0000078204484B2002DC8D11048C1680E484A
:100800000A7882714978C1718188A14200D28480BE
:1008100004B00948BDE8F09F09F101001FFA80F912
:1008200005484FF00008817A491C81728188A142F5
:1008300000D284800024DEE7AA08002044010020C2
:100840002DE9FF4F83B04B4800250095C068DDF8C7
:1008500040A09B4640782F46A846A94654461028FB
:1008600000D21020019000260C21434800F092F89D
:1008700001E0761CB6B214F8010B0028F9D13E4C09
:10088000BBF1000F41D14FF6FF7B3EE0761E1AF818
:100890000700B6B28DF800007F280CD90AEB0701DB
:1008A000BF1C49788DF80110761E6188BFB2491CC3
:1008B000B6B2618001E07F1CBFB20A2817D07F2842
:1008C00036D9059A01996B4609FB012002B20498BA
:1008D000404401B2039802F07DF900208DF8010038
:1008E00008F1100010351FFA80F8ADB23FE009F1B1
:1008F00001001FFA80F9A07A4FF00008401CA07296
:10090000A088A84200D2A5800025002EBED119489B
:10091000C0680178A1714078E07110202072607287
:10092000A088A84200D2A58007B01348BDE8F08F88
:1009300010486B46C0684078C0F1100105980A184D
:10094000019909FB012002B20498404401B20398C6
:1009500002F044FC0748C068027802EB08011FFA65
:1009600081F82188491C21800078284485B2D84527
:10097000CBD3BCE744010020C20800200020044B78
:100980004FF4806102461A54401C8842FBD37047E2
:1009900058040020002201E000F8012B491E89B212
:1009A000FAD27047014800F0B9BD000034020020BF
:1009B00030B590F840500124AC40C56B6C600468C1
:1009C00063604368102B036803D099600068C260BD
:1009D00030BD9A600068C16030BD70472DE9F05F9E
:1009E0008046500099460E46C2F101074FF0010AB9
:1009F000C0F1000B002514465DE0002F03DB0BF176
:100A0000020B5F44641E0AF1020A6D1C57445FEA40
:100A1000497011D5301901B208EB050000B201226E
:100A200003F008FCA54207DA701901B208EB0400D4
:100A300000B2012203F0FEFB5FEA897011D5301B82
:100A400001B208EB050000B2012203F0F3FBA5425E
:100A500007DA701B01B208EB040000B2012203F0B8
:100A6000E9FB5FEA097011D5701901B2A8EB040027
:100A700000B2012203F0DEFBA54207DA301901B211
:100A8000A8EB050000B2012203F0D4FB5FEAC970B5
:100A900011D0701B01B2A8EB040000B2012203F0D8
:100AA000C9FBA54207DA301B01B2A8EB050000B272
:100AB000012203F0BFFBA5429FDBBDE8F09F70B5AC
:100AC0008618002800DA002004460DB205E0012255
:100AD000294620B203F0AEFB641CB442F7DB70BDC4
:100AE00070B58E18002900DA00210C4605B205E029
:100AF000012221B2284603F09DFB641CB442F7DBBF
:100B000070BD2DE9FF5F8146500001278846C2F184
:100B10000106C0F1000B00251446DDF838A03AE0CC
:100B2000002E03DB0BF1020B5E44641EBF1C039816
:100B30006D1C3E44C00715D00AEB4400401CC2B2F5
:100B4000A8EB040109EB0500FFF7CAFFA54209DA8B
:100B50000AEB4500401CC2B2A8EB050109EB0400FA
:100B6000FFF7BEFF0398800715D50AEB4400401C31
:100B7000C2B2A8EB0401A9EB0500FFF7B1FFA54243
:100B800009DA0AEB4500401CC2B2A8EB0501A9EB4B
:100B90000400FFF7A5FFA542C2DBBDE8FF9F2DE9DA
:100BA000F0411C4616460D46074608E02819401E2F
:100BB00001B23246384600F00FFA641EA4B2002C8F
:100BC000F4D1BDE8F08100002DE9F84F0568044636
:100BD000067CA88800286CD0E988002969D0627C4E
:100BE000012A07D00096CBB2C2B2B5F90210B5F90E
:100BF000000054E0B4F90A0003F0A4FC0746B5F97C
:100C0000020003F09FFC01463A462B4803F080F9AE
:100C100003F05CFC0FFA80FAB4F9080003F092FCD0
:100C20000746B5F9000003F08DFC014622483A461C
:100C3000183003F06DF903F049FC0FFA80F9A08930
:100C400003F098FC0746A88803F094FC01461A4874
:100C50003A46303003F05CF903F038FC0FFA80F8C4
:100C6000E08903F087FC0746E88803F083FC01462F
:100C700011483A46483003F04BF903F027FC07B21D
:100C8000B7EB460F00DA7700B8EB460F01DA4FEA10
:100C90004608FBB208F0FF0251464846009600F0B5
:100CA00055F8A4F80890A4F80AA0A4F80C80E781ED
:100CB0002674BDE8F88F0000880000202DE9F84F69
:100CC00090460A9F8146C7F1000B02EB4B0AC419FC
:100CD0001D460E460AF0FF022046FFF7F0FE71198E
:100CE00000910AF0FF022046491EFFF7E8FE05EBDF
:100CF0004B0AF5190AF0FF0229464846FFF7F0FEB5
:100D000009EB08060AF0FF022946701EFFF7E8FE0D
:100D10002946204601233A46FFF760FEF61B294686
:100D2000701E02233A46FFF759FE0099701ECD1B34
:100D3000691E04233A46FFF751FE691E01B02046A2
:100D40003A46BDE8F04F0823FFF748BE2DE9F84FBB
:100D50001D460A9C16008A46814626D0002D24D0C6
:100D6000C4F1000806EB480082B209EB040738B270
:100D70000FFA8AF1FFF713FF05EB4800A0F1010815
:100D800009EB06000AEB0405001B01232246294655
:100D9000401ECDF80080FFF7B4FE294638460223F6
:100DA0002246CDF80080FFF7ACFEBDE8F88F72B6A2
:100DB000FEE700002DE9F84F8346C8180A9C0FFA99
:100DC00080FC101907B2D01702EB507424F0070012
:100DD000161A002A08DA06F10800C51700EB557547
:100DE00025F00705401B00E03046C5B20020BCF1ED
:100DF000000F6FDB002F6DDB80296BDA402A69DA88
:100E00003F2F00DD3F27DFF8A4A14FF0FF0E12F1C6
:100E1000080F04DCE21003FB120080B23246C0E08F
:100E20000C4602F10809B7E0002C03DA001B80B27F
:100E3000002406E07F2C04DBACEB0402104480B2FB
:100E4000ADE05B4B1B78022B4FD0032B21D0002A47
:100E50000CDBD31004EBC3131BF800801AF80360FB
:100E600008FA05F846EA08060AF80360B9F13F0FE8
:100E70002FDC75B31BF80060002AC5F1080326FAC1
:100E800003F67ADA1AF8048046EA08060AF80460DB
:100E90007EE0002A0CDBD31004EBC3131BF80080A8
:100EA0001AF8036008FA05F886EA08060AF80360EB
:100EB000B9F13F0F6CDC65B11BF80060002AC5F189
:100EC000080326FA03F606DA1AF8048086EA08060A
:100ED000DCE751E068E0D31004EBC31808EB0A0329
:100EE00093F8808086EA080650E0002A14DBD310CD
:100EF00004EBC31600961AF80630C5F108082EFA5E
:100F000008F63340009E0AF806301BF80060AE4039
:100F10003343009E0AF80630B9F13F0F38DC5DB369
:100F2000002A10DA1AF804600EFA05F31E400AF8D7
:100F300004601BF80030C5F1080823FA08F33343B6
:100F40000AF8043024E0D31004EBC31606EB0A03BE
:100F50000EFA05F693F8808008EA060883F8808088
:100F6000CDF800801BF80060C5F1080826FA08F6E5
:100F7000DDF8008008E000E00AE0D31004EBC318BD
:100F800008EB0A0393F8808046EA080683F880603D
:100F9000641C401C24B280B26445FFF645AF0FFAD2
:100FA00089F2BA42FFF63CAFBDE8F88F5804002042
:100FB00051000020F8B51D4616460C4640B1037896
:100FC000407800902A4631462046FFF7F3FEF8BDF0
:100FD000237860788C1CF4E770B514460E460546FD
:100FE00008E02819401E00B20122314603F022F920
:100FF000641EA4B2002CF4D170BD7EB516460D005F
:1010000012D0012390B100F044F8044600F049F8F2
:10101000A6B1012E2BD0827AC1880091CDE90120A2
:10102000428811440AB22DE000207EBD0020CDE9A7
:101030000003034602460146029026E0B0F9021082
:10104000C28801EB4206402E0BDDC372A17AE28812
:101050000092CDE90110A388B4F90220B4F9001080
:1010600013E0837A0290CDE900231144DAE7B0F966
:101070000220C1880A44402AE7DA837A0091CDE948
:10108000013012B28388B0F90010284602F01DFD2D
:101090007EBD002804D00189012901D00069FAE74A
:1010A0007047002807D0C168002904D00A89012AA6
:1010B00001D00846F7E7704770B50A484178846860
:1010C00001290DD10025457008E0A07D012804D13B
:1010D000A575E16809B120698847A468002CF4D19E
:1010E00070BD0000EC0000202DE9F04107461448D7
:1010F00001260025846846701EE0E07D01281AD193
:101100002068384420606168884214D32560607D7F
:10111000012803D9A0F10100607501E000D1E57557
:10112000207D012801D028B105E0E16819B12069CE
:10113000884700E0A675A468002CDED1BDE8F081E8
:10114000EC000020037A012B01D000207047C37906
:101150000B704179117000214171017201207047BB
:10116000F8B50024009490F824202546012A12D0D6
:10117000012280F824204A681F23072A0DD206681E
:10118000776B521E02EB820293409F430B689340A1
:101190001F43776319E00220F8BD06680D2A0AD2C2
:1011A000376BD21F02EB820293409F430B68934040
:1011B0001F43376309E0F76A0D3A02EB820293405E
:1011C0009F430B6893401F43F7620A680723066832
:1011D0000A2A0AD3F7680A3A02EB420293409F4375
:1011E0008B6893401F43F76008E0376902EB4202C7
:1011F00093409F438B6893401F4337610A68102ACE
:1012000001D0112A20D1124B02689A4217D193685B
:101210001B0219D4936843F40003936009681029F2
:1012200012D10C490C4A0968B1FBF2F101EB8101C2
:10123000490000E0491E00910029FBD104E0816AC9
:1012400041F020018162012480F824502046F8BD3D
:10125000002401400C00002040420F0070477047FE
:10126000704700002DE9F0414FF0000704003D46B3
:101270007ED0A06A002628B9E66284F82460204661
:1012800000F07EF82046FFF73BF9A16A01F010015B
:10129000014304D0A06A40F01000A06268E0A16A97
:1012A00021F4885141F00201A1626268E169237B67
:1012B0000A4347EA43010A43A1684FF48077B942E1
:1012C00008D0012906D0002194F814C0BCF1010F08
:1012D00002D00AE03946F7E7F3B1A36A43F02003EE
:1012E000A362E36A43F00103E3622368D3F804C016
:1012F0002CF4694C4CEA010CC3F804C023689968CB
:10130000DFF870C001EA0C0111439960A168B9428D
:101310000BD0012909D00CE0DFF85CC0A3690CEB0D
:1013200043330B4343F40061DFE7218A0D05A5F544
:1013300080152168CB6A23F470032B43CB622168AC
:1013400089680E4B1940914208D1E662A16A21F0EA
:10135000020141F00101A162BDE8F081A06A20F024
:10136000020040F01000A062E06A40F00100E0627C
:101370000120F1E7FDF7E1FF00E0FFFFFE0E1FFF98
:1013800070B586B000250646009501950295039537
:1013900000681A4988422ED11949886940F40070C2
:1013A0008861886900F400700490886940F0040046
:1013B00088618869694600F0040004900F2000905D
:1013C000032001900F4800F0CBF9104C0E48C4E9FF
:1013D00000058020C4E90250800020618000606127
:1013E0002020C4E90605204600F042F908B1FFF7C5
:1013F000DEFC3462666206B070BD0000002401406D
:10140000001002400008014008000240980100203E
:101410002DE9F047894604463B4900683B4F0E1DC5
:101420009046884201D0B84207D1306810F4702F3E
:1014300003D001252846BDE8F08794F82400012850
:101440000CD0012084F824002046FFF7BDF80500E9
:101450004FF0000004D084F82400EBE70220EAE714
:10146000A16A40F60162914341F48071A162216852
:10147000B94218D1326812F4702F14D0A16A41F425
:101480008011A1623168490505D5A16A21F4005196
:1014900041F48051A162A16AC9040AD5E16A21F030
:1014A0000601E16206E0A26A22F48012A2624968A3
:1014B000E9E7E06284F82400216A15488862216A1D
:1014C0001448C862216A1448086321686FF002005A
:1014D00008602068816841F480718160216843461A
:1014E0004A464C31206A00F0F1F820688168C1F367
:1014F00042410729816803D041F48011816099E756
:1015000041F4A001FAE70000002401400028014056
:1015100057050008BF050008A50500082DE9F05F84
:10152000C16B0C6801680B68D0F840C0042202FA55
:101530000CF2494DDFF824A1494E4A4FDFF828B19B
:10154000DFF828E122422CD05A072AD50A689206F1
:1015500003D40A6822F004020A600168A94201D19A
:10156000042219E0514501D1402215E0B14202D1D7
:101570004FF4806210E0B94202D14FF480420BE098
:10158000594502D14FF4802206E0714502D14FF453
:10159000800201E04FF080622F4908394A60C16A39
:1015A0003BE04FF0020808FA0CF818EA040F4FF07D
:1015B00000094FF0010235D05FEA837832D50B681D
:1015C0009B0605D40B6823F00A030B6080F82120EA
:1015D0000168A94201D1022219E0514501D120221E
:1015E00015E0B14202D14FF4007210E0B94202D1CD
:1015F0004FF400520BE0594502D14FF4003206E09F
:10160000714502D14FF4001201E04FF0007212490F
:1016100008394A6080F82090816A00291AD0BDE814
:10162000F05F0847082505FA0CF5254212D01B0784
:1016300010D50B6823F00E030B6090F84010C36BBD
:1016400002FA01F15960826380F8212080F820902D
:10165000016BE2E7BDE8F09F080002401C00024079
:101660003000024044000240580002406C0002403A
:1016700030B528B308C8134914221944B1FBF2F15C
:101680008900C16310498163022141771A6843F6DA
:10169000F0718A43D0E900142143D0E902452C437C
:1016A000214304692143446921438469214311434F
:1016B000196000214163012242770177084630BD5D
:1016C000012030BDF8FFFDBF0000024070B50446A8
:1016D00090F82000002501280CD0012084F820007B
:1016E00094F821600020012E06D084F82000022505
:1016F000284670BD022070BD022684F82160A063D8
:101700002068066826F0010606602046FFF750F9BB
:10171000E06A00282068016802D041F00E0106E06E
:1017200021F0040101602068016841F00A010160B4
:101730002068016841F001010160D9E770B50446F5
:1017400000F004F90546601C02D004480078044407
:1017500000F0FCF8401BA042FAD370BD000000204E
:101760002DE9F84FDFF8B891002409F1040A0AF1D5
:10177000040B23460F270BF1040EC9E00125A540F9
:101780002A40AA427DD1674ED1F804C0ACEB0608CE
:10179000B44532D014DCBCF1030F3AD009DCBCF103
:1017A000000F2AD0BCF1010F1CD0BCF1020F31D1C7
:1017B0001DE0BCF1110F17D0BCF1120F2AD119E0B6
:1017C000B8F5881F19D006DCB8F5803F15D0B8F5FC
:1017D000801F1FD111E0B8F5001F0ED0B8F5041F0F
:1017E00018D10AE0CB6815E0CB681B1D12E0CB686E
:1017F00008330FE0CB680C330CE08B682BB1012B66
:101800004FF0080303D0456104E0042302E00561C2
:1018100000E00023FF2A01D8064601E000F104069B
:101820004FEA840501D9A5F12005D6F8008007FA12
:1018300005FC28EA0C0803FA05F548EA0508C6F88D
:1018400000804D68ED0062D5374DAE6946F0010667
:10185000AE61AD6924F0030605F001050095334D36
:1018600006EB050CDCF80850A607360F07FA06F859
:1018700025EA0805DFF8B880404503D14FF000089D
:1018800017E044E0DFF8AC80404502D14FF001089A
:101890000FE0DFF8A480404502D14FF0020808E0D5
:1018A000DFF89880404502D14FF0030801E04FF087
:1018B000040808FA06F848EA0508CCF808804D68DC
:1018C000D9F80060ED034D4601D5164300E096437C
:1018D0002E604D68DAF80060AD03554601D5164319
:1018E00000E096432E604D68DBF80060ED025D4637
:1018F00001D5164300E096432E604D68DEF8006087
:10190000AD02754601D5164300E096432E60641C77
:101910000D682A46E5407FF431AFBDE8F88F00003E
:1019200000040140000011100010024000000140BE
:1019300000080140000C014000100140001401406B
:101940000AB1016170470904FBE7000001488068A3
:1019500070470000000000200248816802781144AE
:101960008160704700000020074810B5016841F011
:1019700010010160032000F075F80F2000F006F858
:1019800000F024F8002010BD0020024070B50D4D7D
:1019900004464FF47A712878B1FBF0F00A490968DF
:1019A000B1FBF0F000F066FC48B9102C07D2002221
:1019B0002146501E00F036F800206C6070BD0120FA
:1019C00070BD0000000000200C0000200C4808B58D
:1019D000816941F001018161816901F0010100919A
:1019E000C16941F08051C161C06900F08050009030
:1019F0000448416821F0E06141F00071416008BD98
:101A00000010024000000140002809DB00F01F0226
:101A1000012191404009800000F1E020C0F8001150
:101A200070470000F0B40E4B1B680C46C3F3022352
:101A3000C3F10705042D00D90425191D072901D27A
:101A4000002300E0DB1E012606FA05F1491E2140B5
:101A500099409E40761E16403143F0BC02F00ABB0E
:101A60000CED00E0064900F0070208684FF6FF039E
:101A7000184040EA0220034A104308607047000003
:101A80000CED00E00000FA052DE9F843054600786A
:101A9000354CC00754D0E0690026C00008D4E06986
:101AA00040F08050E061E069012600F08050009035
:101AB0002E480168C90512D40168804641F480713E
:101AC0000160FFF743FF074605E000BFFFF73EFF59
:101AD000C01B642823D8D8F80000C005F6D5206ABA
:101AE00010F4407021D0A98801F4407181421CD0CB
:101AF000206A1F49012220F440700A6000220A6017
:101B00002062C00711D0FFF721FF074641F2883855
:101B100008E000BFFFF71AFFC11B414502D90320AF
:101B2000BDE8F883206A8007F4D5206A696820F44C
:101B30004070084320621EB1E06920F08050E061EF
:101B40002878800705D56068A96820F440400843DC
:101B500060602878C00605D56068E96820F48000D8
:101B6000084360600020DBE7001002400070004086
:101B700040044242704700002DE9F0470F4605003F
:101B800061D0434E306800F00700B84209D2306897
:101B900020F0070038433060306800F00700B8429A
:101BA00051D128683B4C810712D5400703D56068A6
:101BB00040F4E06060602878000703D5606840F476
:101BC000605060606068A96820F0F00008436060C1
:101BD0002878C00728D06868012810D0216802281A
:101BE00010D0890700292EDA616821F00301014332
:101BF0006160FFF7ABFE804641F288390DE0216855
:101C00008903EFE78901EDE7FFF7A0FEA0EB0801EC
:101C1000494502D90320BDE8F0876068696800F093
:101C20000C00B0EB810FEFD1306800F00700B84234
:101C30000BD9306820F0070038433060306800F07E
:101C40000700B84201D00120E5E72878400705D514
:101C50006068E96820F4E060084360602878000765
:101C600006D56068296920F4605040EAC1006060D0
:101C700000F01EF86168084AC1F30311515CC840C6
:101C80000649086006480068FFF780FE0020C2E7AA
:101C90000020024000100240EA4800080C0000202A
:101CA0000400002001490120C8647047000042423E
:101CB00012A185B00FC98DE80F0014A0144A006866
:101CC00004905168134801F00C03042B10D0082B2A
:101CD0000ED1C1F38343C9031DF803000AD551682F
:101CE00004AAC1F34041515C0A4A5043B0FBF1F0F1
:101CF00005B0704708494843FAE7000002030405AD
:101D0000060708090A0B0C0D0E0F10100102000047
:101D10000010024000127A0000093D0010B5044C8A
:101D2000A068000603D5FFF725FF8020A07210BD34
:101D3000001002402DE9F84F040070D02078C04D0B
:101D4000C00749D06868C0F38100012807D06868DF
:101D5000C0F38100022809D16868C00306D528684D
:101D6000800339D560680028E7D035E06068B0F5B9
:101D7000803F0BD010B1B0F5A02F11D0286820F40F
:101D800080302860286820F4802002E0286840F431
:101D900080302860606890B1FFF7D8FD06460AE001
:101DA000286840F480202860F0E700BFFFF7CEFDF0
:101DB000801B642873D828688003F7D50CE0FFF7F0
:101DC000C5FD064605E000BFFFF7C0FD801B642887
:101DD000F0D828688003F7D420789A4E80074FF017
:101DE00001094FF0000839D5686810F00C0F07D0D2
:101DF0006868C0F38100022809D16868C00306D46E
:101E00002868800714D52069012808D110E02069CE
:101E1000B0B1C6F80090FFF799FD074605E00AE16A
:101E2000FFF794FDC01B0228C4D828688007F7D5A7
:101E30002868616920F0F80040EAC10028600DE0E0
:101E4000C6F80080FFF782FD074604E0FFF77EFD3D
:101E5000C01B022823D828688007F7D42078000701
:101E60002CD57948A169D9B1C0F80090FFF76EFD73
:101E7000074604E0FFF76AFDC01B02280FD8686A16
:101E80008007F7D571484FF4FA510068B0FBF1F0C4
:101E9000009000BF0098411E0091FAD20EE080E051
:101EA000C0F80080FFF752FD074604E0FFF74EFD43
:101EB000C01B022875D8686A8007F7D420784007CD
:101EC00060D5E8690027C00008D4E86940F0805078
:101ED000E861E869012700F0805000905C480168E3
:101EE000C90513D40168834641F480710160FFF78E
:101EF0002DFD824606E000BFFFF728FDA0EB0A009B
:101F000064284ED8DBF80000C005F5D5E06801284C
:101F10000AD008B1052813D0286A20F001002862F1
:101F2000286A20F0040002E0286A40F001002862DC
:101F3000E06841F2883B98B1FFF708FD82460BE06C
:101F4000286A40F004002862EEE700BFFFF7FEFCBD
:101F5000A0EB0A0159455AD8286A8007F6D50CE04B
:101F6000FFF7F4FC824605E0FFF7F0FCA0EB0A0166
:101F700059454CD8286A8007F6D41FB1E86920F08B
:101F80008050E861E06988B36968C1F38101022982
:101F900044D00228C6F8608004D0FFF7D7FC04467E
:101FA00038E034E0FFF7D2FC074604E0FFF7CEFC50
:101FB000C01B02282BD828688001F7D4206AB0F50E
:101FC000803F05D16868A16820F40030084368604C
:101FD000D4E908010843696821F474110843686072
:101FE000C6F86090FFF7B2FC044606E025E000BFAB
:101FF000FFF7ACFC001B022809D828688001F7D540
:102000001BE000BFFFF7A2FC001B022802D903203F
:10201000BDE8F88F28688001F4D40EE00128F7D0DD
:102020006868226A00F48031914204D1616A00F448
:102030007010884201D00120EAE70020E8E70000A4
:102040000010024000004242800442420C00002086
:1020500000700040704770B5040009D0606A002528
:1020600040B125616561A56294F8510040B10CE072
:10207000012070BD6068B0F5827FF4D0E561F2E7C1
:1020800084F85050204600F03FF8022084F85100B8
:102090002068016821F040010160A088218900F4D6
:1020A000827001F404410843A18901F400610843EE
:1020B000217C01F002010843217D01F00101084368
:1020C000218B01F400710843217F01F0380108439E
:1020D00094F8201001F080010843218D01F4005193
:1020E000084321680860A069042101EA10402168C2
:1020F00048602068C16921F40061C1616565012003
:1021000084F85100002070BD70B586B000250646E9
:10211000009501950295039500681A4988422ED1D1
:102120001949886940F480508861886900F48050BA
:102130000490886940F0040088618869694600F06D
:1021400004000490A020009002200190032003903E
:102150000E48FFF705FB0F4C0D4820601020C4E926
:1021600001058020C4E903056561A5612046E5619C
:10217000FFF77EFA08B1FEF71AFEB464666206B095
:1021800070BD000000300140001002400008014016
:1021900030000240340200202DE9F041044690F85E
:1021A00050000026012809D0012784F8507094F8C7
:1021B00051000025012804D002264EE00220BDE88F
:1021C000F08189B182B1032084F8510065652163F3
:1021D000A286E286A56365642564A587E587A06875
:1021E000B0F5004F02D00BE0012636E02068016810
:1021F00021F0400101602068016841F480410160E4
:10220000A16C1848C862A16C17488862A16C174875
:102210000863A06C4563E38E2268216B0C32A06CCE
:10222000FFF754FA38B1606D40F010006065012688
:1022300084F8517011E020680168490603D40168F0
:1022400041F0400101602068416841F02001416097
:102250002068416841F00201416084F850503046E6
:10226000ADE700007B3600088536000859360008C7
:102270007047704710B5401EB0F1807F01D3012038
:1022800010BD4FF0E02460610F21601701F0F2FEF5
:102290000020A06107202061002010BD704770471A
:1022A00070B590F83C20012A26D0012480F83C40EB
:1022B000022280F83D2003685A689D6822F070066B
:1022C0000A6832435A600D4B02689A4208D0B2F154
:1022D000804F05D00A4B9A4202D00A4B9A4204D151
:1022E000496825F080031943916080F83D40002142
:1022F00080F83C10084670BD022070BD002C0140E3
:10230000000400400008004010B5040003D094F819
:102310003D0010B107E0012010BD002084F83C0012
:10232000204600F01FF8022084F83D00211D20689F
:1023300001F072FD012084F8460084F83E0084F824
:102340003F0084F8400084F8410084F8420084F89B
:10235000430084F8440084F8450084F83D000020E0
:1023600010BD000008B500680B49884212D10B4827
:10237000C16941F00201C161C069002200F00200A0
:10238000009011461D20FFF74DFBBDE808401D20C1
:10239000FFF73ABB08BD00000004004000100240F7
:1023A00090F83D10012901D001207047022180F8EA
:1023B0003D100168CA6842F00102CA6000680B491A
:1023C000884208D0B0F1804F05D00949884202D038
:1023D0000849884204D1816801F00701062903D029
:1023E000016841F00101016000207047002C0140AC
:1023F000000400400008004070B5044690F83C001E
:10240000012817D0012584F83C50022084F83D00B3
:102410002068826822F0770222F47F428260086896
:10242000502830D00DDC20284DD005DC98B3102882
:102430003BD148E0022070BD302844D0402834D140
:1024400039E0602828D0702806D0B0F5805F2CD005
:10245000B0F5005F29D10AE0CB68D1E901212068FD
:1024600001F010FD2068816841F0770109E0CB6838
:10247000D1E90121206801F005FD2068816841F45F
:102480008041816011E0CA684968206801F00CFD54
:102490005021206807E016E0CA684968206801F00A
:1024A00014FD6021206801F0F7FC84F83D50002005
:1024B00084F83C0070BDCA684968206801F0F4FCEB
:1024C00040212068EFE7226801461046EBE770479D
:1024D00070B50446006801694FF00005C9438907DB
:1024E00015D4C168C943890711D4E91E01610120CF
:1024F0002077206880698007204602D0FFF7E7FF39
:1025000004E000F098F8204600F096F8257720685F
:102510000169C943490717D4C168C943490713D49E
:102520006FF004010161022020772068806910F4B7
:10253000407F204602D0FFF7CAFF04E000F07BF89E
:10254000204600F079F8257720680169C94309071A
:1025500016D4C168C943090712D46FF0080101619C
:10256000042020772068C0698007204602D0FFF74A
:10257000AEFF04E000F05FF8204600F05DF825773C
:1025800020680169C943C90617D4C168C943C9068F
:1025900013D46FF010010161082020772068C06912
:1025A00010F4407F204602D0FFF791FF04E000F0D6
:1025B00042F8204600F040F8257720680169C943B9
:1025C000C90708D1C168C943C90704D1891E01617F
:1025D000204600F033F820680169C943090609D490
:1025E000C168C943090605D46FF080010161204626
:1025F000FFF754FE20680169C943490609D4C16840
:10260000C943490605D46FF040010161204600F03E
:102610001FF820680169C94389060BD4C168C94302
:10262000890607D46FF0200101612046BDE87040A3
:10263000FFF735BE70BD7047704700000349884200
:1026400002D1322000F008BE70470000780200205E
:102650007047FEE70D4BDA6812B9D86004E01A46FD
:10266000D368002BFBD1D060017061B100214170B3
:102670004FF4967141800021017141718171C171E6
:102680000172C16070470121F1E70000EC000020F9
:1026900070B5204900224FF49675C968012336E0D1
:1026A0000C7A012C32D04C780E78B44220D14C8870
:1026B000844207D9241A2404240C4C800DD00C79B0
:1026C00014B107E04A8008E0C8244C804C79641CAF
:1026D0004C710B71CB714C88C4B98C790444E4B251
:1026E0008C71C82C01D98A710B720224CC710DE057
:1026F0000A718A714C88AC4201D204444C80CC7976
:10270000012C03D14C88AC4200D30B72C96800295C
:10271000C6D170BDEC0000207CB5002506468DF8C2
:1027200000508DF8045001F04DF8154CE17A8842C4
:102730000ED00120FFF702F801F044F80146E07ADC
:10274000814205D0307001F03DF8E072A07015E0D4
:10275000A1780C48491E032902D80121417000E0EC
:10276000457001AA69460748FEF7ECFC002806D030
:102770009DF80000022801D1A078307001207CBDB6
:102780004C000020580800202DE9FC5F1E469346AF
:102790000446F9B1194D2079C00719D0184F2268A5
:1027A0004FF0000838684FF00109042A14D0BA46E7
:1027B000012200F093F9CDE9006907465B463246F5
:1027C0001946DAF80000A8473844C0B2022811D0F0
:1027D000BDE8FC9F0B4DDEE7012200F07FF90028E9
:1027E000F6D0CDE900695B46324619463868A847FD
:1027F0000028EDD084F80480EAE7000025380008BE
:102800007400002021390008FEB5002420480094FF
:1028100001941E49029401608915816001250573A8
:102820000475042606614FF460214460C161FEF71F
:1028300019FD08B1FEF7BBFACDE900456946144819
:102840000294FEF78DFC08B1FEF7B1FA0224CDE93F
:10285000005469460E48FEF783FC08B1FEF7A7FA5C
:102860000094032469460A480194FEF779FC08B1F4
:10287000FEF79DFACDE9004669460548FEF770FC73
:10288000002801D0FEF793FAFEBD000000240140AD
:1028900068010020094808B5416941F00101416122
:1028A0004069002200F00100009011460D20FFF762
:1028B000B9F8BDE808400D20FFF7A6B800100240A7
:1028C00070B586B000241C480094019402940394CF
:1028D000816941F020018161816901F02001049149
:1028E000816941F004018161816901F00401049171
:1028F000816941F0080181618069104E00F0080093
:102900004FF440650490002229463046FFF718F83E
:102910000220CDE902400095012569460195304627
:10292000FEF71EFF28038DE8310069463046FEF7AA
:1029300017FF06B070BD000000100240000C0140FF
:10294000104810B50E4901604FF4827141600021BA
:102950008160C1604FF400720161C0E90512082274
:10296000C0E90721416281620A21C162FFF773FB5E
:10297000002803D0BDE81040FEF719BA10BD0000D2
:1029800000300140DC01002010B586B0002417485B
:1029900000940194029403940494134905940160F3
:1029A00040F2CF21C0E9011441F28731C0E903149C
:1029B0008461FFF7A9FC08B1FEF7F9F94FF48050E4
:1029C000009069460948FFF717FD08B1FEF7EFF9D7
:1029D000049404A905480594FFF762FC002801D07F
:1029E000FEF7E5F906B010BD0004004078020020B3
:1029F0003EB519481749012401604474303917481D
:102A000000F04AFC0023164A19463220FDF71AFE50
:102A100010210020CDE90014024602900146302327
:102A20000C4801F052F80F480A490090022309228D
:102A30000846FDF719FE074800F016F80920009037
:102A400004480F233C220021243800F0DBFD84726F
:102A50003EBD0000F002002074000020E8000020CD
:102A6000D52E00087141000800B5020007D0FEF71E
:102A700010FB03461046FEF714FBC360186100BD4F
:102A8000FEE7704703482822402100680389024876
:102A900000F018BD74000020CC0200203F2300226B
:102AA00011460148FFF770BEC002002070B50E4607
:102AB000050011D0FEF7F5FA044628460EB9FEF7D8
:102AC000E8FAA04208D0C1680288A1420A80428880
:102AD0004A8001D0C968F7E770BD00002DE9F047D2
:102AE0001746884605004FF001094FF0000609D04F
:102AF0002846FEF7CEFA04462846FEF7D2FA0546E7
:102B0000AC4202D10120BDE8F087314801684FF0A6
:102B10007E50B1F17C5F05DA01F016FC01F0F2FCA9
:102B2000C6B202E0814200DA0126E468B8F1000F83
:102B300022D02069F7B3B0F90010808801EB000AB9
:102B4000B4F90010A1EB0A0000B288B1084601F008
:102B5000F9FC81460AF1010001F0F4FC01464A4605
:102B60001B4801F0D5F901F0B1FC20804FF00009BD
:102B7000AC42DAD14846C6E72069F7B1B0F9021095
:102B8000C08801EB000AB4F90210A1EB0A0000B200
:102B90000028EDD0084601F0D5FC81460AEB06007E
:102BA00001F0D0FC01464A46094801F0B1F901F0B4
:102BB0008DFC00E006E06080D8E74188C0880844CA
:102BC0006080D5E70188808808442080D0E7000035
:102BD0002C0100202DE9FC5F804656A014460068B9
:102BE000009055480D4682469B4601F0FDFA0026AE
:102BF0000746B146022843D3584601F0F5FA0228A9
:102C00003ED19BF800007F283AD97F1E3BE000BFF1
:102C10001AF806107F2935D9761C9BF801101AF88E
:102C2000062009F101098A422CD10AEB060111F8AC
:102C3000011C814226D1B9F1000F21D0B8F1000F5B
:102C400024D005F10F0104F10F00002D24DB002C2E
:102C500022DBB8F804208A421EDDB8F80620824242
:102C60001ADDB8F80200204403B2B8F80000284486
:102C700002B2324800EB491168462039FEF79AF952
:102C8000BDE8FC9F761CBE42C2D3F9E72B49234620
:102C900001EB49112A46EFE7002D01DA6A4200E014
:102CA000002212B20192002C01DA624200E00022FE
:102CB000B8F8043012B28B4201DD102100E0591B3C
:102CC0000FFA81FAB8F80610814201DD102000E009
:102CD000081B0FFA80FBD6B229E00198C7B222E0A8
:102CE0004FEA4900801E00EBD601144806F00702A7
:102CF00000EB01100121C05D9140084205D0A019F0
:102D000002B2E81901B2012308E00D480078022858
:102D100007D1A01902B2E81901B20023404600F021
:102D200073F97F1CFFB25745DADB761CF6B25E45BD
:102D3000D3DBA5E710100000285100082D51000832
:102D4000510000202DE9F14F3C4800250468002C7B
:102D500071D02046016939B10289012A04D0CA7AAA
:102D6000012A01D00846F5E7814620004FF0000611
:102D700001D1304609E0C16839B10A89012A04D07D
:102D8000C27A012A01D00846F5E780460CB93446DC
:102D900004E02089012801D02469FAE7200001D14C
:102DA000304606E0C16821B10A89012A01D00846EF
:102DB000F8E7DFF888B007464FF0010AABF1280BBF
:102DC000206A28B34C4501D1012500E025B394F8D1
:102DD0002410490624D402880099114489B2018044
:102DE000206A4288914210D30680E08C40F00100B6
:102DF000E08408E00680E08C40F00100E084E169B6
:102E000009B1204688478BF809A0444500D1002528
:102E1000BC4210D0E468D3E794F824104906F4D5F6
:102E200002880099114489B20180206A4288914247
:102E3000E0D2EAE7FFE7BDE8F88F00007400002069
:102E400010B500F0F7F9FFF7D3FD04480021006842
:102E5000FFF72CFE02490120087010BD740000200D
:102E600054000020002809D0002305E039B1006992
:102E7000002803D05B1C9BB29342F7D37047C06815
:102E8000F6E7002808D00189012905D00169CA7A2E
:102E9000012A01D00846F6E7704700280AD0C16829
:102EA000002907D00A89012A04D0C27A012A01D058
:102EB0000846F4E77047000010B50446FDF7A8F98E
:102EC000002803D00249CA682244CA6010BD00002D
:102ED0004C00002004490A7908B1104402E0002A9D
:102EE00001D10120087170476C0000202DE9F041EC
:102EF000434CE07800B3601CFFF70EFCFEF7DCF8F3
:102F0000607A002618B166720020FFF7E3FFDFF851
:102F1000F08008F1200898F8040000286BD008F130
:102F200008052868002866D000F0A8FEFDF726FDF9
:102F3000E079012805D00DE03148C01C00F0D2FE38
:102F4000DCE7206928602661A07901F0A3F8A6716A
:102F50000220E071D5E90001814202D0207801F021
:102F600099F8FFF78EFD2748006801F09DF8286862
:102F700000F0D6FDFFF792FD2868626972B1FEF796
:102F800088F890F82410090608D501E092682AB163
:102F900011688142FAD1506800B180472B68184609
:102FA000FFF76FFF05461846FFF777FF07462846ED
:102FB00001F0A8F818B995F82400800603D5E9694E
:102FC00009B128468847BD4201D0ED68EFE70C48BB
:102FD0002830817C012904D103216171FDF7F4FDC2
:102FE0006671FFF74FFD01F06FF8667098F80410F6
:102FF000491E88F80410BDE8F041FDF734BB00001D
:103000004C000020E8000020F0B4002815D004880F
:10301000458886880C44154424B22DB28E420CDDBE
:10302000C088904209DD002907DB002A05DB29461C
:103030002046F0BC1A4601F0FDB8F0BC7047000015
:103040002DE9FE4F1546634A82460E46D068A3F12D
:1030500020075F2F01784478894600D32023203B46
:1030600003F0FF0B5B4BBAF1000F9B6835D0771E66
:10307000CF197DD4691E14EB010C79D4BAF8041071
:10308000B14275DDBAF80620AA4271DD002E39DBA7
:10309000002D37DB8F4235DA944533DA04EB8401B7
:1030A000C1F39C020A21B2FBF1F701FB17210029B1
:1030B0004FEAD40100D0491C0BFB09F202FB01319D
:1030C000BAF802202A4413B2BAF80020324412B2ED
:1030D00003B0BDE8F04FFDF76DBF04EB8401C1F311
:1030E0009C020A21B2FBF1F701FB172100294FEAEC
:1030F000D40100D0491C0BFB09F202FB01312B4625
:103100003246E5E7002E01DA704200E0002000B20E
:103110000290002D01DA684200E0002006EB09036E
:103120005B1E00B28B4201DA494600E0891B09B2FE
:1031300001912919491E914201DA214600E0511BF3
:1031400009B200913EE00298C7B236E004EB840079
:10315000C0F39C000A21B0FBF1F201FB1200002831
:103160004FEAD40000D0401C0BFB09F1484300E0BB
:103170002DE04FEAD80209FB020116488068384466
:10318000095C08F00700C14011F0010F06D008EB00
:10319000050002B2B81901B2012309E00E48007817
:1031A000022808D108EB050002B2B81901B20023C9
:1031B0005046FFF729FF7F1CFFB201988742C5DB0D
:1031C00008F1010000F0FF0800988045BBDBBDE876
:1031D000FE8F000044010020510000202DE9F0473F
:1031E0000F4681461D4690460C211048FDF7D2FB44
:1031F0000E4C0F4E0CE0424639464846FFF720FF82
:10320000F0680078384407B22088401C20806D1C8C
:103210002B78002BEFD1F0680178A1714078E07134
:1032200020884843A0800148BDE8F0879E08002020
:1032300044010020064810B5002141740121817429
:1032400000F05AF8BDE8104001210248FFF702BA29
:10325000740000205808002010B504460748007A82
:1032600000280AD02046FFF76DFD2046FDF73CFF01
:103270002046BDE81040FFF70BBA10BD4C000020FF
:10328000002808D00279D30703D142F0010201607F
:1032900002718068F4E7704702680AB9016004E0CF
:1032A000906808B10246FBE7916000200860087151
:1032B000886008467047FEF731FDFEE7F0B504462A
:1032C000002901DA4A4200E00A4696B200280AD0F4
:1032D0000025CF0F0DE001223946FFF7C3FD08B1ED
:1032E000A04201D12046F0BD817A012901D16D1C97
:1032F000ADB2B542EFD3F0BD70B50122564D940288
:1033000021462846FEF71CFB6420FEF717FA002230
:1033100021462846FEF714FB6420FEF70FFA01222F
:1033200021462846FEF70CFB0021AE2000F0ACF849
:103330000021084600F0A8F80021102000F0A4F8B1
:103340000021402000F0A0F80021812000F09CF82E
:103350000021CF2000F098F80021A12000F094F87F
:103360000021C82000F090F80021A62000F08CF881
:103370000021A82000F088F800213F2000F084F808
:103380000021D32000F080F80021084600F07CF8EE
:103390000021D52000F078F80021802000F074F89A
:1033A0000021D92000F070F80021F12000F06CF825
:1033B0000021DA2000F068F80021122000F064F803
:1033C0000021DB2000F060F80021402000F05CF8D4
:1033D0000021202000F058F80021084600F054F8A1
:1033E00000218D2000F050F80021142000F04CF84E
:1033F0000021A42000F048F80021A62000F044F8A5
:103400000021AF2000F040F80021AF2000F03CF890
:103410005FF0000404F1B000C0B2002100F034F805
:103420000021084600F030F80021102000F02CF8B0
:1034300000250121002000F027F86D1CEDB2802D41
:10344000F7D3641CE4B2082CE4D3BDE8704000213B
:10345000084600F003B80000000C014010B5044617
:10346000B031C8B2002100F00FF8102040EA14106B
:10347000002100F009F804F00F00BDE8104040F012
:1034800001000021AFF3008073B50B4D4FF40064D1
:1034900009B1012200E0002221462846FEF750FA39
:1034A000012269460548FEF777FE0122214628469B
:1034B000FEF746FA7CBD0000000C0140DC01002054
:1034C000704700002DE9F84F0446808892468B46ED
:1034D000984200D203462380227A94F80A8094F816
:1034E0000BC05142B8F1000F4FEACC7C1DD0BCF1AB
:1034F000000F3BD094F807C00CEB4101594391FBFE
:10350000F0F000EB42000FFA80F8608801F032F82A
:103510000090404601F016F8014604F10C00009AB4
:1035200000F0F6FC00F0EEFF0BE0BCF1000F1AD04B
:1035300094F807C00CEB41015943B1FBF0F000EBEC
:1035400042006080217A80B2B0EB410F01D2480086
:103550006080E27A2A4862B1012A13D0022A1DD083
:10356000032A34D126E094F806C0E3E794F806C0B5
:10357000C2E7B4F80290E5790BEB09025F465646C4
:10358000028014E094F8069065880BEB59020280E3
:103590005F4656460AEB0502428018E0A37962882E
:1035A0005B449B1A1FB2E57956469146078006EBAD
:1035B0005502F1E7E379658803EB0A02521B94F8A0
:1035C000069016B20BEB590202805F464680607A85
:1035D000800707D40091EBB209F0FF02314638466C
:1035E000FDF7B4FB607AC00707D1207A0090E37939
:1035F000A27951465846FDF761FB0148BDE8F88FB6
:103600003A0000202DE9F843044611481D461646AD
:103610000F460090DDF820800E4B4FF07C520F21BA
:1036200004F10C0000F063FC00202080A4F804806A
:10363000A671E571AE4200D2354669082172A072CA
:1036400007F00301E17260722046BDE8F8830000D4
:10365000CDCC4CBECDCC4C3E10B5406A01684A681A
:1036600022F003024A60416D41F0100141650121E1
:1036700080F85110FEF7EEFC10BD10B5406AFEF761
:10368000F8FD10BD38B50546446AFEF75FF90246FD
:1036900028680068800623D42068416821F0200152
:1036A00041602068416821F00201416064212046A8
:1036B00000F01AF818B1606D40F020006065A06855
:1036C000002118B92068C26880680090E186012056
:1036D00084F85100606D18B12046FEF7BBFC38BD80
:1036E0002046FEF7C5FD38BD38B50B4600920446AE
:1036F0000022802100F008F8002804D0606D40F01E
:1037000020006065032038BD2DE9F8431E46914630
:1037100088460446089DFEF719F9401B351AFEF746
:1037200015F9074625480068C0F3CB30684338E0F8
:10373000701C37D0FEF70AF9C01BA84203D215B19E
:10374000009860B32CE02068416821F0E0014160FE
:103750006068B0F5827F0BD1A068B0F5004F02D051
:10376000B0F5806F04D12068016821F0400101604C
:10377000A06AB0F5005F09D12068016821F400510A
:1037800001602068016841F400510160012084F863
:103790005100002084F850000320BDE8F883002584
:1037A000401E00902068816838EA010004D00021A2
:1037B0004945BDD10020F0E70121F9E70C000020C8
:1037C00070470000F0B5154840F65C521449046893
:1037D000944201D903201CE0A4F2B9674FF4C775E5
:1037E00000234FF4D276AF4201D88B7203E0B4428B
:1037F00001D204200DE04068904201D9022008E087
:10380000A0F2B962AA4201D88B7204E0B04202D29F
:1038100001208872F0BD887AF0BD000058010020B8
:103820004C0000202DE9FF4F3C4881B08B46DDE97C
:103830000E59016800271C4692464FF001084FF0D0
:103840007E50B1F17C5F05DA00F07EFD00F05AFE9B
:10385000C7B202E0814200DA01270198FDF719FCA6
:10386000818C8A050AD441F4007181840023524678
:103870005946CDF800900198FCF721FFA34500DDE3
:10388000A3465046554500DD05460198B0F9006055
:103890000020A6420BDAB9F1000F05D0204600F057
:1038A00051FE0446F01B12E00090A01B2EE001998F
:1038B0008A88B1180091491EA9421FDDB9F1000F95
:1038C00020D0284600F03EFE04460098384400F020
:1038D00039FE01462246114800F01AFB01462046F7
:1038E00000F08EFF00F0F2FD03B20120009052467E
:1038F00059460198FCF7E3FE4FF0000805B040463A
:10390000BDE8F08F0090A81B801A401C03B25246FD
:1039100059460198FCF7D3FEF0E70000FC000020B8
:103920002DE9FF4F81B01C46DDE90E5A93465FEA50
:1039300000094FF000074FF001080CD0374801682C
:103940004FF07E50B1F17C5F09DA00F0FDFC00F031
:10395000D9FDC7B206E0012005B0BDE8F08F814275
:1039600000DA01274846FDF794FB818CCA050AD48A
:1039700041F48071818400235A46CDF800A0484666
:103980000299FCF7C1FE0298A04200DD029458465D
:103990005D4500DD0546B9F902600022A64213DA52
:1039A000BAF1000F05D0204600F0CCFD0446F01B14
:1039B0001AE0A01B00922CE05A4648460299FCF7F8
:1039C000A3FE4FF0000826E0B9F80610701800902A
:1039D000401EA8421FDDBAF1000F16D0284600F0A5
:1039E000B1FD04460098384400F0ACFD0146224683
:1039F0000A4800F08DFA0146204600F001FF00F071
:103A000065FD03B201200090D6E7A81B401A401CB8
:103A1000009203B2D0E740469EE700001401002068
:103A20000249821CC1E902207047000044010020C5
:103A300070B50028049E14D00A4DAC6814B9A86073
:103A400004E02C46A568002DFBD1A06000240125D0
:103A50008460C5758475C0E9004102754475C0E98C
:103A6000033670BDEC000020F0B5857A002683880F
:103A70004788C4796D1C2FB3407AA04200D9044610
:103A80006C43A0B29AB1147814B19C4200D9234679
:103A9000547814B1844200D92046947814B19C42E1
:103AA00000D22346D27812B1824200D210468A88D0
:103AB0009A4202D1CA88824202D08B80C8800126F5
:103AC0003046F0BD6543A8B2DCE72DE9F0430F4670
:103AD000DDE90891DDF81C80164604001DD00025A4
:103AE00041B10846FDF7DDFAC46020610089401C41
:103AF000208102E001202081256127806680A3804B
:103B0000A4F8068084F80A90E572E5606561A56115
:103B1000E561A584E58420462562BDE8F0830000C8
:103B20002DE9F84FDFF850810346D8F81800FDF76B
:103B3000B8FA8346D8F81C00FFF7AFF9824618465A
:103B4000FDF7A7FA81461846FDF7ABFA0090184634
:103B5000FFF797F905461846FFF79FF90746D8F88B
:103B60001800002658B94846C8F81890FDF799FA89
:103B700083462846C8F81C50FFF78FF98246D8F8CC
:103B800018404C454CD000BF94F82400400706D59F
:103B9000E08C40F00400E084E16920468847D8F8D2
:103BA0001C00844201D1012600E056B194F82400A3
:103BB000C00606D5E08C40F01000E084E1692046A4
:103BC0008847544500D100265C4501D0E468DBE716
:103BD0004FEA090494F82400800706D5E08C40F0F1
:103BE0000200E084E16920468847AC4201D1012609
:103BF00000E056B194F82400000706D5E08C40F0B0
:103C00000800E084E16920468847BC4200D10026D4
:103C10000098844201D0E468DCE7C8F8189022E0FC
:103C2000D8F81C40AC4224D094F82400C00606D535
:103C3000E08C40F01000E084E1692046884754455C
:103C400001D0E468F0E72C4694F82400000706D57C
:103C5000E08C40F00800E084E16920468847BC42DF
:103C600001D0E468F0E7C8F81C50BDE8F84FFCF755
:103C700085BEBDE8F88F00004C00002010B5184C40
:103C80000023A4F12802D4E90001814200D0D371BD
:103C90006060117999B151781170012915D002290C
:103CA00016D0032919D0042916D1FDF7F2F980693D
:103CB000002811D0817A01290ED153700BE00848F9
:103CC000BDE81040243800F00DB84FF0FF3100E09F
:103CD0000121FFF7F3FA206010BD4069E8E700001A
:103CE00074000020044A0021D31C1170984201D1B5
:103CF00091705170704700004C0000202DE9F04198
:103D000005460746002634460C211E48FCF742FEB5
:103D100001E0761CB6B217F8010B0028F9D11A4958
:103D2000CA68184914E02B5C7F2B07D94B88401CCC
:103D30005B1C103480B24B80A4B207E00A2B17D072
:103D4000137823449CB20B885B1C0B80401C80B210
:103D5000B042E8D3107888715078C871102008728A
:103D600048728888A04200D28C800648BDE8F08165
:103D70008B7A5B1C8B728B88A34200D28C800024D0
:103D8000E1E70000CE08002044010020FDF7E4BD7B
:103D900030B593B028216846FCF769FA14210AA8C7
:103DA000FCF765FA002501200F9510951195010487
:103DB00012958DE8230004904FF4E010CDE908102F
:103DC000022407946846FDF7B5FF08B172B6FEE716
:103DD0000AA90F2081E831004FF48060CDE90D057C
:103DE00002210AA8FDF7C8FE08B172B6FEE74FF43B
:103DF000004011900F940FA8FDF746FE08B172B66F
:103E0000FEE7FDF74FFF13B030BD70470148FEF7E6
:103E10005FBB000078020020F0B50268164B174C1B
:103E2000174D4FF08047984205D0B84203D0A042CA
:103E300001D0A84203D122F070064A68324398426A
:103E400005D0B84203D0A04201D0A84203D122F449
:103E50004074CA6822434C6922F080022243026007
:103E60008A68C2620A688262984201D10969016364
:103E700001214161F0BD0000002C01400004004020
:103E80000008004010B5846842EA032224F47F440D
:103E90000A432243826010BD826822F070020A4306
:103EA00042F007018160704710B5036A046A24F08C
:103EB00001040462846924F0F00444EA021423F04B
:103EC0000A020A438461026210BD10B5036A23F03E
:103ED000100303628369046A23F4704343EA0232E5
:103EE00024F0A00343EA01118261016210BD2DE9B3
:103EF000F0410F461E46154604461821DDF818808D
:103F0000FCF748FD84E86001A7812046BDE8F08108
:103F10002DE9F04190460A4604464146104600F01D
:103F20006FFC0546216800F06DFB0646A08900F095
:103F300021FB314600F032FBA08902D200F01AFBCF
:103F40000CE0404200F0FEFA314600F027FC04D2BB
:103F5000A089404200F0F6FA00E0304606462946C5
:103F6000606900F083F907466061A08900F002FBF8
:103F7000394600F013FBA08902D200F0FBFA0CE0F6
:103F8000404200F0DFFA616900F008FC04D2A08929
:103F9000404200F0D7FA00E060696061284621697C
:103FA00000F02EFC07462561A08900F0E3FA3946AF
:103FB00000F0F4FAA08902D200F0DCFA0CE04042F2
:103FC00000F0C0FA394600F0E9FB04D2A089404273
:103FD00000F0B8FA00E03846A16800F013FB05468F
:103FE0006168606900F00EFB314600F03FF9294638
:103FF00000F03CF90546A08900F0BCFA294600F023
:10400000CDFAA08902D200F0B5FA0CE0404200F0EF
:1040100099FA294600F0C2FB04D2A089404200F080
:1040200091FA00E0284601464046BDE8F04100F024
:104030001DB9FEE710B57F2818DA402916DA0028E6
:1040400014DB002912DBCB1701EB5374E31024F0CF
:10405000070400EBC3100C1B054B0121A140002AF3
:104060001A5C01D00A4300E08A431A5410BD0000D4
:10407000580400200907090E002804DB00F1E020A5
:1040800080F80014704700F00F0000F1E02080F885
:10409000141D704703490A78002A02D048600020A6
:1040A00008707047EC00002010B5002808D0054CBF
:1040B0002178002904D16168FFF7E2F8012020701F
:1040C00010BD0000EC00002010B500210846FFF7ED
:1040D000C5F90122D1020748FDF732FC06484FF628
:1040E000FF714088BDE8104001EAC012034904484E
:1040F000FEF752B8000C01406C000020580400206C
:10410000DC010020B0F90020802A0BDAB0F902109F
:10411000402907DA83881A44012A03D4C088084456
:10412000012801D50020704701207047FDF71CFCD5
:10413000FFF72EFEFEF7C4FBFEF7ACFBFEF764FBB9
:10414000FEF7FEFBFEF720FC042206490648FDF7B9
:104150005FF90648FEF724F9FEF772FEFEF7C6FE89
:10416000FCE70000580100206801002078020020D0
:10417000F8B505460089184901EB800050F8046C39
:104180003046FFF7BBFD04462889062802D11348B4
:10419000FFF746FC6088009640B1A08800220A30F4
:1041A00083B211462846FCF74BFB05E0002223882A
:1041B00011462846FCF7CEFA002229462046FFF792
:1041C00053FC20B1064800210068FFF759F8BDE80C
:1041D000F8400448FFF724BC10000020EC4E000813
:1041E000E8000020FA4800080146002000E0401CDA
:1041F0000A5C002AFBD1704730B5CA1701EB527434
:10420000E3100022002810DB00290EDB05467F2882
:104210000BDA402909DA064A05EBC310105C24F0DA
:104220000702891AC84000F00102104630BD0000A4
:104230005804002070B505460B480C46007868B15C
:1042400001280AD0032809D12846FFF7D5FF10B16D
:104250000022214602E00122FBE700222846BDE8B9
:104260007040FFF7E7BE00005100002090EA010F08
:1042700048BF81F0004100F1CA82421A3CBF801A57
:1042800089184FEAD0524FF07F4C1CEA410FA2EB45
:10429000D15318BF9CEA026F00F03B804FF0004CF6
:1042A0004CEA00204CEA012121FA03FC10EB0C0C33
:1042B0001ED202F1FF325FEA1C2040EBC25038BF31
:1042C00070471CF07F0F4FEA400C18BFBCF17F4FC6
:1042D00038BF7047C3F12003994008BF20F00100A8
:1042E000BCF17F4F38BF7047A0F1C04000F051BA19
:1042F0004FEA3C00000A40EBC25028BF1CF0FF0F01
:104300004FEA400CE6D018BFBCF17F4F38BF704772
:10431000EAE79CEA026F05D010EA5C0F08BF00F0E4
:104320000040704710B500F0EEF900BF64FBBE3EE0
:10433000401058BFC0F14040491058BFC1F1404142
:104340008142EFF3008070474FF47F0C1CEAD012DB
:104350001EBF1CEAD11392EA0C0F93EA0C0F00F077
:10436000858090EA010F48BF42F4807240F4000C4F
:1043700041F400002CF07F4120F07F4000B58142E5
:10438000A2EB03020FF2081CACEB504EC0F1000090
:104390009EF800E04FEA4E0E00FB0EFC38BF4900CD
:1043A0004FEA2C1C02F5FA020CFB0EF34FEACE1E6C
:1043B0004FEA112C4FEAC1210EEB635E42EB224221
:1043C0000EFB0CFC4FEA1C5300FB03114FEA112CAF
:1043D0004FEA01310EFB0CFC4FEADC4C00FB0C11E8
:1043E000C14228BF09184CEB03335DF804EB10EB16
:1043F000410143EBC250B2F57C0F38BF704729D55D
:1044000012F0F00F1CBF00F1C04000F000407047F8
:10441000008182838485868788898B8C8D8E8F919D
:104420009293959697999A9C9D9FA0A2A3A5A7A8C1
:10443000AAACAEB0B2B3B5B7B9BCBEC0C2C5C7C9ED
:10444000CCCED1D4D7D9DCDFE2E6E9ECF0F3F7FA51
:10445000FE0000004FEA400C0CF1807CBCF17E4F66
:1044600028BF7047B0F1C04000F093B990EA010F47
:104470000CEAD11348BF42F48072624538BF6345ED
:1044800007D213F47F0F16D080EA010000F000403D
:10449000704710B500F037F9097EFC3E00F005B812
:1044A00080EA010000F00040704780EA010000F05F
:1044B000004000F06EB912F47F0F04BF024870474D
:1044C00080EA010000F065B90000C07F41000B0EDA
:1044D000D3F19E0208D950F400034FEA032323FAD4
:1044E00002F048BF4042704710B500F00CF900BF21
:1044F00049922480002070476FF0004282EA200039
:1045000070470000C10DD1F19E0206DB4FEA002387
:1045100043F0004323FA02F07047004207D54FEA08
:104520004001B1F1FE4F02D24FF00000704710B5CC
:1045300000F0E9F849922480002070476FEA2000DB
:104540007047000010F0004148BF4042B0FA80F3CD
:1045500010FA03F2C3F19D030BD051EAC35101EBF2
:104560001220530638BF704700F1010008BF20F049
:1045700001007047B0FA80F310FA03F2C3F19D0313
:104580000AD0D90501EB1220530638BF704700F15D
:10459000010008BF20F001007047000050EA010C44
:1045A00000F113801CF5000F58BFBCF5000F01D4BB
:1045B0008842704707D710F5000F58BF11F5000F5C
:1045C00015D488427047894270471CF5000F04D506
:1045D000BCF5000FF7D5814270474FF0807C1CEB93
:1045E000400F38BF1CEB410F01D28142704710B51C
:1045F00000F089F8922449004FF000504FF08051AC
:10460000FFF796BE4FF47F0C1CEAD0121EBF1CEAC7
:10461000D11392EA0C0F93EA0C0F00F0478090EA56
:10462000010F48BF42F480724FF0004C4CEA00206A
:104630004CEA012102EB0302A0FB0113A2F50002E8
:10464000002918BF43F001035B0028BF4FEA330382
:1046500042EB22425FEA132C4CEBC2502EBFBCEB64
:10466000436FB2F57C0F70474FEA036CBCF1004F0B
:1046700008BF20F00100B2F57C0F38BF70470BD5A2
:1046800082F0FF0212F5803FC8BF704700F1C040C2
:10469000D8BF00F00040704700F5000C5FEA4C0CFA
:1046A00048BF7047B0F1C04000F073B890EA010F06
:1046B0000CEAD11348BF42F48072624538BF6345AB
:1046C00004D280EA010000F00040704710B500F00D
:1046D0001AF800BF8900013E00F007B800F009B8E1
:1046E0005FEA410C5FEA1C6C08D080EA010000F030
:1046F00050B85FEA400C5FEA1C6CF6D14FF0004006
:10470000A0F5800070470EF1020E2EF0030E5EF849
:10471000044B244204D44FEA4102B2F17F4F11D836
:104720004FEA4003B3F17F4F0CD80ED14FEAD07C53
:10473000B2F17F4F0CEB4C0C0CF1020C08BF4CEBB0
:10474000D17C04E04FF0080C01E04FEAD17C0CEB87
:104750004C0324FA03F404F00704B4F1040C06D269
:104760000EEB840CBDE810404CF0010C6047DFE814
:104770000CF0070802024FF00040A0F5800010BDC9
:104780000846420018BFD2F1807288BF00F0004096
:1047900010BDFF2141EAD050C005704751EA000C1E
:1047A00000F113801CF5000F58BFBCF5000F01D4B9
:1047B0008142704707D711F5000F58BF10F5000F61
:1047C00015D481427047894270471CF5000F04D50B
:1047D000BCF5000FF7D5884270474FF0807C1CEB8A
:1047E000410F38BF1CEB400F01D28842704780EA6E
:1047F000010081EA000180EA0100FFF7F8BE000035
:1048000090EA010F48BF81F000413FF536AD421AF2
:1048100004D882F00042A0EB020011444FEAD052CB
:104820004FF07F4C1CEA410FA2EBD15318BF9CEA1A
:10483000026F4AD04FF0004C4CEA00204CEA0121B4
:1048400021FA03FCB0EB0C0C0FD412F0FE0F36D0A3
:104850005FEA4C001DD5001240EBC25038BF7047D4
:104860001CF03F0F18BF70470BE0A2F101025FEA96
:104870001C2040EBC25038BF70471CF07F0F18BFA0
:104880007047C3F12003994014BF401E20F001007F
:10489000704780084FEA122308BF7047B0FA80FCC7
:1048A000A2EB0C02CCF1280C60FA0CF093EA122F68
:1048B00004BF00EBC25070474FEAC3707047130A41
:1048C0005FEADC1008BF7047F6E79CEA026F04D08D
:1048D00010EA5C0F08BF0020704710B5FFF713FF08
:1048E00040DFF63E81F0004070470000000000000D
:1048F0000000010203040607080908100000000078
:10490000000000000000000000000000000000F8AF
:1049100000000000000000333000000000100C0612
:10492000100C0600000000000000000040C07840AD
:10493000C0784000043F04043F040400007088FC79
:1049400008300000001820FF211E0000F008F000D1
:10495000E018000000211C031E211E0000F0088842
:10496000700000001E2123241927211010160E00AC
:10497000000000000000000000000000000000E057
:10498000180402000000000718204000000204186C
:10499000E00000000040201807000000404080F0C8
:1049A000804040000202010F01020200000000F0FE
:1049B000000000000101011F0101010000000000D2
:1049C0000000000080B07000000000000000000047
:1049D00000000000000101010101010100000000D0
:1049E0000000000000303000000000000000000067
:1049F00080601804006018060100000000E0100844
:104A00000810E000000F102020100F00001010F818
:104A1000000000000020203F202000000070080857
:104A200008887000003028242221300000300888D7
:104A3000884830000018202020110E000000C020FF
:104A400010F8000000070424243F240000F8088820
:104A5000880808000019212020110E0000E01088AD
:104A600088180000000F112020110E0000380808DF
:104A7000C83808000000003F0000000000708808EF
:104A800008887000001C222121221C0000E0100870
:104A90000810E0000000312222110F00000000C0C9
:104AA000C000000000000030300000000000008066
:104AB0000000000000008060000000000000804056
:104AC000201008000001020408102000404040406F
:104AD00040404000040404040404040000081020C2
:104AE0004080000000201008040201000070480807
:104AF0000808F0000000003036010000C030C8286F
:104B0000E810E0000718272423140B000000C03829
:104B1000E0000000203C23020227382008F88888A3
:104B200088700000203F202020110E00C0300808AF
:104B300008083800071820202010080008F8080886
:104B40000810E000203F202020100F0008F888887F
:104B5000E8081000203F20202320180008F888884B
:104B6000E8081000203F200003000000C0300808C3
:104B70000838000007182020221E020008F808004C
:104B80000008F808203F210101213F20000808F813
:104B9000080800000020203F202000000000080836
:104BA000F8080800C08080807F00000008F888C0F6
:104BB00028180800203F20012638200008F80800A7
:104BC00000000000203F20202020300008F8F800DE
:104BD000F8F80800203F003F003F200008F830C0F0
:104BE0000008F808203F200007183F00E0100808E0
:104BF0000810E0000F10202020100F0008F808080F
:104C00000808F000203F210101010000E010080821
:104C10000810E0000F18242438504F0008F8888846
:104C200088887000203F2000030C30200070880826
:104C3000080838000038202121221C00180808F834
:104C4000080818000000203F2000000008F80800B5
:104C50000008F808001F202020201F000878880086
:104C600000C83808000007380E010000F80800F8F6
:104C70000008F800033C0700073C030008186880A0
:104C80008068180820302C03032C30200838C80016
:104C9000C83808000000203F200000001008080865
:104CA000C83808002038262120201800000000FE07
:104CB000020202000000007F40404000000C30C0B3
:104CC00000000000000000010638C00000020202DF
:104CD000FE000000004040407F0000000000040291
:104CE00002020400000000000000000000000000BC
:104CF00000000000808080808080808000020204AC
:104D000000000000000000000000000000008080A3
:104D1000808000000019242222223F2008F8008011
:104D200080000000003F112020110E0000000080D4
:104D300080800000000E1120202011000000008063
:104D40008088F800000E112020103F200000808095
:104D500080800000001F222222221300008080F0A9
:104D6000888888180020203F2020000000008080D4
:104D700080808000006B94949493600008F8008019
:104D800080800000203F210000203F200080989874
:104D9000000000000020203F2020000000000080D4
:104DA0009898000000C08080807F000008F8000014
:104DB00080808000203F24022D302000000808F869
:104DC000000000000020203F202000008080808024
:104DD00080808000203F20003F20003F80800080B6
:104DE00080800000203F210000203F2000008080C4
:104DF00080800000001F202020201F008080008075
:104E00008000000080FFA12020110E000000008023
:104E100080808000000E112020A0FF808080800014
:104E20008080800020203F21200001000000808041
:104E3000808080000033242424241900008080E036
:104E4000808000000000001F202000008080000003
:104E500000808000001F202020103F2080808000E4
:104E60000080808000010E300806010080800080F4
:104E7000008080800F300C030C300F000080800019
:104E8000808080000020312E0E3120008080800044
:104E90000080808080818E701806010000808080F4
:104EA000808080000021302C222130000000000092
:104EB000807C020200000000003F40400000000033
:104EC000FF00000000000000FF0000000002027C64
:104ED000800000000040403F00000000000601018B
:104EE00002020404000000000000000006080000A8
:104EF000000000000000002F000000000700070075
:104F000000147F147F1400242A7F2A120062640890
:104F1000132300364955225000000503000000000D
:104F20001C224100000041221C000014083E08140D
:104F30000008083E0808000000A0600000080808FB
:104F40000808000060600000002010080402003E15
:104F50005149453E0000427F4000004261514946B0
:104F6000002141454B31001814127F1000274545A0
:104F70004539003C4A4949300001710905030036B2
:104F80004949493600064949291E000036360000C5
:104F900000005636000000081422410000141414CA
:104FA00014140000412214080002015109060032C5
:104FB0004959513E007C1211127C007F4949493603
:104FC000003E41414122007F4141221C007F49496E
:104FD0004941007F09090901003E4149497A007FA2
:104FE0000808087F0000417F4100002040413F0148
:104FF000007F08142241007F40404040007F020CA7
:10500000027F007F0408107F003E4141413E007F47
:1050100009090906003E4151215E007F0919294610
:105020000046494949310001017F0101003F4040EC
:10503000403F001F2040201F003F4038403F00639A
:1050400014081463000708700807006151494543BC
:1050500000007F41410000552A552A55000041417A
:105060007F00000402010204004040404040000074
:1050700001020400002054545478007F484444380E
:1050800000384444442000384444487F0038545495
:10509000541800087E0901020018A4A4A47C007F13
:1050A000080404780000447D4000004080847D00B6
:1050B000007F102844000000417F4000007C04185D
:1050C0000478007C0804047800384444443800FC28
:1050D000242424180018242418FC007C0804040844
:1050E00000485454542000043F444020003C4040B9
:1050F000207C001C2040201C003C4030403C0044F0
:1051000028102844001CA0A0A07C004464544C44F7
:10511000000010FE8200000000FF00000082FE1070
:105120000000020101020201D7CCC9FA001060029E
:105130008C0008C8398E0808CC3B88080004047E1F
:105140000100635A46E100635A46E10000804030A6
:105150001E101010FF1010101010100000404042E0
:10516000424242427F4242424242404000000000EE
:10517000313233003132D7CCC9FA33340000000069
:1051800033330A3434000000333434343400000044
:1051900034353600353637383900000061D7CCC990
:1051A000FA0A64006364657177650000376B376BDA
:1051B00000000000D4510008000000205801000049
:1051C000280100083452000858010020480E000051
:1051D00084010008320182101324F413AC511B081F
:1051E00070041A90041A94041A9C041AA4041A74E1
:1051F000041A80041A8804011B2A015001181A801D
:105200003BA920123C121E1240122062031E3F9A3C
:1052100099993E04E3BE0F094618B97C692C810AAE
:1052200021231885CDCCCC3EE95C4113FC481B08FA
:04523000FA0441003B
:04000005080000ED02
:00000001FF
