:020000040800F2
:10000000980E002091010008DB2E0008BF24000894
:10001000492800088D0600081F3A0008000000006B
:10002000000000000000000000000000353400085F
:100030007307000800000000EB300008A538000836
:10004000AB010008AB010008AB010008AB010008E0
:10005000AB010008AB010008AB010008AB010008D0
:10006000AB010008AB010008AB010008AB010008C0
:10007000AB0100083D070008AB010008AB01000818
:10008000AB010008AB010008AB010008AB010008A0
:10009000AB010008AB010008AB010008AB01000890
:1000A000AB010008AB010008AB010008AB01000880
:1000B000AB01000825390008AB010008AB010008BE
:1000C000AB010008AB010008AB010008AB01000860
:1000D000AB010008AB010008AB010008AB01000850
:1000E000AB010008AB010008AB01000800F002F80A
:1000F00000F03EF80AA090E8000C82448344AAF184
:100100000107DA4501D100F033F8AFF2090EBAE881
:100110000F0013F0010F18BFFB1A43F0010318473B
:100120004840000068400000103A24BF78C878C1F9
:10013000FAD8520724BF30C830C144BF04680C60ED
:10014000704700000023002400250026103A28BF35
:1001500078C1FBD8520728BF30C148BF0B60704739
:100160001FB59DE8030000F0A9F81FBD10B510BD34
:1001700000F028F91146FFF7F3FF03F09FFC00F0B1
:1001800046F903B4FFF7F2FF03BC00F077F9000073
:100190000948804709480047FEE7FEE7FEE7FEE71B
:1001A000FEE7FEE7FEE7FEE7FEE7FEE70448054957
:1001B000054A064B7047000023390008ED0000088F
:1001C00098080020980E0020980A0020980A002025
:1001D00070B5064600F056F8056806F10B0020F0F1
:1001E0000704B4429CBF002070BD2B466A68BAB1B8
:1001F0001068A04210D304F1080188423CBF506847
:10020000586007D35168101941601168091B0160DB
:1002100058601460101D70BD13465268002AE7D163
:100220002146284600F036F80028DED170BD4FF098
:10023000000200B5134694469646203922BFA0E836
:100240000C50A0E80C50B1F12001BFF4F7AF090742
:1002500028BFA0E80C5048BF0CC05DF804EB890033
:1002600028BF40F8042B08BF704748BF20F8022B76
:1002700011F0804F18BF00F8012B7047704770478E
:1002800070470000004870473C08002070477047E6
:100290007047704738B504460A4600206946AFF3F8
:1002A0000080002808BF38BD02460099204600F0B3
:1002B00067F8012038BD012000F07CB8F8B5AFF335
:1002C0000080054600200C46102000BF0646A819F5
:1002D000A0420DD9324669460020AFF300800700E6
:1002E00008BF00F067F80098A04218BF0546C4197F
:1002F000FFF7C8FF05600746F01D20F0070046190C
:10030000284600F00AF8B44208BFF8BDA21B3146E7
:100310003868BDE8F84000F033B800210160C0E95A
:10032000011070471020704770B50446051FFFF795
:10033000A9FF0068002C14BF446870BD002C18BFD2
:10034000AC423CBF20466468F8D301680A18AA4250
:1003500018BF456003D12A6805461144016028682A
:100360004119A1421CBF6C6070BD61686960216861
:100370000844286070BD0000004870473408002021
:10038000034640688C46002818BF88423CBF03469D
:100390004068F8D318681844884207D00CF103006D
:1003A00020F00700001D411A521A0146081D0A607C
:1003B000FFF7BABF10B500F039F8BDE8104000F003
:1003C0002FB870477546FFF7D7FFAE460500694660
:1003D000534620F00700854618B020B5FFF7E6FE2B
:1003E000BDE820404FF000064FF000074FF0000836
:1003F0004FF0000B21F00701AC46ACE8C009ACE8B7
:10040000C009ACE8C009ACE8C0098D46704710B51A
:100410000446AFF300802046BDE81040FFF7B1BEB0
:10042000002801D000F02AB87047000010B501285C
:1004300005D0002103A000F027F8012010BD09A17C
:10044000F8E7000053494752544D454D3A204F7547
:1004500074206F662068656170206D656D6F7279BC
:10046000000000003A2048656170206D656D6F7274
:100470007920636F72727570746564000149182089
:10048000ABBEFEE72600020070B505460C460A200A
:1004900000E06D1C00F011F835B128780028F8D183
:1004A00002E0641C00F009F814B120780028F8D1AB
:1004B000BDE870400A20AFF3008008B569468DF8AA
:1004C00000000320ABBE08BD70B50446006881681B
:1004D000C943C90717D1816821F00101816001F08A
:1004E0006BF905460AE000BF01F066F9401B0228DF
:1004F00004D920688068C043C00706D0206880689F
:10050000C043C007F0D0002070BDA06A40F01000CA
:10051000A062E06A40F00100E062012070BD10B509
:100520000146406A826A12F0500F05D0006A026BE1
:10053000BDE8104008461047816A41F400718162AD
:1005400001688968C1F3424107290CD1017B51B987
:10055000816A21F480718162816AC90403D4816A4D
:1005600041F00101816200F0AFFD10BD10B5406A9D
:10057000816A41F040018162C16A41F00401C162B7
:1005800000F0A4FD10BD10B5406A00F09EFD10BD46
:10059000F8B500260446009600688168C943C9077B
:1005A0002DD0816841F0010181601648164900682C
:1005B000B0FBF1F000E0401E00900028FBD101F0FC
:1005C000FBF8054616E000BF01F0F6F8401B0228D4
:1005D00010D920688068C043C0070BD0A06A40F0E3
:1005E0001000A062E06A40F00100E06284F824603C
:1005F0000120F8BD20688068C043C007E4D1002016
:10060000F8BD00000C00002040420F0070B50E46FF
:1006100004000ED0F00709D01546042002F0C6FAF7
:10062000206218B100210180206A4580A08C3043EF
:10063000A08470BD704700002DE9F0419846069FE8
:1006400014460E4600281FD0B04205D1002C1BD006
:100650002836541EA4B2C761002C15D01A46314664
:1006600000F01BFC0125C7610CE000BF05EB850015
:1006700006EBC001A1F12800424600F00EFC6D1C03
:10068000ADB2C761A542F1D3BDE8F081FEE72DE927
:10069000F0471D46089E9146884607001AD000F094
:1006A00048FC0446384600F04CFC01220146002379
:1006B0002088284400B2208046B9404503DBA78843
:1006C00007444F4501DDE27200E0E3728C4201D045
:1006D000E468EDE7BDE8F0872DE9F0471D46089E88
:1006E0009146884607001BD000F023FC044638469C
:1006F00000F027FC0127014600226088284400B250
:1007000060804EB9404504DBE3881844401E4845EC
:1007100001DDE77200E0E2728C4201D0E468ECE7B0
:10072000BDE8F0870020044B4FF4806102461A5464
:10073000401C8842FBD3704734040020014800F07D
:1007400023BE00005801002030B590F8405001242D
:10075000AC40C56B6C60046863604368102B036831
:1007600003D099600068C26030BD9A600068C160C3
:1007700030BD70472DE9F04F8046500099460E4637
:10078000C2F101074FF0010AC0F1000B0025144629
:100790005DE0002F03DB0BF1020B5F44641E0AF1E6
:1007A000020A6D1C57445FEA497011D5301901B235
:1007B00008EB050000B2012203F0BCF9A54207DAFC
:1007C000701901B208EB040000B2012203F0B2F983
:1007D0005FEA897011D5301B01B208EB050000B249
:1007E000012203F0A7F9A54207DA701B01B208EB5A
:1007F000040000B2012203F09DF95FEA097011D5EF
:10080000701901B2A8EB040000B2012203F092F9C2
:10081000A54207DA301901B2A8EB050000B20122A7
:1008200003F088F95FEAC97011D0701B01B2A8EB20
:10083000040000B2012203F07DF9A54207DA301B63
:1008400001B2A8EB050000B2012203F073F9A54242
:100850009FDBBDE8F08F70B58618002800DA002015
:1008600004460DB205E00122294620B203F062F9E8
:10087000641CB442F7DB70BD70B58E18002900DA35
:1008800000210C4605B205E0012221B2284603F002
:1008900051F9641CB442F7DB70BD2DE9FF4F81466E
:1008A000500001278846C2F10106C0F1000B002567
:1008B0001446DDF834A03AE0002E03DB0BF1020B06
:1008C0005E44641EBF1C03986D1C3E44C00715D0D7
:1008D0000AEB4400401CC2B2A8EB040109EB05007E
:1008E000FFF7CAFFA54209DA0AEB4500401CC2B275
:1008F000A8EB050109EB0400FFF7BEFF0398800792
:1009000015D50AEB4400401CC2B2A8EB0401A9EBC8
:100910000500FFF7B1FFA54209DA0AEB4500401CCC
:10092000C2B2A8EB0501A9EB0400FFF7A5FFA542A1
:10093000C2DBBDE8FF8F2DE9F0411C4616460D468F
:10094000074608E02819401E01B23246384600F03A
:1009500093FA641EA4B2002CF4D1BDE8F0812DE915
:10096000FC5F0746B0F90A60B0F90850B0F80C9087
:10097000B0F80E800468007C01906088801B0FFA3C
:1009800080FB2088401B0FFA80FA584603F0B8F825
:100990000090504603F0B4F8A18800297DD0E28889
:1009A000002A7AD07B7C012B08D00198D3B200902A
:1009B000CAB2B4F90210B4F9000097E0B4F902C069
:1009C0006FF00B02D31DB44530D0DDF800C0BCF190
:1009D0000C0F07D9BBF1000F02DD4FF00C0C23E028
:1009E000944621E0BCF1050F07D9BBF1000F02DDF1
:1009F0004FF0050C18E09C4616E0BCF1030F08D937
:100A0000BBF1000F02DD4FF0030C0DE06FF0020CA4
:100A10000AE0BCF1000F09D0BBF1000F02DD4FF07E
:100A2000010C01E04FF0FF3C664436B2B4F900C05F
:100A3000AC4523D00C2805D9BAF1000F00DD0C22FB
:100A400050191AE0052805D9BAF1000F00DD052379
:100A5000581912E0032807D9BAF1000F01DD03206D
:100A60000AE06FF0020007E040B1BAF1000F01DDCB
:100A7000012001E04FF0FF30284405B2494512D073
:100A8000A1EB090000B203F03BF8A1880328A1EB19
:100A9000090019D9002803DD00E031E0032101E05D
:100AA0006FF002018944E088404517D0A0EB0800B0
:100AB00000B203F025F8E1880328A1EB080021D952
:100AC000002808DD032008E0002801DD0121E9E716
:100AD0004FF0FF31E6E76FF002008044019800908C
:100AE00008F0FF0309F0FF023146284600F059F8EC
:100AF0003D817E81A7F80C90A7F80E80019838748C
:100B0000BDE8FC9F002801DD0120E6E74FF0FF3043
:100B1000E3E72DE9F84F90460A9F8146C7F1000BA5
:100B200002EB4B0AC4191D460E460AF0FF0220468E
:100B3000FFF791FE711900910AF0FF022046491E4D
:100B4000FFF789FE05EB4B0AF5190AF0FF0229466B
:100B50004846FFF791FE09EB08060AF0FF02294616
:100B6000701EFFF789FE2946204601233A46FFF70B
:100B700001FEF61B2946701E02233A46FFF7FAFDD6
:100B80000099701ECD1B691E04233A46FFF7F2FD43
:100B9000691E01B020463A46BDE8F04F0823FFF732
:100BA000E9BD2DE9F84F1D460A9C16008A4681468C
:100BB00026D0002D24D0C4F1000806EB480082B2F4
:100BC00009EB040738B20FFA8AF1FFF7B4FE05EB20
:100BD0004800A0F1010809EB06000AEB0405001B20
:100BE000012322462946401ECDF80080FFF755FE1E
:100BF0002946384602232246CDF80080FFF74DFEF5
:100C0000BDE8F88F70B5114C0020A178D1B1254610
:100C100002F012FC217A884216D0012000F0C4FCB8
:100C200002F00AFC217A88420ED0297002F004FCFE
:100C3000207260702078002806D0BDE87040002047
:100C400001F0C2BF6070207070BD00002400002061
:100C500072B6FEE72DE9F84F8346C8180A9C0FFAD2
:100C600080FC101907B2D01702EB507424F0070073
:100C7000161A002A08DA06F10800C51700EB5575A8
:100C800025F00705401B00E03046C5B20020BCF14E
:100C9000000F6FDB002F6DDB80296BDA402A69DAE9
:100CA0003F2F00DD3F27DFF8A4A14FF0FF0E12F128
:100CB000080F04DCE21003FB120080B23246C0E0F1
:100CC0000C4602F10809B7E0002C03DA001B80B2E1
:100CD000002406E07F2C04DBACEB0402104480B25D
:100CE000ADE05B4B1B78012B4FD0022B21D0002AAB
:100CF0000CDBD31004EBC3131BF800801AF803605D
:100D000008FA05F846EA08060AF80360B9F13F0F49
:100D10002FDC75B31BF80060002AC5F1080326FA22
:100D200003F67ADA1AF8048046EA08060AF804603C
:100D30007EE0002A0CDBD31004EBC3131BF8008009
:100D40001AF8036008FA05F886EA08060AF803604C
:100D5000B9F13F0F6CDC65B11BF80060002AC5F1EA
:100D6000080326FA03F606DA1AF8048086EA08066B
:100D7000DCE751E068E0D31004EBC31808EB0A038A
:100D800093F8808086EA080650E0002A14DBD3102E
:100D900004EBC31600961AF80630C5F108082EFABF
:100DA00008F63340009E0AF806301BF80060AE409B
:100DB0003343009E0AF80630B9F13F0F38DC5DB3CB
:100DC000002A10DA1AF804600EFA05F31E400AF839
:100DD00004601BF80030C5F1080823FA08F3334318
:100DE0000AF8043024E0D31004EBC31606EB0A0320
:100DF0000EFA05F693F8808008EA060883F88080EA
:100E0000CDF800801BF80060C5F1080826FA08F646
:100E1000DDF8008008E000E00AE0D31004EBC3181E
:100E200008EB0A0393F8808046EA080683F880609E
:100E3000641C401C24B280B26445FFF645AF0FFA33
:100E400089F2BA42FFF63CAFBDE8F88F34040020C7
:100E500028000020F8B51D4616460C4640B1037820
:100E6000407800902A4631462046FFF7F3FEF8BD51
:100E7000237860788C1CF4E770B514460E4605465E
:100E800008E02819401E00B20122314602F052FE4D
:100E9000641EA4B2002CF4D170BD7EB516460D00C0
:100EA00012D0012390B100F044F8044600F049F854
:100EB000A6B1012E2BD0827AC1880091CDE9012004
:100EC000428811440AB22DE000207EBD0020CDE909
:100ED0000003034602460146029026E0B0F90210E4
:100EE000C28801EB4206402E0BDDC372A17AE28874
:100EF0000092CDE90110A388B4F90220B4F90010E2
:100F000013E0837A0290CDE900231144DAE7B0F9C7
:100F10000220C1880A44402AE7DA837A0091CDE9A9
:100F2000013012B28388B0F90010284602F0AAFB03
:100F30007EBD002804D00189012901D00069FAE7AB
:100F40007047002807D0C168002904D00A89012A07
:100F500001D00846F7E7704770B509480178446842
:100F600001290CD10025057007E0607C012803D120
:100F70006574E06800B18047A468002CF5D170BDAD
:100F8000600000202DE9F04106460F4801250027AA
:100F90004468057014E0A07C012810D1206830441A
:100FA0002060616888420AD32760207C012801D034
:100FB00020B104E0E06810B1804700E06574A468E7
:100FC000002CE8D1BDE8F08160000020F8B50024D5
:100FD000009490F824202546012A12D0012280F89E
:100FE00024204A681F23072A0DD20668776B521EF9
:100FF00002EB820293409F430B6893401F43776349
:1010000019E00220F8BD06680D2A0AD2376BD21FFC
:1010100002EB820293409F430B6893401F43376368
:1010200009E0F76A0D3A02EB820293409F430B6896
:1010300093401F43F7620A68072306680A2A0AD307
:10104000F7680A3A02EB420293409F438B68934051
:101050001F43F76008E0376902EB420293409F4369
:101060008B6893401F4337610A68102A01D0112A08
:1010700020D1124B02689A4217D193681B0219D4EF
:10108000936843F4000393600968102912D10C4956
:101090000C4A0968B1FBF2F101EB8101490000E063
:1010A000491E00910029FBD104E0816A41F0200132
:1010B0008162012480F824502046F8BD00240140BC
:1010C0000C00002040420F0070477047704700003E
:1010D0002DE9F0414FF0000704003D467ED0A06AA4
:1010E000002628B9E66284F82460204600F07EF8E5
:1010F0002046FFF7E9F9A16AC90600D420B1A06A29
:1011000040F01000A06269E0A16A21F4885141F02A
:101110000201A1626268E169237B0A4347EA430155
:101120000A43A1684FF48077B94209D0012907D05A
:101130005FF0000194F814C0BCF1010F02D00AE086
:101140003946F7E7F3B1A36A43F02003A362E36AE9
:1011500043F00103E3622368D3F804C02CF4694C24
:101160004CEA010CC3F804C021688B68DFF870C03A
:1011700003EA0C0313438B60A168B9420BD0012929
:1011800009D00CE0DFF85CC0A3690CEB43330B43E0
:1011900043F40061DFE7218A0D05A5F5801521687C
:1011A000CB6A23F470032B43CB62216889680E4B12
:1011B0001940914208D1E662A16A21F0020141F092
:1011C0000101A162BDE8F081A06A20F0020040F0B8
:1011D0001000A062E06A40F00100E0620120F1E747
:1011E000FDF7E1FF00E0FFFFFE0E1FFF70B586B0C8
:1011F00000250646009501950295039500681A4959
:1012000088422ED11949886940F400708861886944
:1012100000F400700490886940F0040088618869D7
:10122000694600F0040004900F2000900320019014
:101230000F4800F0CBF9104C0E48C4E9000580209F
:10124000C4E9025080002061800060612020C4E970
:101250000605204600F042F908B1FFF7F9FC3462B8
:10126000666206B070BD000000240140001002401C
:101270000008014008000240BC0000202DE9F047B2
:10128000894604463B4900683B4F0E1D9046884204
:1012900001D0B84207D1306810F4702F03D0012577
:1012A0002846BDE8F08794F8240001280CD00120DE
:1012B00084F824002046FFF76BF905004FF000008A
:1012C00004D084F82400EBE70220EAE7A16A40F6A4
:1012D0000162914341F48071A1622168B94218D141
:1012E000326812F4702F14D0A16A41F48011A16207
:1012F0003168490505D5A16A21F4005141F48051B6
:10130000A162A16AC9040AD5E16A21F00601E1627D
:1013100006E0A26A22F48012A2624968E9E7E0626C
:1013200084F82400216A15488862216A1448C8623A
:10133000216A1448086321686FF002000860206881
:10134000816841F480718160216843464A464C318E
:10135000206A00F0F1F820688168C1F34241072952
:10136000816803D041F48011816099E741F4A001C4
:10137000FAE7000000240140002801401F05000892
:10138000870500086D0500082DE9F05FC16B0C684A
:1013900001680B68D0F840C0042202FA0CF2494DF3
:1013A000DFF824A1494E4A4FDFF828B1DFF828E1E1
:1013B00022422CD05A072AD50A68920603D40A681A
:1013C00022F004020A600168A94201D1042219E056
:1013D000514501D1402215E0B14202D14FF4806263
:1013E00010E0B94202D14FF480420BE0594502D1DE
:1013F0004FF4802206E0714502D14FF4800201E0F3
:101400004FF080622F4908394A60C16A3BE04FF0D3
:10141000020808FA0CF818EA040F4FF000094FF020
:10142000010235D05FEA837832D50B689B0605D47C
:101430000B6823F00A030B6080F821200168A942A1
:1014400001D1022219E0514501D1202215E0B1421B
:1014500002D14FF4007210E0B94202D14FF40052B1
:101460000BE0594502D14FF4003206E0714502D13C
:101470004FF4001201E04FF00072124908394A603F
:1014800080F82090816A00291AD0BDE8F05F0847F3
:10149000082505FA0CF5254212D01B0710D50B685C
:1014A00023F00E030B6090F84010C36B02FA01F1B9
:1014B0005960826380F8212080F82090016BE2E778
:1014C000BDE8F09F080002401C00024030000240CE
:1014D00044000240580002406C00024030B528B37E
:1014E00008C8134914221944B1FBF2F18900C16301
:1014F00010498163022141771A6843F6F0718A43EB
:10150000D0E900142143D0E902452C43214304696A
:101510002143446921438469214311431960002117
:101520004163012242770177084630BD012030BD7A
:10153000F8FFFDBF0000024070B5044690F820009F
:10154000002501280CD0012084F8200094F82160A7
:101550000020012E06D084F820000225284670BD08
:10156000022070BD022684F82160A063206806680E
:1015700026F0010606602046FFF7E6F8E06A00283C
:101580002068016802D041F00E0106E021F004015C
:1015900001602068016841F00A010160206801686B
:1015A00041F001010160D9E770B5044600F004F98B
:1015B0000546601C02D004480078044400F0FCF8A2
:1015C000401BA042FAD370BD000000202DE9F84F67
:1015D000DFF8B891002409F1040A0AF1040B23464C
:1015E0000F270BF1040EC9E00125A5402A40AA42AD
:1015F0007DD1674ED1F804C0ACEB0608B44532D0BB
:1016000014DCBCF1030F3AD009DCBCF1000F2AD086
:10161000BCF1010F1CD0BCF1020F31D11DE0BCF1B7
:10162000110F17D0BCF1120F2AD119E0B8F5881F9D
:1016300019D006DCB8F5803F15D0B8F5801F1FD152
:1016400011E0B8F5001F0ED0B8F5041F18D10AE05C
:10165000CB6815E0CB681B1D12E0CB6808330FE0A8
:10166000CB680C330CE08B682BB1012B4FF00803D7
:1016700003D0456104E0042302E0056100E000239B
:10168000FF2A01D8064601E000F104064FEA84056E
:1016900001D9A5F12005D6F8008007FA05FC28EA53
:1016A0000C0803FA05F548EA0508C6F800804D68FD
:1016B000ED0062D5374DAE6946F00106AE61AD6909
:1016C00024F0030605F001050095334D06EB050CEB
:1016D000DCF80850A607360F07FA06F825EA0805D1
:1016E000DFF8B880404503D14FF0000817E044E030
:1016F000DFF8AC80404502D14FF001080FE0DFF881
:10170000A480404502D14FF0020808E0DFF898803D
:10171000404502D14FF0030801E04FF0040808FAF9
:1017200006F848EA0508CCF808804D68D9F800604A
:10173000ED034D4601D5164300E096432E604D68FB
:10174000DAF80060AD03554601D5164300E0964334
:101750002E604D68DBF80060ED025D4601D5164352
:1017600000E096432E604D68DEF80060AD027546DD
:1017700001D5164300E096432E60641C0D682A468E
:10178000E5407FF431AFBDE8F88F00000004014070
:10179000000011100010024000000140000801404C
:1017A000000C014000100140001401400AB1016129
:1017B00070470904FBE7000001488068704700009B
:1017C000000000200248816802781144816070475F
:1017D00000000020074810B5016841F010010160C9
:1017E000032000F075F80F2000F006F800F024F850
:1017F000002010BD0020024070B50D4D04464FF48E
:101800007A712878B1FBF0F00A490968B1FBF0F071
:1018100000F066FC48B9102C07D200222146501E69
:1018200000F036F800206C6070BD012070BD000033
:10183000000000200C0000200C4808B5816941F030
:1018400001018161816901F001010091C16941F0EB
:101850008051C161C06900F0805000900448416827
:1018600021F0E06141F00071416008BD00100240CC
:1018700000000140002809DB00F01F020121914017
:101880004009800000F1E020C0F80011704700001E
:10189000F0B40E4B1B680C46C3F30223C3F10705DB
:1018A000042D00D90425191D072901D2002300E0C9
:1018B000DB1E012606FA05F1491E214099409E4093
:1018C000761E16403143F0BC02F0CAB80CED00E0C1
:1018D000064900F0070208684FF6FF03184040EA87
:1018E0000220034A10430860704700000CED00E03E
:1018F0000000FA052DE9F84305460078354CC0078D
:1019000054D0E0690026C00008D4E06940F080505F
:10191000E061E069012600F0805000902E480168E7
:10192000C90512D40168804641F480710160FFF757
:1019300043FF074605E000BFFFF73EFFC01B6428DA
:1019400023D8D8F80000C005F6D5206A10F44070FE
:1019500021D0A98801F4407181421CD0206A1F491E
:10196000012220F440700A6000220A602062C00751
:1019700011D0FFF721FF074641F2883808E000BF89
:10198000FFF71AFFC11B414502D90320BDE8F883C8
:10199000206A8007F4D5206A696820F44070084303
:1019A00020621EB1E06920F08050E0612878800755
:1019B00005D56068A96820F4404008436060287835
:1019C000C00605D56068E96820F4800008436060BF
:1019D0000020DBE70010024000700040400442425B
:1019E000704700002DE9F0470F46050061D0434ED7
:1019F000306800F00700B84209D2306820F00700D4
:101A000038433060306800F00700B84251D1286890
:101A10003B4C810712D5400703D5606840F4E06075
:101A200060602878000703D5606840F4605060600B
:101A30006068A96820F0F000084360602878C0075B
:101A400028D06868012810D02168022810D08907A2
:101A500000292EDA616821F0030101436160FFF77C
:101A6000ABFE804641F288390DE021688903EFE73B
:101A70008901EDE7FFF7A0FEA0EB0801494502D977
:101A80000320BDE8F0876068696800F00C00B0EBE7
:101A9000810FEFD1306800F00700B8420BD93068F1
:101AA00020F0070038433060306800F00700B8428B
:101AB00001D00120E5E72878400705D56068E9688E
:101AC00020F4E060084360602878000706D560686D
:101AD000296920F4605040EAC100606000F01EF8FF
:101AE0006168084AC1F30311515CC84006490860A7
:101AF00006480068FFF780FE0020C2E70020024091
:101B000000100240643B00080C000020040000208C
:101B100001490120C86470470000424212A185B00B
:101B20000FC98DE80F0014A0144A00680490516892
:101B3000134801F00C03042B10D0082B0ED1C1F375
:101B40008343C9031DF803000AD5516804AAC1F3F1
:101B50004041515C0A4A5043B0FBF1F005B0704778
:101B600008494843FAE7000002030405060708098C
:101B70000A0B0C0D0E0F10100102000000100240A5
:101B800000127A0000093D0010B5044CA068000660
:101B900003D5FFF725FF8020A07210BD0010024082
:101BA0002DE9F84F040070D02078C04DC00749D00F
:101BB0006868C0F38100012807D06868C0F381001D
:101BC000022809D16868C00306D52868800339D582
:101BD00060680028E7D035E06068B0F5803F0BD042
:101BE00010B1B0F5A02F11D0286820F48030286003
:101BF000286820F4802002E0286840F480302860C3
:101C0000606890B1FFF7D8FD06460AE0286840F406
:101C100080202860F0E700BFFFF7CEFD801B64281E
:101C200073D828688003F7D50CE0FFF7C5FD06469A
:101C300005E000BFFFF7C0FD801B6428F0D82868CE
:101C40008003F7D420789A4E80074FF001094FF0B7
:101C5000000839D5686810F00C0F07D06868C0F329
:101C60008100022809D16868C00306D4286880076B
:101C700014D52069012808D110E02069B0B1C6F858
:101C80000090FFF799FD074605E00AE1FFF794FD94
:101C9000C01B0228C4D828688007F7D52868616966
:101CA00020F0F80040EAC10028600DE0C6F800808E
:101CB000FFF782FD074604E0FFF77EFDC01B022808
:101CC00023D828688007F7D4207800072CD57948D6
:101CD000A169D9B1C0F80090FFF76EFD074604E096
:101CE000FFF76AFDC01B02280FD8686A8007F7D586
:101CF00071484FF4FA510068B0FBF1F0009000BF5A
:101D00000098411E0091FAD20EE080E0C0F80080F9
:101D1000FFF752FD074604E0FFF74EFDC01B022807
:101D200075D8686A8007F7D42078400760D5E869DD
:101D30000027C00008D4E86940F08050E861E869F5
:101D4000012700F0805000905C480168C90513D459
:101D50000168834641F480710160FFF72DFD8246E2
:101D600006E000BFFFF728FDA0EB0A0064284ED86C
:101D7000DBF80000C005F5D5E06801280AD008B1FD
:101D8000052813D0286A20F001002862286A20F074
:101D9000040002E0286A40F001002862E06841F295
:101DA000883B98B1FFF708FD82460BE0286A40F0B7
:101DB00004002862EEE700BFFFF7FEFCA0EB0A017B
:101DC00059455AD8286A8007F6D50CE0FFF7F4FC8D
:101DD000824605E0FFF7F0FCA0EB0A0159454CD81C
:101DE000286A8007F6D41FB1E86920F08050E861C6
:101DF000E06988B36968C1F38101022944D00228EF
:101E0000C6F8608004D0FFF7D7FC044638E034E021
:101E1000FFF7D2FC074604E0FFF7CEFCC01B022808
:101E20002BD828688001F7D4206AB0F5803F05D10F
:101E30006868A16820F4003008436860D4E90801AC
:101E40000843696821F4741108436860C6F860901B
:101E5000FFF7B2FC044606E025E000BFFFF7ACFC4C
:101E6000001B022809D828688001F7D51BE000BFB5
:101E7000FFF7A2FC001B022802D90320BDE8F88F5F
:101E800028688001F4D40EE00128F7D06868226A3F
:101E900000F48031914204D1616A00F470108842EC
:101EA00001D00120EAE70020E8E70000001002402E
:101EB00000004242800442420C00002000700040BA
:101EC000704770B5040009D0606A002540B12561F3
:101ED0006561A56294F8510040B10CE0012070BD2D
:101EE0006068B0F5827FF4D0E561F2E784F8505085
:101EF000204600F03FF8022084F851002068016875
:101F000021F040010160A088218900F4827001F471
:101F100004410843A18901F400610843217C01F0D8
:101F200002010843217D01F001010843218B01F4E6
:101F300000710843217F01F03801084394F8201014
:101F400001F080010843218D01F40051084321680C
:101F50000860A069042101EA1040216848602068F7
:101F6000C16921F40061C1616565012084F85100F7
:101F7000002070BD70B586B000250646009501951D
:101F80000295039500681A4988422ED1194988693B
:101F900040F480508861886900F48050049088691A
:101FA00040F0040088618869694600F004000490EC
:101FB000A020009002200190032003900E48FFF71C
:101FC00005FB0F4C0D4820601020C4E9010580205E
:101FD000C4E903056561A5612046E561FFF77EFA66
:101FE00008B1FEF735FEB464666206B070BD00004D
:101FF0000030014000100240000801403000024063
:10200000580100202DE9F041044690F850000026C8
:10201000012809D0012784F8507094F85100002558
:10202000012804D002264EE00220BDE8F08189B1EB
:1020300082B1032084F8510065652163A286E2869F
:10204000A56365642564A587E587A068B0F5004FA2
:1020500002D00BE0012636E02068016821F0400143
:1020600001602068016841F480410160A16C18485A
:10207000C862A16C17488862A16C17480863A06CFD
:102080004563E38E2268216B0C32A06CFFF754FA93
:1020900038B1606D40F010006065012684F8517021
:1020A00011E020680168490603D4016841F040014D
:1020B00001602068416841F020014160206841686A
:1020C00041F00201416084F850503046ADE7000015
:1020D000EF320008F9320008CD320008704770472F
:1020E00010B5401EB0F1807F01D3012010BD4FF02C
:1020F000E02460610F21601701F0B2FC0020A061B4
:1021000007202061002010BD7047704770B590F81F
:102110003C20012A26D0012480F83C40022280F88D
:102120003D2003685A689D6822F070060A683243B1
:102130005A600D4B02689A4208D0B2F1804F05D028
:102140000A4B9A4202D00A4B9A4204D1496825F0C0
:1021500080031943916080F83D40002180F83C10D5
:10216000084670BD022070BD002C014000040040F4
:102170000008004010B5040003D094F83D0010B1F1
:1021800007E0012010BD002084F83C00204600F04C
:102190001FF8022084F83D00211D206801F0C8FBD3
:1021A000012084F8460084F83E0084F83F0084F85B
:1021B000400084F8410084F8420084F8430084F829
:1021C000440084F8450084F83D00002010BD000064
:1021D00008B500680B49884212D10B48C16941F02B
:1021E0000201C161C069002200F0020000901146A6
:1021F0001D20FFF74DFBBDE808401D20FFF73ABB4F
:1022000008BD0000000400400010024090F83D109E
:10221000012901D001207047022180F83D1001689A
:10222000CA6842F00102CA6000680B49884208D0BF
:10223000B0F1804F05D00949884202D00849884250
:1022400004D1816801F00701062903D0016841F03B
:102250000101016000207047002C01400004004093
:102260000008004070B5044690F83C00012817D0E3
:10227000012584F83C50022084F83D0020688268E3
:1022800022F0770222F47F4282600868502830D022
:102290000DDC20284DD005DC98B310283BD148E058
:1022A000022070BD302844D0402834D139E0602865
:1022B00028D0702806D0B0F5805F2CD0B0F5005F34
:1022C00029D10AE0CB68D1E90121206801F066FB41
:1022D0002068816841F0770109E0CB68D1E90121EC
:1022E000206801F05BFB2068816841F480418160D7
:1022F00011E0CA684968206801F062FB502120683B
:1023000007E016E0CA684968206801F06AFB6021AE
:10231000206801F04DFB84F83D50002084F83C001B
:1023200070BDCA684968206801F04AFB40212068F6
:10233000EFE7226801461046EBE7704770B50446A8
:10234000006801694FF00005C943890715D4C168C9
:10235000C943890711D4E91E016101202077206853
:1023600080698007204602D0FFF7E7FF04E000F015
:1023700098F8204600F096F8257720680169C9434F
:10238000490717D4C168C943490713D46FF0040142
:102390000161022020772068806910F4407F204688
:1023A00002D0FFF7CAFF04E000F07BF8204600F0FF
:1023B00079F8257720680169C943090716D4C168EF
:1023C000C943090712D46FF0080101610420207786
:1023D0002068C0698007204602D0FFF7AEFF04E006
:1023E00000F05FF8204600F05DF82577206801696D
:1023F000C943C90617D4C168C943C90613D46FF0CD
:1024000010010161082020772068C06910F4407F26
:10241000204602D0FFF791FF04E000F042F820468A
:1024200000F040F8257720680169C943C90708D141
:10243000C168C943C90704D1891E0161204600F063
:1024400033F820680169C943090609D4C168C94342
:10245000090605D46FF0800101612046FFF754FEA4
:1024600020680169C943490609D4C168C9434906BE
:1024700005D46FF040010161204600F01FF820688C
:102480000169C94389060BD4C168C943890607D4C9
:102490006FF0200101612046BDE87040FFF735BEB6
:1024A00070BD7047704700000349884202D1012087
:1024B00000F0E6BC704700009C0100207047FEE77A
:1024C000002803D0002901D04161886170470000D5
:1024D0002DE9FC5F14468B46054603B31A4EA878D7
:1024E000C0071AD0194F29884FF0000838684FF0FC
:1024F0000109042915D0BA460122194600F0F2F963
:10250000CDE9004907465B46E2B21946DAF8000019
:10251000B0473844C0B2022812D0BDE8FC9F0C4E30
:10252000DDE70122194600F0DDF90028F5D0CDE9FC
:1025300000495B46E2B219463868B0470028ECD043
:1025400085F80280E9E7000099340008480000207F
:1025500071350008FEB500242048009401941E49FE
:1025600002940160891581600125057304750426B4
:1025700006614FF460214460C161FEF7A9FD08B116
:10258000FEF766FBCDE90045694614480294FEF764
:102590001DFD08B1FEF75CFB0224CDE9005469463D
:1025A0000E48FEF713FD08B1FEF752FB009403241A
:1025B00069460A480194FEF709FD08B1FEF748FB99
:1025C000CDE9004669460548FEF700FD002801D028
:1025D000FEF73EFBFEBD0000002401408C00002001
:1025E000094808B5416941F0010141614069002293
:1025F00000F00100009011460D20FFF749F9BDE8F9
:1026000008400D20FFF736B90010024070B586B0C3
:1026100000241C480094019402940394816941F0C1
:1026200020018161816901F020010491816941F0FB
:1026300004018161816901F004010491816941F023
:10264000080181618069104E00F008004FF4406578
:102650000490002229463046FFF7A8F80220CDE971
:10266000024000950125694601953046FEF7AEFF10
:1026700028038DE8310069463046FEF7A7FF06B013
:1026800070BD000000100240000C0140104810B561
:102690000E4901604FF48271416000218160C16088
:1026A0004FF400720161C0E905120822C0E9072158
:1026B000416281620A21C162FFF703FC002803D056
:1026C000BDE81040FEF7C4BA10BD00000030014064
:1026D0000001002010B586B0002417480094019432
:1026E00002940394049413490594016040F2CF21AD
:1026F000C0E901146321C0E903148461FFF73AFDC6
:1027000008B1FEF7A5FA4FF48050009069460A48D8
:10271000FFF7A8FD08B1FEF79BFA049404A9064848
:102720000594FFF7F3FC002801D0FEF791FA06B0FC
:1027300010BD0000000400409C010020FEB533499C
:10274000334800F0BBFB00240A230E22322131481B
:10275000009400F08BFD0125C5712E492E482031D3
:102760002E4B016045742B48002264210C3000F090
:102770006FFF102600962748CDE901542023182228
:102780003021203000F07EFF254FC76100962148A0
:10279000CDE90154002220231146483000F072FF99
:1027A000C7611C491F487031009002230A22A1F121
:1027B0002800FDF741FF1C490222A1F5DC70FEF75D
:1027C0006CFB1A49C1611848002202218472FDF78E
:1027D0001DFF10494831A1F12800FFF771FE009656
:1027E0001148CDE90154002220231146283000F081
:1027F00049FF0D49C7612831A1F5B470FFF760FEAC
:10280000BDE8FE400348483000F012B81400002034
:102810005C000020E401002048000020E5300008B2
:102820000F3B0008213B0008E4030020652E000850
:1028300000B5020007D0FEF77CFB03461046FEF70A
:1028400080FBC360186100BDFEE7704738B51348D0
:102850000178491C49B20170142901DD0021017081
:1028600090F90000002300901A464621184600F017
:10287000AFFA0B4C2068FEF75CFB4FF0FF3100F025
:102880002FFB084900892822488020681E210389DF
:1028900001B00448BDE8304000F028BC1000002022
:1028A00048000020E401002000233F22194601488F
:1028B000FFF70EBE1400002070B5050011D000F027
:1028C0005AF90446284600F062F901468C4208D0C5
:1028D000E0682288884202806288428001D0C06815
:1028E000F7E770BD2DE9F04714460D4607004FF09D
:1028F000010909D0384600F03EF90646384600F096
:1029000046F90246964202D10120BDE8F087F06800
:102910006FF01006B7106FF0010C4FF0FF387DB16B
:1029200001690B888988A4B3B0F900A00B44AAEB15
:10293000030109B2002972D048DAC1F1000346E070
:1029400001694B88C9885CB1B0F902A00B44AAEBBD
:1029500003010BB2002B62D005DAC3F1000103E0E2
:10296000194441805BE0194689B2112905D9002B31
:1029700001DA11231DE033461BE0002B01DA594236
:1029800000E0194689B2052906D9002B02DA052391
:102990000FE018E03B460CE0002B01DA594200E062
:1029A000194689B2022908D9002B01DA022300E076
:1029B00063460AEB030141802FE0002B01DA01237B
:1029C000F7E74346F5E71944018028E00B469BB240
:1029D000112B05D9002901DA11211CE031461AE03A
:1029E000002901DA4B4200E00B469BB2052B05D9CA
:1029F000002901DA05210EE039460CE0002901DA50
:102A00004B4200E00B469BB2022B0CD9002901DAA5
:102A1000022100E06146514401804FF000099042DC
:102A200007D0C0687BE7002901DA0121F3E74146BE
:102A3000F1E7484669E700002DE9F14F3C480025E1
:102A40000468002C71D02046016939B10289012A3D
:102A500004D0CA7A012A01D00846F5E78146200051
:102A60004FF0000601D1304609E0C16839B10A894A
:102A7000012A04D0C27A012A01D00846F5E780462F
:102A80000CB9344604E02089012801D02469FAE712
:102A9000201E01D1304606E0C16821B10A89012A11
:102AA00001D00846F8E7DFF888B007464FF0010A82
:102AB000ABF1240B206A28B34C4501D1012500E07D
:102AC00025B394F82410890624D40288009911446F
:102AD00089B20180206A4288914210D30680E08C3E
:102AE00040F00100E08408E00680E08C40F0010046
:102AF000E084E16909B1204688478BF806A0444587
:102B000000D10025BC4210D0E468D3E794F824102B
:102B10008906F4D502880099114489B20180206A9F
:102B200042889142E0D2EAE7FFE7BDE8F88F000073
:102B30004800002010B50648002101244174847427
:102B400000F0ECF9FFF7FAFD0248047010BD000038
:102B50004800002029000020002809D0002305E0BB
:102B600039B10069002803D05B1C9BB29342F7D3B4
:102B70007047C068F6E7002808D00189012905D010
:102B80000169CA7A012A01D00846F6E77047002891
:102B90000AD0C168002907D00A89012A04D0C27A64
:102BA000012A01D00846F4E77047000010B504463A
:102BB000FDF70EFB002803D00249CA682244CA6010
:102BC00010BD000024000020054A117910B1491CF5
:102BD000117170470029FCD101201071704700006D
:102BE000400000202DE9F041FEF70CF8FEF7B4F9A3
:102BF0002D4C0026A07918B1A6710020FFF7E4FF44
:102C0000DFF8A48008F11C0898F8040088B308F1E4
:102C10000805286868B300F00DFEFDF783FDFFF797
:102C200014FE286800F058FDFFF73EFE2868226970
:102C300072B1FEF77EF990F82410490608D501E03C
:102C400092682AB111688142FAD1506800B1804778
:102C50002B681846FFF78FFF05461846FFF797FFCA
:102C60000746E96909B128468847BD4202D0ED68A8
:102C7000F7E714E00C482430817C012904D10221BB
:102C80002171FDF76CFE2671FFF7E0FD00F0F8FE04
:102C9000267098F8040010B1401E88F80400BDE8C2
:102CA000F041FDF7C7BC000024000020F0B400286C
:102CB00015D00488458886880C44154424B22DB26A
:102CC0008E420CDDC088904209DD002907DB002A16
:102CD00005DB29462046F0BC1A4600F02BBFF0BCAD
:102CE000704700002DE9FF5FDFF8DC908B46A3F111
:102CF0002001D9F80C0092465F290778467800D366
:102D00002023203B009903F0FF0809B1002457E07D
:102D100006EB8601C1F39C020A21B2FBF1F301FB31
:102D2000132100294FEAD60100D0491CD9F80830F8
:102D300008FB07F202FB013104B053465A46BDE8D6
:102D4000F05FFEF787B8002536E000BF06EB86008F
:102D5000C0F39C010A20B1FBF0F200FB1210002826
:102D60004FEAD60000D0401C08FB07F14843E108B9
:102D700007FB0101D9F808002844085C04F00701AA
:102D8000C84010F0010F07D004EB0A0002B205EBB7
:102D90000B0001B201230AE00C480078012809D198
:102DA00004EB0A0002B205EB0B0001B2002300980D
:102DB000FFF77CFF6D1CEDB2BD42C7D3641CE4B2CB
:102DC000B442C0D3BDE8FF9F680000202800002067
:102DD0002DE9F05F83460A9E1C00924688464FF01C
:102DE000000730464FF00A0907D140B14946B0FB11
:102DF000F1F0641CE4B20028F9D100252CE0012494
:102E00000025601B401E0A22C1B2012000E0504391
:102E1000491EC9B2FBD2B6FBF0F1B1FBF9F209FBD6
:102E200012100F4927B9621E954201DA40B10127FD
:102E30003030C3B2C868017801FB058001B205E0FB
:102E4000C8682023017801FB058001B2524658462C
:102E5000FFF748FF6D1CEDB2A542D2D3BDE8F09F4D
:102E60006800002010B50446022100F0CCFD0028C7
:102E700004D02046BDE81040FFF71EBD10BD000085
:102E800010B5044606484079002807D02046FFF7D1
:102E9000D3FD2046BDE81040FEF774B810BD000019
:102EA00024000020002808D08278D30703D10180B5
:102EB00042F0010282704068F4E7704702680AB984
:102EC000016004E0506808B10246FBE75160002051
:102ED00008808870486008467047FEF755FEFEE798
:102EE000F0B50446002901DA4A4200E00A4696B2EB
:102EF00000280AD00025CF0F0DE001223946FFF748
:102F00002BFE08B1A04201D12046F0BD817A0129F3
:102F100001D16D1CADB2B542EFD3F0BD70B5012249
:102F2000564D940221462846FEF740FC6420FEF7E9
:102F30003BFB002221462846FEF738FC6420FEF7C2
:102F400033FB012221462846FEF730FC0021AE204B
:102F500000F0ACF80021084600F0A8F8002110208D
:102F600000F0A4F80021402000F0A0F8002181200A
:102F700000F09CF80021CF2000F098F80021A1205B
:102F800000F094F80021C82000F090F80021A6205D
:102F900000F08CF80021A82000F088F800213F20E4
:102FA00000F084F80021D32000F080F800210846CA
:102FB00000F07CF80021D52000F078F80021802076
:102FC00000F074F80021D92000F070F80021F12001
:102FD00000F06CF80021DA2000F068F800211220DF
:102FE00000F064F80021DB2000F060F800214020B0
:102FF00000F05CF80021202000F058F8002108467D
:1030000000F054F800218D2000F050F80021142029
:1030100000F04CF80021A42000F048F80021A62080
:1030200000F044F80021AF2000F040F80021AF206C
:1030300000F03CF85FF0000404F1B000C0B20021E1
:1030400000F034F80021084600F030F8002110208C
:1030500000F02CF800250121002000F027F86D1C5D
:10306000EDB2802DF7D3641CE4B2082CE4D3BDE8A4
:1030700070400021084600F003B80000000C014039
:1030800010B50446B031C8B2002100F00FF810208E
:1030900040EA1410002100F009F804F00F00BDE828
:1030A000104040F001000021AFF3008073B50B4DDC
:1030B0004FF4006409B1012200E0002221462846B5
:1030C000FEF774FB012269460548FEF79BFF0122CB
:1030D00021462846FEF76AFB7CBD0000000C01403B
:1030E000000100200020FFF76FBD70472DE9F84F69
:1030F0000446408892468B46984200D20346A27905
:1031000094F8078094F808C05142B8F1000F4FEAD4
:10311000CC7C1CD0BCF1000F29D094F805C000BFB6
:103120000CEB4101594391FBF0F0218800EB420088
:10313000401A00B25FEA00083CD000F0E1FC092828
:103140001BD92188B8F1000F14DD092030E0BCF153
:10315000000F09D094F805C00CEB41015943B1FBB5
:10316000F0F000EB420024E094F804C0F4E794F897
:1031700004C0D5E76FF008001AE0404600F0C0FC3C
:10318000052808D92188B8F1000F01DD05200FE0DE
:103190006FF004000CE0404600F0B2FC21880328E8
:1031A00019D9B8F1000F01DD032001E06FF0020032
:1031B000084420802088A179B0EB410F01D248005B
:1031C0002080227A284872B1012A15D0022A1FD005
:1031D000032A36D128E0B8F1000F01DD0120E7E72E
:1031E0004FF0FF30E4E7B4F8009065790BEB09028B
:1031F0005F465646028014E094F8049025880BEB55
:10320000590202805F4656460AEB0502428018E0EA
:10321000237922885B449B1A1FB2657956469146F2
:10322000078006EB5502F1E76379258803EB0A0274
:10323000521B94F8049016B20BEB590202805F46C1
:1032400046800091EBB209F0FF0231463846FDF7A7
:10325000A8FCA07900906379227951465846FDF781
:1032600058FC0148BDE8F88F2000002030B500244C
:10327000039D0480438001714271914200D3114645
:1032800049088171C47105F00301017230BD00006D
:10329000CA1701EB527210B5D310002806DB0029C3
:1032A00004DB04467F2801DA402901DB002010BD41
:1032B00004EBC310044B22F00702891A185CC840C3
:1032C00000F0010010BD00003404002010B5406A79
:1032D00001684A6822F003024A60416D41F0100122
:1032E0004165012180F85110FEF7EAFD10BD10B5CF
:1032F000406AFEF7F4FE10BD38B50546446AFEF795
:103300005BFA024628680068800623D4206841687A
:1033100021F0200141602068416821F002014160F4
:103320006421204600F01AF818B1606D40F02000CA
:103330006065A068002118B92068C26880680090A4
:10334000E186012084F85100606D18B12046FEF737
:10335000B7FD38BD2046FEF7C1FE38BD38B50B4677
:10336000009204460022802100F008F8002804D0D2
:10337000606D40F020006065032038BD2DE9F84302
:103380001E46914688460446089DFEF715FA401BE6
:10339000351AFEF711FA074625480068C0F3CB300E
:1033A000684338E0701C37D0FEF706FAC01BA8420D
:1033B00003D215B1009860B32CE02068416821F079
:1033C000E00141606068B0F5827F0BD1A068B0F584
:1033D000004F02D0B0F5806F04D12068016821F061
:1033E00040010160A06AB0F5005F09D12068016862
:1033F00021F4005101602068016841F4005101602E
:10340000012084F85100002084F850000320BDE81A
:10341000F8830025401E00902068816838EA01008A
:1034200004D000214945BDD10020F0E70121F9E792
:103430000C00002070470000F0B5154840F65C52C3
:1034400014490468944201D903201CE0A4F2B9672E
:103450004FF4C77500234FF4D276AF4201D8CB7139
:1034600003E0B44201D204200DE04068904201D94B
:10347000022008E0A0F2B962AA4201D8CB7104E0B0
:10348000B04202D20120C871F0BDC879F0BD000081
:103490007C000020240000202DE9F84F1C46DDE9C7
:1034A0000A579046894682460126FDF742FD818CE7
:1034B000CA0509D441F480718184002342464946FB
:1034C00050460097FDF7E3F8A14500DDA1464046D0
:1034D000454500DD0546BAF9001000220120A14251
:1034E0001BDA2FB1611A112905DD112300900DE0BF
:1034F000601A009224E0092902DD0923009005E00A
:103500000329009001DD032300E0012342464946E0
:103510005046FDF7BCF8002618E0BAF80430CC1885
:10352000A4F1010CAC4511DD37B1611B112910DD8F
:103530006FF010030090E9E7681AC01A401C00926F
:1035400003B2424649465046FDF7A1F83046BDE871
:10355000F88F092903DD6FF008030090D6E70329EF
:10356000009002DD6FF00203D0E74FF0FF33CDE7AC
:103570002DE9F84F1C46DDE90A5891468A460700B6
:103580004FF0010625D0FDF7D4FC818C0A060AD441
:1035900041F08001818400234A4651463846CDF8E7
:1035A0000080FDF799F8A24500DDA24648464D454A
:1035B00000DD0546B7F9021000220120A14220DA01
:1035C000B8F1000F08D0611A112908DD112300900D
:1035D00010E00120BDE8F88F601A009225E009296B
:1035E00002DD0923009005E00329009001DD03239B
:1035F00000E001234A4651463846FDF76DF80026A3
:1036000024E0FB88CC18A4F1010CAC451EDDB8F118
:10361000000F06D0611B112909DD6FF01003009027
:10362000E8E7681AC01A401C009203B2E2E70929D1
:1036300003DD6FF008030090DCE70329009002DD52
:103640006FF00203D6E74FF0FF33D3E73046C1E710
:1036500030B5002812D00A4D6C6814B9686004E0D7
:103660002C46A568002DFBD1A060002401258460B4
:1036700085744474C0E900410274C36030BD000029
:10368000600000202DE9F0430F46DDE90891DDF8E8
:103690001C801646041E1DD0002541B10846FDF7CA
:1036A00050FCC46020610089401C208102E00120A0
:1036B0002081256127806680A380A4F8068084F895
:1036C0000A90E572E5606561A561E561A584E58420
:1036D00020462562BDE8F0832DE9F84FDFF85081E0
:1036E0000346D8F81400FDF72CFC8346D8F81800E0
:1036F000FFF74DFA82461846FDF71BFC8146184637
:10370000FDF71FFC00901846FFF735FA05461846EE
:10371000FFF73DFA0746D8F81400002658B9484686
:10372000C8F81490FDF70DFC83462846C8F81850D9
:10373000FFF72DFA8246D8F814404C454CD000BF14
:1037400094F82400400706D5E08C40F00400E084A3
:10375000E16920468847D8F81800844201D1012643
:1037600000E056B194F82400C00606D5E08C40F085
:103770001000E084E16920468847544500D10026C6
:103780005C4501D0E468DBE74FEA090494F82400C3
:10379000800706D5E08C40F00200E084E169204615
:1037A0008847AC4201D1012600E056B194F82400CC
:1037B000000706D5E08C40F00800E084E16920466F
:1037C0008847BC4200D100260098844201D0E468BA
:1037D000DCE7C8F8149022E0D8F81840AC4224D0B6
:1037E00094F82400C00606D5E08C40F01000E08478
:1037F000E16920468847544501D0E468F0E72C464B
:1038000094F82400000706D5E08C40F00800E0841E
:10381000E16920468847BC4201D0E468F0E7C8F877
:103820001850BDE8F84FFCF77DBFBDE8F88F0000E9
:103830002400002070B5194AD078157800282BD0C4
:1038400002F12404294620686060012D07D0022976
:1038500008D00023032909D0042912D108E04FF031
:10386000FF3100E00121FFF73BFB09E0406902E086
:10387000FDF75FFB806920B1817A012901D11370C6
:103880002060D4E90001814206D00548294600683D
:10389000BDE87040FFF706BB70BD000024000020AB
:1038A0005C000020FDF78EBF30B593B0282168463C
:1038B000FCF7BDFC14210AA8FCF7B9FC0025012087
:1038C0000F9510951195010412958DE82300049031
:1038D0004FF4E010CDE90810022407946846FEF783
:1038E0005FF908B172B6FEE70AA90F2081E831003E
:1038F0004FF48060CDE90D0502210AA8FEF772F8A9
:1039000008B172B6FEE74FF4004011900F940FA873
:10391000FDF7F0FF08B172B6FEE7FEF7F9F813B055
:1039200030BD70470148FEF709BD00009C01002032
:10393000F0B50268164B174C174D4FF08047984270
:1039400005D0B84203D0A04201D0A84203D122F052
:1039500070064A683243984205D0B84203D0A0426C
:1039600001D0A84203D122F44074CA6822434C69B2
:1039700022F08002224302608A68C2620A68826280
:10398000984201D10969016301214161F0BD000044
:10399000002C0140000400400008004010B584687D
:1039A00042EA032224F47F440A432243826010BD8A
:1039B000826822F070020A4342F00701816070477A
:1039C00010B5036A046A24F001040462846924F0D7
:1039D000F00444EA021423F00A020A4384610262FA
:1039E00010BD10B5036A23F0100303628369046AF3
:1039F00023F4704343EA023224F0A00343EA0111A6
:103A00008261016210BD10B50022002806D0C38C6F
:103A10000B4202D001228B43C384104610BDFEE747
:103A200010B57F2818DA402916DA002814DB00299F
:103A300012DBCB1701EB5374E31024F0070400EB07
:103A4000C3100C1B054B0121A140002A1A5C01D0B8
:103A50000A4300E08A431A5410BD000034040020D9
:103A60000907090E002804DB00F1E02080F80014AB
:103A7000704700F00F0000F1E02080F8141D70473F
:103A800010B500210846FFF7FBFA0122D1020748D2
:103A9000FDF78CFE06484FF6FF714088BDE81040E8
:103AA00001EAC01203490448FEF7ACBA000C014019
:103AB000400000203404002000010020FDF78AFEB1
:103AC000FFF7F2FEFEF7A2FDFEF78AFDFEF742FDCC
:103AD000FEF7DCFDFEF7FEFD042206490648FDF771
:103AE000CDFB0648FEF792FBFFF724F8FFF77AF8C4
:103AF000FCE700007C0000208C0000209C010020DE
:103B0000002800DA404280B27047FFF7C1BB08B519
:103B10000189002300911A461946FFF759F908BD9B
:103B200008B50189002300911A461946FFF750F99C
:103B300008BD000030B5054609480C46007838B18C
:103B4000022805D12846FFF7E0FF30B100222146C8
:103B50002846BDE83040FFF763BF0122F7E70000C9
:103B60002800002000000000000000000102030403
:103B7000060708090810000000000000000000000F
:103B8000000000000000000000F80000000000003D
:103B900000333000000000100C06100C060000007E
:103BA00000000000000040C07840C0784000043FA2
:103BB00004043F040400007088FC08300000001872
:103BC00020FF211E0000F008F000E0180000002196
:103BD0001C031E211E0000F00888700000001E213A
:103BE00023241927211010160E00000000000000E9
:103BF000000000000000000000E0180402000000C7
:103C000000071820400000020418E00000000040F7
:103C1000201807000000404080F080404000020271
:103C2000010F01020200000000F00000000001018D
:103C3000011F01010100000000000000000080B031
:103C40007000000000000000000000000000000103
:103C5000010101010101000000000000000000302E
:103C600030000000000000000000806018040060C8
:103C700018060100000000E010080810E000000F26
:103C8000102020100F00001010F80000000000208D
:103C9000203F2020000000700808088870000030D5
:103CA000282422213000003008888848300000187D
:103CB000202020110E000000C02010F80000000796
:103CC0000424243F240000F808888808080000190C
:103CD000212020110E0000E0108888180000000F3D
:103CE000112020110E0000380808C8380800000014
:103CF000003F000000000070880808887000001C69
:103D0000222121221C0000E010080810E000000021
:103D1000312222110F00000000C0C000000000008E
:103D200000303000000000000080000000000000B3
:103D300080600000000000008040201008000001AA
:103D4000020408102000404040404040400004046D
:103D50000404040404000008102040800000002037
:103D6000100804020100007048080808F000000074
:103D7000003036010000C030C828E810E000071805
:103D8000272423140B000000C038E0000000203C72
:103D900023020227382008F8888888700000203F16
:103DA000202020110E00C03008080808380007182D
:103DB00020202010080008F808080810E000203F24
:103DC000202020100F0008F88888E8081000203F05
:103DD00020202320180008F88888E8081000203FD9
:103DE000200003000000C030080808380000071851
:103DF0002020221E020008F808000008F808203FD2
:103E0000210101213F20000808F8080800000020D7
:103E1000203F2020000000000808F8080800C080AB
:103E200080807F00000008F888C028180800203F24
:103E300020012638200008F8080000000000203F7C
:103E400020202020300008F8F800F8F80800203F73
:103E5000003F003F200008F830C00008F808203F6D
:103E6000200007183F00E01008080810E0000F10BD
:103E7000202020100F0008F808080808F000203F54
:103E8000210101010000E01008080810E0000F18EF
:103E9000242438504F0008F8888888887000203F14
:103EA0002000030C30200070880808083800003813
:103EB000202121221C00180808F80808180000001A
:103EC000203F2000000008F808000008F808001F44
:103ED000202020201F000878880000C83808000033
:103EE00007380E010000F80800F80008F800033C4D
:103EF0000700073C03000818688080681808203015
:103F00002C03032C30200838C800C83808000000F3
:103F1000203F2000000010080808C838080020389A
:103F2000262120201800000000FE020202000000EE
:103F3000007F40404000000C30C000000000000046
:103F400000010638C00000020202FE00000000402E
:103F500040407F0000000000040202020400000054
:103F60000000000000000000000000000000808051
:103F70008080808080800002020400000000000039
:103F80000000000000000000808080800000001918
:103F9000242222223F2008F8008080000000003FF9
:103FA000112020110E000000008080800000000E13
:103FB000112020201100000000808088F800000EF1
:103FC000112020103F200000808080800000001F12
:103FD000222222221300008080F088888818002086
:103FE000203F202000000000808080808000006B47
:103FF00094949493600008F8008080800000203F33
:10400000210000203F200080989800000000002040
:10401000203F20200000000000809898000000C091
:104020008080807F000008F8000080808000203FB2
:1040300024022D302000000808F8000000000020B5
:10404000203F202000008080808080808000203FF2
:1040500020003F20003F8080008080800000203FC3
:10406000210000203F200000808080800000001F91
:10407000202020201F00808000808000000080FF22
:10408000A12020110E000000008080808000000E22
:10409000112020A0FF808080800080808000202070
:1040A0003F212000010000008080808080000033DC
:1040B000242424241900008080E080800000000077
:1040C000001F202000008080000000808000001F72
:1040D000202020103F208080800000808080000110
:1040E0000E300806010080800080008080800F3044
:1040F0000C030C300F0000808000808080000020C6
:10410000312E0E31200080808000008080808081F0
:104110008E70180601000080808080808000002161
:10412000302C2221300000000000807C02020000C0
:104130000000003F404000000000FF0000000000C1
:104140000000FF0000000002027C80000000004030
:10415000403F0000000000060101020204040000CC
:10416000000000000000000088410008000000205E
:104170007C00000028010008044200087C000020A8
:104180001C0E0000440100080100000010000000A7
:10419000000000000024F400000000000000000007
:1041A000000000000000000000000000000001010D
:1041B00000000000000000000000000000000000FF
:1041C0000000000000000000800008000100000066
:1041D0000000000000000000FCFFFCFF04000400E1
:1041E00003000000000000000000000000000000CC
:1041F0000000000000000000763B0008743B00084F
:0442000000000000BA
:04000005080000ED02
:00000001FF
